:1000000000800020BD0100009D1600005516000074
:100010005516000055160000551600005516000034
:100020005516000055160000551600009D160000DC
:100030009D16000055160000F9270000FD2800005D
:100040009D1600009D1600009D1600009D160000E4
:100050009D1600009D1600009D1600009D160000D4
:100060009D1600009D1600009D1600009D160000C4
:100070009D1600009D1600009D1600009D160000B4
:100080009D1600009D1600009D1600009D160000A4
:100090009D1600009D1600009D1600009D16000094
:1000A0009D1600009D1600009D1600009D16000084
:1000B0009D1600009D1600009D1600009D16000074
:1000C0009D1600009D1600009D1600009D16000064
:1000D0009D1600009D1600009D1600009D16000054
:1000E0009D1600009D1600009D1600009D16000044
:1000F0009D160000993600009D160000C5370000CF
:100100009D160000F13800009D1600009D160000AD
:100110009D1600009D1600009D1600009D16000013
:100120009D1600009D1600009D1600009D16000003
:100130009D1600009D1600009D1600009D160000F3
:100140009D1600009D1600009D1600009D160000E3
:100150009D1600009D1600009D1600009D160000D3
:100160009D160000C51A00009D1600009D16000097
:100170009D1600009D1600009D1600009D160000B3
:100180009D1600009D1600009D1600009D160000A3
:100190009D1600009D1600009D1600009D16000093
:1001A0009D1600009D1600009D1600009D16000083
:1001B0009D1600009D1600009D160000564B4CF247
:1001C000205210B51A804DF628121A8000BF00BFC9
:1001D00001F068FA514B4FF010621A60504A9A6071
:1001E000504ADA60504A136813F4807304D14F49BF
:1001F0000B604FF4A85313604D4B1A78110703D5C9
:100200001A7842F008021A704A4B4B492A221A7097
:100210004A4A4B4B8B4204D252F8040F43F8040B6A
:10022000F8E7484B484900228B4202D243F8042B9E
:10023000FAE74649464A002352F8230041F82300D2
:1002400001336F2BF8D1434B434A802103F8011B44
:100250009342FBD1414B3D4A1A60414B8A221A70AE
:10026000A3F5805324225A70A0221A709A7992071B
:10027000FCD59A79D406FCD43A4A937903F00C035E
:10028000082B384BF9D103221A7140225A719A79FE
:100290009006FCD5334A9179324B4906FBD5324A58
:1002A000324911600221516020221A709A7902F0BD
:1002B0000C020C2AFAD12E4B2E4A1A602E4B2F4AD2
:1002C0001A6000225A60072243F8042C2C4AC3F813
:1002D0000C2D62B601F0CEFA144B1B68DA0705D577
:1002E000284801F05BFA284B284A1A60284B1B78F3
:1002F0005B0609D5244C254B22689A4204D121483B
:1003000001F04CFA0023236004F0AEFB01F0D0F9B9
:1003100002F0FCFAFEE700BF0E20054030800440EA
:10032000823F04000100002B10D0034014D0034092
:1003300002D0074000E007401092FF1F0097000026
:100340002087FF1F1092FF1F8896FF1F0082FF1F4C
:100350000000000000E400E05FE400E008ED00E0E1
:100360000050064000400640448004400000030165
:1003700004800440C010050014E000E0FF76010096
:1003800000002020627778001CE00340A5C3945A47
:1003900000F00740FFFFFFFFFFFFFFFFFFFFFFFF32
:1003A000FFFFFFFFFFFFFFFFFFFFFFFFFFFFFFFF5D
:1003B000FFFFFFFFFFFFFFFFFFFFFFFFFFFFFFFF4D
:1003C000FFFFFFFFFFFFFFFFFFFFFFFFFFFFFFFF3D
:1003D000FFFFFFFFFFFFFFFFFFFFFFFFFFFFFFFF2D
:1003E000FFFFFFFFFFFFFFFFFFFFFFFFFFFFFFFF1D
:1003F000FFFFFFFFFFFFFFFFFFFFFFFFFFFFFFFF0D
:10040000FFFFFFFFFFFFFFFFFFFFFFFFDEF9FFFF23
:1004100010B5054C237833B9044B13B10448AFF33E
:1004200000800123237010BD1092FF1F0000000008
:1004300004970000084B10B51BB108490848AFF3FA
:1004400000800848036803B910BD074B002BFBD0A0
:10045000BDE81040184700BF000000001492FF1FC5
:10046000049700001092FF1F0000000010B5044622
:1004700002F0FCFB204610BD10B50446203002F00F
:10048000F5FB04F1100002F0F1FB204602F0EEFB58
:10049000204610BD10B50446044800F02FFB022290
:1004A0000146204602F068FC204610BD8492FF1FE2
:1004B00010B5044B04461968022202F05DFC204688
:1004C00010BD00BFB492FF1F30B5044689B0084686
:1004D00002F094FD114D002319460246284600F013
:1004E00029FC0F4904A802F001FC284600F006FB95
:1004F00002220146684602F03FFC694604A802F069
:10050000A5FC0146204602F005FC684602F0AEFB61
:1005100004A802F0ABFB204609B030BD8492FF1F57
:10052000C88F000010B504460B4800F0F1FA68B11E
:10053000012805D00949204602F0D8FB204610BD0D
:100540000749204602F0E6FB204610BD054920463B
:1005500002F0E0FB204610BD8492FF1FD08F000008
:100560006492FF1FD892FF1F30B589B00D46044634
:100570000021684602F0BAFB28461B4902F096FCAF
:10058000E0B11949684602F011FC0021174800F05B
:1005900003FC04A8164902F0A9FB694604A802F06E
:1005A00055FC0146204602F0B5FB04A802F05EFBB4
:1005B000684602F05BFB204609B030BD28460D4975
:1005C00002F074FC28B10B49684602F0EFFB0121F0
:1005D000DCE70949204602F089FB684602F046FB49
:1005E000204609B030BD00BFD892FF1F8492FF1F84
:1005F000C88F00006492FF1FEC8F0000F0B52F4DF4
:100600002F4E8E4607460FCD34460FC495E80F0097
:1006100085B084E80F0072463046042100F058FC93
:1006200030B90621274801F081FF274802F09EF9E2
:10063000264B274A1B6803930399264B116001221E
:1006400030681A7003F06CFB022402460B460094DB
:100650001D48214D02F0E4F91B4802F087F9B0680B
:1006600003F05EFB009402460B46174802F0D8F9EF
:10067000154802F07BF93169134802F0C7F91248B6
:1006800002F074F9B169104802F0C0F90E4802F0A6
:100690006DF93168B06803F0BBFE0446306903F0C1
:1006A0006DFF0146204604F071F80C492860384679
:1006B00002F01CFB384605B0F0BD00BFA88F00005B
:1006C000B492FF1F04900000AC87FF1F9093FF1FA0
:1006D000D492FF1F2C92FF1F2C93FF1F3C91000010
:1006E00070B5334C86B040F6B831204600F0BCFE01
:1006F000204630494FF4E13200F090FE20460121BF
:1007000000F066FE60B1606C2B49036811225B68E3
:10071000984720460A2100F0CDFD204600F07CFEDF
:100720000122264E2248264D264C002100F064FF6F
:10073000254800F067FA3146684602F0EBFA326964
:100740007369224804926946059300F01BFC6846D1
:1007500002F08CFA2946684602F0DCFA2A696B69D5
:100760001A4804926946059300F00CFC684602F0B2
:100770007DFA2146684602F0CDFA22696369134882
:1007800004926946059300F0FDFB684602F06EFA9C
:10079000002319460E4A0C4800F0CCFA00210A4802
:1007A00000F048FA0021084800F0F6FA06B070BDE3
:1007B0004493FF1FAC87FF1F0C9000003C87FF1F76
:1007C0005487FF1F2487FF1F8492FF1FE892FF1F9B
:1007D00000007A4470B5384C84B023680093009BC5
:1007E00023B923680193019B012B20D9334D344E4B
:1007F000284600F071FD3268324990420346086095
:1008000036D39A1AF92A12D94FF4FA71284633606E
:1008100000F06CFD0121284600F0DAFD002831D1FE
:100820002648022100F046FD244800F0C7FD264D71
:10083000264800F0C1FB2B78C3B12268244B254C1D
:1008400003921868039A2369101A1B1A002B23615C
:1008500010DB03F08FFE204B196803F0E3FE024625
:100860002060002319461D4800F064FA04B070BDF2
:100870003360DCE7A06803F081FE002302462060BD
:100880002B70EEE72846012100F042FD686C144908
:10089000036801225B689847236802930299686C99
:1008A00000230A2202F072F8284600F077FD28465D
:1008B00000F0B2FDB4E700BF9093FF1F4493FF1F09
:1008C0006092FF1F3093FF1F2C92FF1FE892FF1FC3
:1008D000D492FF1FB492FF1F2C93FF1F8492FF1F1F
:1008E000209000002DE9F04784B04FF0FF333C4EDC
:1008F0000293019300933B4C3B493C48DFF8208135
:100900003B4D3C4FDFF81CA1DFF81C910A2200F0A0
:1009100093F83046052100F071FA224630463649F8
:10092000364E04F07BF84046354902F0DFF92246A6
:100930002946404604F072F838463249DFF8EC8028
:1009400002F0D4F922462946384604F067F83946C1
:10095000504602F0DFF922463146504604F05EF878
:1009600040462949294FDFF8C8A002F0BFF92246C6
:100970002946404604F052F84846254902F0B6F9A7
:1009800022462946484604F049F838462149DFF80E
:10099000A49002F0ABF922462946384604F03EF80E
:1009A0001D4F4146504602F0B5F9224631465046A9
:1009B00004F034F83846194902F098F922462946DD
:1009C000384604F02BF83946484602F0A3F922468F
:1009D0003146484604B0BDE8F04704F01FB800BFF8
:1009E000E892FF1F2087FF1F001B374C8492FF1FD8
:1009F0006D2C00007492FF1F790400006D0400004C
:100A0000249000002C900000349000006492FF1F9E
:100A10003C900000449000003092FF1F5090000076
:100A20005092FF1F5487FF1FD892FF1F4092FF1F55
:100A30003C87FF1F2487FF1F2DE9F04704464FF036
:100A4000FF3600252C4F41610846E7626660A660CC
:100A5000E66026614FF04651A583256265622585D3
:100A600017469A4603F0DEFD089EA0610121F8B208
:100A70002760DDF82490DDF8288000F0A7FE2078BC
:100A8000012100F09DFE731C666007D0F0B20121C9
:100A900000F09CFE2946207900F092FEBAF1FF3F5B
:100AA000C4F808A008D05FFA8AF0012100F08EFE99
:100AB0000021207A00F084FEB9F1FF3FC4F80C90C9
:100AC00008D05FFA89F0012100F080FE0021207B30
:100AD00000F076FEB8F1FF3FC4F8108008D05FFA4E
:100AE00088F0012100F072FE0021207C00F068FEF9
:100AF0002046BDE8F08700BF0320033C10B5044644
:100B0000406A03F037FDA16903F08CFD10BD00BF02
:100B1000808BC0F340007047F8B5314CC26AE37A6D
:100B200006460D46BBB172B6E37AD807194606D51C
:100B30002C48E16807683940A161016019469B07AC
:100B400006D5294823690768E17A3B40E3610360E1
:100B50004F073DD462B62368D968914207D0234835
:100B600018602349DA6042F0804018611960002162
:100B7000307800F025FE23684FF000412A0AD96240
:100B80005A63DA6A002AFCDAEDB24FF00042996B40
:100B9000DA625D63DA6A002AFCDA012130789B6B45
:100BA00000F00EFEE37A0E491A4683B1D80703D54A
:100BB000104A896911601A46990703D50E4BE169FD
:100BC000E27A1960530702D50C4B226A1A60F8BD0D
:100BD0000B4963690868034023620B60BAE700BFF2
:100BE0006C87FF1F80E100E084E100E001401F000E
:100BF00000001F8000E100E004E100E008E100E007
:100C000088E100E010B50446094800F00FFBA18B15
:100C10002046FFF781FF20464FF44041FFF77CFF5D
:100C200020464FF46041BDE81040FFF775BF00BF9C
:100C30006C87FF1F4268036AB2F1FF3F0CBF0023BD
:100C400003F0010310B40C462BB1D0B299B10121CD
:100C500010BC00F0B5BD818B34B921F4006189B2BC
:100C6000818310BCFFF758BF41F4006189B28183D2
:100C700010BCFFF751BF10BC00F0A2BDC268036AF0
:100C8000B2F1FF3F0CBF002303F0010310B40C4688
:100C90002BB1D0B299B1012110BC00F091BD818B74
:100CA00034B921F4807189B2818310BCFFF734BF5D
:100CB00041F4807189B2818310BCFFF72DBF10BC55
:100CC00000F07EBD0269036AB2F1FF3F0CBF002352
:100CD00003F0010310B40C462BB1D0B299B101213D
:100CE00010BC00F06DBD818B34B901F0800189B278
:100CF000818310BCFFF710BF41F0800189B281836E
:100D000010BCFFF709BF10BC00F05ABD10B5044677
:100D10000021FFF7D7FFA18B21F0400189B2A18309
:100D20002046FFF7F9FE20460021BDE81040FFF7FE
:100D3000A5BF00BF70B504460E461046A1691D460A
:100D400003F024FD03F04AFEA18B20F0704043190C
:100D5000012E41F40051C3F30D060CBF46F40046CA
:100D600046F4804663622046C3F38D3389B20CBFDC
:100D700043F4004543F48045FFF7CEFE314620465C
:100D8000FFF7CAFE29462046FFF7C6FE2046A18B84
:100D9000FFF7C2FE606A70BD38B504460D46FFF726
:100DA000B5FFA18B55B1012D03D141F0020189B2EC
:100DB000A1832046BDE83840FFF7AEBE21F0020116
:100DC00089B2A1832046BDE83840FFF7A5BE00BF29
:100DD00038B5074D07490446284601F0A1FD2846CD
:100DE00001F0C4FD2046044901F080FF204638BDD3
:100DF000AC87FF1F3493FF1F3C9100002DE9F041A9
:100E00000D4686B000F110082C49064601F06EFF31
:100E10002B49404601F06AFF2A4906F1200001F003
:100E200065FFB5F1AA6F98BF05EB45004FF00503CC
:100E30004FF000014FF4E13298BFC00033643563D6
:100E40007163F26394BF08304FF0FF3001F066FD2C
:100E5000182380E8280000F108076C1E4DB13D46BC
:100E60002846013C002101F041FF631C05F11805F3
:100E7000F6D10023144AB7634146684601930093B4
:100E8000029303930492059201F044FFB46B694608
:100E9000204601F08BFF736B059A049921610133A1
:100EA0006261316C7363094801F0B2FE684601F07B
:100EB000DDFE304606B0BDE8F08100BF589000006E
:100EC000689000006C900000D10D0000AC87FF1FFF
:100ED0002DE9F04385B08146164668460A228846C9
:100EE00001F036FF6946264801F01AFD244801F05A
:100EF0003DFD684601F0BAFEB8F1000F3BDD4F46FC
:100F0000002512E0012B03D102F072F849F83500F8
:100F10000021621C304602F021F80135684601F0DC
:100F2000A5FEA84507F1080725D02C21304601F081
:100F3000E1FF421C04460ED023466846002231469B
:100F400001F0E8FF3B796846002BDBD102F056F850
:100F500049F83500DCE73B21304601F0CBFF431C6C
:100F60000446E9D109EBC5056879B0FA80F040097B
:100F700005B0BDE8F083012005B0BDE8F08300BFF7
:100F8000AC87FF1F70B5436B046BA34201D30020F5
:100F900070BD866B03EB430306EBC3060446304685
:100FA0000D4601F003FF636B29696A6972610133C1
:100FB00031610120636370BDF0B58DB078223B498B
:100FC0000646684601F026FE68463B2101F092FF86
:100FD000421C64D007463B460022694604A801F043
:100FE00099FF736B002B46D00024254604E0736BF9
:100FF000AB4204F118043ED9B16B04A8214401F0BE
:1010000055FF01350028F2D0B36B234400219A68C4
:1010100004A801F0A3FF04A801F0BCFF3F2104A82D
:1010200001F068FFB36B1C44013014BF636923698E
:1010300004A908A8984708A91C4801F071FC1B489E
:1010400001F094FC08A801F011FE7A1C002168460A
:1010500001F084FF3B21684601F04CFF074604A8DD
:1010600001F004FE7B1CB6D1684601F0FFFD0124AF
:1010700020460DB0F0BD06F1200108A801F04AFE9F
:101080000B4908A801F0EAFE0146084801F048FCB7
:10109000064801F06BFC08A801F0E8FDD5E76846BA
:1010A00001F0E4FD002420460DB0F0BDAC87FF1F29
:1010B0007490000010B5064C0649204601F016FE5B
:1010C0002046054A0549BDE8104003F0A7BC00BF13
:1010D0003493FF1F8C9000002087FF1F6D2C0000B1
:1010E00010B4047F4160022CC26002D010BC01F039
:1010F00021BB836810BC1847F0B4464B464A186BB6
:10110000DC6A01791170454922790A709A6A00797E
:101110000870002A46D05968C9688A423ED82168BA
:10112000CC8B240402F1FF3065D4C0F30E00C883D9
:10113000C88B80B2C882196B0968C88B000452D46E
:10114000C2F30E00C883C88B002480B212F1FF32B4
:10115000C88218BF01229C62D96A2E4809680D68AE
:1011600000F12404A54236D00068C46814F0804F12
:101170000C680D6815BF248824780235013544F0C9
:1011800000440D604463196B254B0979197021499E
:1011900012B1CA6A12791A70F0BC7047521A9A6278
:1011A0000122D9E7586B196805681E4C0A63CC62A6
:1011B000CC682D681C4E24F080440327B542CC60D7
:1011C00083F825701FD1037F4260022BC2601ED0BE
:1011D000F0BC01F0AFBA016890F82400CC6840F090
:1011E00000404863CFE7CC8BC2F3080004F47E4490
:1011F0002043C883A7E7CC8BC0F3080004F47E44E7
:101200002043C88394E72B461146F0BC18478368F7
:10121000F0BC18476C87FF1F1F8000401C800040F7
:101220001B80004000000FFFE110000090E80C0060
:10123000F0B41C6859682568164F174E2943216081
:10124000164D17491760D66015611160417A154A2D
:101250005C180A3194F8244053F8215002EBC40181
:1012600049680D60017A5C1803EB8101247ECD6929
:1012700002EBC40149680D60817A581803EB8103C1
:1012800090F83000596B02EBC002F0BC5368196053
:10129000704700BF01401F000110003801100078A6
:1012A00000001F808891000001F0DAB801F0FCB85E
:1012B00001F012B9074882B003680193019A114402
:1012C00001E0994204D303680093009B9A42F8D945
:1012D00002B070479093FF1F034B82B01B680193CD
:1012E000019802B0704700BF9093FF1F10B4074BE6
:1012F00082681B68016183B000240193019B4461F3
:10130000C260836003B010BC704700BF9093FF1FA2
:10131000F0B51E4B1E4D1A680446406C83B003683E
:1013200001920F465B681B49019E06229847394689
:10133000606C00230A2201F029FB606C16490368E7
:1013400003225B6898473146606C00230A2201F053
:101350001DFB606C036829465B6801229847A16801
:10136000606C711A00230A2201F010FB606C0368A4
:1013700029465B6801229847E368A168606CC91A36
:101380000A22002301F002FB03B0F0BD9093FF1F7F
:1013900020910000149100001C91000010B5446CD5
:1013A0000549236820465B68062298472046BDE829
:1013B000104001F0DBBA00BF24910000034B82B063
:1013C0001B680193019B836002B070479093FF1FDD
:1013D00010B4104A85B0A1B9136800934168009B0E
:1013E000591A20290DD813680293029C04F1210395
:1013F000591A01E0994204D313680193019B9C425E
:10140000F8D913680393039B4360012005B010BC17
:10141000704700BF9093FF1F704700BF2DE9F04158
:101420000D4D0E4EDFF83C800D4F41641B2401E052
:1014300000F0D2F92B78C82043B133789B0705D050
:10144000D8F800303A689B1A182B03D8013CEFD12A
:10145000BDE8F081BDE8F0817494FF1F8C94FF1FFC
:101460008096FF1F9093FF1F00238364436071B138
:10147000074882B003680193019A114401E0994240
:1014800004D303680093009B9A42F8D902B07047D6
:101490009093FF1F70B5144C84B00546406C2368D0
:1014A00003930368039A6A600E465B680F4906223D
:1014B0009847314600230A22686C01F067FA686C8D
:1014C0000B49036808225B68984723680293029AD5
:1014D00002F1320101E0994204D323680193019B98
:1014E0009A42F8D904B070BD9093FF1F2C91000070
:1014F00034910000F8B5037E0BB96320F8BD0446B3
:10150000406C3B4E03681B69B3420D466AD100F044
:10151000E3FF10F0FF0F01D16520F8BD354F606C7F
:1015200003681B69B3425FD100F0D6FF10F0FF0FD4
:10153000F2D0606C03685B69BB4257D100F090FF4A
:10154000C3B2A3F158021E2AE9D801A151F822F032
:10155000DD1500001F1500001F1500001F150000FD
:101560001F1500001F1500001F1500001F150000AB
:101570001F1500001F1500001F150000D1150000E9
:101580001F1500001F1500001F1500001F1500008B
:10159000FB1400001F1500001F1500001F150000A0
:1015A0001F1500001F1500001F1500001F1500006B
:1015B0001F150000FB1400001F1500001F15000080
:1015C0001F1500001F150000CD1500001846F8BDBE
:1015D00020462946FFF75EFF6320F8BD00232376EF
:1015E0006320F8BD984794E798479FE79847A7E797
:1015F000B1120000A912000070B5054682B016466F
:10160000C9B101230D4C037600212846FFF772FF74
:10161000632810D023680193019A511C236800931A
:10162000009B9A42F0D89942F8D200212846FFF751
:1016300061FF6328EED12E7602B070BD9093FF1F3C
:10164000034B00229A60DA601A615A61704700BF4A
:101650004493FF1F08B5104C08E0236859050DD4CA
:1016600023681A050FD42368DB0411D423685803B8
:10167000F3D500F027FA23685905F1D502F00CF8EC
:1016800023681A05EFD502F09DF82368DB04EDD539
:1016900002F02EF9EAE700BF3480044008B5FFF7F6
:1016A000D9FF00BF014B10221A807047002005406F
:1016B000704700BF094908B50B6830B16A46184445
:1016C000A2F58052904202D20860184608BD03F08D
:1016D000C5F90C2303604FF0FF3008BDA487FF1F3E
:1016E00010B40F4B53F8302092F880422CB10123F4
:1016F00069B182F8803010BC704703EBC0035B68AF
:101700001A6841B922F002021A6010BC704782F8D0
:10171000003110BC704742F003021A6010BC7047E1
:10172000889100001C4A02EBC00301295B6811D0BC
:1017300004291BD052F83000002280F8802229B101
:10174000022920D0032922D01A6070474FF48072FA
:101750001A60704752F830004FF4A27280F880127D
:101760001A601A6822F020021A60704752F830108E
:101770004FF4A272012081F880021A601A6842F0C8
:1017800020021A60704740F203121A6070474FF44B
:1017900081721A60704700BF8891000030B4054B19
:1017A000054D064C002210211A602A602060196045
:1017B00030BC704714D0034004D0034000D0034035
:1017C000212801D8FFF78CBF704700BF212801D81E
:1017D000FFF7A8BF704700BF2DE9F843054672B672
:1017E000204F214B214A1B683C68126862B65201A7
:1017F00002D5322B88BF013495B3C3F5BB331C4EE1
:10180000DFF86490DFF86480FF334FF47A72A6FB50
:10181000031302FB04F404EB931472B6D9F800101E
:101820003A68D8F800E062B6C1F5BB33FF33A6FBD7
:1018300003031EF0806FC4EB93134FF47A7002D051
:10184000322988BF013200FB0233B3F57A7F04D31B
:10185000013D05D004F57A74DFE701F0D7FBDCE742
:10186000BDE8F8839093FF1F18E000E004ED00E06E
:10187000ABAAAAAAF8B52D4B2D49DFF8D0E0DFF8C6
:10188000D0C02C4E2C4D2D4C2D4A2E4F4FF4000025
:1018900018604FF0807018604FF0007018604FF0C3
:1018A000806018604FF000601860002008602823F6
:1018B0004BF6FF71CCF80010CEF8003033601360A7
:1018C0002B6023603B60B3629362092245F8242CAD
:1018D000C4F8D80F05F57F65C7F8D41F07F5FF27B3
:1018E00007F5FA67C6F8F83F2B6006F5FF26C4F83F
:1018F000D42F05F5FD2504F5FF24386006F2F476B3
:101900001148316005F5FF6504F5FD642B60236027
:10191000026001F063FC3220FFF75EFF00F0FEFC86
:101920004FF4AF70BDE8F840FFF756BF08E100E0A4
:101930000480034014800340248003402C80034033
:101940001C8003403480034000800B400C80034027
:1019500008800340431E032B14D872B60A4951F87D
:10196000230068B170B4094C058834F81320466828
:1019700041F82360521B24F8132062B670BC7047F4
:1019800062B6704700207047EC93FF1F7096FF1FF0
:10199000013803280BD872B6074B53F8203043B1F7
:1019A00000205B680130002BFBD162B6704700203D
:1019B00070471846F9E700BF4094FF1FF0B472B6B5
:1019C0001A491B4E012311F8014B194F9A002407A5
:1019D00042F0010505D556F8324064B156F835207D
:1019E000BAB10133052BEED162B6124B00221A7048
:1019F000F0BC00F00FBD0F4C0F4D217847F832506E
:101A000007EB431308304A1E5860227062B6F0BCE0
:101A100070470849094B0A7847F8353007EBC5038A
:101A20000830013A58600A7062B6F0E7D8920000B8
:101A30000080FF1F6994FF1F88004000C80040001D
:101A4000431E032B1DD81B4A400140F0100030B448
:101A5000104472B6184CE25C032A1BD8DFE802F08F
:101A60000212151703220D88E25410F0080F14BF5C
:101A7000C823882343EA054308310360416062B606
:101A800030BC704708300222EDE70522EBE7083052
:101A90000422E8E7094A52F8230038B1084A52F80C
:101AA0002300416042F8231062B6E9E742F82310B0
:101AB000034AF7E70080FF1F7894FF1F4094FF1F41
:101AC0005094FF1F2DE9F04FDFF804A3DFF804B3B3
:101AD00087B044E0A94F4FEA930807EBC809013EDD
:101AE000D9F8042003F00803F6B2A2F1080003F0CD
:101AF000FF04002B40F0FE8057F838301B0C99B2E1
:101B000022F8081C002B00F0EC809D4B22F8064CBC
:101B100042F8044C53F82620002A00F02B82994DFD
:101B200055F826305860984C45F8260034F81630A1
:101B3000194424F8161000F04DFC002800F0138220
:101B4000924A934B19F0080F00F1080018BF134692
:101B5000C9F8040047F8383008238AF800309AF8AA
:101B60000040E4B260071AD58A4B1B78A3B18A49BA
:101B70000A7802F0FF0322B1013BDBB20B7003B91C
:101B800000BE86490A7802F0FF032AB1013BDBB2AE
:101B90000B70002B00F0BD8104238AF8003004F0A4
:101BA000080303F0FF02002B00F0C8809BF8003010
:101BB000DBB21E098ED19C08704F57F8342007EB1A
:101BC000C401C2F38302013A49680C2A00F28580FD
:101BD000DFE802F07979838383838383428383837D
:101BE000070008686E4B6F4D0193684B4A686E4E54
:101BF00047F8343081B240F28164694B6A602860F2
:101C000000220120A1421A603A61BA61307000F2EC
:101C1000E380B1F5D06F80F02782B1F5817F00F0CD
:101C2000E08100F2C381802900F03682822940F0F1
:101C3000DE81A9885D4B01F07F01042900F2D88183
:101C40005B4C89000B44227062701A78930740F154
:101C500022832070022023E2514B01931A683AB389
:101C6000544B514E5449188834780D784028864694
:101C700045F0020828BF4FF0400E002C84F001040C
:101C80003470CEEB00000CBF8824C82407EBC806D4
:101C900080B285F0010544EA0E447260188047F86E
:101CA000384072440D70002800F0B780019B1A6024
:101CB0003C4B1A88B2F5A06F0FD100219A78597069
:101CC0003E4B1A7009E0374A108842F221029042D6
:101CD00000F0A8802D4A47F83420394A01231370B8
:101CE0003AE72A4A2A4B19F0080F18BF134647F85B
:101CF000383031E700F08EFB324A334952F8263053
:101D0000002B00F03B8158688C5D42F8260003F1FF
:101D10000802C9F80420032C05D8DFE804F02C02DF
:101D2000292602228A551A8819F0080F0CBF882329
:101D3000C82343EA024347F838300DE7E00700F1D3
:101D4000EB80210600F12881A20706D51F4A204911
:101D500013780220DBB213700870E30602D51C4B27
:101D600010221A7007B0BDE8F08F04228A55DAE716
:101D700005228A55D7E703228A55D4E70080FF1F42
:101D8000EC93FF1F9893FF1F7096FF1FC800400041
:101D9000880040007494FF1FFD93FF1F7C94FF1F79
:101DA0009493FF1F6094FF1FFC93FF1FC020074008
:101DB0006C94FF1FA893FF1F6894FF1F9820074093
:101DC000942007404094FF1F7894FF1F882007400D
:101DD000802007409020074042F22104A14200F0F9
:101DE000948043D8B1F5086F00F0A881B1F5106F69
:101DF00040F0FD80B84AB94CA978117004F1800513
:101E000003E00834AC4200F09E81236A1906F8D53D
:101E1000606A083800F0FEFAF3E7BEF1400F18BF21
:101E2000002243E7AE4ACD1D11F8013B02F8013F05
:101E3000A942F9D1AB4A1268862A00F01181AA4959
:101E4000AA4E0A78307882F00105002842F002029A
:101E50000D700CBF8821C82147F8321007EBC20271
:101E600080F0010000213070516033E742F22124FC
:101E7000A14240F0FE81DFF8BCC29D4B9D49AC7889
:101E8000DCF800501D6081460C70002002908046F6
:101E90008446044694490D7845F0020E07EBCE03C4
:101EA000B9F1000F5C600CBF8824C82444EA080321
:101EB00085F0010447F83E3032700C70DFF81CE208
:101EC0008A4BDFF82482002840F09880BCF1400F54
:101ED0001BD144F0020407EBC403029FDFF8FCE1CE
:101EE0005F60002A40F09F80020442F088020744AD
:101EF0004EF8342086F800900D703B46402804D1FF
:101F000000207D4A019910800B607C4A01231370E8
:101F1000E3E600F0EBFB3FE6704B784872491A614C
:101F20004FF0020E80F800E0754F0A707549196095
:101F30009960754E754D764C9A610D213970FF216F
:101F40003170DFF8F4E129702270724D724A8EF818
:101F500000109F27012406F8047C5D600470DA609D
:101F600007B0BDE8F08F6D4A47F8380013780133A9
:101F70001370F1E543F82600694DD4E58B5D032B22
:101F800067D801A252F823F0591B0000591B00002A
:101F9000DD1F0000D71F000059495C4B80220D2037
:101FA00008701A70A2077FF5D8AECFE640F2023271
:101FB000914240F05681A98801F07F01042916D88A
:101FC0006A88A2B94E4C89000C448146217841F0C0
:101FD0000201217059E701238B55BDE500238B5584
:101FE000BAE5A98801F07F01042940F24781444BFA
:101FF0000F221A70414A012313706EE640287FF6C3
:1020000068AF44F002040EEBC401029E4E60AAB118
:10201000444A83F800903346403888F800504033F3
:102020004EF834206DE70204029B86F8009042F0DF
:10203000C8020D7003444EF834205FE783F8009027
:10204000029B304A88F80050403840334EF8342024
:1020500057E719F0080F0CBF022303238B557BE5CC
:10206000314A0F211170EAE6304A5468002CBED084
:102070006888B5F804E003E00C325468002CB6D050
:1020800013888342F8D153887345F5D1000A032899
:102090000CBF2078108903E0254C0220227062706A
:1020A000EA88824280F00C810F490D78402A45F081
:1020B000020E944607EBCE0028BF4FF0400C04EB15
:1020C0000C0344600293CCEB02004FEA0C484FF043
:1020D00001090022C824E9E67494FF1F0080FF1F55
:1020E0007796FF1F7896FF1F6894FF1FFC93FF1FD2
:1020F0008096FF1F8C94FF1FA893FF1F942007401A
:10210000C02007408800400088200740802007400A
:1021100098200740AC93FF1F0094FF1F6994FF1F96
:102120009893FF1FC8004000FD93FF1FDC92000042
:102130006C94FF1F9093FF1F8C200740684A694CE6
:1021400012782270ACE76849684B694A0291694984
:10215000694C6A4D039405964FF0000988461C4669
:1021600016460495206828B1456800F053F92846C2
:10217000002DF9D100232360049B30681A46002308
:1021800042F8293028B1456800F044F92846002D6E
:10219000F9D100223260029A98F8003011460022EC
:1021A00041F8042B039A0291023B4FF0000122F800
:1021B0001910032B07D8DFE803F0340234024FF084
:1021C000010388F8003009F10109B9F1040F04F1A5
:1021D000040406F1040608F10108C3D1484B059E2A
:1021E000DFF83091DFF8308100211970012518F8EF
:1021F000013B09F8043B1A0718D4AC0044F0020272
:1022000044F00304002347F8323047F834303D4BA4
:10221000994505F10105EAD196F8009089F001028F
:1022200033E64FF0000388F80030CCE700F0D2F836
:10223000AC0007EB451300F10802002837D05A60C4
:10224000314B47F8343000F0C5F844F0010307EB98
:10225000C30200F1080100B351602C4A47F8332053
:10226000CCE7B1F5A06F7FF4C2AE00224FF00109B8
:102270000BE642F221329142F7D0B8E66A88002A92
:102280007FF4B5AE224C89000C448146217821F0C0
:1022900002012170F9E5022002E7194B44F0010226
:1022A0001B7847F83200164A01331370A6E7144B27
:1022B000134A1B78AC00013347F834001370C2E7AF
:1022C0004028844628BF4FF0400C04EB0C03CCEBB5
:1022D00000004FEA0C48029300224FF00109D9E5B3
:1022E0007494FF1F6C94FF1F5094FF1FEC93FF1F0B
:1022F0004094FF1F7894FF1F7096FF1F9893FF1F55
:102300006994FF1FD420074088004000C8004000A7
:10231000C0200740C4200740D89200002DE9F843B0
:10232000204C01F051FB002204F1880023461A6082
:102330005A60083383424FF00001F8D11A4A1B4F0C
:1023400013681B4D1B481C4EDFF87880DFF878C0FF
:10235000DFF87890DFF878E043F480231360C4F36B
:1023600007233B70C4F307432B70240EFF2302F5B1
:1023700028320470114D88F8003011488CF8003074
:10238000D4323370012389F8003070268EF80010A3
:102390004FF40074102107F8183C2E70046011707F
:1023A000BDE8F8830080FF1F348004409C20074074
:1023B000B0200740B42007401020074049E400E067
:1023C00008E100E080200740882007409420074073
:1023D0000021074072B60D480268B2FA82F30B2B57
:1023E00010DC4FF00041D94022EA0102026062B6DF
:1023F000074803EBC303DB00C2180021C15010469D
:102400005160704762B60020704700BFA887FF1F69
:10241000BC83FF1F0D4B0E4AC31AA2FB03231B09EB
:102420000B2B0CD80B4A127852B972B60A484FF0EF
:102430000041026821FA03F31A43026062B6704752
:10244000064A1278002AF0D0FFF7B8BABC83FF1F03
:10245000398EE3386994FF1FA887FF1F7494FF1F0C
:1024600038B50F4D286878B143880288C118013308
:1024700093420C7A02D24380204638BDFFF7CAFF50
:10248000002320462B6038BD064B1B782BB1032060
:10249000FFF760FA28600028E6D14FF0FF3038BD22
:1024A0008894FF1F7494FF1F10B5094C206818B161
:1024B00043881844007A10BD064B1B782BB10320CB
:1024C000FFF748FA20600028F2D14FF0FF3010BD2E
:1024D0008894FF1F7494FF1F044B054A1B68908863
:1024E0001BB11A885B88D31A184470478894FF1F61
:1024F0007096FF1F0B4B1B789BB110B50A4C2068E0
:1025000048B1FFF787FF002303202360FFF722FA7B
:1025100030B1FFF77FFF0320FFF71CFA0028F8D146
:1025200010BD70477494FF1F8894FF1F2DE9F04F72
:10253000DFF8F89083B0012289F80020019169B397
:10254000DFF8EC80364F019E8346D8F80000B0B328
:10255000344D4488C4F14001B14228BF314604EBF8
:10256000010E00221FFA8EFE2A70761AA0F802E0F1
:1025700000F1080251B1013C224459441BF8014BBF
:1025800002F8014F8B45F9D1B0F802E0BEF13F0FE0
:102590000BD8254A05211170002ED6D101980023B1
:1025A00089F8003003B0BDE8F08F40220280014678
:1025B0000420FFF745FA0022C8F80020E9E73A783E
:1025C0002AB3184D4AF2F9244FF0010A07E0013C02
:1025D00016D02A78A2B900F019FD3A78BAB10420D1
:1025E000FFF7D6F90728F2D889F800A0FFF7F2FE26
:1025F000C8F800000028ACD10C4B013C1870E8D1A1
:1026000001234FF0FF302B7003B0BDE8F08F0023A3
:102610004FF0FF3089F8003003B0BDE8F08F00BF05
:102620007494FF1F8494FF1F7C94FF1F7D94FF1FF1
:102630008094FF1F00B583B002AB012103F8010DA8
:102640001846FFF773FF03B05DF804FB38B50E4D75
:102650000E4C28680123237028B140880023237082
:10266000C0F1400038BD0A4B1B7813B90020207020
:1026700038BD0420FFF78CF90728F7D8FFF7AAFE2A
:1026800028600028E9D1F1E78094FF1F7D94FF1FA7
:102690007494FF1FF8B5114B1B788BB1104E114D80
:1026A000346801272F7064B10F4A638800271770C0
:1026B000214623800420FFF7C3F9376000232B70E5
:1026C000F8BDFFF787FE084B28B1014604201C70B7
:1026D000FFF7B6F9F2E71F70F0E700BF7494FF1F31
:1026E0008094FF1F7D94FF1F7C94FF1F38B50E4B15
:1026F0001B7873B90D4C216861B103F0FF054B885D
:102700000B800420FFF79CF9256038BD084B01229F
:102710001A7038BDFFF75EFE0028F7D00146BDE80D
:1027200038400420FFF78CB97D94FF1F8094FF1F71
:102730007C94FF1F10B4EFF3108272B6437F33B95D
:10274000017F012907D003290FD00123437702B964
:1027500062B610BC7047124C2168A1B111494361A7
:102760000B68836108605861EFE70F4C216881B105
:102770000E4943610B688361086058610C4B4FF050
:1027800080511960E1E7074B416181612060186069
:10279000DBE7064B4161816120601860EEE700BF16
:1027A000A094FF1F9C94FF1F9094FF1F9494FF1F01
:1027B00004ED00E070B5EFF3108272B60C4C2068A7
:1027C00080B10C4E00254369236073B19D6102B94D
:1027D00062B6457783689847EFF3108272B6206837
:1027E0000028F0D102B962B670BD3360EFE700BFD8
:1027F0009094FF1F9494FF1FFFF7DCBF184A30B47A
:102800001468002C27D0036821688B420ED2CB1AA3
:1028100000218460C1602360E060106002230375C2
:1028200030BC704711688B42144608D3A2685B1A0B
:102830000360002AF6D18260C460A060EEE7D2682F
:10284000C2608460E060C568CB1A0222A860236081
:10285000027530BC70478460C4601060DEE700BF62
:102860009894FF1FF8B5224E34682CB32368002BD0
:102870003AD1204F1D4604E03468ECB12368002BA8
:1028800032D1A36803B1DD60206933600368257528
:102890001B68BB4221D1037F4560022BC46020D05E
:1028A000FFF748FF6368002BE6D023602046FFF760
:1028B000A5FF3468002CE1D1EFF3108372B60E4A05
:1028C00000211068116003B962B628B18468FFF76F
:1028D00095FF20460028F9D1F8BD224600219847EF
:1028E000E0E783689847DDE7013B2360E4E700BF4A
:1028F0009894FF1FE1100000A894FF1F024A13687C
:1029000001331360FFF7AEBF9093FF1F08B5FDF7CB
:10291000E7FEFDF75FFF00F079FBFAE702F00AB986
:102920002DE9F0438C688BB0ECB100250646894652
:102930002F462B46212201A9484600F0C1FA3268F1
:10294000202C234628BF2023D2F8048001A91A4650
:1029500030461D44E41AC0470744002CE9D13846EC
:102960000BB0BDE8F0832746F9E700BF00B5064A83
:10297000036812885B6883B001A9ADF804200222C5
:10298000984703B05DF804FB98920000F0B5074645
:102990008BB0002A33D0012A08BF0A2251B3212468
:1029A00000E0F4B2B1FBF2F502FB1511C8B209293F
:1029B00000F1300198BFC8B20AA988BF373021445E
:1029C00088BFC0B201F8240C661E2946002DE8D14C
:1029D00033B1013CE4B20AAB23442D2203F8242C8A
:1029E0003B6801AA11195B683846C4F12202984776
:1029F0000BB0F0BD30228DF825202124E8E70368D4
:102A0000C9B21B6898470BB0F0BD00BF0029BABF20
:102A100049422D2300230A22FFF7B8BFFFFFFFFF23
:102A20002DE9F04385B080461946104616461F46EC
:102A30009DF8305001F062FC002840F0B18027F092
:102A40000044304621464FF0FF32594B01F056FC0E
:102A500098B9304621464FF0FF32554B01F030FC1B
:102A600058B9D8F8003053495B684046032298476C
:102A70008146484605B0BDE8F083304639464FF000
:102A800060424D4B01F030FC002870D13046394691
:102A90004FF06042494B01F009FC002867D13046F5
:102AA00039460022002301F001FC002863D1814651
:102AB000002D65D0424B00240022104619463AA34F
:102AC000D3E9002301F080F901340B46E1B28D42D5
:102AD0000246F2D83046394600F0C4FF0F4606469B
:102AE00001F022FC044601F0F9F802460B4630469C
:102AF000394600F0B5FF4B4606460F460A222146EE
:102B00004046FFF743FF0F2D28BF0F2501352E2329
:102B10008146EDB28DF8003001240022294B304669
:102B2000394601F051F90F46064601F0FDFB04ABB2
:102B30002344C0B200F1300203F8102C01F0DEF89B
:102B400002460B463046394600F08AFF0134E4B2B3
:102B5000AC4206460F46E0D1D8F8003022465B680A
:102B6000404669469847484605B0BDE8F083D8F826
:102B70000030154978E707F100474FF0010997E762
:102B800000220F4B3046394600F06CFF01F0CCFBC1
:102B90004B4601460A224046FFF7F8FE814668E7A9
:102BA000D8F8003009495FE7000000A09999B93FC3
:102BB000FFFFEF7FA4920000FFFFEF41FFFFEFC197
:102BC0000000E03F00002440A09200009C92000022
:102BD00070B50E4D82B02B680093009E044608E04D
:102BE00000F014FA2B680193019BA2689B1B93428F
:102BF00007D2236820465B6998470028F0DB02B0C3
:102C000070BD4FF0FF3002B070BD00BF9093FF1F4A
:102C100081607047F8B50F4616460021054600F062
:102C200065F88EB1002404E00ED000F0FFF8A64253
:102C30000AD03846FFF7CCFF011E04F10104C9B2E7
:102C40002846F1DA01233B732846F8BDFFF752BC52
:102C5000FFF720BDFFF7FABC08461146FFF766BC38
:102C60000846FFF7E7BC00BF704700BF10B5044639
:102C7000006801F067FF204610BD00BF38B543680B
:102C80008B4201D3012038BD0D4604460131006856
:102C900002F0E4FA0028F6D0A36884E82100002BB3
:102CA000F0D10370EEE700BFF8B50446154632B91F
:102CB000036803B11A700023A3602046F8BD0E46D6
:102CC0001146FFF7DBFF074648B9206810B101F055
:102CD00039FF276000236360A3602046F8BDA5602C
:102CE0003146206802F02CFDE7E700BF38B500232D
:102CF0000446036043608360037341B108460D4698
:102D000002F07EFD294602462046FFF7CDFF204611
:102D100038BD00BF0023884210B5044603604360FD
:102D20008360037303D08A680968FFF7BDFF2046FC
:102D300010BD00BF38B5054608460C4602F060FDE0
:102D4000214602462846BDE83840FFF7ADBF00BF28
:102D500010B50446002386B023606360A36023732C
:102D6000084601A901F0CAFE01A92046FFF7E2FFCB
:102D7000204606B010BD00BF10B5044600238AB03F
:102D8000084623606360A3602373911C6B4600F0C8
:102D9000BBFA30B101462046FFF7CCFF20460AB00F
:102DA00010BDA06020460AB010BD00BF814203D014
:102DB0008A680968FFF778BF704700BF2DE9F843BC
:102DC00003680F46BB420446816815460AD85A1864
:102DD000974207D2C3EB07094FF0010835B92046E7
:102DE000BDE8F8834FF00008002DF8D04E193146A9
:102DF0002046FFF743FF0028F1D0B8F1000F0ED0B6
:102E00002368A0682A4603EB0901184400F04CF936
:102E1000236800229A55A6602046BDE8F883206802
:102E2000A3683946184402F08BFCF4E710B582B071
:102E300000238DF80410012201A904468DF8053005
:102E4000FFF7BCFF204602B010BD00BF10B58A6876
:102E500009680446FFF7B2FF204610BD38B50546A5
:102E600041B108460C4602F0CBFC214602462846FA
:102E7000FFF7A4FF284638BD10B583688C681B1B7C
:102E800093420CD3036873B1096851B110461844DA
:102E9000224602F023FDB0FA80F0400910BD002068
:102EA00010BD084610BD184610BD00BF82688B6873
:102EB0009A4202D30022FFF7DFBF0020704700BF15
:102EC000B2B1A9B138B584689C420ED9E41A013A6E
:102ED0000D469442016828BF1446194422462846EC
:102EE00002F04CFD00232B5538BD00230B7038BD7C
:102EF000704700BF83683BB110B50468204602F0FC
:102F0000B7FB20B1001B10BD4FF0FF3070474FF0F2
:102F1000FF3010BD9A42F8B504460E4602D911465C
:102F20001A460B460021A1602173B06821608242DD
:102F300061600ED8834228BF03461D4633685F5D3B
:102F400059553368991806D02046FFF7F3FE3368C9
:102F50005F552046F8BDA1605F55FAE738B5836834
:102F60008B42044614D99AB1084611448B4238BFAB
:102F70001A1A2568A3EB020238BF1946A260294439
:102F8000121A284402F0B4F82268A3680021D15430
:102F9000204638BD2DE9F04106680746EEB1846849
:102FA000DCB1354600E04546287805F1010801F01E
:102FB00083FD0028F7D1013C344402E0A54205D846
:102FC000013C207801F078FD0028F7D1621C521BEB
:102FD000B542BA6004D80023B3543846BDE8F08146
:102FE0003046294600F060F83E68BA68F3E700BF53
:102FF000006808B101F018BD704700BF006810B14B
:10300000002103F057BC0020704700BF38B5224CA8
:10301000237803B138BD01232370FFF75DFA70BB3D
:1030200000F02AFB40BB00F0BDFB10BB00F050FCE1
:10303000E0B900232370EFF30583002BEAD1EFF30F
:10304000108172B6154B1868E0B1154C2278CAB9D8
:1030500045691D6001232370C5B1AA6101B962B63B
:1030600000254577836898472570D3E700F0F2FC88
:10307000DFE700F0EDFCD9E700F0E8FCD3E7FFF76D
:10308000F3FDCDE70029C5D162B638BD054B1D6003
:103090000029E5D1E3E700BFAC94FF1FA094FF1F18
:1030A000A494FF1F9C94FF1F844641EA000313F081
:1030B00003036DD1403A41D351F8043B40F8043B3F
:1030C00051F8043B40F8043B51F8043B40F8043B02
:1030D00051F8043B40F8043B51F8043B40F8043BF2
:1030E00051F8043B40F8043B51F8043B40F8043BE2
:1030F00051F8043B40F8043B51F8043B40F8043BD2
:1031000051F8043B40F8043B51F8043B40F8043BC1
:1031100051F8043B40F8043B51F8043B40F8043BB1
:1031200051F8043B40F8043B51F8043B40F8043BA1
:1031300051F8043B40F8043B403ABDD2303211D341
:1031400051F8043B40F8043B51F8043B40F8043B81
:1031500051F8043B40F8043B51F8043B40F8043B71
:10316000103AEDD20C3205D351F8043B40F8043B41
:10317000043AF9D2043208D0D2071CBF11F8013B3F
:1031800000F8013B01D30B8803806046704700BF05
:10319000082A13D38B078DD010F003038AD0C3F114
:1031A0000403D21ADB071CBF11F8013B00F8013BF6
:1031B00080D331F8023B20F8023B7BE7043AD9D3B5
:1031C000013A11F8013B00F8013BF9D20B7803708A
:1031D0004B7843708B7883706046704730B42948D1
:1031E000294A2A4B2A4D6024E121047011701B7872
:1031F000284C082B30D00A2B2748284937D00C2BD5
:103200000CBF35223D2212232A60236002600B602E
:10321000234B24491B78244ABBB101230B60136064
:10322000224B23491B78234A012B26D9042B0FD983
:10323000082B1ED9102B94BF862387230B601360A5
:103240001D4B01221A7030BC70470B601360E7E71A
:1032500084230B601360F3E700F58E200F490830DC
:10326000012213232A60236002600B60D0E7392219
:10327000F7E785230B601360E2E780230B601360A0
:10328000DEE700BF0040074001400740BC87FF1F4A
:1032900008B003400CB0034008B00B400CB00B402A
:1032A000AE94FF1F20B0034020B00B40BD87FF1F2E
:1032B00024B0034024B00B40AD94FF1FF0B44D1E6A
:1032C0002E46002400E00134B0FBF2F302FB1300B1
:1032D000092800F130078ABF3730F8B2C0B206F8CB
:1032E000010F1846002BEED10A1953704CB110781B
:1032F00015F8016F28700133E01A834202F8016962
:10330000F5DB0846F0BC70472DE9F04F0D4685B05F
:1033100085EAE5790146824617461C46A9EBE57920
:1033200001F046FB002840F02F812AF0004840467B
:10333000C74901F03DFB002847D14046C44901F090
:1033400019FB0646002840D10021504601F008FB39
:10335000002814BF0420032048451DDB002DC0F2C7
:1033600074815046002101F0FBFA254648BB4921F3
:103370004E22462321706270A3700334002E00F0A9
:103380007681A019202304F8013BA042FBD1002341
:10339000037005B0BDE8F08F002DC0EB0906E0DA40
:1033A000002E00F05281A519202304F8013BAC4205
:1033B000FBD15046002101F0D3FA002800F0228111
:1033C00000262D232B706C1CD1E702AB01AA3946D5
:1033D000504601F033FBBB468046DDF80490002FD9
:1033E00057D0C9F10003BB4200F39480404602F07D
:1033F00007FA0646B145B8BF0136B9F1000F40F0F3
:1034000098800136DDF808E0BEF1000F53D0013698
:10341000A81B002804EB060153DC23462D221A705A
:103420000133B9F1000F63D137B11A46302002F8E9
:10343000020B2E20587013468B4220D25F1C98F846
:1034400000201A708F4208F1010819D0019A4FF03C
:103450002E0E0BE083F801E002338B4203F10107EB
:103460000DD218F8010B18708F4209D0013A019261
:10347000002AEFD03B468B4203F10107F1D31946F6
:10348000002DC0F2A980002320460B7005B0BDE8D6
:10349000F08FB9F1000FA4D190F800806D496E4A09
:1034A000012301939946B8F1340F8CBF88469046AA
:1034B0004FF0FF3397E7A81B002804EB060140F309
:1034C000D8800144224601384FF0200C02F801CB8D
:1034D000C2F1010303442344002BF7DC20EAE0732C
:1034E00001332344BEF1000F98D1B9F1000F9BD0F6
:1034F000A2DA002FA0D01A46302002F8020B2E27A5
:103500005F70C9EB020302F8010B9342FBD100226A
:10351000019291E7C7F100090126B1453046B8BFD5
:103520000136B9F1000FDFF83081CDF804903FF497
:1035300068AFBFF667AF002F3FF464AF09EB070336
:10354000984207F102067FF65DAF002F07DD504677
:10355000424901F067F8BBF1010B8246F7D102AB9B
:1035600003AA5946504601F069FADDF80490039A1F
:103570007B1CC9EB02029A4208BF09F1010980468F
:1035800008BFCDF804903DE70021504601F0E8F96E
:10359000002814BF0420032048453BDA002DC0EB6F
:1035A00009063BDB4FF07E535046002163F31E00BB
:1035B00001F0D6F92546002841D14E23412223703F
:1035C000A37062700334002E51D0A019202304F898
:1035D000013B8442FBD1DAE6A8194342002B6FEA93
:1035E00000007FF750AF0A46202502F8015BC2F1C8
:1035F000010303440B44002BF7DC20EAE0730133A2
:10360000194440E749214E22462329706A70AB7065
:10361000E81CBCE6002D16DB0026C3E79EB1A51909
:10362000202304F8013BAC42FBD14FF07E535046BF
:10363000002163F31E0001F093F988B100262D23C9
:103640002B706C1CB9E72546EFE72546B1E600BFB5
:10365000FFFF7F7FD4920000D09200000000204145
:103660004E2341222B70AB706A70E81C8FE6204617
:103670008DE62346D5E600BF054A064B10781B7839
:10368000C0B2DBB2984238BF4030C01A704700BFAA
:10369000B494FF1FB594FF1FF0B4384B1A7912F0A1
:1036A000300F2CD072B6997D01F0FF0200293DD079
:1036B00062B6334F334938780D78334E1C46C0B26A
:1036C000EDB2431C402BE17928BF0023AB4202F14D
:1036D000FF32C9B21CBFF154184612F0FF02F0D1FC
:1036E0002A4B1B68C2B23A704BB1A84236BFC5F133
:1036F0004005401B40192728C4BF01221A701F49EA
:10370000CA78D2B2150616D452060DD51B4B1B79BA
:103710005B0609D51E4B1F491B6800220A7003B1C6
:103720001A70164B3C22DA70F0BC70474022D979EF
:103730005A7462B6E3E70B791C06E5D5164B174EB3
:103740001C783378E4B2DBB29C420ED0144D01E019
:10375000A3420AD00133402B28BF00230879E85C3C
:10376000C0B2C871087D0728F2D9DBB203493370B3
:103770000B79180644BF7C23CB70C5E700A0064038
:10378000B494FF1FB594FF1FF894FF1FB094FF1F60
:103790003C95FF1F3895FF1F4095FF1F3995FF1F70
:1037A000B894FF1F054A064B10781B78C0B2DBB2F5
:1037B000984238BF4030C01A704700BFB495FF1F11
:1037C0004995FF1FF0B4384B1A7912F0300F2CD006
:1037D00072B6997D01F0FF0200293DD062B6334FE9
:1037E000334938780D78334E1C46C0B2EDB2431CD5
:1037F000402BE17928BF0023AB4202F1FF32C9B26E
:103800001CBFF154184612F0FF02F0D12A4B1B687E
:10381000C2B23A704BB1A84236BFC5F14005401B59
:1038200040192728C4BF01221A701F49CA78D2B292
:10383000150616D452060DD51B4B1B795B0609D510
:103840001E4B1F491B6800220A7003B11A70164BE9
:103850003C22DA70F0BC70474022D9795A7462B6C3
:10386000E3E70B791C06E5D5164B174E1C78337829
:10387000E4B2DBB29C420ED0144D01E0A3420AD068
:103880000133282B28BF00230879E85CC0B2C87137
:10389000087D0728F2D9DBB2034933700B7918068B
:1038A00044BF7C23CB70C5E700B00640B495FF1F32
:1038B0004995FF1F7495FF1F4495FF1FB895FF1F83
:1038C0004895FF1FBC95FF1FB595FF1F4C95FF1F27
:1038D000054A064B10781B78C0B2DBB2984238BF5D
:1038E0004030C01A704700BFC495FF1FC595FF1F29
:1038F00030B42B4B1A7994061FD52A48DA7903780D
:10390000294901333F2B0978C8BF00238B42D2B22B
:1039100003D0264CD9B2E2540170254A116861B136
:10392000244A1278D2B2934236BFC2F140029B1AA7
:103930009B18272BC4BF01230B70194AD378DBB225
:10394000180611D45A060DD5154B1B795B0609D5FF
:10395000194B1A491B6800220A7003B11A70104BE8
:103960002C22DA7030BC704711790906EAD5144967
:1039700010480C780178C9B28C420DD04A1C272A15
:1039800084BF00210A460F4D054C98BFD1B2AA5CF6
:10399000D2B2E2710170D5E76C21D170D2E700BFDD
:1039A00000C00640C495FF1FC595FF1FF095FF1F7F
:1039B000C095FF1F3196FF1F3496FF1F3096FF1FE3
:1039C0003896FF1FC895FF1F70B584B072B6194BAB
:1039D000194D1A48702241260F2480211A702E702A
:1039E0001A460470197013781B06FCD5144B18681E
:1039F00062B6144B144C984298BF00EB800001A9AA
:103A000098BF40000A22FFF759FC01A92046002375
:103A100011F8012B01333AB10A2B20F8022FF7D10C
:103A20001623237004B070BD5B00DBB2237004B0BA
:103A300070BD00BF000002400700024006000240C7
:103A4000080002407F9698004C88FF1F704700BF17
:103A5000704700BF704700BF81F0004102E000BF27
:103A600083F0004330B54FEA41044FEA430594EA3E
:103A7000050F08BF90EA020F1FBF54EA000C55EA79
:103A8000020C7FEA645C7FEA655C00F0E2804FEA4A
:103A90005454D4EB5555B8BF6D420CDD2C4480EA2C
:103AA000020281EA030382EA000083EA010180EA5C
:103AB000020281EA0303362D88BF30BD11F0004FAA
:103AC0004FEA01314FF4801C4CEA113102D04042E0
:103AD00061EB410113F0004F4FEA03334CEA13331B
:103AE00002D0524263EB430394EA050F00F0A78033
:103AF000A4F10104D5F1200E0DDB02FA0EFC22FA2E
:103B000005F2801841F1000103FA0EF2801843FA21
:103B100005F359410EE0A5F120050EF1200E012A12
:103B200003FA0EFC28BF4CF0020C43FA05F3C01850
:103B300051EBE37101F0004507D54FF0000EDCF1C9
:103B4000000C7EEB00006EEB0101B1F5801F1BD372
:103B5000B1F5001F0CD349085FEA30004FEA3C0C76
:103B600004F101044FEA445212F5800F80F09A806C
:103B7000BCF1004F08BF5FEA500C50F1000041EB70
:103B8000045141EA050130BD5FEA4C0C404141EB74
:103B9000010111F4801FA4F10104E9D191F0000F9B
:103BA00004BF01460020B1FA81F308BF2033A3F11E
:103BB0000B03B3F120020CDA0C3208DD02F1140C15
:103BC000C2F10C0201FA0CF021FA02F10CE002F150
:103BD0001402D8BFC2F1200C01FA02F120FA0CFC49
:103BE000DCBF41EA0C019040E41AA2BF01EB045192
:103BF000294330BD6FEA04041F3C1CDA0C340EDC90
:103C000004F11404C4F1200220FA04F001FA02F3D2
:103C100040EA030021FA04F345EA030130BDC4F190
:103C20000C04C4F1200220FA02F001FA04F340EA85
:103C30000300294630BD21FA04F0294630BD94F036
:103C4000000F83F4801306BF81F480110134013D1D
:103C50004EE77FEA645C18BF7FEA655C29D094EA8E
:103C6000050F08BF90EA020F05D054EA000C04BF0C
:103C70001946104630BD91EA030F1EBF00210020F7
:103C800030BD5FEA545C05D14000494128BF41F096
:103C9000004130BD14F580043CBF01F5801130BDFA
:103CA00001F0004545F0FE4141F470014FF0000085
:103CB00030BD7FEA645C1ABF194610467FEA655C36
:103CC0001CBF0B46024650EA013406BF52EA0335D8
:103CD00091EA030F41F4002130BD00BF90F0000FC6
:103CE00004BF0021704730B54FF4806404F1320402
:103CF0004FF000054FF0000150E700BF90F0000FBB
:103D000004BF0021704730B54FF4806404F13204E1
:103D100010F0004548BF40424FF000013EE700BFB1
:103D200042004FEAE2014FEA31014FEA02701FBF41
:103D300012F07F4393F07F4F81F06051704792F013
:103D4000000F14BF93F07F4F704730B54FF460748D
:103D500001F0004521F0004120E700BF50EA0102D8
:103D600008BF704730B54FF000050AE050EA010285
:103D700008BF704730B511F0004502D5404261EBF5
:103D800041014FF4806404F132045FEA915C3FF436
:103D9000DCAE4FF003025FEADC0C18BF03325FEACF
:103DA000DC0C18BF033202EBDC02C2F1200300FA84
:103DB00003FC20FA02F001FA03FE40EA0E0021FAA9
:103DC00002F11444C1E600BF70B54FF0FF0C4CF493
:103DD000E06C1CEA11541DBF1CEA135594EA0C0F49
:103DE00095EA0C0F00F0DEF82C4481EA030621EA84
:103DF0004C5123EA4C5350EA013518BF52EA0335BF
:103E000041F4801143F4801338D0A0FB02CE4FF070
:103E10000005E1FB02E506F00042E0FB03E54FF0A0
:103E20000006E1FB03569CF0000F18BF4EF0010E98
:103E3000A4F1FF04B6F5007F64F5407404D25FEA94
:103E40004E0E6D4146EB060642EAC62141EA555147
:103E50004FEAC52040EA5E504FEACE2EB4F1FD0C89
:103E600088BFBCF5E06F1ED8BEF1004F08BF5FEA07
:103E7000500E50F1000041EB045170BD06F00046B9
:103E800046EA010140EA020081EA0301B4EB5C0466
:103E9000C2BFD4EB0C0541EA045170BD41F480115E
:103EA0004FF0000E013C00F3AB8014F1360FDEBF83
:103EB000002001F0004170BDC4F10004203C35DA5F
:103EC0000C341BDC04F11404C4F1200500FA05F3E2
:103ED00020FA04F001FA05F240EA020001F0004283
:103EE00021F0004110EBD37021FA04F642EB0601F9
:103EF0005EEA430E08BF20EAD37070BDC4F10C0423
:103F0000C4F1200500FA04F320FA05F001FA04F2E6
:103F100040EA020001F0004110EBD37041F10001D2
:103F20005EEA430E08BF20EAD37070BDC4F12005DD
:103F300000FA05F24EEA020E20FA04F301FA05F245
:103F400043EA020321FA04F001F0004121FA04F2ED
:103F500020EA020000EBD3705EEA430E08BF20EABD
:103F6000D37070BD94F0000F0FD101F000464000F7
:103F700041EB010111F4801F08BF013CF7D041EA79
:103F8000060195F0000F18BF704703F0004652007D
:103F900043EB030313F4801F08BF013DF7D043EA4E
:103FA0000603704794EA0C0F0CEA135518BF95EA04
:103FB0000C0F0CD050EA410618BF52EA4306D1D18B
:103FC00081EA030101F000414FF0000070BD50EAAA
:103FD000410606BF1046194652EA430619D094EA34
:103FE0000C0F02D150EA013613D195EA0C0F05D11E
:103FF00052EA03361CBF104619460AD181EA030172
:1040000001F0004141F0FE4141F470014FF0000029
:1040100070BD41F0FE4141F4780170BD70B54FF0C4
:10402000FF0C4CF4E06C1CEA11541DBF1CEA135544
:1040300094EA0C0F95EA0C0F00F0A7F8A4EB050426
:1040400081EA030E52EA03354FEA013100F088801D
:104050004FEA03334FF0805545EA131343EA1263E6
:104060004FEA022245EA111545EA10654FEA00269B
:104070000EF000419D4208BF964244F1FD0404F554
:10408000407402D25B084FEA3202B61A65EB0305B0
:104090005B084FEA32024FF480104FF4002CB6EB6D
:1040A000020E75EB030E22BFB61A754640EA0C00ED
:1040B0005B084FEA3202B6EB020E75EB030E22BF2D
:1040C000B61A754640EA5C005B084FEA3202B6EB6E
:1040D000020E75EB030E22BFB61A754640EA9C002D
:1040E0005B084FEA3202B6EB020E75EB030E22BFFD
:1040F000B61A754640EADC0055EA060E18D04FEABB
:10410000051545EA16754FEA06164FEAC30343EA5A
:1041100052734FEAC2025FEA1C1CC0D111F4801F27
:104120000BD141EA00014FF000004FF0004CB6E720
:1041300011F4801F04BF01430020B4F1FD0C88BFBF
:10414000BCF5E06F3FF6AFAEB5EB030C04BFB6EBCA
:10415000020C5FEA500C50F1000041EB045170BDBD
:104160000EF0004E4EEA113114EB5C04C2BFD4EBEA
:104170000C0541EA045170BD41F480114FF0000E6E
:10418000013C90E645EA060E8DE60CEA135594EAEA
:104190000C0F08BF95EA0C0F3FF43BAF94EA0C0FED
:1041A0000AD150EA01347FF434AF95EA0C0F7FF462
:1041B00025AF104619462CE795EA0C0F06D152EAB6
:1041C00003353FF4FDAE1046194622E750EA41069A
:1041D00018BF52EA43067FF4C5AE50EA41047FF4AB
:1041E0000DAF52EA43057FF4EBAE12E74FF0FF3C10
:1041F00006E000BF4FF0010C02E000BF4FF0010CE1
:104200004DF804CD4FEA410C7FEA6C5C4FEA430C59
:1042100018BF7FEA6C5C1BD001B050EA410C0CBFA8
:1042200052EA430C91EA030F02BF90EA020F00200A
:10423000704710F1000F91EA030F58BF994208BF71
:1042400090422CBFD8176FEAE37040F0010070472E
:104250004FEA410C7FEA6C5C02D150EA013C07D185
:104260004FEA430C7FEA6C5CD6D152EA033CD3D0D0
:104270005DF8040B704700BF8446104662468C46CA
:104280001946634600E000BF01B5FFF7B7FF0028FD
:1042900048BF10F1000F01BD4DF808EDFFF7F4FF26
:1042A0000CBF012000205DF808FB00BF4DF808EDB1
:1042B000FFF7EAFF34BF012000205DF808FB00BFD4
:1042C0004DF808EDFFF7E0FF94BF012000205DF8F6
:1042D00008FB00BF4DF808EDFFF7CEFF94BF0120AB
:1042E00000205DF808FB00BF4DF808EDFFF7C4FFA4
:1042F00034BF012000205DF808FB00BF4FEA410CED
:104300007FEA6C5C02D150EA013C0AD14FEA430CCF
:104310007FEA6C5C02D152EA033C02D14FF000000C
:1043200070474FF0010070474A0011D212F5001299
:1043300011D20DD56FF47873B3EB62520ED44FEAFD
:10434000C12343F0004343EA505323FA02F070477D
:104350004FF00000704750EA013002D14FF0FF30BB
:1043600070474FF0000070474FEA4102B2F1E0435E
:1043700024BFB3F5001CDCF1FE5C0DD901F0004C4C
:104380004FEAC0024CEA5070B2F1004F40EB83009C
:1043900008BF20F00100704711F0804F21D113F1C8
:1043A0003872BCBF01F00040704741F480114FEA01
:1043B0005252C2F11802C2F1200C10FA0CF320FA8A
:1043C00002F018BF40F001004FEAC1234FEAD323A7
:1043D00003FA0CFC40EA0C0023FA02F34FEA430311
:1043E000CCE77FEA625307D150EA01331EBF4FF09A
:1043F000FE4040F44000704701F0004040F0FE40B5
:1044000040F40000704700BF80F0004002E000BFB1
:1044100081F0004142001FBF5FEA410392EA030FAF
:104420007FEA226C7FEA236C6AD04FEA1262D2EBF9
:104430001363C1BFD218414048404140B8BF5B42FE
:10444000192B88BF704710F0004F40F4000020F097
:104450007F4018BF404211F0004F41F4000121F0AD
:104460007F4118BF494292EA030F3FD0A2F10102F7
:1044700041FA03FC10EB0C00C3F1200301FA03F135
:1044800000F0004302D5494260EB4000B0F5000F58
:1044900013D3B0F1807F06D340084FEA310102F117
:1044A0000102FE2A51D2B1F1004F40EBC25008BFC9
:1044B00020F0010040EA03007047490040EB000093
:1044C00010F4000FA2F10102EDD1B0FA80FCACF1C2
:1044D000080CB2EB0C0200FA0CF0AABF00EBC250C1
:1044E00052421843BCBFD0401843704792F0000FAF
:1044F00081F4000106BF80F400000132013BB5E702
:104500004FEA41037FEA226C18BF7FEA236C21D077
:1045100092EA030F04D092F0000F08BF08467047DC
:1045200090EA010F1CBF0020704712F07F4F04D1AA
:10453000400028BF40F00040704712F100723CBFBD
:1045400000F50000704700F0004343F0FE4040F4E7
:10455000000070477FEA226216BF08467FEA2363A5
:104560000146420206BF5FEA412390EA010F40F490
:10457000800070474FF0000304E000BF10F00043DC
:1045800048BF40425FEA000C08BF704743F09643C3
:1045900001464FF000001CE050EA010208BF7047DE
:1045A0004FF000030AE000BF50EA010208BF704765
:1045B00011F0004302D5404261EB41015FEA010C7A
:1045C00002BF84460146002043F0B64308BFA3F172
:1045D0008053A3F50003BCFA8CF2083AA3EBC25354
:1045E00010DB01FA02FC634400FA02FCC2F1200273
:1045F000BCF1004F20FA02F243EB020008BF20F0AA
:104600000100704702F1200201FA02FCC2F120020F
:1046100050EA4C0021FA02F243EB020008BF20EA04
:10462000DC7070474FF0FF0C1CEAD0521EBF1CEA32
:10463000D15392EA0C0F93EA0C0F6FD01A4480EA20
:10464000010C400218BF5FEA41211ED04FF0006309
:1046500043EA501043EA5111A0FB01310CF0004035
:10466000B1F5000F3EBF490041EAD3715B0040EA5B
:10467000010062F17F02FD2A1DD8B3F1004F40EB2B
:10468000C25008BF20F00100704790F0000F0CF0FE
:10469000004C08BF49024CEA502040EA51207F3AC2
:1046A000C2BFD2F1FF0340EAC250704740F400009D
:1046B0004FF00003013A5DDC12F1190FDCBF00F08E
:1046C00000407047C2F10002410021FA02F1C2F13C
:1046D000200200FA02FC5FEA310040F1000053EAD8
:1046E0004C0308BF20EADC70704792F0000F00F026
:1046F000004C02BF400010F4000F013AF9D040EA2C
:104700000C0093F0000F01F0004C02BF490011F4BF
:10471000000F013BF9D041EA0C018FE70CEAD153BD
:1047200092EA0C0F18BF93EA0C0F0AD030F0004C3D
:1047300018BF31F0004CD8D180EA010000F00040F1
:10474000704790F0000F17BF90F0004F084691F0AF
:10475000000F91F0004F14D092EA0C0F01D14202E9
:104760000FD193EA0C0F03D14B0218BF084608D1B2
:1047700080EA010000F0004040F0FE4040F40000FC
:10478000704740F0FE4040F4400070474FF0FF0C8F
:104790001CEAD0521EBF1CEAD15392EA0C0F93EAD6
:1047A0000C0F69D0A2EB030280EA010C49024FEA28
:1047B000402037D04FF0805343EA111143EA1013E1
:1047C0000CF000408B4238BF5B0042F17D024FF499
:1047D000000C8B4224BF5B1A40EA0C00B3EB510F74
:1047E00024BFA3EB510340EA5C00B3EB910F24BF5D
:1047F000A3EB910340EA9C00B3EBD10F24BFA3EBE2
:10480000D10340EADC001B0118BF5FEA1C1CE0D1A9
:10481000FD2A3FF650AF8B4240EBC25008BF20F05C
:10482000010070470CF0004C4CEA50207F32C2BFB0
:10483000D2F1FF0340EAC250704740F400004FF04D
:104840000003013A37E792F0000F00F0004C02BF7E
:10485000400010F4000F013AF9D040EA0C0093F048
:10486000000F01F0004C02BF490011F4000F013BA2
:10487000F9D041EA0C0195E70CEAD15392EA0C0F0A
:1048800008D142027FF47DAF93EA0C0F7FF470AF42
:10489000084676E793EA0C0F04D14B023FF44CAF85
:1048A00008466EE730F0004C18BF31F0004CCAD11A
:1048B00030F000427FF45CAF31F000437FF43CAF56
:1048C0005FE700BF4FF0FF3C06E000BF4FF0010C78
:1048D00002E000BF4FF0010C4DF804CD4FEA40025A
:1048E0004FEA41037FEA226C18BF7FEA236C11D0A4
:1048F00001B052EA530C18BF90EA010F58BFB2EB57
:10490000030088BFC81738BF6FEAE17018BF40F0D6
:10491000010070477FEA226C02D15FEA402C05D18A
:104920007FEA236CE4D15FEA412CE1D05DF8040B0F
:10493000704700BF844608466146FFE70FB5FFF7A2
:10494000C9FF002848BF10F1000F0FBD4DF808ED5A
:10495000FFF7F4FF0CBF012000205DF808FB00BF4B
:104960004DF808EDFFF7EAFF34BF012000205DF8A5
:1049700008FB00BF4DF808EDFFF7E0FF94BF0120F2
:1049800000205DF808FB00BF4DF808EDFFF7D2FFEF
:1049900094BF012000205DF808FB00BF4DF808ED32
:1049A000FFF7C8FF34BF012000205DF808FB00BFFF
:1049B0004FEA40024FEA41037FEA226C02D15FEAEC
:1049C000402C08D17FEA236C02D15FEA412C02D14E
:1049D0004FF0000070474FF00100704742000ED2C8
:1049E000B2F1FE4F0BD34FF09E03B3EB126209D42A
:1049F0004FEA002343F0004323FA02F070474FF0E0
:104A00000000704712F1610F01D1420202D14FF054
:104A1000FF3070474FF00000704700BF0B46014663
:104A2000184600F005B800BF0A22002102F000B8C5
:104A300013460A460146022002F05EB8F0B583B084
:104A400016461F460D460024FFF76AF900973346C5
:104A50002A46019402F0B2F803B0F0BD014B186889
:104A6000704700BF908CFF1F70B50F4E0F4D761B27
:104A7000B61018BF002405D0013455F8043B984700
:104A8000A642F9D10A4E0B4D761B04F029FEB61052
:104A900018BF002406D0013455F8043B9847A642BD
:104AA000F9D170BD70BD00BFEC960000EC9600001F
:104AB00000970000EC96000010B5044600F030F8B6
:104AC0002044407800F0080010BD00BF931E222B48
:104AD00010D80A2A10B506D000230C46194401F05C
:104AE000BDFF204610BD0028F6DA2D230B70404292
:104AF0000123F2E700200870704700BFFFF7E6BF10
:104B0000034A044B1268506B002808BF18467047D0
:104B1000908CFF1F948CFF1FD0F8EC00704700BFF3
:104B200008B5034B1868FFF7EBFFD0F8EC0008BDA1
:104B3000908CFF1F024B0146186800F00BB800BFB5
:104B4000908CFF1F024B0146186802F00FB900BF9E
:104B5000908CFF1F2DE9F04F01F10B05162D83B04E
:104B6000064640F29F8035F0070500F1BF80A9425C
:104B700000F2BC8000F06EFBB5F5FC7FC0F09C82BB
:104B80006B0A00F0BA80042B00F28381A80900F1BF
:104B9000390E4FEA4E033830C44F07EB8303A3F1BD
:104BA00008015C68A14207D1ACE0002A80F2AC8029
:104BB000E468A14200F0A680636823F003035A1B57
:104BC0000F2AF2DDB9493C6901F1080E744500F085
:104BD000B381636823F003035A1B0F2A00F3998102
:104BE000002AC1F814E0C1F810E080F29E80B3F50D
:104BF000007F80F06781DB0803F1010C01229B102C
:104C000002FA03F34A6851F83C80C4F8088001EBCB
:104C1000CC091A43A9F10803E3604A6041F83C401B
:104C2000C8F80C40831001249C40944200F28A8012
:104C3000144206D120F003006400144200F1040085
:104C4000FAD007EBC009CC468046DCF80C108C4546
:104C500007D173E1002A80F28181C9688C4500F098
:104C60006D814B6823F003035A1B0F2AF2DD0C46BB
:104C7000D1F80CC054F8088F4B1945F001054D6070
:104C800042F00101C8F80CC03046CCF808807B61C6
:104C90003B61C3F80CE0C3F808E059609A5000F09B
:104CA000DBFA1FE0102921D800F0D4FA10250623E2
:104CB00002207E4F07EB8303A3F108025C68944255
:104CC00000F045816368E168A56823F0030323448D
:104CD00030465A68E96042F001028D605A6000F087
:104CE000BBFA0834204603B0BDE8F08F00240C2343
:104CF0002046336003B0BDE8F08F80234FF0400EB4
:104D00003F2049E770465DE72344E1685A68A5689B
:104D100042F00102E96030468D605A6000F09CFA72
:104D20000834204603B0BDE8F08F234430465A686B
:104D300042F001025A6000F08FFA0834204603B0B6
:104D4000BDE8F08FBC68636823F00308A84504D36E
:104D5000C5EB08030F2B00F38C80554BDFF86091F7
:104D60001A68D9F8003001332A4404EB080A00F02D
:104D7000608102F580520F3222F47F6222F00F022E
:104D800011463046019200F061FCB0F1FF3F8346CE
:104D9000019A00F05881824500F2FC80454B196869
:104DA000DA451144196000F05381D9F80000DFF8AA
:104DB00010E101301BBFCAEB0B0A5144CEF800B022
:104DC00019601BF0070100F01781C1F10800C1F55F
:104DD0008051834408315A44C2F30B02C2EB0109EB
:104DE00049463046019300F031FC431C019B00F022
:104DF0003F81CBEB00024A4442F001021968C7F838
:104E000008B04944BC42CBF804201960DFF8A490F4
:104E100016D0B8F10F0F40F2FD806268A8F10C03C4
:104E200023F00703E01802F001024FF0050E1A43C9
:104E30000F2B6260C0F804E0C0F808E000F21C81AB
:104E40001D4BBC681A68914288BF19601B4B1A68D9
:104E50009142626888BF196022F003029542A2EB7A
:104E6000050301D80F2B04DC304600F0F5F90024CF
:104E700038E7621943F0010345F0010565603046EB
:104E8000BA60536000F0E8F90834204603B0BDE88A
:104E9000F08F142B71D9542B00F2A480280B00F151
:104EA0006F0E4FEA4E036E3076E600BF008EFF1F96
:104EB0004496FF1F4896FF1F4096FF1F3C96FF1F1A
:104EC0000C92FF1F5A0A042A5ED9142A00F2B380FA
:104ED00002F15C0149005B3207EB810C57F82110AD
:104EE000DFF8DC81ACF1080C8C4500F088804A6862
:104EF00022F00302934202D289688C45F7D1D1F89F
:104F00000CC07A68C4F80CC0A160CCF80840CC6032
:104F100088E6631942F0010745F0010565603046F7
:104F20004B610B61C3F80CE0C3F808E05F609A5076
:104F3000083400F091F9D5E64A6873E608F10108F3
:104F400018F0030F0CF1080C7FF47FAE30E0DC6842
:104F5000A34208BF02303FF435AEB3E60B440C4623
:104F60005A68C96854F8085F42F001025A60304636
:104F7000E9608D6000F070F9B4E603F15C0E03F1B6
:104F80005B004FEA4E0307E69A0902F13901490036
:104F90003832A1E7BC424A4B3FF400AF9C686268DC
:104FA00022F003025AE759F80839994540F0828007
:104FB00010F0030F00F1FF30F5D17B6823EA040302
:104FC0007B6064009C423FF6BDAE002C3FF4BAAE5D
:104FD0001C4240467FF435AE64001C4200F10400E0
:104FE000FAD02EE6B3F5AA7F18D8E80B00F1780EB8
:104FF0004FEA4E037730CFE54FF48051EBE60121C5
:10500000D8F80430921001FA02F21A43C8F80420CA
:10501000614677E70123CBF8043025E740F254528C
:10502000934220D8A80C00F17D0E4FEA4E037C304D
:10503000B2E51032A4E6542A26D81A0B02F16F0109
:1050400049006E3248E7BC68626822F0030205E757
:10505000CAF30B0000287FF4A8AE4244BB6842F0BC
:1050600001025A60ECE6FE234FF07F0E7E2093E5AE
:1050700001224FF00009C1E604F10801304601F0B9
:1050800075FED9F80010DBE6B2F5AA7F05D8DA0B79
:1050900002F17801490077321EE740F254518A420A
:1050A00005D89A0C02F17D0149007C3214E7FE21FB
:1050B0007E2211E77B6884E7E808431C5B00F8E583
:1050C000008EFF1F82B049B15AB16BB113780B60EB
:1050D0001278101C18BF012002B0704701A9002AE5
:1050E000F3D1104602B070476FF00100F4E700BF43
:1050F0008842F0B50DD98B1898420AD28118002A3F
:1051000051D09A1A13F8014D01F8014D9342F9D18B
:10511000F0BD0F2A48D941EA00039B0746D100F1B0
:10512000100401F11003154653F8106C44F8106C8C
:1051300053F80C6C44F80C6C53F8086C44F8086C89
:10514000103D53F8046C44F8046C0F2D03F1100368
:1051500004F11004E8D8A2F1100323F00F0302F0C9
:105160000F0E1033BEF1030F1944034421D91E1F43
:105170000D467446043C55F8047B46F8047F032C26
:10518000F8D8AEF1040424F0030404342344214489
:1051900002F0030262B1013B0A4411F8014B03F82B
:1051A000014F8A42F9D1F0BD0346F3E70346F2E727
:1051B000F0BD7246EEE700BF70B4840746D0541EBF
:1051C000002A41D0CDB2034602E0621EE4B3144689
:1051D00003F8015B9A07F8D1032C2ED9CDB245EA2A
:1051E00005250F2C45EA054519D903F1100226467D
:1051F000103E0F2E42F8105C42F80C5C42F8085C3E
:1052000042F8045C02F11002F2D8A4F1100222F07C
:105210000F0204F00F041032032C13440DD91E4664
:105220002246043A032A46F8045BFAD8221F22F0E9
:1052300003020432134404F003042CB1C9B21C4429
:1052400003F8011BA342FBD170BC70471446034610
:10525000C2E700BF704700BF704700BF024B0A465D
:105260000146186800F002B8908CFF1F2DE9F04F3E
:10527000174683B0002900F0C1800E46814607F131
:105280000B05FFF7E7FF56F804EC162D2EF003048C
:10529000A6F1080840D810221546AF4241D89442E2
:1052A00075DAC94B996808EB04008842416800F040
:1052B000D98021F0010303445B68DB077DD51EF034
:1052C000010F35D039464846FFF744FC0746E0B1A8
:1052D00056F8043C23F001034344A0F108029A422B
:1052E00000F04481221F242A00F23181132A00F2A7
:1052F000048103463246116819605168596092680A
:105300009A603146484601F031FD4846FFF7A4FF58
:10531000384603B0BDE8F08F25F00705002D2A467A
:10532000BBDA0C230020C9F8003003B0BDE8F08FD1
:1053300056F8083CC3EB080ADAF8043023F0030CF3
:1053400004EB0C039342BDDB5746DAF80C1057F818
:10535000080F221F242AC160886000F21781132AD7
:1053600040F212813168CAF808107168CAF80C104E
:105370001B2A00F22B8108360AF1100231681160F5
:1053800071685160B16891603E461C46D046631B0F
:105390000F2B1DD8D8F8043003F0010323434444F5
:1053A000C8F80430636843F0010363604846FFF7C0
:1053B00053FF304603B0BDE8F08F21F003012144D4
:1053C000914221DBC36882680C46D3609A60DEE7B5
:1053D000D8F8042008EB050102F00102154343F060
:1053E00001020B44C8F804504A605A6842F00102B6
:1053F00008315A60484601F0B9FCD7E7114603B0BE
:10540000BDE8F04FFFF7A6BB1EF0010F7FF45AAFC7
:1054100056F8083CC3EB080ADAF8043023F0030C12
:1054200001EB0C0E96458BDBC36882685746D36050
:105430009A6057F8081FDAF80C30CB60221F242A34
:10544000996000F29980132A62D93368CAF808304B
:105450007368CAF80C301B2A00F2A08008360AF1E3
:10546000100356E021F0030BA34405F1100083451F
:1054700059DA1EF0010F7FF425AF56F8081CC1EB76
:10548000080ADAF8041021F0030CE34458453FF70A
:1054900057AF5746DAF80C1057F8080F221F242A86
:1054A000C160886000F2B480132A40F2A5803168A0
:1054B000CAF808107168CAF80C101B2A00F2AF80F5
:1054C00008360AF110023168116071685160B168E4
:1054D00091600AEB0501C5EB0B0242F001029960F5
:1054E0004A60DAF8043003F001031D434846CAF865
:1054F0000450FFF7B1FE38465CE733680360736819
:1055000043601B2A27D800F1080306F10802F2E6DF
:105510003B4632681A6072685A60B2689A603E46CA
:105520007446D04633E708EB0501C5EB0B0B4BF097
:10553000010299604A6056F8043C03F001031D43E0
:10554000484646F8045CFFF787FE304632E73146AE
:10555000FFF7CEFDD5E6B3688360F368C360242A05
:1055600028D000F1100306F11002C4E650F8043C04
:1055700023F003031C440AE7314638467446D046FC
:10558000FFF7B6FD3E4602E73A46F7E631463846B3
:105590001C46D046FFF7ACFD3E46F8E6B368CAF8B5
:1055A0001030F368CAF81430242A1BD010360AF1E0
:1055B0001803AEE7336903617369436106F11802AA
:1055C00000F1180397E600BF008EFF1FB168CAF80C
:1055D0001010F168CAF81410242A0FD010360AF1FE
:1055E0001802CBE63369CAF818307369CAF81C3060
:1055F00018360AF120038CE73A4664E73269CAF8A4
:1056000018207269CAF81C2018360AF12002B5E683
:10561000314638460193FFF76BFD019B59E7B168AE
:10562000CAF81010F168CAF81410242A03D01036F2
:105630000AF1180247E73269CAF818207269CAF8F5
:105640001C2018360AF120023DE700BF38B5074C90
:105650000023054608462360FCF72CF8431C00D0C5
:1056600038BD2368002BFBD02B6038BD8496FF1F0C
:1056700070B411F0FF0434D085070FD00378002BED
:105680005AD09C422BD0431C05E013F8012B002A72
:105690004FD0944223D09A071846F6D10E0206F452
:1056A0007F462643036846EA064601E050F8043F79
:1056B00086EA0305A5F10132A3F1013122EA0502D0
:1056C00021EA0303134313F0803FEFD0037823B99B
:1056D00032E010F8013F002B2ED09C42F9D170BC73
:1056E000704784070BD00378002BF8D0431C03E0ED
:1056F00002780133002AF2D099071846F8D10268DF
:10570000A2F1013323EA020313F0803F08D150F8DD
:10571000042FA2F1013323EA020313F0803FF6D0F5
:105720000378002BDBD010F8013F002BFBD170BCBD
:105730007047104670BC7047184670BC704700BF79
:1057400080EA0102844612F0030F4FD111F0030FDB
:1057500032D14DF8044D11F0040F51F8043B0BD039
:10576000A3F101329A4312F0803F04BF4CF8043B8E
:1057700051F8043B16D100BF51F8044BA3F101329C
:105780009A4312F0803FA4F101320BD14CF8043B54
:10579000A24312F0803F04BF51F8043B4CF8044B85
:1057A000EAD023460CF8013B13F0FF0F4FEA3323F6
:1057B000F8D15DF8044B704711F0010F06D011F8D5
:1057C000012B0CF8012B002A08BF704711F0020FC3
:1057D000BFD031F8022B12F0FF0F16BF2CF8022BAE
:1057E0008CF8002012F47F4FB3D1704711F8012BD1
:1057F0000CF8012B002AF9D1704700BFFFFFFFFF13
:1058000090F800F06DE9024520F007016FF0000C00
:1058100010F0070491F820F040F049804FF00004A8
:105820006FF00700D1E9002391F840F000F1080083
:1058300082FA4CF2A4FA8CF283FA4CF3A2FA8CF3BB
:105840004BBBD1E9022382FA4CF200F10800A4FA22
:105850008CF283FA4CF3A2FA8CF3E3B9D1E9042376
:1058600082FA4CF200F10800A4FA8CF283FA4CF3AD
:10587000A2FA8CF37BB9D1E9062301F1200182FA67
:105880004CF200F10800A4FA8CF283FA4CF3A2FA6D
:105890008CF3002BC6D0002A04BF04301A4612BA7B
:1058A000B2FA82F2FDE8024500EBD2007047D1E97E
:1058B000002304F00305C4F100004FEAC50514F00D
:1058C000040F91F840F00CFA05F562EA05021CBFDE
:1058D00063EA050362464FF00004A9E7002A41D0BD
:1058E00040EA010313F00303F0B425D1032A23D9BE
:1058F00004680D68AC421FD1043A35D0A4F10135DB
:1059000025EA040414F0803F31D1071D0D1D0DE080
:1059100057F8043B0E68A3F10134B34224EA0304B0
:105920000AD1043A20D014F0803F23D1032A29461B
:10593000384605F10405EBD803780C789C4202F157
:10594000FF320CD182B114B916E06AB17BB110F804
:10595000013F11F8014FA34202F1FF32F5D0181BAD
:10596000F0BC7047104670471046F0BC70471846B0
:10597000F0BC70470020F3E72046F1E740EA01035E
:105980009B0770B42BD1032A29D90C460346214624
:1059900054F8046BA6F1013525EA060515F0803FA1
:1059A00006D1043A032A43F8046B2146EFD8A2B18A
:1059B0000C781C70013A013301313CB16AB111F825
:1059C000014B03F8014B013A002CF7D12AB11A44DC
:1059D000002103F8011B9A42FBD170BC70470346BB
:1059E000E5E700BF2DE9F0410F46904602F05AF975
:1059F00004460D46B8F1000F11D0C7F30A53C3F1A6
:105A00006B03002B0BDD1B0503F17F55002405F50F
:105A1000401522462B46FEF7D7F9BDE8F081204617
:105A20002946BDE8F08100BF2DE9F04F1D46A1B029
:105A30000023834628460E4607921C9301F032FE4F
:105A40000024002382460068CDE90434FFF7D8FE25
:105A50001B9681463246144612F8017B2D2F00F228
:105A6000B180DFE807F017AFAFAFAFAFAFAFAF8335
:105A700083838383AFAFAFAFAFAFAFAFAFAFAFAFE6
:105A8000AFAFAFAFAFAF83AFAFAFAFAFAFAFAFAF52
:105A9000AF2DAF80079B4FF000094FF0000A53B1C4
:105AA00000230893079B1E60089B23B149460AF117
:105AB000004389469A464846514621B0BDE8F08FDA
:105AC00000230893621C1B926778002FE2D0302FCE
:105AD00014467BD000230A940993A7F13003092BC5
