:1000000000800020BD010000D90C0000910C000010
:10001000910C0000910C0000910C0000910C00006C
:10002000910C0000910C0000910C0000D90C000014
:10003000D90C0000910C0000351E0000391F000093
:10004000D90C0000D90C0000D90C0000D90C00001C
:10005000D90C0000D90C0000D90C0000D90C00000C
:10006000D90C0000D90C0000D90C0000D90C0000FC
:10007000D90C0000D90C0000D90C0000D90C0000EC
:10008000D90C0000D90C0000D90C0000D90C0000DC
:10009000D90C0000D90C0000D90C0000D90C0000CC
:1000A000D90C0000D90C0000D90C0000D90C0000BC
:1000B000D90C0000D90C0000D90C0000D90C0000AC
:1000C000D90C0000D90C0000D90C0000D90C00009C
:1000D000D90C0000D90C0000D90C0000D90C00008C
:1000E000D90C0000D90C0000D90C0000D90C00007C
:1000F000D90C0000A9220000D90C0000D523000073
:10010000D90C000001250000D90C0000D90C00001A
:10011000D90C0000D90C0000D90C0000D90C00004B
:10012000D90C0000D90C0000D90C0000D90C00003B
:10013000D90C0000D90C0000D90C0000D90C00002B
:10014000D90C0000D90C0000D90C0000D90C00001B
:10015000D90C0000D90C0000D90C0000D90C00000B
:10016000D90C000001110000D90C0000D90C0000CE
:10017000D90C0000D90C0000D90C0000D90C0000EB
:10018000D90C0000D90C0000D90C0000D90C0000DB
:10019000D90C0000D90C0000D90C0000D90C0000CB
:1001A000D90C0000D90C0000D90C0000D90C0000BB
:1001B000D90C0000D90C0000D90C0000564B4CF2B1
:1001C000205210B51A804DF628121A8000BF00BFC9
:1001D00000F086FD514B4FF010621A60504A9A6051
:1001E000504ADA60504A136813F4807304D14F49BF
:1001F0000B604FF4A85313604D4B1A78110703D5C9
:100200001A7842F008021A704A4B4B492A221A7097
:100210004A4A4B4B8B4204D252F8040F43F8040B6A
:10022000F8E7484B484900228B4202D243F8042B9E
:10023000FAE74649464A002352F8230041F82300D2
:1002400001336F2BF8D1434B434A802103F8011B44
:100250009342FBD1414B3D4A1A60414B8A221A70AE
:10026000A3F5805324225A70A0221A709A7992071B
:10027000FCD59A79D406FCD43A4A937903F00C035E
:10028000082B384BF9D103221A7140225A719A79FE
:100290009006FCD5334A9179324B4906FBD5324A58
:1002A000324911600221516020221A709A7902F0BD
:1002B0000C020C2AFAD12E4B2E4A1A602E4B2F4AD2
:1002C0001A6000225A60072243F8042C2C4AC3F813
:1002D0000C2D62B600F0ECFD144B1B68DA0705D557
:1002E000284800F079FD284B284A1A60284B1B78D3
:1002F0005B0609D5244C254B22689A4204D121483B
:1003000000F06AFD0023236002F010FB00F0EEFC19
:1003100001F01AFEFEE700BF0E20054030800440C9
:10032000823F04000100002B10D0034014D0034092
:1003300002D0074000E007405C90FF1FFC3B00003C
:100340002087FF1F5C90FF1F0494FF1F0082FF1F88
:100350000000000000E400E05FE400E008ED00E0E1
:100360000050064000400640448004400000030165
:1003700004800440C010050014E000E0FF76010096
:1003800000002020BC71C7031CE00340A5C3945AA1
:1003900000F00740FFFFFFFFFFFFFFFFFFFFFFFF32
:1003A000FFFFFFFFFFFFFFFFFFFFFFFFFFFFFFFF5D
:1003B000FFFFFFFFFFFFFFFFFFFFFFFFFFFFFFFF4D
:1003C000FFFFFFFFFFFFFFFFFFFFFFFFFFFFFFFF3D
:1003D000FFFFFFFFFFFFFFFFFFFFFFFFFFFFFFFF2D
:1003E000FFFFFFFFFFFFFFFFFFFFFFFFFFFFFFFF1D
:1003F000FFFFFFFFFFFFFFFFFFFFFFFFFFFFFFFF0D
:10040000FFFFFFFFFFFFFFFFFFFFFFFFDEF9FFFF23
:1004100010B5054C237833B9044B13B10448AFF33E
:1004200000800123237010BD5C90FF1F00000000BE
:10043000003C0000084B10B51BB108490848AFF359
:1004400000800848036803B910BD074B002BFBD0A0
:10045000BDE81040184700BF000000006090FF1F7B
:10046000003C00005C90FF1F0000000010B5164C1F
:1004700040F6B831204600F015FB204613494FF4F2
:10048000E13200F0E9FA2046012100F0BFFA60B144
:10049000606C0F49036811225B68984720460A2167
:1004A00000F026FA204600F0D5FA01220021064885
:1004B00000F0C0FB0421074801F056FB0348BDE8EB
:1004C000104001F049BD00BFC090FF1F6487FF1FAF
:1004D000F43800000839000070B5294C84B0236856
:1004E0000193019B23B923680293029B012B1FD91F
:1004F000244D254E284600F00DFA326823499042DB
:100500000346086020D39A1AF92A11D94FF4FA71D8
:100510002846336000F008FA0121284600F076FAF8
:10052000A0B91848052100F0E3F9164800F064FA74
:100530000421174801F018FB164801F00DFD962024
:1005400000F068FC04B070BD3360F1E7284601217B
:1005500000F0FCF9686C1049036801225B68984759
:10056000236803930399686C00230A2201F004FDB9
:10057000284600F031FA284600F06CFAD1E700BFB7
:100580000C91FF1FC090FF1FA890FF1FAC90FF1F92
:10059000083900006487FF1F1039000000B585B0DE
:1005A0004FF0FF330293019300930B220349044859
:1005B00000F008F805B05DF804FB00BF8096184C09
:1005C0007890FF1F2DE9F04704464FF0FF360025D5
:1005D0005F4F41610846E7626660A660E66026619B
:1005E0004FF04651A58325626562258517469A46D8
:1005F00002F03AF8089E2760A0610121F8B2DDF808
:100600002490DDF8288000F0FFFB2078012100F025
:10061000F5FB771C666007D0F0B2012100F0F4FB17
:100620002946207900F0EAFBBAF1FF3FC4F808A0A0
:1006300008D05FFA8AF0012100F0E6FB0021207A61
:1006400000F0DCFBB9F1FF3FC4F80C9008D05FFA72
:1006500089F0012100F0D8FB0021207B00F0CEFBC7
:10066000B8F1FF3FC4F8108008D05FFA88F001218C
:1006700000F0CAFB0021207C00F0C0FB354BE26A91
:10068000D97A002945D11B68D968914207D03248F0
:1006900018603249DA6042F0804018611960A18B1D
:1006A0004FF000400A0AD8625A63DA6A002AFCDA7C
:1006B000C9B24FF00042986BDA625963DA6A002AD5
:1006C000FCDA4FF00041C022986BD9625A63DA6AB3
:1006D000002AFCDA4FF000410022986BD9625A637D
:1006E000DA6A002AFCDA4FF00041E022986BD96206
:1006F0005A63DA6A002AFCDA4FF000410022986B54
:10070000D9625A63DA6A002AFCDA9B6B2046BDE89C
:10071000F08772B6D97ACE07084606D5104DD8684C
:100720002E6830409861286008468D0706D50D4D2B
:1007300019692E68D87A3140D9612960410705D5F9
:1007400009485969056829401962016062B69AE74B
:10075000000001BD2487FF1F01401F0000001F8013
:1007600080E100E084E100E088E100E010B5064CA3
:100770000649204601F090FC2046054A0549BDE89F
:10078000104002F0C1B800BFB090FF1F4839000010
:100790002087FF1F1920000010B4047F4160022C45
:1007A000C26002D010BC01F0E3BA836810BC1847E5
:1007B000F0B4464B464A186BDC6A01791170454922
:1007C00022790A709A6A00790870002A46D059681E
:1007D000C9688A423ED82168CC8B240402F1FF30DC
:1007E00065D4C0F30E00C883C88B80B2C882196B71
:1007F0000968C88B000452D4C2F30E00C883C88BAA
:10080000002480B212F1FF32C88218BF01229C621C
:10081000D96A2E4809680D6800F12404A54236D033
:100820000068C46814F0804F0C680D6815BF2488F8
:1008300024780235013544F000440D604463196B9F
:10084000254B09791970214912B1CA6A12791A70B7
:10085000F0BC7047521A9A620122D9E7586B1968A6
:1008600005681E4C0A63CC62CC682D681C4E24F0CF
:1008700080440327B542CC6083F825701FD1037FE5
:100880004260022BC2601ED0F0BC01F071BA016858
:1008900090F82400CC6840F000404863CFE7CC8B50
:1008A000C2F3080004F47E442043C883A7E7CC8B3E
:1008B000C0F3080004F47E442043C88394E72B4629
:1008C0001146F0BC18478368F0BC18472487FF1F07
:1008D0001F8000401C8000401B80004000000FFF74
:1008E0009907000001F0DAB801F0FCB801F012B984
:1008F000074882B003680193019A114401E09942CC
:1009000004D303680093009B9A42F8D902B0704761
:100910000C91FF1F034B82B01B680193019802B03A
:10092000704700BF0C91FF1F10B4074B82681B6813
:10093000016183B000240193019B4461C260836024
:1009400003B010BC704700BF0C91FF1FF0B51E4BE9
:100950001E4D1A680446406C83B0036801920F462E
:100960005B681B49019E062298473946606C00234C
:100970000A2201F001FB606C1649036803225B68E0
:1009800098473146606C00230A2201F0F5FA606C4A
:10099000036829465B6801229847A168606C711A58
:1009A00000230A2201F0E8FA606C036829465B68BC
:1009B00001229847E368A168606CC91A0A220023E3
:1009C00001F0DAFA03B0F0BD0C91FF1FDC39000032
:1009D000D0390000D839000010B5446C05492368AF
:1009E00020465B68062298472046BDE8104001F08B
:1009F000B3BA00BFE0390000034B82B01B6801931B
:100A0000019B836002B070470C91FF1F10B4104A25
:100A100085B0A1B9136800934168009B591A6329F6
:100A20000DD813680293029C04F16403591A01E083
:100A3000994204D313680193019B9C42F8D913682F
:100A40000393039B4360012005B010BC704700BFB7
:100A50000C91FF1F704700BF2DE9F0410D4D0E4E68
:100A6000DFF83C800D4F41641B2401E000F0D2F917
:100A70002B78C82043B133789B0705D0D8F80030D5
:100A80003A689B1A182B03D8013CEFD1BDE8F081DE
:100A9000BDE8F081F091FF1F0892FF1FFC93FF1F3C
:100AA0000C91FF1F00238364436071B1074882B03B
:100AB00003680193019A114401E0994204D3036849
:100AC0000093009B9A42F8D902B070470C91FF1F27
:100AD00070B5144C84B00546406C236803930368DA
:100AE000039A6A600E465B680F49062298473146B2
:100AF00000230A22686C01F03FFA686C0B49036816
:100B000008225B68984723680293029A02F1320137
:100B100001E0994204D323680193019B9A42F8D9DA
:100B200004B070BD0C91FF1FE8390000F0390000DF
:100B3000F8B5037E0BB96320F8BD0446406C3B4E0C
:100B400003681B69B3420D466AD100F0E3FF10F061
:100B5000FF0F01D16520F8BD354F606C03681B693C
:100B6000B3425FD100F0D6FF10F0FF0FF2D0606CFF
:100B700003685B69BB4257D100F090FFC3B2A3F199
:100B800058021E2AE9D801A151F822F0190C0000E0
:100B90005B0B00005B0B00005B0B00005B0B0000BD
:100BA0005B0B00005B0B00005B0B00005B0B0000AD
:100BB0005B0B00005B0B00000D0C00005B0B0000EA
:100BC0005B0B00005B0B00005B0B0000370B0000B1
:100BD0005B0B00005B0B00005B0B00005B0B00007D
:100BE0005B0B00005B0B00005B0B00005B0B00006D
:100BF000370B00005B0B00005B0B00005B0B000081
:100C00005B0B0000090C00001846F8BD2046294681
:100C1000FFF75EFF6320F8BD002323766320F8BD55
:100C2000984794E798479FE79847A7E7ED080000A3
:100C3000E508000070B5054682B01646C9B101232B
:100C40000D4C037600212846FFF772FF632810D071
:100C500023680193019A511C23680093009B9A42D8
:100C6000F0D89942F8D200212846FFF761FF6328A7
:100C7000EED12E7602B070BD0C91FF1F034B002207
:100C80009A60DA601A615A61704700BFC090FF1F16
:100C900008B5104C08E0236859050DD423681A05DF
:100CA0000FD42368DB0411D423685803F3D500F074
:100CB00027FA23685905F1D501F0F6FA23681A05D9
:100CC000EFD501F087FB2368DB04EDD501F018FCBC
:100CD000EAE700BF3480044008B5FFF7D9FF00BF42
:100CE000014B10221A80704700200540704700BF5A
:100CF000094908B50B6830B16A461844A2F580521C
:100D0000904202D20860184608BD01F009FE0C238B
:100D100003604FF0FF3008BD5C87FF1F10B40F4B1E
:100D200053F8302092F880422CB1012369B182F847
:100D3000803010BC704703EBC0035B681A6841B990
:100D400022F002021A6010BC704782F8003110BC19
:100D5000704742F003021A6010BC7047443A00002A
:100D60001C4A02EBC00301295B6811D004291BD087
:100D700052F83000002280F8802229B1022920D0C8
:100D8000032922D01A6070474FF480721A607047AE
:100D900052F830004FF4A27280F880121A601A687C
:100DA00022F020021A60704752F830104FF4A272FD
:100DB000012081F880021A601A6842F020021A604D
:100DC000704740F203121A6070474FF481721A6044
:100DD000704700BF443A000030B4054B054D064C47
:100DE000002210211A602A602060196030BC704710
:100DF00014D0034004D0034000D00340212801D880
:100E0000FFF78CBF704700BF212801D8FFF7A8BFAC
:100E1000704700BF2DE9F843054672B6204F214BBD
:100E2000214A1B683C68126862B6520102D5322B17
:100E300088BF013495B3C3F5BB331C4EDFF8649013
:100E4000DFF86480FF334FF47A72A6FB031302FBD2
:100E500004F404EB931472B6D9F800103A68D8F889
:100E600000E062B6C1F5BB33FF33A6FB03031EF0FF
:100E7000806FC4EB93134FF47A7002D0322988BF8D
:100E8000013200FB0233B3F57A7F04D3013D05D074
:100E900004F57A74DFE701F013F9DCE7BDE8F883C5
:100EA0000C91FF1F18E000E004ED00E0ABAAAAAA35
:100EB000F8B52D4B2D49DFF8D0E0DFF8D0C02C4E2F
:100EC0002C4D2D4C2D4A2E4F4FF4000018604FF042
:100ED000807018604FF0007018604FF080601860EC
:100EE0004FF0006018600020086028234BF6FF7167
:100EF000CCF80010CEF80030336013602B60236014
:100F00003B60B3629362092245F8242CC4F8D80FE1
:100F100005F57F65C7F8D41F07F5FF2707F5FA67C2
:100F2000C6F8F83F2B6006F5FF26C4F8D42F05F568
:100F3000FD2504F5FF24386006F2F476114831608F
:100F400005F5FF6504F5FD642B602360026001F088
:100F500005F93220FFF75EFF00F0FEFC4FF4AF70A2
:100F6000BDE8F840FFF756BF08E100E00480034009
:100F700014800340248003402C8003401C800340E5
:100F80003480034000800B400C8003400880034005
:100F9000431E032B14D872B60A4951F8230068B1D6
:100FA00070B4094C058834F81320466841F8236072
:100FB000521B24F8132062B670BC704762B67047AB
:100FC000002070476891FF1FEC93FF1F0138032832
:100FD0000BD872B6074B53F8203043B100205B6842
:100FE0000130002BFBD162B67047002070471846D5
:100FF000F9E700BFBC91FF1FF0B472B61A491B4E4F
:10100000012311F8014B194F9A00240742F0010502
:1010100005D556F8324064B156F83520BAB10133DF
:10102000052BEED162B6124B00221A70F0BC00F014
:101030000FBD0F4C0F4D217847F8325007EB43138B
:1010400008304A1E5860227062B6F0BC70470849EA
:10105000094B0A7847F8353007EBC5030830013AE9
:1010600058600A7062B6F0E7803B00000080FF1F06
:10107000E591FF1F88004000C8004000431E032B7D
:101080001DD81B4A400140F0100030B4104472B625
:10109000184CE25C032A1BD8DFE802F00212151795
:1010A00003220D88E25410F0080F14BFC8238823D0
:1010B00043EA054308310360416062B630BC7047C3
:1010C00008300222EDE70522EBE708300422E8E7CA
:1010D000094A52F8230038B1084A52F82300416007
:1010E00042F8231062B6E9E742F82310034AF7E713
:1010F0000080FF1FF491FF1FBC91FF1FCC91FF1FC9
:101100002DE9F04FDFF804A3DFF804B387B044E023
:10111000A94F4FEA930807EBC809013ED9F804200C
:1011200003F00803F6B2A2F1080003F0FF04002B5D
:1011300040F0FE8057F838301B0C99B222F8081C9A
:10114000002B00F0EC809D4B22F8064C42F8044C3A
:1011500053F82620002A00F02B82994D55F82630AE
:101160005860984C45F8260034F81630194424F895
:10117000161000F04DFC002800F01382924A934BA9
:1011800019F0080F00F1080018BF1346C9F8040051
:1011900047F8383008238AF800309AF80040E4B263
:1011A00060071AD58A4B1B78A3B18A490A7802F0E6
:1011B000FF0322B1013BDBB20B7003B900BE8649CD
:1011C0000A7802F0FF032AB1013BDBB20B70002B5F
:1011D00000F0BD8104238AF8003004F0080303F016
:1011E000FF02002B00F0C8809BF80030DBB21E0924
:1011F0008ED19C08704F57F8342007EBC401C2F31E
:101200008302013A49680C2A00F28580DFE802F087
:101210007979838383838383428383830700086888
:101220006E4B6F4D0193684B4A686E4E47F83430F1
:1012300081B240F28164694B6A602860002201201B
:10124000A1421A603A61BA61307000F2E380B1F5F0
:10125000D06F80F02782B1F5817F00F0E08100F24D
:10126000C381802900F03682822940F0DE81A9887E
:101270005D4B01F07F01042900F2D8815B4C8900AD
:101280000B44227062701A78930740F12283207019
:10129000022023E2514B01931A683AB3544B514E4A
:1012A0005449188834780D784028864645F002085D
:1012B00028BF4FF0400E002C84F001043470CEEBB8
:1012C00000000CBF8824C82407EBC80680B285F054
:1012D000010544EA0E447260188047F838407244B1
:1012E0000D70002800F0B780019B1A603C4B1A88F3
:1012F000B2F5A06F0FD100219A7859703E4B1A7049
:1013000009E0374A108842F22102904200F0A8809A
:101310002D4A47F83420394A012313703AE72A4A04
:101320002A4B19F0080F18BF134647F8383031E739
:1013300000F08EFB324A334952F82630002B00F081
:101340003B8158688C5D42F8260003F10802C9F819
:101350000420032C05D8DFE804F02C022926022201
:101360008A551A8819F0080F0CBF8823C82343EA4E
:10137000024347F838300DE7E00700F1EB80210623
:1013800000F12881A20706D51F4A204913780220C0
:10139000DBB213700870E30602D51C4B10221A70E2
:1013A00007B0BDE8F08F04228A55DAE705228A5596
:1013B000D7E703228A55D4E70080FF1F6891FF1FFB
:1013C0001491FF1FEC93FF1FC800400088004000ED
:1013D000F091FF1F7991FF1FF891FF1F1091FF1FE0
:1013E000DC91FF1F7891FF1FC0200740E891FF1F8D
:1013F0002491FF1FE491FF1F98200740942007408D
:10140000BC91FF1FF491FF1F8820074080200740F8
:101410009020074042F22104A14200F0948043D87A
:10142000B1F5086F00F0A881B1F5106F40F0FD80B4
:10143000B84AB94CA978117004F1800503E008346A
:10144000AC4200F09E81236A1906F8D5606A08381C
:1014500000F0FEFAF3E7BEF1400F18BF002243E7A9
:10146000AE4ACD1D11F8013B02F8013FA942F9D166
:10147000AB4A1268862A00F01181AA49AA4E0A785E
:10148000307882F00105002842F002020D700CBF96
:101490008821C82147F8321007EBC20280F0010012
:1014A00000213070516033E742F22124A14240F024
:1014B000FE81DFF8BCC29D4B9D49AC78DCF8005042
:1014C0001D6081460C7000200290804684460446D0
:1014D00094490D7845F0020E07EBCE03B9F1000FE9
:1014E0005C600CBF8824C82444EA080385F001042A
:1014F00047F83E3032700C70DFF81CE28A4BDFF8A0
:101500002482002840F09880BCF1400F1BD144F0A9
:10151000020407EBC403029FDFF8FCE15F60002ACE
:1015200040F09F80020442F0880207444EF83420C5
:1015300086F800900D703B46402804D100207D4A7B
:10154000019910800B607C4A01231370E3E600F0E0
:10155000EBFB3FE6704B784872491A614FF0020E80
:1015600080F800E0754F0A70754919609960754EF2
:10157000754D764C9A610D213970FF213170DFF87D
:10158000F4E129702270724D724A8EF800109F2784
:10159000012406F8047C5D600470DA6007B0BDE8E1
:1015A000F08F6D4A47F83800137801331370F1E576
:1015B00043F82600694DD4E58B5D032B67D801A263
:1015C00052F823F095110000951100001916000043
:1015D0001316000059495C4B80220D2008701A70C8
:1015E000A2077FF5D8AECFE640F20232914240F03A
:1015F0005681A98801F07F01042916D86A88A2B90A
:101600004E4C89000C448146217841F00201217042
:1016100059E701238B55BDE500238B55BAE5A98811
:1016200001F07F01042940F24781444B0F221A70D8
:10163000414A012313706EE640287FF668AF44F0FC
:1016400002040EEBC401029E4E60AAB1444A83F824
:1016500000903346403888F8005040334EF834202C
:101660006DE70204029B86F8009042F0C8020D70FC
:1016700003444EF834205FE783F80090029B304A21
:1016800088F80050403840334EF8342057E719F0BE
:10169000080F0CBF022303238B557BE5314A0F2132
:1016A0001170EAE6304A5468002CBED06888B5F85C
:1016B00004E003E00C325468002CB6D01388834257
:1016C000F8D153887345F5D1000A03280CBF207860
:1016D000108903E0254C022022706270EA88824261
:1016E00080F00C810F490D78402A45F0020E944697
:1016F00007EBCE0028BF4FF0400C04EB0C03446016
:101700000293CCEB02004FEA0C484FF00109002293
:10171000C824E9E6F091FF1F0080FF1FF393FF1F2D
:10172000F493FF1FE491FF1F7891FF1FFC93FF1FAD
:101730000892FF1F2491FF1F94200740C0200740FC
:1017400088004000882007408020074098200740FC
:101750002891FF1F7C91FF1FE591FF1F1491FF1F30
:10176000C80040007991FF1F843B0000E891FF1FF3
:101770000C91FF1F8C200740684A694C1278227038
:10178000ACE76849684B694A02916949694C6A4DFE
:10179000039405964FF0000988461C4616460495AA
:1017A000206828B1456800F053F92846002DF9D18A
:1017B00000232360049B30681A46002342F8293036
:1017C00028B1456800F044F92846002DF9D10022DF
:1017D0003260029A98F800301146002241F8042B3A
:1017E000039A0291023B4FF0000122F81910032BDB
:1017F00007D8DFE803F0340234024FF0010388F821
:10180000003009F10109B9F1040F04F1040406F1F3
:10181000040608F10108C3D1484B059EDFF830915A
:10182000DFF8308100211970012518F8013B09F813
:10183000043B1A0718D4AC0044F0020244F003043D
:10184000002347F8323047F834303D4B994505F1D5
:101850000105EAD196F8009089F0010233E64FF0D5
:10186000000388F80030CCE700F0D2F8AC0007EBBA
:10187000451300F10802002837D05A60314B47F871
:10188000343000F0C5F844F0010307EBC30200F167
:10189000080100B351602C4A47F83320CCE7B1F57A
:1018A000A06F7FF4C2AE00224FF001090BE642F2B6
:1018B00021329142F7D0B8E66A88002A7FF4B5AEAB
:1018C000224C89000C448146217821F002012170CC
:1018D000F9E5022002E7194B44F001021B7847F8B2
:1018E0003200164A01331370A6E7144B134A1B78D3
:1018F000AC00013347F834001370C2E74028844637
:1019000028BF4FF0400C04EB0C03CCEB00004FEA77
:101910000C48029300224FF00109D9E5F091FF1F16
:10192000E891FF1FCC91FF1F6891FF1FBC91FF1F23
:10193000F491FF1FEC93FF1F1491FF1FE591FF1F10
:10194000D420074088004000C8004000C020074065
:10195000C4200740803B00002DE9F843204C00F0F4
:101960003BFE002204F1880023461A605A600833C7
:1019700083424FF00001F8D11A4A1B4F13681B4DE8
:101980001B481C4EDFF87880DFF878C0DFF87890CD
:10199000DFF878E043F480231360C4F307233B703F
:1019A000C4F307432B70240EFF2302F52832047082
:1019B000114D88F8003011488CF80030D432337063
:1019C000012389F8003070268EF800104FF400745F
:1019D000102107F8183C2E7004601170BDE8F883E0
:1019E0000080FF1F348004409C200740B020074047
:1019F000B42007401020074049E400E008E100E07F
:101A0000802007408820074094200740002107409D
:101A100072B60D480268B2FA82F30B2B10DC4FF05D
:101A20000041D94022EA0102026062B6074803EB96
:101A3000C303DB00C2180021C1501046516070473B
:101A400062B60020704700BF6087FF1FBC83FF1F86
:101A50000D4B0E4AC31AA2FB03231B090B2B0CD8F8
:101A60000B4A127852B972B60A484FF00041026828
:101A700021FA03F31A43026062B67047064A1278ED
:101A8000002AF0D0FFF7B8BABC83FF1F398EE338C5
:101A9000E591FF1F6087FF1FF091FF1F38B50F4DC5
:101AA000286878B143880288C118013393420C7AC0
:101AB00002D24380204638BDFFF7CAFF00232046EC
:101AC0002B6038BD064B1B782BB10320FFF760FA63
:101AD00028600028E6D14FF0FF3038BD0492FF1F88
:101AE000F091FF1F10B5094C206818B143881844C5
:101AF000007A10BD064B1B782BB10320FFF748FA84
:101B000020600028F2D14FF0FF3010BD0492FF1F7B
:101B1000F091FF1F044B054A1B6890881BB11A887F
:101B20005B88D31A184470470492FF1FEC93FF1F81
:101B30000B4B1B789BB110B50A4C206848B1FFF7DE
:101B400087FF002303202360FFF722FA30B1FFF75D
:101B50007FFF0320FFF71CFA0028F8D110BD704763
:101B6000F091FF1F0492FF1F2DE9F04FDFF8F8906E
:101B700083B0012289F80020019169B3DFF8EC807D
:101B8000364F019E8346D8F80000B0B3344D4488E8
:101B9000C4F14001B14228BF314604EB010E0022DE
:101BA0001FFA8EFE2A70761AA0F802E000F10802F1
:101BB00051B1013C224459441BF8014B02F8014F3A
:101BC0008B45F9D1B0F802E0BEF13F0F0BD8254AA2
:101BD00005211170002ED6D10198002389F800301C
:101BE00003B0BDE8F08F4022028001460420FFF7D9
:101BF00045FA0022C8F80020E9E73A782AB3184DE0
:101C00004AF2F9244FF0010A07E0013C16D02A7885
:101C1000A2B900F055FA3A78BAB10420FFF7D6F924
:101C20000728F2D889F800A0FFF7F2FEC8F80000F4
:101C30000028ACD10C4B013C1870E8D101234FF0C7
:101C4000FF302B7003B0BDE8F08F00234FF0FF3062
:101C500089F8003003B0BDE8F08F00BFF091FF1F9E
:101C60000092FF1FF891FF1FF991FF1FFC91FF1FCA
:101C700000B583B002AB012103F8010D1846FFF750
:101C800073FF03B05DF804FB38B50E4D0E4C2868A9
:101C90000123237028B1408800232370C0F1400045
:101CA00038BD0A4B1B7813B90020207038BD0420C2
:101CB000FFF78CF90728F7D8FFF7AAFE286000285D
:101CC000E9D1F1E7FC91FF1FF991FF1FF091FF1F90
:101CD000F8B5114B1B788BB1104E114D34680127AC
:101CE0002F7064B10F4A6388002717702146238044
:101CF0000420FFF7C3F9376000232B70F8BDFFF70E
:101D000087FE084B28B1014604201C70FFF7B6F986
:101D1000F2E71F70F0E700BFF091FF1FFC91FF1F7B
:101D2000F991FF1FF891FF1F38B50E4B1B7873B95F
:101D30000D4C216861B103F0FF054B880B80042036
:101D4000FFF79CF9256038BD084B01221A7038BD99
:101D5000FFF75EFE0028F7D00146BDE838400420BA
:101D6000FFF78CB9F991FF1FFC91FF1FF891FF1F3E
:101D700010B4EFF3108272B6437F33B9017F0129AB
:101D800007D003290FD00123437702B962B610BCF4
:101D90007047124C2168A1B1114943610B688361FE
:101DA00008605861EFE70F4C216881B10E4943612B
:101DB0000B688361086058610C4B4FF080511960CB
:101DC000E1E7074B4161816120601860DBE7064B6A
:101DD0004161816120601860EEE700BF1C92FF1F27
:101DE0001892FF1F0C92FF1F1092FF1F04ED00E0DE
:101DF00070B5EFF3108272B60C4C206880B10C4EB7
:101E000000254369236073B19D6102B962B64577CD
:101E100083689847EFF3108272B620680028F0D1EB
:101E200002B962B670BD3360EFE700BF0C92FF1FCE
:101E30001092FF1FFFF7DCBF184A30B41468002C63
:101E400027D0036821688B420ED2CB1A0021846010
:101E5000C1602360E06010600223037530BC7047EE
:101E600011688B42144608D3A2685B1A0360002AEB
:101E7000F6D18260C460A060EEE7D268C260846080
:101E8000E060C568CB1A0222A8602360027530BCEE
:101E900070478460C4601060DEE700BF1492FF1FCB
:101EA000F8B5224E34682CB32368002B3AD1204F6A
:101EB0001D4604E03468ECB12368002B32D1A368DE
:101EC00003B1DD6020693360036825751B68BB4280
:101ED00021D1037F4560022BC46020D0FFF748FF6B
:101EE0006368002BE6D023602046FFF7A5FF346827
:101EF000002CE1D1EFF3108372B60E4A0021106876
:101F0000116003B962B628B18468FFF795FF2046D7
:101F10000028F9D1F8BD224600219847E0E7836800
:101F20009847DDE7013B2360E4E700BF1492FF1F01
:101F3000990700002492FF1F024A136801331360BF
:101F4000FFF7AEBF0C91FF1F08B5FEF78FFAFEF743
:101F5000C3FA00F0B5F8FAE700B5064A036812883C
:101F60005B6883B001A9ADF804200222984703B052
:101F70005DF804FB543B0000F0B507468BB0002A27
:101F800033D0012A08BF0A2251B3212400E0F4B261
:101F9000B1FBF2F502FB1511C8B2092900F13001BD
:101FA00098BFC8B20AA988BF3730214488BFC0B2E1
:101FB00001F8240C661E2946002DE8D133B1013CFE
:101FC000E4B20AAB23442D2203F8242C3B6801AA77
:101FD00011195B683846C4F1220298470BB0F0BD76
:101FE00030228DF825202124E8E70368C9B21B6858
:101FF00098470BB0F0BD00BFFFF79ABDFFF768BE72
:10200000FFF742BE08461146FFF7AEBD0846FFF790
:102010002FBE00BF704700BF10B50446006800F037
:10202000B5FC204610BD00BF38B543688B4201D3D4
:10203000012038BD0D4604460131006800F0CEFF96
:102040000028F6D0A36884E82100002BF0D10370AB
:10205000EEE700BFF8B50446154632B9036803B190
:102060001A700023A3602046F8BD0E461146FFF704
:10207000DBFF074648B9206810B100F087FC2760F5
:1020800000236360A3602046F8BDA5603146206848
:1020900001F0AEF9E7E700BF38B50023044603605E
:1020A00043608360037341B108460D4601F008FAAE
:1020B000294602462046FFF7CDFF204638BD00BF27
:1020C00038B5224C237803B138BD01232370FFF7C4
:1020D00021FD70BB00F0D8F840BB00F06BF910BBDD
:1020E00000F0FEF9E0B900232370EFF30583002B25
:1020F000EAD1EFF3108172B6154B1868E0B1154CB8
:102100002278CAB945691D6001232370C5B1AA614F
:1021100001B962B600254577836898472570D3E7F3
:1021200000F0A0FADFE700F09BFAD9E700F096FA9A
:10213000D3E7FFF76FFFCDE70029C5D162B638BD01
:10214000054B1D600029E5D1E3E700BF2892FF1F82
:102150001C92FF1F2092FF1F1892FF1F30B42948C6
:10216000294A2A4B2A4D6024E121047011701B7802
:10217000284C082B30D00A2B2748284937D00C2B65
:102180000CBF35223D2212232A60236002600B60BF
:10219000234B24491B78244ABBB101230B601360F5
:1021A000224B23491B78234A012B26D9042B0FD914
:1021B000082B1ED9102B94BF862387230B60136036
:1021C0001D4B01221A7030BC70470B601360E7E7AB
:1021D00084230B601360F3E700F58E200F4908306D
:1021E000012213232A60236002600B60D0E73922AA
:1021F000F7E785230B601360E2E780230B60136031
:10220000DEE700BF00400740014007407487FF1F22
:1022100008B003400CB0034008B00B400CB00B40BA
:102220002A92FF1F20B0034020B00B407587FF1F8C
:1022300024B0034024B00B402992FF1FF0B44D1E80
:102240002E46002400E00134B0FBF2F302FB130041
:10225000092800F130078ABF3730F8B2C0B206F85B
:10226000010F1846002BEED10A1953704CB11078AB
:1022700015F8016F28700133E01A834202F80169F2
:10228000F5DB0846F0BC7047054A064B10781B7812
:10229000C0B2DBB2984238BF4030C01A704700BFAE
:1022A0003092FF1F3192FF1FF0B4384B1A7912F0B1
:1022B000300F2CD072B6997D01F0FF0200293DD07D
:1022C00062B6334F334938780D78334E1C46C0B26E
:1022D000EDB2431C402BE17928BF0023AB4202F151
:1022E000FF32C9B21CBFF154184612F0FF02F0D100
:1022F0002A4B1B68C2B23A704BB1A84236BFC5F137
:102300004005401B40192728C4BF01221A701F49ED
:10231000CA78D2B2150616D452060DD51B4B1B79BE
:102320005B0609D51E4B1F491B6800220A7003B1CA
:102330001A70164B3C22DA70F0BC70474022D979F3
:102340005A7462B6E3E70B791C06E5D5164B174EB7
:102350001C783378E4B2DBB29C420ED0144D01E01D
:10236000A3420AD00133402B28BF00230879E85C40
:10237000C0B2C871087D0728F2D9DBB203493370B7
:102380000B79180644BF7C23CB70C5E700A006403C
:102390003092FF1F3192FF1F7492FF1F2C92FF1F7C
:1023A000B892FF1FB492FF1FBC92FF1FB592FF1F90
:1023B0003492FF1F054A064B10781B78C0B2DBB27F
:1023C000984238BF4030C01A704700BF3093FF1F9B
:1023D000C592FF1FF0B4384B1A7912F0300F2CD091
:1023E00072B6997D01F0FF0200293DD062B6334FED
:1023F000334938780D78334E1C46C0B2EDB2431CD9
:10240000402BE17928BF0023AB4202F1FF32C9B271
:102410001CBFF154184612F0FF02F0D12A4B1B6882
:10242000C2B23A704BB1A84236BFC5F14005401B5D
:1024300040192728C4BF01221A701F49CA78D2B296
:10244000150616D452060DD51B4B1B795B0609D514
:102450001E4B1F491B6800220A7003B11A70164BED
:102460003C22DA70F0BC70474022D9795A7462B6C7
:10247000E3E70B791C06E5D5164B174E1C7833782D
:10248000E4B2DBB29C420ED0144D01E0A3420AD06C
:102490000133282B28BF00230879E85CC0B2C8713B
:1024A000087D0728F2D9DBB2034933700B7918068F
:1024B00044BF7C23CB70C5E700B006403093FF1FBC
:1024C000C592FF1FF092FF1FC092FF1F3493FF1FA2
:1024D000C492FF1F3893FF1F3193FF1FC892FF1F45
:1024E000054A064B10781B78C0B2DBB2984238BF61
:1024F0004030C01A704700BF4093FF1F4193FF1F39
:1025000030B42B4B1A7994061FD52A48DA79037810
:10251000294901333F2B0978C8BF00238B42D2B22F
:1025200003D0264CD9B2E2540170254A116861B13A
:10253000244A1278D2B2934236BFC2F140029B1AAB
:102540009B18272BC4BF01230B70194AD378DBB229
:10255000180611D45A060DD5154B1B795B0609D503
:10256000194B1A491B6800220A7003B11A70104BEC
:102570002C22DA7030BC704711790906EAD514496B
:1025800010480C780178C9B28C420DD04A1C272A19
:1025900084BF00210A460F4D054C98BFD1B2AA5CFA
:1025A000D2B2E2710170D5E76C21D170D2E700BFE1
:1025B00000C006404093FF1F4193FF1F6C93FF1F15
:1025C0003C93FF1FAD93FF1FB093FF1FAC93FF1F02
:1025D000B493FF1F4493FF1F70B584B072B6194BBC
:1025E000194D1A48702241260F2480211A702E702E
:1025F0001A460470197013781B06FCD5144B186822
:1026000062B6144B144C984298BF00EB800001A9AD
:1026100098BF40000A22FFF711FE01A920460023BF
:1026200011F8012B01333AB10A2B20F8022FF7D110
:102630001623237004B070BD5B00DBB2237004B0BE
:1026400070BD00BF000002400700024006000240CB
:10265000080002407F9698000488FF1F704700BF63
:10266000704700BF704700BF4FF0FF0C1CEAD0520C
:102670001EBF1CEAD15392EA0C0F93EA0C0F6FD0E5
:102680001A4480EA010C400218BF5FEA41211ED0C3
:102690004FF0006343EA501043EA5111A0FB0131AF
:1026A0000CF00040B1F5000F3EBF490041EAD37184
:1026B0005B0040EA010062F17F02FD2A1DD8B3F100
:1026C000004F40EBC25008BF20F00100704790F06F
:1026D000000F0CF0004C08BF49024CEA502040EAC1
:1026E00051207F3AC2BFD2F1FF0340EAC250704787
:1026F00040F400004FF00003013A5DDC12F1190FC5
:10270000DCBF00F000407047C2F10002410021FA36
:1027100002F1C2F1200200FA02FC5FEA310040F14E
:10272000000053EA4C0308BF20EADC70704792F0C7
:10273000000F00F0004C02BF400010F4000F013AFF
:10274000F9D040EA0C0093F0000F01F0004C02BFFA
:10275000490011F4000F013BF9D041EA0C018FE769
:102760000CEAD15392EA0C0F18BF93EA0C0F0AD06F
:1027700030F0004C18BF31F0004CD8D180EA010095
:1027800000F00040704790F0000F17BF90F0004F2E
:10279000084691F0000F91F0004F14D092EA0C0F10
:1027A00001D142020FD193EA0C0F03D14B0218BFA3
:1027B000084608D180EA010000F0004040F0FE40E9
:1027C00040F40000704740F0FE4040F44000704785
:1027D0004FF0FF0C1CEAD0521EBF1CEAD15392EA04
:1027E0000C0F93EA0C0F69D0A2EB030280EA010CF4
:1027F00049024FEA402037D04FF0805343EA11118D
:1028000043EA10130CF000408B4238BF5B0042F1EA
:102810007D024FF4000C8B4224BF5B1A40EA0C008F
:10282000B3EB510F24BFA3EB510340EA5C00B3EBC1
:10283000910F24BFA3EB910340EA9C00B3EBD10FAF
:1028400024BFA3EBD10340EADC001B0118BF5FEA01
:102850001C1CE0D1FD2A3FF650AF8B4240EBC2502A
:1028600008BF20F0010070470CF0004C4CEA5020EB
:102870007F32C2BFD2F1FF0340EAC250704740F43A
:1028800000004FF00003013A37E792F0000F00F02C
:10289000004C02BF400010F4000F013AF9D040EAAA
:1028A0000C0093F0000F01F0004C02BF490011F43E
:1028B000000F013BF9D041EA0C0195E70CEAD15336
:1028C00092EA0C0F08D142027FF47DAF93EA0C0F1D
:1028D0007FF470AF084676E793EA0C0F04D14B0201
:1028E0003FF44CAF08466EE730F0004C18BF31F0B3
:1028F000004CCAD130F000427FF45CAF31F00043AD
:102900007FF43CAF5FE700BF0B460146184600F07E
:1029100001B800BF13460A460146022000F03EBE41
:10292000014B1868704700BF488CFF1F70B50F4EF1
:102930000F4D761BB61018BF002405D0013455F892
:10294000043B9847A642F9D10A4E0B4D761B01F085
:1029500045F9B61018BF002406D0013455F8043BE1
:102960009847A642F9D170BD70BD00BFE83B00009A
:10297000E83B0000FC3B0000E83B0000024B014646
:10298000186800F00BB800BF488CFF1F024B0146CF
:10299000186800F0C7BE00BF488CFF1F2DE9F04F3C
:1029A00001F10B05162D83B0064640F29F8035F0ED
:1029B000070500F1BF80A94200F2BC8000F00AFBCD
:1029C000B5F5FC7FC0F09C826B0A00F0BA80042B46
:1029D00000F28381A80900F1390E4FEA4E03383026
:1029E000C44F07EB8303A3F108015C68A14207D140
:1029F000ACE0002A80F2AC80E468A14200F0A6803E
:102A0000636823F003035A1B0F2AF2DDB9493C69BE
:102A100001F1080E744500F0B381636823F00303ED
:102A20005A1B0F2A00F39981002AC1F814E0C1F85B
:102A300010E080F29E80B3F5007F80F06781DB08B4
:102A400003F1010C01229B1002FA03F34A6851F8CA
:102A50003C80C4F8088001EBCC091A43A9F10803B3
:102A6000E3604A6041F83C40C8F80C408310012400
:102A70009C40944200F28A80144206D120F0030068
:102A80006400144200F10400FAD007EBC009CC4600
:102A90008046DCF80C108C4507D173E1002A80F2E7
:102AA0008181C9688C4500F06D814B6823F0030378
:102AB0005A1B0F2AF2DD0C46D1F80CC054F8088FCF
:102AC0004B1945F001054D6042F00101C8F80CC0FA
:102AD0003046CCF808807B613B61C3F80CE0C3F85A
:102AE00008E059609A5000F077FA1FE0102921D8C9
:102AF00000F070FA1025062302207E4F07EB8303B7
:102B0000A3F108025C68944200F045816368E168C3
:102B1000A56823F00303234430465A68E96042F075
:102B200001028D605A6000F057FA0834204603B065
:102B3000BDE8F08F00240C232046336003B0BDE8CD
:102B4000F08F80234FF0400E3F2049E770465DE74D
:102B50002344E1685A68A56842F00102E960304602
:102B60008D605A6000F038FA0834204603B0BDE8A2
:102B7000F08F234430465A6842F001025A6000F058
:102B80002BFA0834204603B0BDE8F08FBC686368B8
:102B900023F00308A84504D3C5EB08030F2B00F36B
:102BA0008C80554BDFF860911A68D9F800300133FA
:102BB0002A4404EB080A00F0608102F580520F32CB
:102BC00022F47F6222F00F0211463046019200F09B
:102BD000FDFBB0F1FF3F8346019A00F0588182452A
:102BE00000F2FC80454B1968DA451144196000F089
:102BF0005381D9F80000DFF810E101301BBFCAEBA8
:102C00000B0A5144CEF800B019601BF0070100F028
:102C10001781C1F10800C1F58051834408315A443D
:102C2000C2F30B02C2EB010949463046019300F0A2
:102C3000CDFB431C019B00F03F81CBEB00024A44DB
:102C400042F001021968C7F808B04944BC42CBF809
:102C500004201960DFF8A49016D0B8F10F0F40F2ED
:102C6000FD806268A8F10C0323F00703E01802F06E
:102C700001024FF0050E1A430F2B6260C0F804E00A
:102C8000C0F808E000F21C811D4BBC681A68914234
:102C900088BF19601B4B1A689142626888BF19602F
:102CA00022F003029542A2EB050301D80F2B04DCAE
:102CB000304600F091F9002438E7621943F001032F
:102CC00045F0010565603046BA60536000F084F954
:102CD0000834204603B0BDE8F08F142B71D9542B73
:102CE00000F2A480280B00F16F0E4FEA4E036E3005
:102CF00076E600BF4C8CFF1FC093FF1FC493FF1FDD
:102D0000BC93FF1FB893FF1F5890FF1F5A0A042A55
:102D10005ED9142A00F2B38002F15C0149005B32F3
:102D200007EB810C57F82110DFF8DC81ACF1080CBF
:102D30008C4500F088804A6822F00302934202D258
:102D400089688C45F7D1D1F80CC07A68C4F80CC0FA
:102D5000A160CCF80840CC6088E6631942F0010716
:102D600045F00105656030464B610B61C3F80CE02E
:102D7000C3F808E05F609A50083400F02DF9D5E6FA
:102D80004A6873E608F1010818F0030F0CF1080C0B
:102D90007FF47FAE30E0DC68A34208BF02303FF42E
:102DA00035AEB3E60B440C465A68C96854F8085F60
:102DB00042F001025A603046E9608D6000F00CF983
:102DC000B4E603F15C0E03F15B004FEA4E0307E645
:102DD0009A0902F1390149003832A1E7BC424A4B55
:102DE0003FF400AF9C68626822F003025AE759F88A
:102DF0000839994540F0828010F0030F00F1FF3050
:102E0000F5D17B6823EA04037B6064009C423FF6B3
:102E1000BDAE002C3FF4BAAE1C4240467FF435AE46
:102E200064001C4200F10400FAD02EE6B3F5AA7F3C
:102E300018D8E80B00F1780E4FEA4E037730CFE553
:102E40004FF48051EBE60121D8F80430921001FADA
:102E500002F21A43C8F80420614677E70123CBF851
:102E6000043025E740F25452934220D8A80C00F1D8
:102E70007D0E4FEA4E037C30B2E51032A4E6542AB0
:102E800026D81A0B02F16F0149006E3248E7BC6880
:102E9000626822F0030205E7CAF30B0000287FF402
:102EA000A8AE4244BB6842F001025A60ECE6FE2341
:102EB0004FF07F0E7E2093E501224FF00009C1E61E
:102EC00004F10801304600F02DFCD9F80010DBE6D3
:102ED000B2F5AA7F05D8DA0B02F178014900773202
:102EE0001EE740F254518A4205D89A0C02F17D0146
:102EF00049007C3214E7FE217E2211E77B6884E7DB
:102F0000E808431C5B00F8E54C8CFF1F8842F0B5D5
:102F10000DD98B1898420AD28118002A51D09A1ADA
:102F200013F8014D01F8014D9342F9D1F0BD0F2A7C
:102F300048D941EA00039B0746D100F1100401F192
:102F40001003154653F8106C44F8106C53F80C6CD1
:102F500044F80C6C53F8086C44F8086C103D53F8B6
:102F6000046C44F8046C0F2D03F1100304F11004F9
:102F7000E8D8A2F1100323F00F0302F00F0E103374
:102F8000BEF1030F1944034421D91E1F0D46744698
:102F9000043C55F8047B46F8047F032CF8D8AEF1C6
:102FA000040424F0030404342344214402F0030203
:102FB00062B1013B0A4411F8014B03F8014F8A4208
:102FC000F9D1F0BD0346F3E70346F2E7F0BD7246E0
:102FD000EEE700BF704700BF704700BF024B0A46D4
:102FE0000146186800F002B8488CFF1F2DE9F04F29
:102FF000174683B0002900F0C1800E46814607F1D4
:103000000B05FFF7E7FF56F804EC162D2EF003042E
:10301000A6F1080840D810221546AF4241D8944284
:1030200075DAC94B996808EB04008842416800F0E2
:10303000D98021F0010303445B68DB077DD51EF0D6
:10304000010F35D039464846FFF7A8FC0746E0B1E6
:1030500056F8043C23F001034344A0F108029A42CD
:1030600000F04481221F242A00F23181132A00F249
:1030700004810346324611681960516859609268AC
:103080009A603146484600F04DFB4846FFF7A4FFE2
:10309000384603B0BDE8F08F25F00705002D2A461D
:1030A000BBDA0C230020C9F8003003B0BDE8F08F74
:1030B00056F8083CC3EB080ADAF8043023F0030C96
:1030C00004EB0C039342BDDB5746DAF80C1057F8BB
:1030D000080F221F242AC160886000F21781132A7A
:1030E00040F212813168CAF808107168CAF80C10F1
:1030F0001B2A00F22B8108360AF110023168116098
:1031000071685160B16891603E461C46D046631BB1
:103110000F2B1DD8D8F8043003F001032343444497
:10312000C8F80430636843F0010363604846FFF762
:1031300053FF304603B0BDE8F08F21F00301214476
:10314000914221DBC36882680C46D3609A60DEE757
:10315000D8F8042008EB050102F00102154343F002
:1031600001020B44C8F804504A605A6842F0010258
:1031700008315A60484600F0D5FAD7E7114603B047
:10318000BDE8F04FFFF70ABC1EF0010F7FF45AAF05
:1031900056F8083CC3EB080ADAF8043023F0030CB5
:1031A00001EB0C0E96458BDBC36882685746D360F3
:1031B0009A6057F8081FDAF80C30CB60221F242AD7
:1031C000996000F29980132A62D93368CAF80830EE
:1031D0007368CAF80C301B2A00F2A08008360AF186
:1031E000100356E021F0030BA34405F110008345C2
:1031F00059DA1EF0010F7FF425AF56F8081CC1EB19
:10320000080ADAF8041021F0030CE34458453FF7AC
:1032100057AF5746DAF80C1057F8080F221F242A28
:10322000C160886000F2B480132A40F2A580316842
:10323000CAF808107168CAF80C101B2A00F2AF8097
:1032400008360AF110023168116071685160B16886
:1032500091600AEB0501C5EB0B0242F00102996097
:103260004A60DAF8043003F001031D434846CAF807
:103270000450FFF7B1FE38465CE7336803607368BB
:1032800043601B2A27D800F1080306F10802F2E682
:103290003B4632681A6072685A60B2689A603E466D
:1032A0007446D04633E708EB0501C5EB0B0B4BF03A
:1032B000010299604A6056F8043C03F001031D4383
:1032C000484646F8045CFFF787FE304632E7314651
:1032D000FFF71CFED5E6B3688360F368C360242A59
:1032E00028D000F1100306F11002C4E650F8043CA7
:1032F00023F003031C440AE7314638467446D0469F
:10330000FFF704FE3E4602E73A46F7E63146384606
:103310001C46D046FFF7FAFD3E46F8E6B368CAF809
:103320001030F368CAF81430242A1BD010360AF182
:103330001803AEE7336903617369436106F118024C
:1033400000F1180397E600BF4C8CFF1FB168CAF864
:103350001010F168CAF81410242A0FD010360AF1A0
:103360001802CBE63369CAF818307369CAF81C3002
:1033700018360AF120038CE73A4664E73269CAF846
:1033800018207269CAF81C2018360AF12002B5E626
:10339000314638460193FFF7B9FD019B59E7B16803
:1033A000CAF81010F168CAF81410242A03D0103695
:1033B0000AF1180247E73269CAF818207269CAF898
:1033C0001C2018360AF120023DE700BF38B5074C33
:1033D0000023054608462360FDF78AFC431C00D005
:1033E00038BD2368002BFBD02B6038BD0094FF1F35
:1033F00080EA0102844612F0030F4FD111F0030F4F
:1034000032D14DF8044D11F0040F51F8043B0BD0AC
:10341000A3F101329A4312F0803F04BF4CF8043B01
:1034200051F8043B16D100BF51F8044BA3F101320F
:103430009A4312F0803FA4F101320BD14CF8043BC7
:10344000A24312F0803F04BF51F8043B4CF8044BF8
:10345000EAD023460CF8013B13F0FF0F4FEA332369
:10346000F8D15DF8044B704711F0010F06D011F848
:10347000012B0CF8012B002A08BF704711F0020F36
:10348000BFD031F8022B12F0FF0F16BF2CF8022B21
:103490008CF8002012F47F4FB3D1704711F8012B44
:1034A0000CF8012B002AF9D1704700BFFFFFFFFF86
:1034B000FFFFFFFFFFFFFFFFFFFFFFFFFFFFFFFF1C
:1034C00090F800F06DE9024520F007016FF0000C64
:1034D00010F0070491F820F040F049804FF000040C
:1034E0006FF00700D1E9002391F840F000F10800E7
:1034F00082FA4CF2A4FA8CF283FA4CF3A2FA8CF31F
:103500004BBBD1E9022382FA4CF200F10800A4FA85
:103510008CF283FA4CF3A2FA8CF3E3B9D1E90423D9
:1035200082FA4CF200F10800A4FA8CF283FA4CF310
:10353000A2FA8CF37BB9D1E9062301F1200182FACA
:103540004CF200F10800A4FA8CF283FA4CF3A2FAD0
:103550008CF3002BC6D0002A04BF04301A4612BADE
:10356000B2FA82F2FDE8024500EBD2007047D1E9E1
:10357000002304F00305C4F100004FEAC50514F070
:10358000040F91F840F00CFA05F562EA05021CBF41
:1035900063EA050362464FF00004A9E72DE9F0470E
:1035A000254C2568D5F848410646884692469946F6
:1035B000C4B360681F2817DC431C76B104EB800598
:1035C0000122C5F888A0D4F8881182401143022E48
:1035D000C4F88811C5F808911ED00230636044F821
:1035E00020800020BDE8F087144B03B34FF4C8706F
:1035F000FFF7C4F90446D0B1D5F84831002780E878
:103600008800C5F8484138460123C4F88871C4F8D9
:103610008C71002EE1D0D1E7D4F88C110A43C4F8A4
:103620008C21DAE705F5A674C5F84841C1E74FF0EB
:10363000FF30BDE8F08700BFD83B00007D290000C7
:10364000024B13B1024800F005B8704700000000BB
:1036500061360000002301461A461846FFF79EBF58
:1036600038B5074D074C2C1BA41005D0013C55F86C
:10367000043D9847002CF9D1BDE8384000F0BEBAAF
:103680000000000000000000F8B5234F0C4606467D
:10369000FFF7A0FCBB685D6825F00305291B01F658
:1036A000EF7121F47F6121F00F01A1F58054B4F591
:1036B000805F07DB00213046FFF788FEBB682B44A4
:1036C000984204D03046FFF787FC0020F8BD6142E5
:1036D0003046FFF77BFE01300DD0104BBA681968F9
:1036E0002D1B45F001053046091B55601960FFF799
:1036F00073FC0120F8BD00213046FFF767FEBA6871
:10370000831A0F2BDEDD064C0449246843F00103C5
:10371000001B53600860D5E74C8CFF1FC493FF1F4C
:103720005890FF1F002945D02DE9F0410D468046F5
:10373000FFF750FC55F8047C6A4927F00103A5F116
:103740000804E2188E685068B24220F0030062D08C
:10375000FE0750600BD455F8087CE41B01F1080EFD
:10376000A56875453B446FD0E768EF60BD601518EC
:103770006D68ED0742D543F001026260E350B3F596
:10378000007F18D2DB085A1C4D6851F83270A760D0
:1037900001209B1000FA03F301EBC2001D4308381F
:1037A000E0604D6041F83240FC604046BDE8F041C9
:1037B000FFF712BC70475A0A042A53D89A0902F13B
:1037C00039077F0002F1380501EB870051F8272007
:1037D0004449083890424DD0516821F003018B4292
:1037E00002D292689042F7D1D068E060A260846013
:1037F000D4604046BDE8F041FFF7EEBB95683A4F14
:10380000BD4203443FD0D068E86043F001028560C8
:103810006260E350B3E7FF07034407D455F8082C70
:10382000A41A1344A068E268C26090602F4A12682C
:1038300043F00100934260608C60B6D32C4B40464D
:103840001968FFF721FFB0E711184968C90744D488
:103850009168D268CA60034443F0010091606060DF
:10386000E350A2E7142A17D802F15C077F0002F1A7
:103870005B05A9E7AA104B68012505FA02F213437C
:103880004B600246B1E743F001024C610C61E56018
:10389000A5606260E35088E7542A06D81A0B02F14B
:1038A0006F077F0002F16E058EE7B2F5AA7F06D89A
:1038B000DA0B02F178077F0002F1770584E740F226
:1038C0005450824206D89A0C02F17D077F0002F123
:1038D0007C0579E7FE277E2576E743F001026260EA
:1038E000E35062E74C8CFF1F548CFF1F5490FF1F66
:1038F000C093FF1F564D4450565F317C315F564D8B
:103900004450560D0A0000007465737400000000F6
:103910007C00FFFF486920636F6D707574657221CC
:103920000A000000494400004572726F72000000F6
:103930003A20756E7265636F676E697A6564206D93
:103940006573736167652000323031373132323749
:103950005F4A424D00FFFFFF3C8004400010000022
:10396000041A0000FF7F000011100000B1070000E2
:103970000C08000000020000000200000B0700001D
:1039800040020000000200000D0E00004002000096
:10399000000200000A020906141715160F000000A5
:1039A000000200000002000000020000000200000F
:1039B00000020000000200000002000000020000FF
:1039C00000020000010102020404080810000000C7
:1039D000564D4450455F00003A323A003A0000002C
:1039E0005F564D4450450000564D4450435F000023
:1039F0005F564D4450430D0A000000004572726F3F
:103A0000723A20417474656D707420746F20736510
:103A100074206120726561642D6F6E6C792076610F
:103A2000726961626C65206F7220646174612074D8
:103A3000797065206E6F7420737570706F72746525
:103A4000640D0A004008FE4340A004404408FE43C1
:103A500044A004400018FE4300C004403000FE4370
:103A6000309004403400FE43349004401C18FE4360
:103A70001CC004401018FE4310C004400818FE4348
:103A800008C004400C18FE430CC004400C10FE4358
:103A90000CB004401010FE4310B004401810FE4358
:103AA00018B004401C10FE431CB004401410FE4328
:103AB00014B004400418FE4304C004400010FE4348
:103AC00000B004400008FE4300A004400408FE4388
:103AD00004A004400C08FE430CA004400808FE4368
:103AE00008A004401418FE4314C004401818FE43F4
:103AF00018C004400410FE4304B004400810FE4304
:103B000008B004401400FE43149004404C08FE43E7
:103B10004CA004400420FE4304D004402410FE4383
:103B200024B004402010FE4320B004402810FE437F
:103B300028B004402C10FE432CB004400020FE436B
:103B400000D004404808FE4348A004401000FE4353
:103B5000109004400D0AFFFF00000000000000006C
:103B60000D2000000520000001200000FD1F0000C6
:103B7000ED080000E5080000E9080000F91F00005A
:103B800000151915000100007887FF1F12000000C2
:103B900000020000A487FF1F430000000003000094
:103BA0000088FF1F00000000010309048C87FF1F2D
:103BB0000000000002030904E887FF1F0000000066
:103BC000030309040488FF1F000000000000000038
:103BD00000000000000000002088FF1FF8B500BFB3
:103BE000F8BC08BC9E467047413600003504000012
:0C3BF0009D0500006D0700007D0C00002A
:043BFC00F8B500BF59
:103C00000000000000C00240583900000000000021
:103C100000000000000000000000000000000000A4
:103C20000000000000000000000000000000000094
:103C30000000000000000000000000000494FF1FCE
:103C4000FFFFFFFF603B000000000000E8030000F2
:103C5000000000000A0400001201010102000040FF
:103C6000C01683040002010203010000180354007F
:103C7000650065006E0073007900640075006900DE
:103C80006E006F0009024300020100C03209040007
:103C900000010202010005240010010524010101B8
:103CA00004240206052406000107058203100040D3
:103CB00009040100020A0000000705030240000099
:103CC000070584024000000016035500530042001F
:103CD0002000530065007200690061006C00000064
:103CE000040309040C0300000000000000000000B1
:103CF00000000000000000000000000000000000C4
:103D0000000000000C8BFF1F748BFF1FDC8BFF1F5C
:103D100000000000000000000000000000000000A3
:103D20000000000000000000000000000000000093
:103D30000000000000000000000000000000000083
:103D40000000000000000000000000000000000073
:103D50000000000000000000000000000000000063
:103D60000000000000000000000000000000000053
:103D70000000000000000000000000000000000043
:103D80000000000000000000000000000000000033
:103D90000000000000000000000000000000000023
:103DA0000000000000000000010000000000000012
:103DB0000E33CDAB34126DE6ECDE05000B000000D7
:103DC00000000000000000000000000000000000F3
:103DD00000000000000000000000000000000000E3
:103DE00000000000000000000000000000000000D3
:103DF00000000000000000000000000000000000C3
:1041200000000000000000002088FF1F00000000C9
:10413000000000004C8CFF1F4C8CFF1F548CFF1F95
:10414000548CFF1F5C8CFF1F5C8CFF1F648CFF1F57
:10415000648CFF1F6C8CFF1F6C8CFF1F748CFF1F07
:10416000748CFF1F7C8CFF1F7C8CFF1F848CFF1FB7
:10417000848CFF1F8C8CFF1F8C8CFF1F948CFF1F67
:10418000948CFF1F9C8CFF1F9C8CFF1FA48CFF1F17
:10419000A48CFF1FAC8CFF1FAC8CFF1FB48CFF1FC7
:1041A000B48CFF1FBC8CFF1FBC8CFF1FC48CFF1F77
:1041B000C48CFF1FCC8CFF1FCC8CFF1FD48CFF1F27
:1041C000D48CFF1FDC8CFF1FDC8CFF1FE48CFF1FD7
:1041D000E48CFF1FEC8CFF1FEC8CFF1FF48CFF1F87
:1041E000F48CFF1FFC8CFF1FFC8CFF1F048DFF1F36
:1041F000048DFF1F0C8DFF1F0C8DFF1F148DFF1FE3
:10420000148DFF1F1C8DFF1F1C8DFF1F248DFF1F92
:10421000248DFF1F2C8DFF1F2C8DFF1F348DFF1F42
:10422000348DFF1F3C8DFF1F3C8DFF1F448DFF1FF2
:10423000448DFF1F4C8DFF1F4C8DFF1F548DFF1FA2
:10424000548DFF1F5C8DFF1F5C8DFF1F648DFF1F52
:10425000648DFF1F6C8DFF1F6C8DFF1F748DFF1F02
:10426000748DFF1F7C8DFF1F7C8DFF1F848DFF1FB2
:10427000848DFF1F8C8DFF1F8C8DFF1F948DFF1F62
:10428000948DFF1F9C8DFF1F9C8DFF1FA48DFF1F12
:10429000A48DFF1FAC8DFF1FAC8DFF1FB48DFF1FC2
:1042A000B48DFF1FBC8DFF1FBC8DFF1FC48DFF1F72
:1042B000C48DFF1FCC8DFF1FCC8DFF1FD48DFF1F22
:1042C000D48DFF1FDC8DFF1FDC8DFF1FE48DFF1FD2
:1042D000E48DFF1FEC8DFF1FEC8DFF1FF48DFF1F82
:1042E000F48DFF1FFC8DFF1FFC8DFF1F048EFF1F31
:1042F000048EFF1F0C8EFF1F0C8EFF1F148EFF1FDE
:10430000148EFF1F1C8EFF1F1C8EFF1F248EFF1F8D
:10431000248EFF1F2C8EFF1F2C8EFF1F348EFF1F3D
:10432000348EFF1F3C8EFF1F3C8EFF1F448EFF1FED
:10433000448EFF1F4C8EFF1F4C8EFF1F548EFF1F9D
:10434000548EFF1F5C8EFF1F5C8EFF1F648EFF1F4D
:10435000648EFF1F6C8EFF1F6C8EFF1F748EFF1FFD
:10436000748EFF1F7C8EFF1F7C8EFF1F848EFF1FAD
:10437000848EFF1F8C8EFF1F8C8EFF1F948EFF1F5D
:10438000948EFF1F9C8EFF1F9C8EFF1FA48EFF1F0D
:10439000A48EFF1FAC8EFF1FAC8EFF1FB48EFF1FBD
:1043A000B48EFF1FBC8EFF1FBC8EFF1FC48EFF1F6D
:1043B000C48EFF1FCC8EFF1FCC8EFF1FD48EFF1F1D
:1043C000D48EFF1FDC8EFF1FDC8EFF1FE48EFF1FCD
:1043D000E48EFF1FEC8EFF1FEC8EFF1FF48EFF1F7D
:1043E000F48EFF1FFC8EFF1FFC8EFF1F048FFF1F2C
:1043F000048FFF1F0C8FFF1F0C8FFF1F148FFF1FD9
:10440000148FFF1F1C8FFF1F1C8FFF1F248FFF1F88
:10441000248FFF1F2C8FFF1F2C8FFF1F348FFF1F38
:10442000348FFF1F3C8FFF1F3C8FFF1F448FFF1FE8
:10443000448FFF1F4C8FFF1F4C8FFF1F548FFF1F98
:10444000548FFF1F5C8FFF1F5C8FFF1F648FFF1F48
:10445000648FFF1F6C8FFF1F6C8FFF1F748FFF1FF8
:10446000748FFF1F7C8FFF1F7C8FFF1F848FFF1FA8
:10447000848FFF1F8C8FFF1F8C8FFF1F948FFF1F58
:10448000948FFF1F9C8FFF1F9C8FFF1FA48FFF1F08
:10449000A48FFF1FAC8FFF1FAC8FFF1FB48FFF1FB8
:1044A000B48FFF1FBC8FFF1FBC8FFF1FC48FFF1F68
:1044B000C48FFF1FCC8FFF1FCC8FFF1FD48FFF1F18
:1044C000D48FFF1FDC8FFF1FDC8FFF1FE48FFF1FC8
:1044D000E48FFF1FEC8FFF1FEC8FFF1FF48FFF1F78
:1044E000F48FFF1FFC8FFF1FFC8FFF1F0490FF1F27
:1044F0000490FF1F0C90FF1F0C90FF1F1490FF1FD4
:104500001490FF1F1C90FF1F1C90FF1F2490FF1F83
:104510002490FF1F2C90FF1F2C90FF1F3490FF1F33
:104520003490FF1F3C90FF1F3C90FF1F4490FF1FE3
:0C4530004490FF1F00000200FFFFFFFF8F
:00000001FF
