:1000000000800020BD010000491400000114000020
:10001000011400000114000001140000011400008C
:100020000114000001140000011400004914000034
:100030004914000001140000A5250000A9260000B5
:10004000491400004914000049140000491400003C
:10005000491400004914000049140000491400002C
:10006000491400004914000049140000491400001C
:10007000491400004914000049140000491400000C
:1000800049140000491400004914000049140000FC
:1000900049140000491400004914000049140000EC
:1000A00049140000491400004914000049140000DC
:1000B00049140000491400004914000049140000CC
:1000C00049140000491400004914000049140000BC
:1000D00049140000491400004914000049140000AC
:1000E000491400004914000049140000491400009C
:1000F000491400004D32000049140000793300001B
:1001000049140000A53400004914000049140000FF
:10011000491400004914000049140000491400006B
:10012000491400004914000049140000491400005B
:10013000491400004914000049140000491400004B
:10014000491400004914000049140000491400003B
:10015000491400004914000049140000491400002B
:1001600049140000711800004914000049140000EF
:10017000491400004914000049140000491400000B
:1001800049140000491400004914000049140000FB
:1001900049140000491400004914000049140000EB
:1001A00049140000491400004914000049140000DB
:1001B000491400004914000049140000564B4CF249
:1001C000205210B51A804DF628121A8000BF00BFC9
:1001D00001F03EF9514B4FF010621A60504A9A609C
:1001E000504ADA60504A136813F4807304D14F49BF
:1001F0000B604FF4A85313604D4B1A78110703D5C9
:100200001A7842F008021A704A4B4B492A221A7097
:100210004A4A4B4B8B4204D252F8040F43F8040B6A
:10022000F8E7484B484900228B4202D243F8042B9E
:10023000FAE74649464A002352F8230041F82300D2
:1002400001336F2BF8D1434B434A802103F8011B44
:100250009342FBD1414B3D4A1A60414B8A221A70AE
:10026000A3F5805324225A70A0221A709A7992071B
:10027000FCD59A79D406FCD43A4A937903F00C035E
:10028000082B384BF9D103221A7140225A719A79FE
:100290009006FCD5334A9179324B4906FBD5324A58
:1002A000324911600221516020221A709A7902F0BD
:1002B0000C020C2AFAD12E4B2E4A1A602E4B2F4AD2
:1002C0001A6000225A60072243F8042C2C4AC3F813
:1002D0000C2D62B601F0A4F9144B1B68DA0705D5A2
:1002E000284801F031F9284B284A1A60284B1B781E
:1002F0005B0609D5244C254B22689A4204D121483B
:1003000001F022F90023236004F084F901F0A6F83B
:1003100002F0D2F9FEE700BF0E2005403080044015
:10032000823F04000100002B10D0034014D0034092
:1003300002D0074000E00740C891FF1F389000003E
:100340002087FF1FC891FF1F0896FF1F0082FF1F15
:100350000000000000E400E05FE400E008ED00E0E1
:100360000050064000400640448004400000030165
:1003700004800440C010050014E000E0FF76010096
:1003800000002020C89476041CE00340A5C3945AC2
:1003900000F00740FFFFFFFFFFFFFFFFFFFFFFFF32
:1003A000FFFFFFFFFFFFFFFFFFFFFFFFFFFFFFFF5D
:1003B000FFFFFFFFFFFFFFFFFFFFFFFFFFFFFFFF4D
:1003C000FFFFFFFFFFFFFFFFFFFFFFFFFFFFFFFF3D
:1003D000FFFFFFFFFFFFFFFFFFFFFFFFFFFFFFFF2D
:1003E000FFFFFFFFFFFFFFFFFFFFFFFFFFFFFFFF1D
:1003F000FFFFFFFFFFFFFFFFFFFFFFFFFFFFFFFF0D
:10040000FFFFFFFFFFFFFFFFFFFFFFFFDEF9FFFF23
:1004100010B5054C237833B9044B13B10448AFF33E
:1004200000800123237010BDC891FF1F0000000051
:100430003C900000084B10B51BB108490848AFF3C9
:1004400000800848036803B910BD074B002BFBD0A0
:10045000BDE81040184700BF00000000CC91FF1F0E
:100460003C900000C891FF1F0000000010B504463A
:10047000243002F0EFF904F1140002F0EBF9201D32
:1004800002F0E8F9204610BD10B50446044800F01B
:100490005FFA02220146204602F04EFA204610BDC5
:1004A0002492FF1F30B5044689B0084602F080FB55
:1004B000114D002319460246284600F065FB0F49FE
:1004C00004A802F007FA284600F042FA0222014688
:1004D000684602F031FA694604A802F097FA01462C
:1004E000204602F00BFA684602F0B4F904A802F0C4
:1004F000B1F9204609B030BD2492FF1F40890000A9
:1005000010B504460B4800F02DFA68B1012805D05B
:100510000949204602F0DEF9204610BD0749204671
:1005200002F0ECF9204610BD0549204602F0E6F93C
:10053000204610BD2492FF1F488900000492FF1F2F
:100540005892FF1F30B589B00D4604460021684619
:1005500002F0C0F928461B4902F088FAE0B11949B7
:10056000684602F003FA0021174800F03FFB04A898
:10057000164902F0AFF9694604A802F047FA0146AD
:10058000204602F0BBF904A802F064F9684602F0C4
:1005900061F9204609B030BD28460D4902F066FADF
:1005A00028B10B49684602F0E1F90121DCE709496D
:1005B000204602F08FF9684602F04CF9204609B057
:1005C00030BD00BF5892FF1F2492FF1F40890000DA
:1005D0000492FF1F6489000010B53A4C92B040F6B7
:1005E000B831204600F016FE204637494FF4E1327C
:1005F00000F0EAFD2046012100F0C0FD60B1606C12
:100600003249036811225B68984720460A2100F0AE
:1006100027FD204600F0D6FD01220021294800F0E8
:10062000C1FE2B48002400F017FA2A4A2A4B2B4916
:10063000049268460593019400940294039402F096
:100640005DF9274A274B28490A9206A80B9306947E
:1006500007940894099402F051F906A90CA802F035
:100660004DF90A9A0B9B214810920CA9119300F0A6
:100670005FFB0CA802F0EEF869460CA802F03EF908
:10068000049A059B194810920CA9119300F050FB95
:100690000CA802F0DFF82346154A0D48214600F069
:1006A00073FA21460A4800F0EFF92146084800F0A5
:1006B0009DFA06A802F0CEF8684602F0CBF812B018
:1006C00010BD00BFC492FF1F6487FF1F7C8900001C
:1006D0002492FF1FA5040000890400001492FF1F4C
:1006E0004505000001050000E491FF1F6892FF1F0F
:1006F00000007A4470B5274C84B023680193019BB5
:1007000023B923680293029B012B1FD9224D234E4C
:10071000284600F0B7FC3268214990420346086041
:1007200019D39A1AF92A11D94FF4FA71284633606D
:1007300000F0B2FC0121284600F020FD88B91648DF
:10074000022100F08DFC144800F00EFD154800F069
:1007500009FB04B070BD1348336000F003FB04B024
:1007600070BD2846012100F0A9FC686C0E490368A1
:1007700001225B689847236803930399686C002300
:100780000A2201F0D9FF284600F0DEFC284600F0DE
:1007900019FDD4E71093FF1FC492FF1F5492FF1F4F
:1007A000B092FF1F6892FF1F908900002DE9F0436F
:1007B00085B04FF0FF33254F029301930093244CF3
:1007C00024492548254E264DDFF8B890DFF8B8803B
:1007D0000A2200F05BF83846052100F039FA22467B
:1007E00038462049204F03F0F3FE30461F4902F0FF
:1007F00071F822462946304603F0EAFE48461C4975
:100800001C4E02F067F822462946484603F0E0FEF7
:100810004046194902F05EF822462946404603F058
:10082000D7FE3846154902F055F822462946384683
:1008300003F0CEFE3046124902F04CF8224629461B
:10084000304605B0BDE8F04303F0C2BE6892FF1F1A
:100850002087FF1F001B374C2492FF1FF491FF1FBE
:10086000552800006D0400005892FF1F9489000075
:100870009C8900000492FF1FA4890000AC8900003D
:10088000B48900001492FF1FE491FF1F2DE9F04787
:1008900004464FF0FF3600252C4F41610846E762C1
:1008A0006660A660E66026614FF04651A58325622A
:1008B0006562258517469A4603F08EFC089EA06166
:1008C0000121F8B22760DDF82490DDF8288000F0DF
:1008D00053FE2078012100F049FE731C666007D0AA
:1008E000F0B2012100F048FE2946207900F03EFEDA
:1008F000BAF1FF3FC4F808A008D05FFA8AF00121DE
:1009000000F03AFE0021207A00F030FEB9F1FF3FFE
:10091000C4F80C9008D05FFA89F0012100F02CFE99
:100920000021207B00F022FEB8F1FF3FC4F81080C8
:1009300008D05FFA88F0012100F01EFE0021207C23
:1009400000F014FE2046BDE8F08700BF0320033C02
:1009500010B50446406A03F0E7FBA16903F03CFCD4
:1009600010BD00BF808BC0F340007047F8B5314C1C
:10097000C26AE37A06460D46BBB172B6E37AD8077F
:10098000194606D52C48E16807683940A161016025
:1009900019469B0706D5294823690768E17A3B4039
:1009A000E36103604F073DD462B62368D968914282
:1009B00007D0234818602349DA6042F0804018616C
:1009C00019600021307800F0D1FD23684FF000411C
:1009D0002A0AD9625A63DA6A002AFCDAEDB24FF0C9
:1009E0000042996BDA625D63DA6A002AFCDA01215F
:1009F00030789B6B00F0BAFDE37A0E491A4683B15A
:100A0000D80703D5104A896911601A46990703D59A
:100A10000E4BE169E27A1960530702D50C4B226A4A
:100A20001A60F8BD0B4963690868034023620B60D4
:100A3000BAE700BF2487FF1F80E100E084E100E007
:100A400001401F0000001F8000E100E004E100E021
:100A500008E100E088E100E010B50446094800F034
:100A6000BBFAA18B2046FFF781FF20464FF440419F
:100A7000FFF77CFF20464FF46041BDE81040FFF7D0
:100A800075BF00BF2487FF1F4268036AB2F1FF3FB2
:100A90000CBF002303F0010310B40C462BB1D0B2FD
:100AA00099B1012110BC00F061BD818B34B921F4F2
:100AB000006189B2818310BCFFF758BF41F4006127
:100AC00089B2818310BCFFF751BF10BC00F04EBD4E
:100AD000C268036AB2F1FF3F0CBF002303F00103B9
:100AE00010B40C462BB1D0B299B1012110BC00F06A
:100AF0003DBD818B34B921F4807189B2818310BCF2
:100B0000FFF734BF41F4807189B2818310BCFFF7D5
:100B10002DBF10BC00F02ABD0269036AB2F1FF3F8D
:100B20000CBF002303F0010310B40C462BB1D0B26C
:100B300099B1012110BC00F019BD818B34B901F0CD
:100B4000800189B2818310BCFFF710BF41F08001A2
:100B500089B2818310BCFFF709BF10BC00F006BD4D
:100B600010B504460021FFF7D7FFA18B21F040010B
:100B700089B2A1832046FFF7F9FE20460021BDE897
:100B80001040FFF7A5BF00BF70B504460E461046E3
:100B9000A1691D4603F0D4FB03F0FAFCA18B20F001
:100BA00070404319012E41F40051C3F30D060CBFF0
:100BB00046F4004646F4804663622046C3F38D3314
:100BC00089B20CBF43F4004543F48045FFF7CEFEE5
:100BD00031462046FFF7CAFE29462046FFF7C6FEEB
:100BE0002046A18BFFF7C2FE606A70BD38B504468F
:100BF0000D46FFF7B5FFA18B55B1012D03D141F093
:100C0000020189B2A1832046BDE83840FFF7AEBE9D
:100C100021F0020189B2A1832046BDE83840FFF7E8
:100C2000A5BE00BF38B5074D07490446284601F068
:100C30004DFD284601F070FD2046044901F04AFEB2
:100C4000204638BD6487FF1FB492FF1FA48A0000AE
:100C50002DE9F04106463B222C233F200D4686B06D
:100C60007270B37030702D49301D06F1140801F018
:100C700031FE2B49404601F02DFE2A4906F12400A1
:100C800001F028FEB5F1AA6F98BF05EB45004FF0C3
:100C900005034FF000014FF4E13298BFC0007364C8
:100CA0007563B163326494BF08304FF0FF3001F0D8
:100CB0000BFD182380E8280000F108076C1E4DB1D9
:100CC0003D462846013C002101F004FE631C05F16D
:100CD0001805F6D10023144AF7634146684601938C
:100CE0000093029303930492059201F007FEF46BC4
:100CF0006946204601F03AFEB36B059A04992161DA
:100D000001336261716CB363084801F075FD684698
:100D100001F0A0FD304606B0BDE8F081C0890000BA
:100D2000D0890000D4890000250C00006487FF1FD3
:100D300070B5836B446BA34201D3002070BDC66BBA
:100D400003EB430306EBC306044630460D4601F0B1
:100D50000DFEA36B29696A6972610133316101205B
:100D6000A36370BDF0B506468DB0782268463A4957
:100D700001F044FD7178684601F09CFE421C64D08D
:100D800007463B460022694604A801F0A3FEB36B68
:100D9000002B46D00024254604E0B36BAB4204F19F
:100DA00018043ED9F16B04A8214401F05FFE01351F
:100DB0000028F2D0F36B234400219A6804A801F0C4
:100DC000ADFE04A801F0C6FE317804A801F072FE61
:100DD000F36B1C44013014BF6369236904A908A89C
:100DE000984708A91C4801F071FC1B4801F094FCCD
:100DF00008A801F02FFD7A1C0021684601F08EFE44
:100E00007178684601F056FE074604A801F022FDFD
:100E10007B1CB6D1684601F01DFD012420460DB0B3
:100E2000F0BD06F1240108A801F068FD0B4908A8EF
:100E300001F0F4FD0146084801F048FC064801F0C5
:100E40006BFC08A801F006FDD5E7684601F002FD3D
:100E5000002420460DB0F0BD6487FF1FDC89000030
:100E600010B5064C0649204601F034FD2046054ADF
:100E70000549BDE8104003F0ABBB00BFB492FF1FB3
:100E8000F48900002087FF1F5528000010B4047F5C
:100E90004160022CC26002D010BC01F021BB83680B
:100EA00010BC1847F0B4464B464A186BDC6A01790F
:100EB0001170454922790A709A6A00790870002AEF
:100EC00046D05968C9688A423ED82168CC8B240430
:100ED00002F1FF3065D4C0F30E00C883C88B80B226
:100EE000C882196B0968C88B000452D4C2F30E0083
:100EF000C883C88B002480B212F1FF32C88218BFA9
:100F000001229C62D96A2E4809680D6800F1240408
:100F1000A54236D00068C46814F0804F0C680D6894
:100F200015BF248824780235013544F000440D6053
:100F30004463196B254B09791970214912B1CA6AAA
:100F400012791A70F0BC7047521A9A620122D9E7DE
:100F5000586B196805681E4C0A63CC62CC682D6812
:100F60001C4E24F080440327B542CC6083F82570E2
:100F70001FD1037F4260022BC2601ED0F0BC01F083
:100F8000AFBA016890F82400CC6840F00040486394
:100F9000CFE7CC8BC2F3080004F47E442043C8831F
:100FA000A7E7CC8BC0F3080004F47E442043C88339
:100FB00094E72B461146F0BC18478368F0BC1847ED
:100FC0002487FF1F1F8000401C8000401B800040C2
:100FD00000000FFF8D0E000090E80C00F0B41C68BC
:100FE00059682568164F174E29432160164D174939
:100FF0001760D66015611160417A154A5C180A3194
:1010000094F8244053F8215002EBC40149680D6064
:10101000017A5C1803EB8101247ECD6902EBC401E7
:1010200049680D60817A581803EB810390F830000D
:10103000596B02EBC002F0BC53681960704700BFE7
:1010400001401F00011000380110007800001F80CF
:10105000F08A000001F0DAB801F0FCB801F012B932
:10106000074882B003680193019A114401E0994254
:1010700004D303680093009B9A42F8D902B07047EA
:101080001093FF1F034B82B01B680193019802B0BD
:10109000704700BF1093FF1F10B4074B82681B6896
:1010A000016183B000240193019B4461C2608360AD
:1010B00003B010BC704700BF1093FF1FF0B51E4B6C
:1010C0001E4D1A680446406C83B0036801920F46B7
:1010D0005B681B49019E062298473946606C0023D5
:1010E0000A2201F029FB606C1649036803225B6841
:1010F00098473146606C00230A2201F01DFB606CAA
:10110000036829465B6801229847A168606C711AE0
:1011100000230A2201F010FB606C036829465B681B
:1011200001229847E368A168606CC91A0A2200236B
:1011300001F002FB03B0F0BD1093FF1F888A00008E
:101140007C8A0000848A000010B5446C054923683D
:1011500020465B68062298472046BDE8104001F013
:10116000DBBA00BF8C8A0000034B82B01B6801937E
:10117000019B836002B070471093FF1F10B4104AA8
:1011800085B0A1B9136800934168009B591A2029C2
:101190000DD813680293029C04F12103591A01E04F
:1011A000994204D313680193019B9C42F8D91368B8
:1011B0000393039B4360012005B010BC704700BF40
:1011C0001093FF1F704700BF2DE9F0410D4D0E4EEB
:1011D000DFF83C800D4F41641B2401E000F0D2F9A0
:1011E0002B78C82043B133789B0705D0D8F800305E
:1011F0003A689B1A182B03D8013CEFD1BDE8F08167
:10120000BDE8F081F493FF1F0C94FF1F0096FF1FB1
:101210001093FF1F00238364436071B1074882B0BD
:1012200003680193019A114401E0994204D30368D1
:101230000093009B9A42F8D902B070471093FF1FA9
:1012400070B5144C84B00546406C23680393036862
:10125000039A6A600E465B680F490622984731463A
:1012600000230A22686C01F067FA686C0B49036876
:1012700008225B68984723680293029A02F13201C0
:1012800001E0994204D323680193019B9A42F8D963
:1012900004B070BD1093FF1F948A00009C8A000068
:1012A000F8B5037E0BB96320F8BD0446406C3B4E95
:1012B00003681B69B3420D466AD100F0E3FF10F0EA
:1012C000FF0F01D16520F8BD354F606C03681B69C5
:1012D000B3425FD100F0D6FF10F0FF0FF2D0606C88
:1012E00003685B69BB4257D100F090FFC3B2A3F122
:1012F00058021E2AE9D801A151F822F089130000F2
:10130000CB120000CB120000CB120000CB12000069
:10131000CB120000CB120000CB120000CB12000059
:10132000CB120000CB1200007D130000CB12000096
:10133000CB120000CB120000CB120000A71200005D
:10134000CB120000CB120000CB120000CB12000029
:10135000CB120000CB120000CB120000CB12000019
:10136000A7120000CB120000CB120000CB1200002D
:10137000CB120000791300001846F8BD204629461C
:10138000FFF75EFF6320F8BD002323766320F8BDDE
:10139000984794E798479FE79847A7E75D100000B4
:1013A0005510000070B5054682B01646C9B101233C
:1013B0000D4C037600212846FFF772FF632810D0FA
:1013C00023680193019A511C23680093009B9A4261
:1013D000F0D89942F8D200212846FFF761FF632830
:1013E000EED12E7602B070BD1093FF1F034B00228A
:1013F0009A60DA601A615A61704700BFC492FF1F99
:1014000008B5104C08E0236859050DD423681A0567
:101410000FD42368DB0411D423685803F3D500F0FC
:1014200027FA23685905F1D501F010FF23681A0542
:10143000EFD501F0A1FF2368DB04EDD502F032F80F
:10144000EAE700BF3480044008B5FFF7D9FF00BFCA
:10145000014B10221A80704700200540704700BFE2
:10146000094908B50B6830B16A461844A2F58052A4
:10147000904202D20860184608BD03F0C5F80C235C
:1014800003604FF0FF3008BD5C87FF1F10B40F4BA7
:1014900053F8302092F880422CB1012369B182F8D0
:1014A000803010BC704703EBC0035B681A6841B919
:1014B00022F002021A6010BC704782F8003110BCA2
:1014C000704742F003021A6010BC7047F08A0000B7
:1014D0001C4A02EBC00301295B6811D004291BD010
:1014E00052F83000002280F8802229B1022920D051
:1014F000032922D01A6070474FF480721A60704737
:1015000052F830004FF4A27280F880121A601A6804
:1015100022F020021A60704752F830104FF4A27285
:10152000012081F880021A601A6842F020021A60D5
:10153000704740F203121A6070474FF481721A60CC
:10154000704700BFF08A000030B4054B054D064CD3
:10155000002210211A602A602060196030BC704798
:1015600014D0034004D0034000D00340212801D808
:10157000FFF78CBF704700BF212801D8FFF7A8BF35
:10158000704700BF2DE9F843054672B6204F214B46
:10159000214A1B683C68126862B6520102D5322BA0
:1015A00088BF013495B3C3F5BB331C4EDFF864909C
:1015B000DFF86480FF334FF47A72A6FB031302FB5B
:1015C00004F404EB931472B6D9F800103A68D8F812
:1015D00000E062B6C1F5BB33FF33A6FB03031EF088
:1015E000806FC4EB93134FF47A7002D0322988BF16
:1015F000013200FB0233B3F57A7F04D3013D05D0FD
:1016000004F57A74DFE701F0DBFADCE7BDE8F88384
:101610001093FF1F18E000E004ED00E0ABAAAAAAB7
:10162000F8B52D4B2D49DFF8D0E0DFF8D0C02C4EB7
:101630002C4D2D4C2D4A2E4F4FF4000018604FF0CA
:10164000807018604FF0007018604FF08060186074
:101650004FF0006018600020086028234BF6FF71EF
:10166000CCF80010CEF80030336013602B6023609C
:101670003B60B3629362092245F8242CC4F8D80F6A
:1016800005F57F65C7F8D41F07F5FF2707F5FA674B
:10169000C6F8F83F2B6006F5FF26C4F8D42F05F5F1
:1016A000FD2504F5FF24386006F2F4761148316018
:1016B00005F5FF6504F5FD642B602360026001F011
:1016C00067FB3220FFF75EFF00F0FEFC4FF4AF70C7
:1016D000BDE8F840FFF756BF08E100E00480034092
:1016E00014800340248003402C8003401C8003406E
:1016F0003480034000800B400C800340088003408E
:10170000431E032B14D872B60A4951F8230068B15E
:1017100070B4094C058834F81320466841F82360FA
:10172000521B24F8132062B670BC704762B6704733
:10173000002070476C93FF1FF095FF1F01380328AE
:101740000BD872B6074B53F8203043B100205B68CA
:101750000130002BFBD162B670470020704718465D
:10176000F9E700BFC093FF1FF0B472B61A491B4ED1
:10177000012311F8014B194F9A00240742F001058B
:1017800005D556F8324064B156F83520BAB1013368
:10179000052BEED162B6124B00221A70F0BC00F09D
:1017A0000FBD0F4C0F4D217847F8325007EB431314
:1017B00008304A1E5860227062B6F0BC7047084973
:1017C000094B0A7847F8353007EBC5030830013A72
:1017D00058600A7062B6F0E7348C00000080FF1F8A
:1017E000E993FF1F88004000C8004000431E032B00
:1017F0001DD81B4A400140F0100030B4104472B6AE
:10180000184CE25C032A1BD8DFE802F0021215171D
:1018100003220D88E25410F0080F14BFC823882358
:1018200043EA054308310360416062B630BC70474B
:1018300008300222EDE70522EBE708300422E8E752
:10184000094A52F8230038B1084A52F8230041608F
:1018500042F8231062B6E9E742F82310034AF7E79B
:101860000080FF1FF893FF1FC093FF1FD093FF1F3F
:101870002DE9F04FDFF804A3DFF804B387B044E0AC
:10188000A94F4FEA930807EBC809013ED9F8042095
:1018900003F00803F6B2A2F1080003F0FF04002BE6
:1018A00040F0FE8057F838301B0C99B222F8081C23
:1018B000002B00F0EC809D4B22F8064C42F8044CC3
:1018C00053F82620002A00F02B82994D55F8263037
:1018D0005860984C45F8260034F81630194424F81E
:1018E000161000F04DFC002800F01382924A934B32
:1018F00019F0080F00F1080018BF1346C9F80400DA
:1019000047F8383008238AF800309AF80040E4B2EB
:1019100060071AD58A4B1B78A3B18A490A7802F06E
:10192000FF0322B1013BDBB20B7003B900BE864955
:101930000A7802F0FF032AB1013BDBB20B70002BE7
:1019400000F0BD8104238AF8003004F0080303F09E
:10195000FF02002B00F0C8809BF80030DBB21E09AC
:101960008ED19C08704F57F8342007EBC401C2F3A6
:101970008302013A49680C2A00F28580DFE802F010
:101980007979838383838383428383830700086811
:101990006E4B6F4D0193684B4A686E4E47F834307A
:1019A00081B240F28164694B6A60286000220120A4
:1019B000A1421A603A61BA61307000F2E380B1F579
:1019C000D06F80F02782B1F5817F00F0E08100F2D6
:1019D000C381802900F03682822940F0DE81A98807
:1019E0005D4B01F07F01042900F2D8815B4C890036
:1019F0000B44227062701A78930740F122832070A2
:101A0000022023E2514B01931A683AB3544B514ED2
:101A10005449188834780D784028864645F00208E5
:101A200028BF4FF0400E002C84F001043470CEEB40
:101A300000000CBF8824C82407EBC80680B285F0DC
:101A4000010544EA0E447260188047F83840724439
:101A50000D70002800F0B780019B1A603C4B1A887B
:101A6000B2F5A06F0FD100219A7859703E4B1A70D1
:101A700009E0374A108842F22102904200F0A88023
:101A80002D4A47F83420394A012313703AE72A4A8D
:101A90002A4B19F0080F18BF134647F8383031E7C2
:101AA00000F08EFB324A334952F82630002B00F00A
:101AB0003B8158688C5D42F8260003F10802C9F8A2
:101AC0000420032C05D8DFE804F02C02292602228A
:101AD0008A551A8819F0080F0CBF8823C82343EAD7
:101AE000024347F838300DE7E00700F1EB802106AC
:101AF00000F12881A20706D51F4A20491378022049
:101B0000DBB213700870E30602D51C4B10221A706A
:101B100007B0BDE8F08F04228A55DAE705228A551E
:101B2000D7E703228A55D4E70080FF1F6C93FF1F7D
:101B30001893FF1FF095FF1FC80040008800400069
:101B4000F493FF1F7D93FF1FFC93FF1F1493FF1F50
:101B5000E093FF1F7C93FF1FC0200740EC93FF1F03
:101B60002893FF1FE893FF1F982007409420074009
:101B7000C093FF1FF893FF1F882007408020074075
:101B80009020074042F22104A14200F0948043D803
:101B9000B1F5086F00F0A881B1F5106F40F0FD803D
:101BA000B84AB94CA978117004F1800503E00834F3
:101BB000AC4200F09E81236A1906F8D5606A0838A5
:101BC00000F0FEFAF3E7BEF1400F18BF002243E732
:101BD000AE4ACD1D11F8013B02F8013FA942F9D1EF
:101BE000AB4A1268862A00F01181AA49AA4E0A78E7
:101BF000307882F00105002842F002020D700CBF1F
:101C00008821C82147F8321007EBC20280F001009A
:101C100000213070516033E742F22124A14240F0AC
:101C2000FE81DFF8BCC29D4B9D49AC78DCF80050CA
:101C30001D6081460C700020029080468446044658
:101C400094490D7845F0020E07EBCE03B9F1000F71
:101C50005C600CBF8824C82444EA080385F00104B2
:101C600047F83E3032700C70DFF81CE28A4BDFF828
:101C70002482002840F09880BCF1400F1BD144F032
:101C8000020407EBC403029FDFF8FCE15F60002A57
:101C900040F09F80020442F0880207444EF834204E
:101CA00086F800900D703B46402804D100207D4A04
:101CB000019910800B607C4A01231370E3E600F069
:101CC000EBFB3FE6704B784872491A614FF0020E09
:101CD00080F800E0754F0A70754919609960754E7B
:101CE000754D764C9A610D213970FF213170DFF806
:101CF000F4E129702270724D724A8EF800109F270D
:101D0000012406F8047C5D600470DA6007B0BDE869
:101D1000F08F6D4A47F83800137801331370F1E5FE
:101D200043F82600694DD4E58B5D032B67D801A2EB
:101D300052F823F00519000005190000891D000064
:101D4000831D000059495C4B80220D2008701A70D9
:101D5000A2077FF5D8AECFE640F20232914240F0C2
:101D60005681A98801F07F01042916D86A88A2B992
:101D70004E4C89000C448146217841F002012170CB
:101D800059E701238B55BDE500238B55BAE5A9889A
:101D900001F07F01042940F24781444B0F221A7061
:101DA000414A012313706EE640287FF668AF44F085
:101DB00002040EEBC401029E4E60AAB1444A83F8AD
:101DC00000903346403888F8005040334EF83420B5
:101DD0006DE70204029B86F8009042F0C8020D7085
:101DE00003444EF834205FE783F80090029B304AAA
:101DF00088F80050403840334EF8342057E719F047
:101E0000080F0CBF022303238B557BE5314A0F21BA
:101E10001170EAE6304A5468002CBED06888B5F8E4
:101E200004E003E00C325468002CB6D013888342DF
:101E3000F8D153887345F5D1000A03280CBF2078E8
:101E4000108903E0254C022022706270EA888242E9
:101E500080F00C810F490D78402A45F0020E94461F
:101E600007EBCE0028BF4FF0400C04EB0C0344609E
:101E70000293CCEB02004FEA0C484FF0010900221C
:101E8000C824E9E6F493FF1F0080FF1FF795FF1FAA
:101E9000F895FF1FE893FF1F7C93FF1F0096FF1F1D
:101EA0000C94FF1F2893FF1F94200740C020074079
:101EB0008800400088200740802007409820074085
:101EC0002C93FF1F8093FF1FE993FF1F1893FF1FA1
:101ED000C80040007D93FF1F388C0000EC93FF1F6B
:101EE0001093FF1F8C200740684A694C12782270BB
:101EF000ACE76849684B694A02916949694C6A4D87
:101F0000039405964FF0000988461C461646049532
:101F1000206828B1456800F053F92846002DF9D112
:101F200000232360049B30681A46002342F82930BE
:101F300028B1456800F044F92846002DF9D1002267
:101F40003260029A98F800301146002241F8042BC2
:101F5000039A0291023B4FF0000122F81910032B63
:101F600007D8DFE803F0340234024FF0010388F8A9
:101F7000003009F10109B9F1040F04F1040406F17C
:101F8000040608F10108C3D1484B059EDFF83091E3
:101F9000DFF8308100211970012518F8013B09F89C
:101FA000043B1A0718D4AC0044F0020244F00304C6
:101FB000002347F8323047F834303D4B994505F15E
:101FC0000105EAD196F8009089F0010233E64FF05E
:101FD000000388F80030CCE700F0D2F8AC0007EB43
:101FE000451300F10802002837D05A60314B47F8FA
:101FF000343000F0C5F844F0010307EBC30200F1F0
:10200000080100B351602C4A47F83320CCE7B1F502
:10201000A06F7FF4C2AE00224FF001090BE642F23E
:1020200021329142F7D0B8E66A88002A7FF4B5AE33
:10203000224C89000C448146217821F00201217054
:10204000F9E5022002E7194B44F001021B7847F83A
:102050003200164A01331370A6E7144B134A1B785B
:10206000AC00013347F834001370C2E740288446BF
:1020700028BF4FF0400C04EB0C03CCEB00004FEA00
:102080000C48029300224FF00109D9E5F493FF1F99
:10209000EC93FF1FD093FF1F6C93FF1FC093FF1F94
:1020A000F893FF1FF095FF1F1893FF1FE993FF1F81
:1020B000D420074088004000C8004000C0200740EE
:1020C000C4200740348C00002DE9F843204C01F077
:1020D00055FA002204F1880023461A605A6008333A
:1020E00083424FF00001F8D11A4A1B4F13681B4D71
:1020F0001B481C4EDFF87880DFF878C0DFF8789056
:10210000DFF878E043F480231360C4F307233B70C7
:10211000C4F307432B70240EFF2302F5283204700A
:10212000114D88F8003011488CF80030D4323370EB
:10213000012389F8003070268EF800104FF40074E7
:10214000102107F8183C2E7004601170BDE8F88368
:102150000080FF1F348004409C200740B0200740CF
:10216000B42007401020074049E400E008E100E007
:102170008020074088200740942007400021074026
:1021800072B60D480268B2FA82F30B2B10DC4FF0E6
:102190000041D94022EA0102026062B6074803EB1F
:1021A000C303DB00C2180021C150104651607047C4
:1021B00062B60020704700BF6087FF1FBC83FF1F0F
:1021C0000D4B0E4AC31AA2FB03231B090B2B0CD881
:1021D0000B4A127852B972B60A484FF000410268B1
:1021E00021FA03F31A43026062B67047064A127876
:1021F000002AF0D0FFF7B8BABC83FF1F398EE3384E
:10220000E993FF1F6087FF1FF493FF1F38B50F4D41
:10221000286878B143880288C118013393420C7A48
:1022200002D24380204638BDFFF7CAFF0023204674
:102230002B6038BD064B1B782BB10320FFF760FAEB
:1022400028600028E6D14FF0FF3038BD0894FF1F0A
:10225000F493FF1F10B5094C206818B14388184447
:10226000007A10BD064B1B782BB10320FFF748FA0C
:1022700020600028F2D14FF0FF3010BD0894FF1FFE
:10228000F493FF1F044B054A1B6890881BB11A8802
:102290005B88D31A184470470894FF1FF095FF1FFE
:1022A0000B4B1B789BB110B50A4C206848B1FFF767
:1022B00087FF002303202360FFF722FA30B1FFF7E6
:1022C0007FFF0320FFF71CFA0028F8D110BD7047EC
:1022D000F493FF1F0894FF1F2DE9F04FDFF8F890EB
:1022E00083B0012289F80020019169B3DFF8EC8006
:1022F000364F019E8346D8F80000B0B3344D448871
:10230000C4F14001B14228BF314604EB010E002266
:102310001FFA8EFE2A70761AA0F802E000F1080279
:1023200051B1013C224459441BF8014B02F8014FC2
:102330008B45F9D1B0F802E0BEF13F0F0BD8254A2A
:1023400005211170002ED6D10198002389F80030A4
:1023500003B0BDE8F08F4022028001460420FFF761
:1023600045FA0022C8F80020E9E73A782AB3184D68
:102370004AF2F9244FF0010A07E0013C16D02A780E
:10238000A2B900F01DFC3A78BAB10420FFF7D6F9E3
:102390000728F2D889F800A0FFF7F2FEC8F800007D
:1023A0000028ACD10C4B013C1870E8D101234FF050
:1023B000FF302B7003B0BDE8F08F00234FF0FF30EB
:1023C00089F8003003B0BDE8F08F00BFF493FF1F21
:1023D0000494FF1FFC93FF1FFD93FF1F0094FF1F3A
:1023E00000B583B002AB012103F8010D1846FFF7D9
:1023F00073FF03B05DF804FB38B50E4D0E4C286832
:102400000123237028B1408800232370C0F14000CD
:1024100038BD0A4B1B7813B90020207038BD04204A
:10242000FFF78CF90728F7D8FFF7AAFE28600028E5
:10243000E9D1F1E70094FF1FFD93FF1FF493FF1F05
:10244000F8B5114B1B788BB1104E114D3468012734
:102450002F7064B10F4A63880027177021462380CC
:102460000420FFF7C3F9376000232B70F8BDFFF796
:1024700087FE084B28B1014604201C70FFF7B6F90F
:10248000F2E71F70F0E700BFF493FF1F0094FF1FF7
:10249000FD93FF1FFC93FF1F38B50E4B1B7873B9DC
:1024A0000D4C216861B103F0FF054B880B800420BF
:1024B000FFF79CF9256038BD084B01221A7038BD22
:1024C000FFF75EFE0028F7D00146BDE83840042043
:1024D000FFF78CB9FD93FF1F0094FF1FFC93FF1FB4
:1024E00010B4EFF3108272B6437F33B9017F012934
:1024F00007D003290FD00123437702B962B610BC7D
:102500007047124C2168A1B1114943610B68836186
:1025100008605861EFE70F4C216881B10E494361B3
:102520000B688361086058610C4B4FF08051196053
:10253000E1E7074B4161816120601860DBE7064BF2
:102540004161816120601860EEE700BF2094FF1FA9
:102550001C94FF1F1094FF1F1494FF1F04ED00E054
:1025600070B5EFF3108272B60C4C206880B10C4E3F
:1025700000254369236073B19D6102B962B6457756
:1025800083689847EFF3108272B620680028F0D174
:1025900002B962B670BD3360EFE700BF1094FF1F51
:1025A0001494FF1FFFF7DCBF184A30B41468002CE6
:1025B00027D0036821688B420ED2CB1A0021846099
:1025C000C1602360E06010600223037530BC704777
:1025D00011688B42144608D3A2685B1A0360002A74
:1025E000F6D18260C460A060EEE7D268C260846009
:1025F000E060C568CB1A0222A8602360027530BC77
:1026000070478460C4601060DEE700BF1894FF1F4D
:10261000F8B5224E34682CB32368002B3AD1204FF2
:102620001D4604E03468ECB12368002B32D1A36866
:1026300003B1DD6020693360036825751B68BB4208
:1026400021D1037F4560022BC46020D0FFF748FFF3
:102650006368002BE6D023602046FFF7A5FF3468AF
:10266000002CE1D1EFF3108372B60E4A00211068FE
:10267000116003B962B628B18468FFF795FF204660
:102680000028F9D1F8BD224600219847E0E7836889
:102690009847DDE7013B2360E4E700BF1894FF1F84
:1026A0008D0E00002894FF1F024A13680133136047
:1026B000FFF7AEBF1093FF1F08B5FDF78DFFFEF7C4
:1026C00019F800F07DFAFAE701F0ECBF2DE9F043CC
:1026D0008C688BB0ECB10025064689462F462B4608
:1026E000212201A9484600F0CBF93268202C23466C
:1026F00028BF2023D2F8048001A91A4630461D4481
:10270000E41AC0470744002CE9D138460BB0BDE8B5
:10271000F0832746F9E700BF00B5064A0368128830
:102720005B6883B001A9ADF804200222984703B08A
:102730005DF804FB008C0000F0B507468BB0002A62
:1027400033D0012A08BF0A2251B3212400E0F4B299
:10275000B1FBF2F502FB1511C8B2092900F13001F5
:1027600098BFC8B20AA988BF3730214488BFC0B219
:1027700001F8240C661E2946002DE8D133B1013C36
:10278000E4B20AAB23442D2203F8242C3B6801AAAF
:1027900011195B683846C4F1220298470BB0F0BDAE
:1027A00030228DF825202124E8E70368C9B21B6890
:1027B00098470BB0F0BD00BF70B50E4D82B02B68CE
:1027C0000093009E044608E000F0FAF92B6801939C
:1027D000019BA2689B1B934207D2236820465B693A
:1027E00098470028F0DB02B070BD4FF0FF3002B018
:1027F00070BD00BF1093FF1F81607047F8B50F4692
:1028000016460021054600F065F88EB1002404E06C
:102810000ED000F0EBF8A6420AD03846FFF7CCFF06
:10282000011E04F10104C9B22846F1DA01233B7309
:102830002846F8BDFFF734BDFFF702BEFFF7DCBD49
:1028400008461146FFF748BD0846FFF7C9BD00BF5F
:10285000704700BF10B50446006801F02BFF20460A
:1028600010BD00BF38B543688B4201D3012038BD8D
:102870000D4604460131006802F0A8FA0028F6D09F
:10288000A36884E82100002BF0D10370EEE700BFBD
:10289000F8B50446154632B9036803B11A7000232F
:1028A000A3602046F8BD0E461146FFF7DBFF074642
:1028B00048B9206810B101F0FDFE27600023636075
:1028C000A3602046F8BDA5603146206802F0F0FC08
:1028D000E7E700BF38B50023044603604360836028
:1028E000037341B108460D4602F04AFD29460246EF
:1028F0002046FFF7CDFF204638BD00BF00238842A9
:1029000010B50446036043608360037303D08A6894
:102910000968FFF7BDFF204610BD00BF38B505466A
:1029200008460C4602F02CFD214602462846BDE82A
:102930003840FFF7ADBF00BF10B5044600238AB092
:10294000084623606360A3602373911C6B4600F00C
:10295000B5FA30B101462046FFF7E0FF20460AB045
:1029600010BDA06020460AB010BD00BF814203D058
:102970008A680968FFF78CBF704700BF2DE9F843EC
:1029800003680F46BB420446816815460AD85A18A8
:10299000974207D2C3EB07094FF0010835B920462B
:1029A000BDE8F8834FF00008002DF8D04E193146ED
:1029B0002046FFF757FF0028F1D0B8F1000F0ED0E6
:1029C0002368A0682A4603EB0901184400F046F981
:1029D000236800229A55A6602046BDE8F883206847
:1029E000A3683946184402F063FCF4E710B582B0DE
:1029F00000238DF80410012201A904468DF805304A
:102A0000FFF7BCFF204602B010BD00BF10B58A68BA
:102A100009680446FFF7B2FF204610BD38B50546E9
:102A200041B108460C4602F0ABFC2146024628465E
:102A3000FFF7A4FF284638BD10B583688C681B1BC0
:102A400093420CD3036873B1096851B1104618441E
:102A5000224602F003FDB0FA80F0400910BD0020CC
:102A600010BD084610BD184610BD00BF82688B68B7
:102A70009A4202D30022FFF7DFBF0020704700BF59
:102A8000B2B1A9B138B584689C420ED9E41A013AB2
:102A90000D469442016828BF144619442246284630
:102AA00002F02CFD00232B5538BD00230B7038BDE0
:102AB000704700BF83683BB110B50468204602F040
:102AC0008FFB20B1001B10BD4FF0FF3070474FF05F
:102AD000FF3010BD9A42F8B504460E4602D91146A1
:102AE0001A460B460021A1602173B0682160824222
:102AF00061600ED8834228BF03461D4633685F5D80
:102B000059553368991806D02046FFF707FF3368F8
:102B10005F552046F8BDA1605F55FAE738B5836878
:102B20008B42044614D99AB1084611448B4238BFEF
:102B30001A1A2568A3EB020238BF1946A26029447D
:102B4000121A284402F08CF82268A3680021D1549C
:102B5000204638BD2DE9F04106680746EEB184688D
:102B6000DCB1354600E04546287805F1010801F062
:102B700079FD0028F7D1013C344402E0A54205D894
:102B8000013C207801F06EFD0028F7D1621C521B39
:102B9000B542BA6004D80023B3543846BDE8F0818A
:102BA0003046294600F05AF83E68BA68F3E700BF9D
:102BB000006810B1002103F03DBC0020704700BF49
:102BC00038B5224C237803B138BD01232370FFF7B9
:102BD00059FB70BB00F02AFB40BB00F0BDFB10BBF3
:102BE00000F050FCE0B900232370EFF30583002BC5
:102BF000EAD1EFF3108172B6154B1868E0B1154CAD
:102C00002278CAB945691D6001232370C5B1AA6144
:102C100001B962B600254577836898472570D3E7E8
:102C200000F0F2FCDFE700F0EDFCD9E700F0E8FC93
:102C3000D3E7FFF70DFECDE70029C5D162B638BD59
:102C4000054B1D600029E5D1E3E700BF2C94FF1F71
:102C50002094FF1F2494FF1F1C94FF1F844641EA09
:102C6000000313F003036DD1403A41D351F8043B04
:102C700040F8043B51F8043B40F8043B51F8043B56
:102C800040F8043B51F8043B40F8043B51F8043B46
:102C900040F8043B51F8043B40F8043B51F8043B36
:102CA00040F8043B51F8043B40F8043B51F8043B26
:102CB00040F8043B51F8043B40F8043B51F8043B16
:102CC00040F8043B51F8043B40F8043B51F8043B06
:102CD00040F8043B51F8043B40F8043B51F8043BF6
:102CE00040F8043B51F8043B40F8043B403ABDD265
:102CF000303211D351F8043B40F8043B51F8043B07
:102D000040F8043B51F8043B40F8043B51F8043BC5
:102D100040F8043B103AEDD20C3205D351F8043B95
:102D200040F8043B043AF9D2043208D0D2071CBF61
:102D300011F8013B00F8013B01D30B88038060468A
:102D4000704700BF082A13D38B078DD010F0030300
:102D50008AD0C3F10403D21ADB071CBF11F8013B70
:102D600000F8013B80D331F8023B20F8023B7BE7BF
:102D7000043AD9D3013A11F8013B00F8013BF9D2EA
:102D80000B7803704B7843708B7883706046704784
:102D900030B42948294A2A4B2A4D6024E121047085
:102DA00011701B78284C082B30D00A2B2748284953
:102DB00037D00C2B0CBF35223D2212232A60236012
:102DC00002600B60234B24491B78244ABBB10123CA
:102DD0000B601360224B23491B78234A012B26D911
:102DE000042B0FD9082B1ED9102B94BF86238723C1
:102DF0000B6013601D4B01221A7030BC70470B60D2
:102E00001360E7E784230B601360F3E700F58E207F
:102E10000F490830012213232A60236002600B60EF
:102E2000D0E73922F7E785230B601360E2E78023C0
:102E30000B601360DEE700BF004007400140074021
:102E40007487FF1F08B003400CB0034008B00B406C
:102E50000CB00B402E94FF1F20B0034020B00B405D
:102E60007587FF1F24B0034024B00B402D94FF1F33
:102E7000F0B44D1E2E46002400E00134B0FBF2F306
:102E800002FB1300092800F130078ABF3730F8B27F
:102E9000C0B206F8010F1846002BEED10A19537084
:102EA0004CB1107815F8016F28700133E01A834295
:102EB00002F80169F5DB0846F0BC70472DE9F04FD8
:102EC0000D4685B085EAE5790146824617461C46DF
:102ED000A9EBE57901F046FB002840F02F812AF0AC
:102EE00000484046C74901F03DFB002847D1404615
:102EF000C44901F019FB0646002840D10021504684
:102F000001F008FB002814BF0420032048451DDB06
:102F1000002DC0F274815046002101F0FBFA2546D5
:102F200048BB49214E22462321706270A3700334AE
:102F3000002E00F07681A019202304F8013BA04266
:102F4000FBD10023037005B0BDE8F08F002DC0EB6E
:102F50000906E0DA002E00F05281A519202304F8BA
:102F6000013BAC42FBD15046002101F0D3FA0028CE
:102F700000F0228100262D232B706C1CD1E702ABC0
:102F800001AA3946504601F02FFBBB468046DDF8CA
:102F90000490002F57D0C9F10003BB4200F3948086
:102FA000404602F0EDF90646B145B8BF0136B9F129
:102FB000000F40F098800136DDF808E0BEF1000F08
:102FC00053D00136A81B002804EB060153DC23462E
:102FD0002D221A700133B9F1000F63D137B11A46AF
:102FE000302002F8020B2E20587013468B4220D25C
:102FF0005F1C98F800201A708F4208F1010819D060
:10300000019A4FF02E0E0BE083F801E002338B4261
:1030100003F101070DD218F8010B18708F4209D087
:10302000013A0192002AEFD03B468B4203F101079F
:10303000F1D31946002DC0F2A980002320460B7061
:1030400005B0BDE8F08FB9F1000FA4D190F8008071
:103050006D496E4A012301939946B8F1340F8CBF34
:10306000884690464FF0FF3397E7A81B002804EBF3
:10307000060140F3D8800144224601384FF0200C6D
:1030800002F801CBC2F1010303442344002BF7DC17
:1030900020EAE07301332344BEF1000F98D1B9F167
:1030A000000F9BD0A2DA002FA0D01A46302002F8E1
:1030B000020B2E275F70C9EB020302F8010B93424B
:1030C000FBD10022019291E7C7F100090126B14529
:1030D0003046B8BF0136B9F1000FDFF83081CDF8C6
:1030E00004903FF468AFBFF667AF002F3FF464AFC2
:1030F00009EB0703984207F102067FF65DAF002F48
:1031000007DD5046424901F067F8BBF1010B8246EA
:10311000F7D102AB03AA5946504601F065FADDF833
:103120000490039A7B1CC9EB02029A4208BF09F182
:103130000109804608BFCDF804903DE700215046C4
:1031400001F0E8F9002814BF0420032048453BDAC9
:10315000002DC0EB09063BDB4FF07E5350460021AB
:1031600063F31E0001F0D6F92546002841D14E2315
:1031700041222370A37062700334002E51D0A01935
:10318000202304F8013B8442FBD1DAE6A81943422C
:10319000002B6FEA00007FF750AF0A46202502F8A7
:1031A000015BC2F1010303440B44002BF7DC20EA6E
:1031B000E0730133194440E749214E224623297028
:1031C0006A70AB70E81CBCE6002D16DB0026C3E776
:1031D0009EB1A519202304F8013BAC42FBD14FF06E
:1031E0007E535046002163F31E0001F093F988B12D
:1031F00000262D232B706C1CB9E72546EFE72546EA
:10320000B1E600BFFFFF7F7F308C00002C8C0000F8
:10321000000020414E2341222B70AB706A70E81CE5
:103220008FE620468DE62346D5E600BF054A064BCD
:1032300010781B78C0B2DBB2984238BF4030C01A59
:10324000704700BF3494FF1F3594FF1FF0B4384B14
:103250001A7912F0300F2CD072B6997D01F0FF026E
:1032600000293DD062B6334F334938780D78334E5C
:103270001C46C0B2EDB2431C402BE17928BF0023AD
:10328000AB4202F1FF32C9B21CBFF154184612F032
:10329000FF02F0D12A4B1B68C2B23A704BB1A84270
:1032A00036BFC5F14005401B40192728C4BF012285
:1032B0001A701F49CA78D2B2150616D452060DD517
:1032C0001B4B1B795B0609D51E4B1F491B6800224F
:1032D0000A7003B11A70164B3C22DA70F0BC7047CA
:1032E0004022D9795A7462B6E3E70B791C06E5D51A
:1032F000164B174E1C783378E4B2DBB29C420ED0EA
:10330000144D01E0A3420AD00133402B28BF002313
:103310000879E85CC0B2C871087D0728F2D9DBB231
:10332000034933700B79180644BF7C23CB70C5E783
:1033300000A006403494FF1F3594FF1F7894FF1FB0
:103340003094FF1FBC94FF1FB894FF1FC094FF1F51
:10335000B994FF1F3894FF1F054A064B10781B785D
:10336000C0B2DBB2984238BF4030C01A704700BFCD
:103370003495FF1FC994FF1FF0B4384B1A7912F02F
:10338000300F2CD072B6997D01F0FF0200293DD09C
:1033900062B6334F334938780D78334E1C46C0B28D
:1033A000EDB2431C402BE17928BF0023AB4202F170
:1033B000FF32C9B21CBFF154184612F0FF02F0D11F
:1033C0002A4B1B68C2B23A704BB1A84236BFC5F156
:1033D0004005401B40192728C4BF01221A701F490D
:1033E000CA78D2B2150616D452060DD51B4B1B79DE
:1033F0005B0609D51E4B1F491B6800220A7003B1EA
:103400001A70164B3C22DA70F0BC70474022D97912
:103410005A7462B6E3E70B791C06E5D5164B174ED6
:103420001C783378E4B2DBB29C420ED0144D01E03C
:10343000A3420AD00133282B28BF00230879E85C77
:10344000C0B2C871087D0728F2D9DBB203493370D6
:103450000B79180644BF7C23CB70C5E700B006404B
:103460003495FF1FC994FF1FF494FF1FC494FF1FDE
:103470003895FF1FC894FF1F3C95FF1F3595FF1F10
:10348000CC94FF1F054A064B10781B78C0B2DBB204
:10349000984238BF4030C01A704700BF4495FF1FA4
:1034A0004595FF1F30B42B4B1A7994061FD52A4837
:1034B000DA790378294901333F2B0978C8BF002303
:1034C0008B42D2B203D0264CD9B2E2540170254AC5
:1034D000116861B1244A1278D2B2934236BFC2F168
:1034E00040029B1A9B18272BC4BF01230B70194A5B
:1034F000D378DBB2180611D45A060DD5154B1B79BB
:103500005B0609D5194B1A491B6800220A7003B1E2
:103510001A70104B2C22DA7030BC704711790906F2
:10352000EAD5144910480C780178C9B28C420DD004
:103530004A1C272A84BF00210A460F4D054C98BF1C
:10354000D1B2AA5CD2B2E2710170D5E76C21D17020
:10355000D2E700BF00C006404495FF1F4595FF1FFE
:103560007095FF1F4095FF1FB195FF1FB495FF1F7A
:10357000B095FF1FB895FF1F4895FF1F70B584B029
:1035800072B6194B194D1A48702241260F2480211A
:103590001A702E701A460470197013781B06FCD529
:1035A000144B186862B6144B144C984298BF00EB49
:1035B000800001A998BF40000A22FFF759FC01A929
:1035C0002046002311F8012B01333AB10A2B20F8D1
:1035D000022FF7D11623237004B070BD5B00DBB25D
:1035E000237004B070BD00BF00000240070002401D
:1035F00006000240080002407F9698000488FF1FE2
:10360000704700BF704700BF704700BF81F00041A6
:1036100002E000BF83F0004330B54FEA41044FEAB7
:10362000430594EA050F08BF90EA020F1FBF54EA52
:10363000000C55EA020C7FEA645C7FEA655C00F0EE
:10364000E2804FEA5454D4EB5555B8BF6D420CDDBF
:103650002C4480EA020281EA030382EA000083EA42
:10366000010180EA020281EA0303362D88BF30BDE2
:1036700011F0004F4FEA01314FF4801C4CEA113138
:1036800002D0404261EB410113F0004F4FEA033397
:103690004CEA133302D0524263EB430394EA050F22
:1036A00000F0A780A4F10104D5F1200E0DDB02FA91
:1036B0000EFC22FA05F2801841F1000103FA0EF225
:1036C000801843FA05F359410EE0A5F120050EF1EB
:1036D000200E012A03FA0EFC28BF4CF0020C43FA1C
:1036E00005F3C01851EBE37101F0004507D54FF029
:1036F000000EDCF1000C7EEB00006EEB0101B1F579
:10370000801F1BD3B1F5001F0CD349085FEA3000BE
:103710004FEA3C0C04F101044FEA445212F5800FC9
:1037200080F09A80BCF1004F08BF5FEA500C50F166
:10373000000041EB045141EA050130BD5FEA4C0C49
:10374000404141EB010111F4801FA4F10104E9D1D2
:1037500091F0000F04BF01460020B1FA81F308BFC9
:103760002033A3F10B03B3F120020CDA0C3208DD95
:1037700002F1140CC2F10C0201FA0CF021FA02F170
:103780000CE002F11402D8BFC2F1200C01FA02F1E0
:1037900020FA0CFCDCBF41EA0C019040E41AA2BF05
:1037A00001EB0451294330BD6FEA04041F3C1CDACD
:1037B0000C340EDC04F11404C4F1200220FA04F0ED
:1037C00001FA02F340EA030021FA04F345EA030197
:1037D00030BDC4F10C04C4F1200220FA02F001FA59
:1037E00004F340EA0300294630BD21FA04F02946DB
:1037F00030BD94F0000F83F4801306BF81F4801174
:103800000134013D4EE77FEA645C18BF7FEA655CE6
:1038100029D094EA050F08BF90EA020F05D054EAB8
:10382000000C04BF1946104630BD91EA030F1EBFBD
:103830000021002030BD5FEA545C05D140004941C1
:1038400028BF41F0004130BD14F580043CBF01F5B4
:10385000801130BD01F0004545F0FE4141F470019A
:103860004FF0000030BD7FEA645C1ABF1946104675
:103870007FEA655C1CBF0B46024650EA013406BF76
:1038800052EA033591EA030F41F4002130BD00BF35
:1038900090F0000F04BF0021704730B54FF48064F2
:1038A00004F132044FF000054FF0000150E700BF73
:1038B00090F0000F04BF0021704730B54FF48064D2
:1038C00004F1320410F0004548BF40424FF00001BF
:1038D0003EE700BF42004FEAE2014FEA31014FEA02
:1038E00002701FBF12F07F4393F07F4F81F0605151
:1038F000704792F0000F14BF93F07F4F704730B5C0
:103900004FF4607401F0004521F0004120E700BF52
:1039100050EA010208BF704730B54FF000050AE0D9
:1039200050EA010208BF704730B511F0004502D5DA
:10393000404261EB41014FF4806404F132045FEADC
:10394000915C3FF4DCAE4FF003025FEADC0C18BF81
:1039500003325FEADC0C18BF033202EBDC02C2F177
:10396000200300FA03FC20FA02F001FA03FE40EA09
:103970000E0021FA02F11444C1E600BF70B54FF009
:10398000FF0C4CF4E06C1CEA11541DBF1CEA1355EB
:1039900094EA0C0F95EA0C0F00F0DEF82C4481EA53
:1039A000030621EA4C5123EA4C5350EA013518BF73
:1039B00052EA033541F4801143F4801338D0A0FB60
:1039C00002CE4FF00005E1FB02E506F00042E0FB0D
:1039D00003E54FF00006E1FB03569CF0000F18BF13
:1039E0004EF0010EA4F1FF04B6F5007F64F54074BB
:1039F00004D25FEA4E0E6D4146EB060642EAC6214E
:103A000041EA55514FEAC52040EA5E504FEACE2EBA
:103A1000B4F1FD0C88BFBCF5E06F1ED8BEF1004FBD
:103A200008BF5FEA500E50F1000041EB045170BD39
:103A300006F0004646EA010140EA020081EA03017D
:103A4000B4EB5C04C2BFD4EB0C0541EA045170BD79
:103A500041F480114FF0000E013C00F3AB8014F1F3
:103A6000360FDEBF002001F0004170BDC4F100043C
:103A7000203C35DA0C341BDC04F11404C4F12005BD
:103A800000FA05F320FA04F001FA05F240EA020018
:103A900001F0004221F0004110EBD37021FA04F64E
:103AA00042EB06015EEA430E08BF20EAD37070BD08
:103AB000C4F10C04C4F1200500FA04F320FA05F067
:103AC00001FA04F240EA020001F0004110EBD37069
:103AD00041F100015EEA430E08BF20EAD37070BDD9
:103AE000C4F1200500FA05F24EEA020E20FA04F3B2
:103AF00001FA05F243EA020321FA04F001F0004161
:103B000021FA04F220EA020000EBD3705EEA430ED1
:103B100008BF20EAD37070BD94F0000F0FD101F000
:103B20000046400041EB010111F4801F08BF013C39
:103B3000F7D041EA060195F0000F18BF704703F077
:103B40000046520043EB030313F4801F08BF013DFE
:103B5000F7D043EA0603704794EA0C0F0CEA1355BA
:103B600018BF95EA0C0F0CD050EA410618BF52EA74
:103B70004306D1D181EA030101F000414FF000007A
:103B800070BD50EA410606BF1046194652EA430688
:103B900019D094EA0C0F02D150EA013613D195EAFC
:103BA0000C0F05D152EA03361CBF104619460AD144
:103BB00081EA030101F0004141F0FE4141F470014E
:103BC0004FF0000070BD41F0FE4141F4780170BD3E
:103BD00070B54FF0FF0C4CF4E06C1CEA11541DBFA3
:103BE0001CEA135594EA0C0F95EA0C0F00F0A7F8A5
:103BF000A4EB050481EA030E52EA03354FEA0131D2
:103C000000F088804FEA03334FF0805545EA1313E4
:103C100043EA12634FEA022245EA111545EA1065AC
:103C20004FEA00260EF000419D4208BF964244F143
:103C3000FD0404F5407402D25B084FEA3202B61A62
:103C400065EB03055B084FEA32024FF480104FF436
:103C5000002CB6EB020E75EB030E22BFB61A7546AA
:103C600040EA0C005B084FEA3202B6EB020E75EB3D
:103C7000030E22BFB61A754640EA5C005B084FEAA5
:103C80003202B6EB020E75EB030E22BFB61A754672
:103C900040EA9C005B084FEA3202B6EB020E75EB7D
:103CA000030E22BFB61A754640EADC0055EA060E3E
:103CB00018D04FEA051545EA16754FEA06164FEA81
:103CC000C30343EA52734FEAC2025FEA1C1CC0D12D
:103CD00011F4801F0BD141EA00014FF000004FF0BA
:103CE000004CB6E711F4801F04BF01430020B4F17B
:103CF000FD0C88BFBCF5E06F3FF6AFAEB5EB030C33
:103D000004BFB6EB020C5FEA500C50F1000041EB2F
:103D1000045170BD0EF0004E4EEA113114EB5C04FC
:103D2000C2BFD4EB0C0541EA045170BD41F48011CF
:103D30004FF0000E013C90E645EA060E8DE60CEAD7
:103D4000135594EA0C0F08BF95EA0C0F3FF43BAFF4
:103D500094EA0C0F0AD150EA01347FF434AF95EAAB
:103D60000C0F7FF425AF104619462CE795EA0C0F8F
:103D700006D152EA03353FF4FDAE1046194622E75C
:103D800050EA410618BF52EA43067FF4C5AE50EA36
:103D900041047FF40DAF52EA43057FF4EBAE12E726
:103DA0004FF0FF3C06E000BF4FF0010C02E000BF07
:103DB0004FF0010C4DF804CD4FEA410C7FEA6C5CEA
:103DC0004FEA430C18BF7FEA6C5C1BD001B050EA8D
:103DD000410C0CBF52EA430C91EA030F02BF90EA78
:103DE000020F0020704710F1000F91EA030F58BF37
:103DF000994208BF90422CBFD8176FEAE37040F099
:103E0000010070474FEA410C7FEA6C5C02D150EA36
:103E1000013C07D14FEA430C7FEA6C5CD6D152EAF1
:103E2000033CD3D05DF8040B704700BF84461046B6
:103E300062468C461946634600E000BF01B5FFF7B5
:103E4000B7FF002848BF10F1000F01BD4DF808ED85
:103E5000FFF7F4FF0CBF012000205DF808FB00BF56
:103E60004DF808EDFFF7EAFF34BF012000205DF8B0
:103E700008FB00BF4DF808EDFFF7E0FF94BF0120FD
:103E800000205DF808FB00BF4DF808EDFFF7CEFFFE
:103E900094BF012000205DF808FB00BF4DF808ED3D
:103EA000FFF7C4FF34BF012000205DF808FB00BF0E
:103EB0004FEA410C7FEA6C5C02D150EA013C0AD126
:103EC0004FEA430C7FEA6C5C02D152EA033C02D118
:103ED0004FF0000070474FF0010070474A0011D2C8
:103EE00012F5001211D20DD56FF47873B3EB625254
:103EF0000ED44FEAC12343F0004343EA505323FA60
:103F000002F070474FF00000704750EA013002D1D4
:103F10004FF0FF3070474FF0000070474FEA41020A
:103F2000B2F1E04324BFB3F5001CDCF1FE5C0DD917
:103F300001F0004C4FEAC0024CEA5070B2F1004F61
:103F400040EB830008BF20F00100704711F0804F64
:103F500021D113F13872BCBF01F00040704741F429
:103F600080114FEA5252C2F11802C2F1200C10FA2D
:103F70000CF320FA02F018BF40F001004FEAC12311
:103F80004FEAD32303FA0CFC40EA0C0023FA02F3B5
:103F90004FEA4303CCE77FEA625307D150EA01338B
:103FA0001EBF4FF0FE4040F44000704701F000405B
:103FB00040F0FE4040F40000704700BF80F0004039
:103FC00002E000BF81F0004142001FBF5FEA4103F1
:103FD00092EA030F7FEA226C7FEA236C6AD04FEAF1
:103FE0001262D2EB1363C1BFD21841404840414036
:103FF000B8BF5B42192B88BF704710F0004F40F4E8
:10400000000020F07F4018BF404211F0004F41F403
:10401000000121F07F4118BF494292EA030F3FD0CF
:10402000A2F1010241FA03FC10EB0C00C3F12003E2
:1040300001FA03F100F0004302D5494260EB400071
:10404000B0F5000F13D3B0F1807F06D340084FEADC
:10405000310102F10102FE2A51D2B1F1004F40EBD1
:10406000C25008BF20F0010040EA03007047490039
:1040700040EB000010F4000FA2F10102EDD1B0FA04
:1040800080FCACF1080CB2EB0C0200FA0CF0AABFF9
:1040900000EBC25052421843BCBFD0401843704797
:1040A00092F0000F81F4000106BF80F4000001329D
:1040B000013BB5E74FEA41037FEA226C18BF7FEA74
:1040C000236C21D092EA030F04D092F0000F08BFB6
:1040D0000846704790EA010F1CBF0020704712F09D
:1040E0007F4F04D1400028BF40F00040704712F1DC
:1040F00000723CBF00F50000704700F0004343F041
:10410000FE4040F4000070477FEA226216BF084676
:104110007FEA23630146420206BF5FEA412390EA39
:10412000010F40F4800070474FF0000304E000BF2F
:1041300010F0004348BF40425FEA000C08BF7047E0
:1041400043F0964301464FF000001CE050EA0102A4
:1041500008BF70474FF000030AE000BF50EA0102B9
:1041600008BF704711F0004302D5404261EB4101A6
:104170005FEA010C02BF84460146002043F0B643CB
:1041800008BFA3F18053A3F50003BCFA8CF2083AF0
:10419000A3EBC25310DB01FA02FC634400FA02FCF9
:1041A000C2F12002BCF1004F20FA02F243EB020000
:1041B00008BF20F00100704702F1200201FA02FC62
:1041C000C2F1200250EA4C0021FA02F243EB020055
:1041D00008BF20EADC7070474FF0FF0C1CEAD05299
:1041E0001EBF1CEAD15392EA0C0F93EA0C0F6FD05A
:1041F0001A4480EA010C400218BF5FEA41211ED038
:104200004FF0006343EA501043EA5111A0FB013123
:104210000CF00040B1F5000F3EBF490041EAD371F8
:104220005B0040EA010062F17F02FD2A1DD8B3F174
:10423000004F40EBC25008BF20F00100704790F0E3
:10424000000F0CF0004C08BF49024CEA502040EA35
:1042500051207F3AC2BFD2F1FF0340EAC2507047FB
:1042600040F400004FF00003013A5DDC12F1190F39
:10427000DCBF00F000407047C2F10002410021FAAB
:1042800002F1C2F1200200FA02FC5FEA310040F1C3
:10429000000053EA4C0308BF20EADC70704792F03C
:1042A000000F00F0004C02BF400010F4000F013A74
:1042B000F9D040EA0C0093F0000F01F0004C02BF6F
:1042C000490011F4000F013BF9D041EA0C018FE7DE
:1042D0000CEAD15392EA0C0F18BF93EA0C0F0AD0E4
:1042E00030F0004C18BF31F0004CD8D180EA01000A
:1042F00000F00040704790F0000F17BF90F0004FA3
:10430000084691F0000F91F0004F14D092EA0C0F84
:1043100001D142020FD193EA0C0F03D14B0218BF17
:10432000084608D180EA010000F0004040F0FE405D
:1043300040F40000704740F0FE4040F440007047F9
:104340004FF0FF0C1CEAD0521EBF1CEAD15392EA78
:104350000C0F93EA0C0F69D0A2EB030280EA010C68
:1043600049024FEA402037D04FF0805343EA111101
:1043700043EA10130CF000408B4238BF5B0042F15F
:104380007D024FF4000C8B4224BF5B1A40EA0C0004
:10439000B3EB510F24BFA3EB510340EA5C00B3EB36
:1043A000910F24BFA3EB910340EA9C00B3EBD10F24
:1043B00024BFA3EBD10340EADC001B0118BF5FEA76
:1043C0001C1CE0D1FD2A3FF650AF8B4240EBC2509F
:1043D00008BF20F0010070470CF0004C4CEA502060
:1043E0007F32C2BFD2F1FF0340EAC250704740F4AF
:1043F00000004FF00003013A37E792F0000F00F0A1
:10440000004C02BF400010F4000F013AF9D040EA1E
:104410000C0093F0000F01F0004C02BF490011F4B2
:10442000000F013BF9D041EA0C0195E70CEAD153AA
:1044300092EA0C0F08D142027FF47DAF93EA0C0F91
:104440007FF470AF084676E793EA0C0F04D14B0275
:104450003FF44CAF08466EE730F0004C18BF31F027
:10446000004CCAD130F000427FF45CAF31F0004321
:104470007FF43CAF5FE700BF4FF0FF3C06E000BFBA
:104480004FF0010C02E000BF4FF0010C4DF804CDDD
:104490004FEA40024FEA41037FEA226C18BF7FEAED
:1044A000236C11D001B052EA530C18BF90EA010FEF
:1044B00058BFB2EB030088BFC81738BF6FEAE1707E
:1044C00018BF40F0010070477FEA226C02D15FEA1A
:1044D000402C05D17FEA236CE4D15FEA412CE1D086
:1044E0005DF8040B704700BF844608466146FFE74D
:1044F0000FB5FFF7C9FF002848BF10F1000F0FBD2F
:104500004DF808EDFFF7F4FF0CBF012000205DF827
:1045100008FB00BF4DF808EDFFF7EAFF34BF0120AC
:1045200000205DF808FB00BF4DF808EDFFF7E0FF45
:1045300094BF012000205DF808FB00BF4DF808ED96
:10454000FFF7D2FF94BF012000205DF808FB00BFF9
:104550004DF808EDFFF7C8FF34BF012000205DF8DB
:1045600008FB00BF4FEA40024FEA41037FEA226C9A
:1045700002D15FEA402C08D17FEA236C02D15FEAC6
:10458000412C02D14FF0000070474FF001007047FE
:1045900042000ED2B2F1FE4F0BD34FF09E03B3EBAD
:1045A000126209D44FEA002343F0004323FA02F0D9
:1045B00070474FF00000704712F1610F01D14202C5
:1045C00002D14FF0FF3070474FF00000704700BF3E
:1045D0000B460146184600F001B800BF13460A46D4
:1045E0000146022001F056BFF0B583B016461F46C3
:1045F0000D460024FFF76EF9009733462A460194D2
:1046000001F0AAFF03B0F0BD014B1868704700BF6E
:10461000488CFF1F70B50F4E0F4D761BB61018BF9C
:10462000002405D0013455F8043B9847A642F9D13F
:104630000A4E0B4D761B04F0EFFCB61018BF002499
:1046400006D0013455F8043B9847A642F9D170BD15
:1046500070BD00BF2490000024900000389000003E
:104660002490000010B5044600F012F82044407871
:1046700000F0080010BD00BF034A044B1268506BE5
:10468000002808BF18467047488CFF1F4C8CFF1F3E
:1046900008B5034B1868FFF7EFFFD0F8EC0008BD32
:1046A000488CFF1F024B0146186800F00BB800BF92
:1046B000488CFF1F024B0146186802F025B800BF66
:1046C000488CFF1F2DE9F04F01F10B05162D83B02B
:1046D000064640F29F8035F0070500F1BF80A942F1
:1046E00000F2BC8000F06EFBB5F5FC7FC0F09C8250
:1046F0006B0A00F0BA80042B00F28381A80900F154
:10470000390E4FEA4E033830C44F07EB8303A3F151
:1047100008015C68A14207D1ACE0002A80F2AC80BD
:10472000E468A14200F0A680636823F003035A1BEB
:104730000F2AF2DDB9493C6901F1080E744500F019
:10474000B381636823F003035A1B0F2A00F3998196
:10475000002AC1F814E0C1F810E080F29E80B3F5A1
:10476000007F80F06781DB0803F1010C01229B10C0
:1047700002FA03F34A6851F83C80C4F8088001EB60
:10478000CC091A43A9F10803E3604A6041F83C40B0
:10479000C8F80C40831001249C40944200F28A80A7
:1047A000144206D120F003006400144200F104001A
:1047B000FAD007EBC009CC468046DCF80C108C45DB
:1047C00007D173E1002A80F28181C9688C4500F02D
:1047D0006D814B6823F003035A1B0F2AF2DD0C4650
:1047E000D1F80CC054F8088F4B1945F001054D6005
:1047F00042F00101C8F80CC03046CCF808807B615B
:104800003B61C3F80CE0C3F808E059609A5000F02F
:10481000DBFA1FE0102921D800F0D4FA1025062376
:1048200002207E4F07EB8303A3F108025C689442E9
:1048300000F045816368E168A56823F00303234421
:1048400030465A68E96042F001028D605A6000F01B
:10485000BBFA0834204603B0BDE8F08F00240C23D7
:104860002046336003B0BDE8F08F80234FF0400E48
:104870003F2049E770465DE72344E1685A68A56830
:1048800042F00102E96030468D605A6000F09CFA07
:104890000834204603B0BDE8F08F234430465A6800
:1048A00042F001025A6000F08FFA0834204603B04B
:1048B000BDE8F08FBC68636823F00308A84504D303
:1048C000C5EB08030F2B00F38C80554BDFF860918C
:1048D0001A68D9F8003001332A4404EB080A00F0C2
:1048E000608102F580520F3222F47F6222F00F02C3
:1048F00011463046019200F061FCB0F1FF3F834663
:10490000019A00F05881824500F2FC80454B1968FD
:10491000DA451144196000F05381D9F80000DFF83E
:1049200010E101301BBFCAEB0B0A5144CEF800B0B6
:1049300019601BF0070100F01781C1F10800C1F5F3
:104940008051834408315A44C2F30B02C2EB01097F
:1049500049463046019300F031FC431C019B00F0B6
:104960003F81CBEB00024A4442F001021968C7F8CC
:1049700008B04944BC42CBF804201960DFF8A49089
:1049800016D0B8F10F0F40F2FD806268A8F10C0359
:1049900023F00703E01802F001024FF0050E1A435E
:1049A0000F2B6260C0F804E0C0F808E000F21C8140
:1049B0001D4BBC681A68914288BF19601B4B1A686E
:1049C0009142626888BF196022F003029542A2EB0F
:1049D000050301D80F2B04DC304600F0F5F9002464
:1049E00038E7621943F0010345F001056560304680
:1049F000BA60536000F0E8F90834204603B0BDE81F
:104A0000F08F142B71D9542B00F2A480280B00F1E5
:104A10006F0E4FEA4E036E3076E600BFB88DFF1F73
:104A2000C495FF1FC895FF1FC095FF1FBC95FF1FB2
:104A3000C491FF1F5A0A042A5ED9142A00F2B380D7
:104A400002F15C0149005B3207EB810C57F8211041
:104A5000DFF8DC81ACF1080C8C4500F088804A68F6
:104A600022F00302934202D289688C45F7D1D1F833
:104A70000CC07A68C4F80CC0A160CCF80840CC60C7
:104A800088E6631942F0010745F00105656030468C
:104A90004B610B61C3F80CE0C3F808E05F609A500B
:104AA000083400F091F9D5E64A6873E608F1010888
:104AB00018F0030F0CF1080C7FF47FAE30E0DC68D7
:104AC000A34208BF02303FF435AEB3E60B440C46B8
:104AD0005A68C96854F8085F42F001025A603046CB
:104AE000E9608D6000F070F9B4E603F15C0E03F14B
:104AF0005B004FEA4E0307E69A0902F139014900CB
:104B00003832A1E7BC424A4B3FF400AF9C68626870
:104B100022F003025AE759F80839994540F082809B
:104B200010F0030F00F1FF30F5D17B6823EA040396
:104B30007B6064009C423FF6BDAE002C3FF4BAAEF1
:104B40001C4240467FF435AE64001C4200F1040074
:104B5000FAD02EE6B3F5AA7F18D8E80B00F1780E4C
:104B60004FEA4E037730CFE54FF48051EBE6012159
:104B7000D8F80430921001FA02F21A43C8F804205F
:104B8000614677E70123CBF8043025E740F2545221
:104B9000934220D8A80C00F17D0E4FEA4E037C30E2
:104BA000B2E51032A4E6542A26D81A0B02F16F019E
:104BB00049006E3248E7BC68626822F0030205E7EC
:104BC000CAF30B0000287FF4A8AE4244BB6842F051
:104BD00001025A60ECE6FE234FF07F0E7E2093E543
:104BE00001224FF00009C1E604F10801304601F04E
:104BF0008BFDD9F80010DBE6B2F5AA7F05D8DA0BF9
:104C000002F17801490077321EE740F254518A429E
:104C100005D89A0C02F17D0149007C3214E7FE218F
:104C20007E2211E77B6884E7E808431C5B00F8E517
:104C3000B88DFF1F82B049B15AB16BB113780B60C8
:104C40001278101C18BF012002B0704701A9002A79
:104C5000F3D1104602B070476FF00100F4E700BFD7
:104C60008842F0B50DD98B1898420AD28118002AD3
:104C700051D09A1A13F8014D01F8014D9342F9D120
:104C8000F0BD0F2A48D941EA00039B0746D100F145
:104C9000100401F11003154653F8106C44F8106C21
:104CA00053F80C6C44F80C6C53F8086C44F8086C1E
:104CB000103D53F8046C44F8046C0F2D03F11003FD
:104CC00004F11004E8D8A2F1100323F00F0302F05E
:104CD0000F0E1033BEF1030F1944034421D91E1FD8
:104CE0000D467446043C55F8047B46F8047F032CBB
:104CF000F8D8AEF1040424F003040434234421441E
:104D000002F0030262B1013B0A4411F8014B03F8BF
:104D1000014F8A42F9D1F0BD0346F3E70346F2E7BB
:104D2000F0BD7246EEE700BF70B4840746D0541E53
:104D3000002A41D0CDB2034602E0621EE4B314461D
:104D400003F8015B9A07F8D1032C2ED9CDB245EABE
:104D500005250F2C45EA054519D903F11002264611
:104D6000103E0F2E42F8105C42F80C5C42F8085CD2
:104D700042F8045C02F11002F2D8A4F1100222F011
:104D80000F0204F00F041032032C13440DD91E46F9
:104D90002246043A032A46F8045BFAD8221F22F07E
:104DA00003020432134404F003042CB1C9B21C44BE
:104DB00003F8011BA342FBD170BC704714460346A5
:104DC000C2E700BF704700BF704700BF024B0A46F2
:104DD0000146186800F002B8488CFF1F2DE9F04F1B
:104DE000174683B0002900F0C1800E46814607F1C6
:104DF0000B05FFF7E7FF56F804EC162D2EF0030421
:104E0000A6F1080840D810221546AF4241D8944276
:104E100075DAC94B996808EB04008842416800F0D4
:104E2000D98021F0010303445B68DB077DD51EF0C8
:104E3000010F35D039464846FFF744FC0746E0B13C
:104E400056F8043C23F001034344A0F108029A42BF
:104E500000F04481221F242A00F23181132A00F23B
:104E6000048103463246116819605168596092689E
:104E70009A603146484601F047FC4846FFF7A4FFD8
:104E8000384603B0BDE8F08F25F00705002D2A460F
:104E9000BBDA0C230020C9F8003003B0BDE8F08F66
:104EA00056F8083CC3EB080ADAF8043023F0030C88
:104EB00004EB0C039342BDDB5746DAF80C1057F8AD
:104EC000080F221F242AC160886000F21781132A6C
:104ED00040F212813168CAF808107168CAF80C10E3
:104EE0001B2A00F22B8108360AF11002316811608A
:104EF00071685160B16891603E461C46D046631BA4
:104F00000F2B1DD8D8F8043003F001032343444489
:104F1000C8F80430636843F0010363604846FFF754
:104F200053FF304603B0BDE8F08F21F00301214468
:104F3000914221DBC36882680C46D3609A60DEE749
:104F4000D8F8042008EB050102F00102154343F0F4
:104F500001020B44C8F804504A605A6842F001024A
:104F600008315A60484601F0CFFBD7E7114603B03D
:104F7000BDE8F04FFFF7A6BB1EF0010F7FF45AAF5C
:104F800056F8083CC3EB080ADAF8043023F0030CA7
:104F900001EB0C0E96458BDBC36882685746D360E5
:104FA0009A6057F8081FDAF80C30CB60221F242AC9
:104FB000996000F29980132A62D93368CAF80830E0
:104FC0007368CAF80C301B2A00F2A08008360AF178
:104FD000100356E021F0030BA34405F110008345B4
:104FE00059DA1EF0010F7FF425AF56F8081CC1EB0B
:104FF000080ADAF8041021F0030CE34458453FF79F
:1050000057AF5746DAF80C1057F8080F221F242A1A
:10501000C160886000F2B480132A40F2A580316834
:10502000CAF808107168CAF80C101B2A00F2AF8089
:1050300008360AF110023168116071685160B16878
:1050400091600AEB0501C5EB0B0242F00102996089
:105050004A60DAF8043003F001031D434846CAF8F9
:105060000450FFF7B1FE38465CE7336803607368AD
:1050700043601B2A27D800F1080306F10802F2E674
:105080003B4632681A6072685A60B2689A603E465F
:105090007446D04633E708EB0501C5EB0B0B4BF02C
:1050A000010299604A6056F8043C03F001031D4375
:1050B000484646F8045CFFF787FE304632E7314643
:1050C000FFF7CEFDD5E6B3688360F368C360242A9A
:1050D00028D000F1100306F11002C4E650F8043C99
:1050E00023F003031C440AE7314638467446D04691
:1050F000FFF7B6FD3E4602E73A46F7E63146384648
:105100001C46D046FFF7ACFD3E46F8E6B368CAF849
:105110001030F368CAF81430242A1BD010360AF174
:105120001803AEE7336903617369436106F118023E
:1051300000F1180397E600BFB88DFF1FB168CAF8E9
:105140001010F168CAF81410242A0FD010360AF192
:105150001802CBE63369CAF818307369CAF81C30F4
:1051600018360AF120038CE73A4664E73269CAF838
:1051700018207269CAF81C2018360AF12002B5E618
:10518000314638460193FFF76BFD019B59E7B16843
:10519000CAF81010F168CAF81410242A03D0103687
:1051A0000AF1180247E73269CAF818207269CAF88A
:1051B0001C2018360AF120023DE700BF38B5074C25
:1051C0000023054608462360FCF74AF9431C00D03B
:1051D00038BD2368002BFBD02B6038BD0496FF1F21
:1051E00070B411F0FF0434D085070FD00378002B82
:1051F0005AD09C422BD0431C05E013F8012B002A07
:105200004FD0944223D09A071846F6D10E0206F4E6
:105210007F462643036846EA064601E050F8043F0D
:1052200086EA0305A5F10132A3F1013122EA050264
:1052300021EA0303134313F0803FEFD0037823B92F
:1052400032E010F8013F002B2ED09C42F9D170BC07
:10525000704784070BD00378002BF8D0431C03E081
:1052600002780133002AF2D099071846F8D1026873
:10527000A2F1013323EA020313F0803F08D150F872
:10528000042FA2F1013323EA020313F0803FF6D08A
:105290000378002BDBD010F8013F002BFBD170BC52
:1052A0007047104670BC7047184670BC704700BF0E
:1052B00080EA0102844612F0030F4FD111F0030F70
:1052C00032D14DF8044D11F0040F51F8043B0BD0CE
:1052D000A3F101329A4312F0803F04BF4CF8043B23
:1052E00051F8043B16D100BF51F8044BA3F1013231
:1052F0009A4312F0803FA4F101320BD14CF8043BE9
:10530000A24312F0803F04BF51F8043B4CF8044B19
:10531000EAD023460CF8013B13F0FF0F4FEA33238A
:10532000F8D15DF8044B704711F0010F06D011F869
:10533000012B0CF8012B002A08BF704711F0020F57
:10534000BFD031F8022B12F0FF0F16BF2CF8022B42
:105350008CF8002012F47F4FB3D1704711F8012B65
:105360000CF8012B002AF9D1704700BFFFFFFFFFA7
:10537000FFFFFFFFFFFFFFFFFFFFFFFFFFFFFFFF3D
:1053800090F800F06DE9024520F007016FF0000C85
:1053900010F0070491F820F040F049804FF000042D
:1053A0006FF00700D1E9002391F840F000F1080008
:1053B00082FA4CF2A4FA8CF283FA4CF3A2FA8CF340
:1053C0004BBBD1E9022382FA4CF200F10800A4FAA7
:1053D0008CF283FA4CF3A2FA8CF3E3B9D1E90423FB
:1053E00082FA4CF200F10800A4FA8CF283FA4CF332
:1053F000A2FA8CF37BB9D1E9062301F1200182FAEC
:105400004CF200F10800A4FA8CF283FA4CF3A2FAF1
:105410008CF3002BC6D0002A04BF04301A4612BAFF
:10542000B2FA82F2FDE8024500EBD2007047D1E902
:10543000002304F00305C4F100004FEAC50514F091
:10544000040F91F840F00CFA05F562EA05021CBF62
:1054500063EA050362464FF00004A9E7002A41D041
:1054600040EA010313F00303F0B425D1032A23D942
:1054700004680D68AC421FD1043A35D0A4F101355F
:1054800025EA040414F0803F31D1071D0D1D0DE005
:1054900057F8043B0E68A3F10134B34224EA030435
:1054A0000AD1043A20D014F0803F23D1032A2946A0
:1054B000384605F10405EBD803780C789C4202F1DC
:1054C000FF320CD182B114B916E06AB17BB110F889
:1054D000013F11F8014FA34202F1FF32F5D0181B32
:1054E000F0BC7047104670471046F0BC7047184635
:1054F000F0BC70470020F3E72046F1E740EA0103E3
:105500009B0770B42BD1032A29D90C4603462146A8
:1055100054F8046BA6F1013525EA060515F0803F25
:1055200006D1043A032A43F8046B2146EFD8A2B10E
:105530000C781C70013A013301313CB16AB111F8A9
:10554000014B03F8014B013A002CF7D12AB11A4460
:10555000002103F8011B9A42FBD170BC704703463F
:10556000E5E700BF2DE9F0410F46904602F068F8EC
:1055700004460D46B8F1000F11D0C7F30A53C3F12A
:105580006B03002B0BDD1B0503F17F55002405F594
:10559000401522462B46FEF7F1F9BDE8F081204682
:1055A0002946BDE8F08100BF2DE9F04F1D46A1B0AE
:1055B0000023834628460E4607921C9301F040FDC7
:1055C0000024002382460068CDE90434FFF7D8FEAA
:1055D0001B9681463246144612F8017B2D2F00F2AD
:1055E000B180DFE807F017AFAFAFAFAFAFAFAF83BA
:1055F00083838383AFAFAFAFAFAFAFAFAFAFAFAF6B
:10560000AFAFAFAFAFAF83AFAFAFAFAFAFAFAFAFD6
:10561000AF2DAF80079B4FF000094FF0000A53B148
:1056200000230893079B1E60089B23B149460AF19B
:10563000004389469A464846514621B0BDE8F08F5E
:1056400000230893621C1B926778002FE2D0302F52
:1056500014467BD000230A940993A7F13003092B49
:1056600000F2DB834FF00008204645464446082CF4
:10567000C8BF08EB880805EB850300F1010007EBC4
:1056800043031B90C4BF07EB4807A7F13008077816
:10569000D8BFA3F13005A7F13003092B04F10104B1
:1056A000E5D9DAF800104A46FFF7D8FE00B300202B
:1056B0003B4681460746A246652B00F0B280452B4B
:1056C00000F0AF800022002C52D118B9099A002AAC
:1056D00000F0C7824FF000094FF0000A079B002B33
:1056E000A2D01B9E9EE701230893ABE71B9272E7B3
:1056F0001B9B03EB09021B9213F809300746A246D5
:10570000A3F13002092A00F27182411C1346002ADB
:1057100000F06E8601290F4418BF001905D100F072
:1057200063BE4D00844200F0AE840134611E08293E
:1057300005EB8501F5DD102CDCBF08EB88084FEA8E
:105740004808EFE70023302F089383D16378582B64
:1057500000F04783782B00F0448301341B942778B2
:10576000302FFAD0002FB5D001230A94099374E7A3
:10577000102CA2EB07032846A1460C93A8BF4FF0BC
:105780001009FEF785F8BAF1000F08BFA246B9F17B
:10579000090FCDE9040113DD494B03EBC90353E9BC
:1057A0001223FEF7EBF8064640460F46FEF770F868
:1057B00002460B4630463946FDF72EFFCDE904017F
:1057C0000F2C00F385800C9B002B27D040F3F38433
:1057D0000C9B162B00F37084394F07EBC307D7E9F6
:1057E0000001DDE90423FEF7C9F881468A4675E722
:1057F0001BA8344901F04CFB00283FF40BAF1B9B66
:105800003149013B1BA81B9301F042FB10B91B9BC4
:1058100001331B932D4B059300230493DDE9049A78
:105820005CE7002C00F0D6811B9E731C1B937378E1
:105830002B2B00F0D3822D2B00F00B824FF0000CAD
:10584000A3F13002092A00F2C682302B05D11B9A3F
:1058500001321B921378302BFAD0A3F13102082ABF
:105860003FF630AF1B9A0D92511C303B1B910C93AD
:105870005378A3F1300EBEF1090F0FD80C9A013105
:105880001B9102EB820203EB42020B78A3F1300E74
:10589000BEF1090FA2F13002F1D90C920D9A891ACA
:1058A000082900F301840C9A44F61F618A42A8BFBC
:1058B0000A46BCF1000F3FF406AF524203E700BFB7
:1058C000088F0000A08C0000A48C00000000F07F76
:1058D0000C9BC9EB04099944B9F1000F40F37A839A
:1058E00019F00F010AD0B44B03EBC101D1E900015B
:1058F000DDE90423FEF742F8CDE9040139F00F0693
:1059000040F00682002309930095234652460A99E7
:10591000584601F007FC1090002800F0D9820C9A3C
:105920000026002AC2F10003A8BF33460D9322EAE5
:10593000E2730C933746B246109C5846616801F0FA
:1059400081FB8046002800F025832269023204F1A1
:105950000C0192000C30FDF781F9DDE904341EA83A
:105960001DA9CDE90A341A460190234600915846F4
:1059700001F0F2FE1C90002800F02F84012158460F
:1059800001F06AFC0746002800F004831D9A002AF3
:10599000C0F228810D9B0C9D9E1809981E9B87497B
:1059A000121A1A44013A8A42C3F1360380F2E780A0
:1059B000891A1F29A3EB010300F31B8101228A40EE
:1059C0000F9200221192F4181D44099BA642324600
:1059D0001D44A8BF2246AA42A8BF2A46002A02DDCB
:1059E000A41AAD1AB61A0D9BBBB139461A465846D1
:1059F00001F0D4FC0746002800F0CC8201461C9A36
:105A0000584601F033FC002800F0C4820E901C9927
:105A1000584601F03DFB0E9A1C92002C08DD2246F0
:105A20001C99584601F00AFD1C90002800F0D5830F
:105A30000C9B43B141460C9A584601F0AFFC80469E
:105A4000002800F0A782002D08DD41462A4658466E
:105A500001F0F4FC8046002800F09C82002E08DD56
:105A600039463246584601F0E9FC0746002800F066
:105A7000918242461C99584601F058FD8246002802
:105A800000F088820026C368C66039460E9301F094
:105A90002DFDB042C0F2B88300F00784394650466D
:105AA00001F0B6FE00224FF0804304460D46FEF79B
:105AB000E1F9002868D00E9B002B00F0A280059B26
:105AC0003F4D0F9699463E4B119300243D4E3E4B61
:105AD0004A4616409E4200F0D181099B33B3B6F18D
