:1000000000800020BD0100007D18000035180000B0
:1000100035180000351800003518000035180000AC
:100020003518000035180000351800007D18000054
:100030007D18000035180000F52B0000F92C000099
:100040007D1800007D1800007D1800007D1800005C
:100050007D1800007D1800007D1800007D1800004C
:100060007D1800007D1800007D1800007D1800003C
:100070007D1800007D1800007D1800007D1800002C
:100080007D1800007D1800007D1800007D1800001C
:100090007D1800007D1800007D1800007D1800000C
:1000A0007D1800007D1800007D1800007D180000FC
:1000B0007D1800007D1800007D1800007D180000EC
:1000C0007D1800007D1800007D1800007D180000DC
:1000D0007D1800007D1800007D1800007D180000CC
:1000E0007D1800007D1800007D1800007D180000BC
:1000F0007D1800000D3900007D180000393A00001D
:100100007D180000653B00007D1800007D18000090
:100110007D1800007D1800007D1800007D1800008B
:100120007D1800007D1800007D1800007D1800007B
:100130007D1800007D1800007D1800007D1800006B
:100140007D1800007D1800007D1800007D1800005B
:100150007D1800007D1800007D1800007D1800004B
:100160007D180000C11E00007D1800007D180000F1
:100170007D1800007D1800007D1800007D1800002B
:100180007D1800007D1800007D1800007D1800001B
:100190007D1800007D1800007D1800007D1800000B
:1001A0007D1800007D1800007D1800007D180000FB
:1001B0007D1800007D1800007D180000564B4CF2A1
:1001C000205210B51A804DF628121A8000BF00BFC9
:1001D00001F058FB514B4FF010621A60504A9A6080
:1001E000504ADA60504A136813F4807304D14F49BF
:1001F0000B604FF4A85313604D4B1A78110703D5C9
:100200001A7842F008021A704A4B4B492A221A7097
:100210004A4A4B4B8B4204D252F8040F43F8040B6A
:10022000F8E7484B484900228B4202D243F8042B9E
:10023000FAE74649464A002352F8230041F82300D2
:1002400001336F2BF8D1434B434A802103F8011B44
:100250009342FBD1414B3D4A1A60414B8A221A70AE
:10026000A3F5805324225A70A0221A709A7992071B
:10027000FCD59A79D406FCD43A4A937903F00C035E
:10028000082B384BF9D103221A7140225A719A79FE
:100290009006FCD5334A9179324B4906FBD5324A58
:1002A000324911600221516020221A709A7902F0BD
:1002B0000C020C2AFAD12E4B2E4A1A602E4B2F4AD2
:1002C0001A6000225A60072243F8042C2C4AC3F813
:1002D0000C2D62B601F0CCFC144B1B68DA0705D577
:1002E000284801F04BFB284B284A1A60284B1B7802
:1002F0005B0609D5244C254B22689A4204D121483B
:1003000001F03CFB0023236006F0CCF801F0C0FABA
:1003100002F0FAFCFEE700BF0E20054030800440EA
:10032000823F04000100002B10D0034014D0034092
:1003300002D0074000E007403092FF1F68B1000084
:100340002087FF1F3092FF1FB896FF1F0082FF1FFC
:100350000000000000E400E05FE400E008ED00E0E1
:100360000050064000400640448004400000030165
:1003700004800440C010050014E000E0FF76010096
:10038000000020206D5A42041CE00340A5C3945A8B
:1003900000F00740FFFFFFFFFFFFFFFFFFFFFFFF32
:1003A000FFFFFFFFFFFFFFFFFFFFFFFFFFFFFFFF5D
:1003B000FFFFFFFFFFFFFFFFFFFFFFFFFFFFFFFF4D
:1003C000FFFFFFFFFFFFFFFFFFFFFFFFFFFFFFFF3D
:1003D000FFFFFFFFFFFFFFFFFFFFFFFFFFFFFFFF2D
:1003E000FFFFFFFFFFFFFFFFFFFFFFFFFFFFFFFF1D
:1003F000FFFFFFFFFFFFFFFFFFFFFFFFFFFFFFFF0D
:10040000FFFFFFFFFFFFFFFFFFFFFFFFDEF9FFFF23
:1004100010B5054C237833B9044B13B10448AFF33E
:1004200000800123237010BD3092FF1F00000000E8
:100430006CB10000084B10B51BB108490848AFF378
:1004400000800848036803B910BD074B002BFBD0A0
:10045000BDE81040184700BF000000003492FF1FA5
:100460006CB100003092FF1F0000000010B5044680
:1004700002F018FD204610BD10B50446203002F0F1
:1004800011FD04F1100002F00DFD204602F00AFDFE
:10049000204610BD10B50446044800F01FFC02229F
:1004A0000146204602F084FD204610BDA492FF1FA5
:1004B00010B5044B04461968022202F079FD20466B
:1004C00010BD00BFD492FF1F10B5044B044619683D
:1004D000022202F06DFD204610BD00BF2487FF1FE1
:1004E00030B5044689B0084602F0A4FE114D002341
:1004F00019460246284600F00DFD0F4904A802F0F7
:1005000011FD284600F0EAFB02220146684602F08F
:100510004FFD694604A802F0B5FD0146204602F0F1
:1005200015FD684602F0BEFC04A802F0BBFC2046A4
:1005300009B030BDA492FF1F08AA000010B5044600
:100540000B4800F0D5FB68B1012805D009492046C9
:1005500002F0E8FC204610BD0749204602F0F6FCF8
:10056000204610BD0549204602F0F0FC204610BD93
:10057000A492FF1F10AA00008492FF1F0893FF1F80
:1005800030B589B00D4604460021684602F0CAFC29
:1005900028461B4902F0A6FDE0B11949684602F061
:1005A00021FD0021174800F0E7FC04A8164902F0DD
:1005B000B9FC694604A802F065FD0146204602F038
:1005C000C5FC04A802F06EFC684602F06BFC2046F5
:1005D00009B030BD28460D4902F084FD28B10B4911
:1005E000684602F0FFFC0121DCE70949204602F0E1
:1005F00099FC684602F056FC204609B030BD00BFA9
:100600000893FF1FA492FF1F08AA00008492FF1FF7
:100610002CAA00002DE9F041044688B0084602F0FB
:1006200009FE4FF07E563146074605F0AFFE00B397
:100630001C4D00212E60282001F0B2F904A81A49AF
:1006400002F070FC02222968684602F0B1FC69469B
:1006500004A802F017FD0146204602F077FC684628
:1006600002F020FC04A802F01DFC204608B0BDE802
:10067000F0814FF000083846414605F069FE094D0B
:1006800058B9394630462F6005F0BAFB074905F0E6
:10069000C1FC05F09BFE0146CDE740F6FF71C5F8B1
:1006A0000080C8E72487FF1F08AA000000F07F45EC
:1006B0002DE9F0434B4D4C4E8E4607460FCD344648
:1006C0000FC495E80F0087B084E80F0072463046EB
:1006D000042100F0EDFC00287BD0444AB369126885
:1006E0000192434A019911603F4C002B62D0012BCB
:1006F00058D1A0683F4D05F00BF803F0E7FA8046AB
:100700002068894605F004F803F0E0FA02460B463B
:100710004046494604F09CFE05F01EFB0646206953
:1007200005F024FC0146304605F028FD2860A0684D
:1007300004F0EEFF03F0CAFA80462068894604F010
:10074000E7FF03F0C3FA02460B464046494604F071
:100750007FFE80462069894605F008FC04F0D8FF3A
:100760000B4602464946404605F050F905F0F4FABA
:100770000A22014602A802F01BFC02A91E4802F050
:10078000CDFA1D4802F0F0FA02A802F08BFB1B4BD9
:100790001B49012238461A7002F0C4FB384607B0E4
:1007A000BDE8F0831749384602F0BCFB384607B075
:1007B000BDE8F0832168A0680E4D05F021FB0646D8
:1007C000206905F0D3FB0146304605F0D7FC2860D0
:1007D000DDE706210C4802F0A7F8074802F0C4FA4A
:1007E0007BE700BFE8A90000D492FF1FC093FF1F62
:1007F000F492FF1F5C93FF1FCC87FF1F5C92FF1FCB
:1008000094AB00004CAA000044AA0000F0B53F4C95
:1008100087B040F6B831204600F016FF20463C492C
:100820004FF4E13200F0EAFE2046012100F0C0FE64
:1008300060B1606C3749036811225B6898472046B5
:100840000A2100F027FE204600F0D6FE01220021FA
:100850002E48314F314E324D324C00F0BDFF0C204E
:1008600001F09CF90121282001F0AEF92E4800F09A
:10087000B9FA3946684602F069FB3A697B692B4848
:1008800004926946059300F06DFC684602F00AFB8D
:100890003146684602F05AFB326973692348049274
:1008A0006946059300F05EFC684602F0FBFA2946B3
:1008B000684602F04BFB2A696B691C480492694642
:1008C000059300F04FFC684602F0ECFA21466846BA
:1008D00002F03CFB2269636914480492694605935F
:1008E00000F040FC684602F0DDFA00231946104A89
:1008F0000D4800F00FFB00210B4800F08BFA00219F
:10090000094800F039FB07B0F0BD00BF7493FF1F2A
:10091000CC87FF1F60AA00005887FF1F7087FF1F4A
:100920004087FF1F2887FF1FA492FF1F1893FF1FF8
:1009300000007A44F0B5484C85B023680093009BD2
:1009400023B923680193019B012B20D9434D444EC9
:10095000284600F0B1FD32684249904203460860E3
:1009600052D39A1AF92A12D94FF4FA7128463360F1
:1009700000F0ACFD0121284600F01AFE002852D1FB
:100980003648022100F086FD344800F007FE364864
:1009900000F002FC35490B788BB12368344A03938D
:1009A000344C1068039B2269181A904209DD002319
:1009B000A2680B7000233048194600F0ABFA05B06E
:1009C000F0BDA36923B3012B20D105F0CFFA2B4B47
:1009D000196805F01FFB04F09BFE064620680F46D1
:1009E00004F096FE03F072F902460B463046394693
:1009F00004F030FD02460B460020214903F0E6F9E1
:100A000005F0AAF90246D5E73360C0E71D4AD1E7F1
:100A100005F0ACFA194B196805F0FCFA216805F0ED
:100A2000F1F90246C6E72846012100F061FD686C35
:100A30001549036801225B6898472368029302996D
:100A4000686C00230A2202F09FF9284600F096FD08
:100A5000284600F0D1FD93E7C093FF1F7493FF1F5A
:100A60008092FF1F6093FF1F1893FF1F5C92FF1F70
:100A7000F492FF1FD492FF1FA492FF1F5C93FF1FED
:100A80000000244000007A4474AA00002DE9F047D9
:100A900084B04FF0FF33474E029301930093464CCE
:100AA00046494748474F484DDFF84C81DFF84CA195
:100AB000DFF84C910A2200F0AFF83046052100F033
:100AC0008DFA224630464149414E05F0C5FC384674
:100AD000404902F027FA22462946384605F0BCFC78
:100AE00040463D493D4F02F01DFA22462946404608
:100AF00005F0B2FC4146504602F028FA2246314643
:100B0000504605F0A9FC38463549DFF8F880DFF893
:100B1000F8A002F007FA22462946384605F09CFC68
:100B20004846304902F0FEF922462946484605F07B
:100B300093FCDFF8D8902C49404602F0F3F92246A6
:100B40002946404605F088FCDFF8C480394648460F
:100B500002F0FCF922463146484605F07DFC40464D
:100B60002249234FDFF8AC9002F0DCF922462946F7
:100B7000404605F071FC4146504602F0E7F9224636
:100B80003146504605F068FC38461A4902F0CAF969
:100B900022462946384605F05FFC3946484602F0B1
:100BA000D5F922463146484604B0BDE8F04705F085
:100BB00053BC00BF1893FF1F2087FF1F001B374C3B
:100BC000A492FF1F7092FF1FA52E00007904000061
:100BD0006D04000078AA000080AA0000F892FF1FB0
:100BE00088AA000090AA000098AA0000A4AA000009
:100BF0006092FF1FA8AA00009492FF1F7087FF1F3A
:100C00000893FF1F8492FF1F2887FF1F5887FF1F2D
:100C10004C92FF1F4087FF1F2DE9F04704464FF01D
:100C2000FF3600252C4F41610846E7626660A660EA
:100C3000E66026614FF04651A583256265622585F1
:100C400017469A4605F0E6F9089EA0610121F8B220
:100C50002760DDF82490DDF8288000F0B5FF2078CB
:100C6000012100F0ABFF731C666007D0F0B20121D8
:100C700000F0AAFF2946207900F0A0FFBAF1FF3F5B
:100C8000C4F808A008D05FFA8AF0012100F09CFFA8
:100C90000021207A00F092FFB9F1FF3FC4F80C90D8
:100CA00008D05FFA89F0012100F08EFF0021207B3F
:100CB00000F084FFB8F1FF3FC4F8108008D05FFA5D
:100CC00088F0012100F080FF0021207C00F076FFF9
:100CD0002046BDE8F08700BF0320033C10B5044662
:100CE000406A05F03FF9A16905F094F910BD00BF15
:100CF000808BC0F340007047F8B5314CC26AE37A8C
:100D000006460D46BBB172B6E37AD807194606D53A
:100D10002C48E16807683940A161016019469B07CA
:100D200006D5294823690768E17A3B40E3610360FF
:100D30004F073DD462B62368D968914207D0234853
:100D400018602349DA6042F0804018611960002180
:100D5000307800F033FF23684FF000412A0AD9624F
:100D60005A63DA6A002AFCDAEDB24FF00042996B5E
:100D7000DA625D63DA6A002AFCDA012130789B6B63
:100D800000F01CFFE37A0E491A4683B1D80703D559
:100D9000104A896911601A46990703D50E4BE1691B
:100DA000E27A1960530702D50C4B226A1A60F8BD2B
:100DB0000B4963690868034023620B60BAE700BF10
:100DC0008887FF1F80E100E084E100E001401F0010
:100DD00000001F8000E100E004E100E008E100E025
:100DE00088E100E010B50446094800F00FFBA18B34
:100DF0002046FFF781FF20464FF44041FFF77CFF7C
:100E000020464FF46041BDE81040FFF775BF00BFBA
:100E10008887FF1F4268036AB2F1FF3F0CBF0023BF
:100E200003F0010310B40C462BB1D0B299B10121EB
:100E300010BC00F0C3BE818B34B921F4006189B2CB
:100E4000818310BCFFF758BF41F4006189B28183F0
:100E500010BCFFF751BF10BC00F0B0BEC268036AFF
:100E6000B2F1FF3F0CBF002303F0010310B40C46A6
:100E70002BB1D0B299B1012110BC00F09FBE818B83
:100E800034B921F4807189B2818310BCFFF734BF7B
:100E900041F4807189B2818310BCFFF72DBF10BC73
:100EA00000F08CBE0269036AB2F1FF3F0CBF002361
:100EB00003F0010310B40C462BB1D0B299B101215B
:100EC00010BC00F07BBE818B34B901F0800189B287
:100ED000818310BCFFF710BF41F0800189B281838C
:100EE00010BCFFF709BF10BC00F068BE10B5044687
:100EF0000021FFF7D7FFA18B21F0400189B2A18328
:100F00002046FFF7F9FE20460021BDE81040FFF71C
:100F1000A5BF00BF70B504460E461046A1691D4628
:100F200005F02CF905F078FAA18B20F070404319F8
:100F3000012E41F40051C3F30D060CBF46F40046E8
:100F400046F4804663622046C3F38D3389B20CBFFA
:100F500043F4004543F48045FFF7CEFE314620467A
:100F6000FFF7CAFE29462046FFF7C6FE2046A18BA2
:100F7000FFF7C2FE606A70BD38B504460D46FFF744
:100F8000B5FFA18B55B1012D03D141F0020189B20A
:100F9000A1832046BDE83840FFF7AEBE21F0020134
:100FA00089B2A1832046BDE83840FFF7A5BE00BF47
:100FB00038B5074D07490446284601F0AFFE2846DC
:100FC00001F0D2FE2046044901F0ACFF204638BDB6
:100FD000CC87FF1F6493FF1F94AB00002DE9F04105
:100FE0000D4686B000F110082C49064601F09AFF24
:100FF0002B49404601F096FF2A4906F1200001F0F6
:1010000091FFB5F1AA6F98BF05EB45004FF00503BE
:101010004FF000014FF4E13298BFC00033643563F4
:101020007163F26394BF08304FF0FF3001F074FE3B
:10103000182380E8280000F108076C1E4DB13D46DA
:101040002846013C002101F06DFF631C05F11805E5
:10105000F6D10023144AB7634146684601930093D2
:10106000029303930492059201F070FFB46B6946FA
:10107000204601F0B7FF736B059A04992161013393
:101080006261316C7363094801F0DEFE684601F06D
:1010900009FF304606B0BDE8F08100BFB0AA0000ED
:1010A000C0AA0000C4AA0000B10F0000CC87FF1F37
:1010B0002DE9F04385B08146164668460A228846E7
:1010C00001F062FF6946264801F028FE244801F03D
:1010D0004BFE684601F0E6FEB8F1000F3BDD4F46DF
:1010E000002512E0012B03D102F09EF849F83500EB
:1010F0000021621C304602F04DF80135684601F0CF
:10110000D1FEA84507F1080725D02C21304602F072
:101110000DF8421C04460ED0234668460022314694
:1011200002F014F83B796846002BDBD102F082F81C
:1011300049F83500DCE73B21304601F0F7FF431C5E
:101140000446E9D109EBC5056879B0FA80F0400999
:1011500005B0BDE8F083012005B0BDE8F08300BF15
:10116000CC87FF1F70B5436B046BA34201D30020F3
:1011700070BD866B03EB430306EBC30604463046A3
:101180000D4601F02FFF636B29696A6972610133B3
:1011900031610120636370BDF0B58DB078223B49A9
:1011A0000646684601F052FE68463B2101F0BEFF4C
:1011B000421C64D007463B460022694604A801F061
:1011C000C5FF736B002B46D00024254604E0736BEB
:1011D000AB4204F118043ED9B16B04A8214401F0DC
:1011E00081FF01350028F2D0B36B234400219A68B7
:1011F00004A801F0CFFF04A801F0E8FF3F2104A8F4
:1012000001F094FFB36B1C44013014BF6369236980
:1012100004A908A8984708A91C4801F07FFD1B48AD
:1012200001F0A2FD08A801F03DFE7A1C00216846ED
:1012300001F0B0FF3B21684601F078FF074604A8A3
:1012400001F030FE7B1CB6D1684601F02BFE012474
:1012500020460DB0F0BD06F1200108A801F076FE91
:101260000B4908A801F016FF0146084801F056FD99
:10127000064801F079FD08A801F014FED5E768469C
:1012800001F010FE002420460DB0F0BDCC87FF1FFA
:10129000CCAA000010B5064C0649204601F042FEDB
:1012A0002046054A0549BDE8104005F0D5B800BF05
:1012B0006493FF1FE4AA00002087FF1FA52E0000F3
:1012C00010B4047F4160022CC26002D010BC01F057
:1012D0002FBC836810BC1847F0B4464B464A186BC5
:1012E000DC6A01791170454922790A709A6A00799D
:1012F0000870002A46D05968C9688A423ED82168D9
:10130000CC8B240402F1FF3065D4C0F30E00C883F7
:10131000C88B80B2C882196B0968C88B000452D48C
:10132000C2F30E00C883C88B002480B212F1FF32D2
:10133000C88218BF01229C62D96A2E4809680D68CC
:1013400000F12404A54236D00068C46814F0804F30
:101350000C680D6815BF248824780235013544F0E7
:1013600000440D604463196B254B097919702149BC
:1013700012B1CA6A12791A70F0BC7047521A9A6296
:101380000122D9E7586B196805681E4C0A63CC62C4
:10139000CC682D681C4E24F080440327B542CC60F5
:1013A00083F825701FD1037F4260022BC2601ED0DC
:1013B000F0BC01F0BDBB016890F82400CC6840F09F
:1013C00000404863CFE7CC8BC2F3080004F47E44AE
:1013D0002043C883A7E7CC8BC0F3080004F47E4405
:1013E0002043C88394E72B461146F0BC1847836816
:1013F000F0BC18478887FF1F1F8000401C800040FA
:101400001B80004000000FFFC112000090E80C009C
:10141000F0B41C6859682568164F174E294321609F
:10142000164D17491760D66015611160417A154A4B
:101430005C180A3194F8244053F8215002EBC4019F
:1014400049680D60017A5C1803EB8101247ECD6947
:1014500002EBC40149680D60817A581803EB8103DF
:1014600090F83000596B02EBC002F0BC5368196071
:10147000704700BF01401F000110003801100078C4
:1014800000001F80E0AB000001F0E8B901F00ABAEB
:1014900001F020BA074882B003680193019A114411
:1014A00001E0994204D303680093009B9A42F8D963
:1014B00002B07047C093FF1F034B82B01B680193BB
:1014C000019802B0704700BFC093FF1F10B4074BD4
:1014D00082681B68016183B000240193019B446111
:1014E000C260836003B010BC704700BFC093FF1F91
:1014F000F0B51E4B1E4D1A680446406C83B003685D
:1015000001920F465B681B49019E062298473946A7
:10151000606C00230A2201F037FC606C16490368F6
:1015200003225B6898473146606C00230A2201F071
:101530002BFC606C036829465B6801229847A16810
:10154000606C711A00230A2201F01EFC606C0368B3
:1015500029465B6801229847E368A168606CC91A54
:101560000A22002301F010FC03B0F0BDC093FF1F5E
:1015700078AB00006CAB000074AB000010B5446C9D
:101580000549236820465B68062298472046BDE847
:10159000104001F0E9BB00BF7CAB0000034B82B000
:1015A0001B680193019B836002B07047C093FF1FCB
:1015B00010B4104A85B0A1B9136800934168009B2C
:1015C000591A20290DD813680293029C04F12103B3
:1015D000591A01E0994204D313680193019B9C427C
:1015E000F8D913680393039B4360012005B010BC36
:1015F000704700BFC093FF1F704700BF2DE9F04147
:101600000D4D0E4EDFF83C800D4F41641B2401E070
:1016100000F0E0FA2B78C82043B133789B0705D05F
:10162000D8F800303A689B1A182B03D8013CEFD148
:10163000BDE8F081BDE8F081A494FF1FBC94FF1FBA
:10164000B096FF1FC093FF1F00238364436071B1F6
:10165000074882B003680193019A114401E099425E
:1016600004D303680093009B9A42F8D902B07047F4
:10167000C093FF1F70B5144C84B00546406C2368BE
:1016800003930368039A6A600E465B680F4906225B
:101690009847314600230A22686C01F075FB686C9C
:1016A0000B49036808225B68984723680293029AF3
:1016B00002F1320101E0994204D323680193019BB6
:1016C0009A42F8D904B070BDC093FF1F84AB0000EC
:1016D0008CAB0000F8B5037E0BB96320F8BD04465F
:1016E000406C3B4E03681B69B3420D466AD101F062
:1016F000F1F810F0FF0F01D16520F8BD354F606C97
:1017000003681B69B3425FD101F0E4F810F0FF0FEA
:10171000F2D0606C03685B69BB4257D101F09EF860
:10172000C3B2A3F158021E2AE9D801A151F822F050
:10173000BD170000FF160000FF160000FF16000096
:10174000FF160000FF160000FF160000FF16000045
:10175000FF160000FF160000FF160000B117000082
:10176000FF160000FF160000FF160000FF16000025
:10177000DB160000FF160000FF160000FF16000039
:10178000FF160000FF160000FF160000FF16000005
:10179000FF160000DB160000FF160000FF16000019
:1017A000FF160000FF160000AD1700001846F8BD38
:1017B00020462946FFF75EFF6320F8BD002323760D
:1017C0006320F8BD984794E798479FE79847A7E7B5
:1017D000911400008914000070B5054682B01646C9
:1017E000C9B101230D4C037600212846FFF772FF93
:1017F000632810D023680193019A511C2368009339
:10180000009B9A42F0D89942F8D200212846FFF76F
:1018100061FF6328EED12E7602B070BDC093FF1F2A
:10182000034B00229A60DA601A615A61704700BF68
:101830007493FF1F08B5104C08E0236859050DD4B8
:1018400023681A050FD42368DB0411D423685803D6
:10185000F3D500F035FB23685905F1D502F056F8B1
:1018600023681A05EFD502F0E7F82368DB04EDD50D
:1018700002F078F9EAE700BF3480044008B5FFF7CA
:10188000D9FF00BF014B10221A807047002005408D
:10189000704700BF094908B50B6830B16A46184463
:1018A000A2F58052904202D20860184608BD04F0AA
:1018B000F3FD0C2303604FF0FF3008BDC087FF1F0E
:1018C00010B40F4B53F8302092F880422CB1012312
:1018D00069B182F8803010BC704703EBC0035B68CD
:1018E0001A6841B922F002021A6010BC704782F8EF
:1018F000003110BC704742F003021A6010BC704700
:10190000E0AB00001C4A02EBC00301295B6811D068
:1019100004291BD052F83000002280F8802229B11F
:10192000022920D0032922D01A6070474FF4807218
:101930001A60704752F830004FF4A27280F880129B
:101940001A601A6822F020021A60704752F83010AC
:101950004FF4A272012081F880021A601A6842F0E6
:1019600020021A60704740F203121A6070474FF469
:1019700081721A60704700BFE0AB000030B4054BC5
:10198000054D064C002210211A602A602060196063
:1019900030BC704714D0034004D0034000D0034053
:1019A000282838B52ED0002904464FDD5F4B1B7820
:1019B000012505FA03F28A4202D8212837D938BD19
:1019C0000338C2B2012A3AD9202C4AD0192C48D067
:1019D000574A126802FB011222FA03F31D2800F293
:1019E0009B80DFE800F0928B847D9999766F9999BE
:1019F0009999999999999968615A53994C99999992
:101A000099999945494B1B780B2B08D90C2B1CBF76
:101A10000C3B19410846BDE8384001F06BBDC3F1ED
:101A20000C0399400846BDE8384001F063BD2946E3
:101A3000FFF746FF2946BDE83840FFF763BF3D4A40
:101A4000126802FB011222FA03F3C7E72128B6D875
:101A50000021FFF735FF20460121BDE83840FFF7A0
:101A600051BF354A126802FB011222FA03F3B5E7AF
:101A70003249334A0B604FF45173136038BD31491A
:101A8000314A0B604FF45173136038BD2F49304A0F
:101A90000B6040F24443136038BD2E492E4A0B6060
:101AA00040F24443136038BD2C492D4A0B6040F28C
:101AB0004443136038BD2B492B4A0B6040F244432A
:101AC000136038BD29492A4A0B6040F24443136031
:101AD00038BD2849284A0B6040F24443136038BDA2
:101AE0002649274A0B6040F24443136038BD25491C
:101AF000254A0B6040F24443136038BD2349244A11
:101B00000B604FF45173136038BD2249224A0B60B9
:101B10004FF45173136038BD212C3FF650AF7F292D
:101B2000D4BF00210121204693E700BFC487FF1FD7
:101B3000088003400890034008800B4010800B4051
:101B400048A0044018800B404CA00440188003407B
:101B500008B004401080034004B0044040800340BB
:101B600018C004403880034014C00440288003405B
:101B700010B00440208003400CB00440308003408B
:101B800010C00440488003401CC00440189003402B
:101B900034900440109003403090044038B1102835
:101BA00028BF1020044AC3B2107813707047024A4D
:101BB0000123107813707047C487FF1F212801D8B4
:101BC000FFF77EBE704700BF212801D8FFF79ABEFD
:101BD000704700BF2DE9F843054672B6204F214BF0
:101BE000214A1B683C68126862B6520102D5322B4A
:101BF00088BF013495B3C3F5BB331C4EDFF8649046
:101C0000DFF86480FF334FF47A72A6FB031302FB04
:101C100004F404EB931472B6D9F800103A68D8F8BB
:101C200000E062B6C1F5BB33FF33A6FB03031EF031
:101C3000806FC4EB93134FF47A7002D0322988BFBF
:101C4000013200FB0233B3F57A7F04D3013D05D0A6
:101C500004F57A74DFE701F0F5FADCE7BDE8F88314
:101C6000C093FF1F18E000E004ED00E0ABAAAAAAB1
:101C7000F8B52D4B2D49DFF8D0E0DFF8D0C02C4E61
:101C80002C4D2D4C2D4A2E4F4FF4000018604FF074
:101C9000807018604FF0007018604FF0806018601E
:101CA0004FF0006018600020086028234BF6FF7199
:101CB000CCF80010CEF80030336013602B60236046
:101CC0003B60B3629362092245F8242CC4F8D80F14
:101CD00005F57F65C7F8D41F07F5FF2707F5FA67F5
:101CE000C6F8F83F2B6006F5FF26C4F8D42F05F59B
:101CF000FD2504F5FF24386006F2F47611483160C2
:101D000005F5FF6504F5FD642B602360026001F0BA
:101D100081FB3220FFF75EFF00F0FEFC4FF4AF7056
:101D2000BDE8F840FFF756BF08E100E0048003403B
:101D300014800340248003402C8003401C80034017
:101D40003480034000800B400C8003400880034037
:101D5000431E032B14D872B60A4951F8230068B108
:101D600070B4094C058834F81320466841F82360A4
:101D7000521B24F8132062B670BC704762B67047DD
:101D8000002070471C94FF1FA096FF1F01380328F6
:101D90000BD872B6074B53F8203043B100205B6874
:101DA0000130002BFBD162B6704700207047184607
:101DB000F9E700BF7094FF1FF0B472B61A491B4ECA
:101DC000012311F8014B194F9A00240742F0010535
:101DD00005D556F8324064B156F83520BAB1013312
:101DE000052BEED162B6124B00221A70F0BC00F047
:101DF0000FBD0F4C0F4D217847F8325007EB4313BE
:101E000008304A1E5860227062B6F0BC704708491C
:101E1000094B0A7847F8353007EBC5030830013A1B
:101E200058600A7062B6F0E720AD00000080FF1F26
:101E30009994FF1F88004000C8004000431E032BF8
:101E40001DD81B4A400140F0100030B4104472B657
:101E5000184CE25C032A1BD8DFE802F002121517C7
:101E600003220D88E25410F0080F14BFC823882302
:101E700043EA054308310360416062B630BC7047F5
:101E800008300222EDE70522EBE708300422E8E7FC
:101E9000094A52F8230038B1084A52F82300416039
:101EA00042F8231062B6E9E742F82310034AF7E745
:101EB0000080FF1FA894FF1F7094FF1F8094FF1FD6
:101EC0002DE9F04FDFF804A3DFF804B387B044E056
:101ED000A94F4FEA930807EBC809013ED9F804203F
:101EE00003F00803F6B2A2F1080003F0FF04002B90
:101EF00040F0FE8057F838301B0C99B222F8081CCD
:101F0000002B00F0EC809D4B22F8064C42F8044C6C
:101F100053F82620002A00F02B82994D55F82630E0
:101F20005860984C45F8260034F81630194424F8C7
:101F3000161000F04DFC002800F01382924A934BDB
:101F400019F0080F00F1080018BF1346C9F8040083
:101F500047F8383008238AF800309AF80040E4B295
:101F600060071AD58A4B1B78A3B18A490A7802F018
:101F7000FF0322B1013BDBB20B7003B900BE8649FF
:101F80000A7802F0FF032AB1013BDBB20B70002B91
:101F900000F0BD8104238AF8003004F0080303F048
:101FA000FF02002B00F0C8809BF80030DBB21E0956
:101FB0008ED19C08704F57F8342007EBC401C2F350
:101FC0008302013A49680C2A00F28580DFE802F0BA
:101FD00079798383838383834283838307000868BB
:101FE0006E4B6F4D0193684B4A686E4E47F8343024
:101FF00081B240F28164694B6A602860002201204E
:10200000A1421A603A61BA61307000F2E380B1F522
:10201000D06F80F02782B1F5817F00F0E08100F27F
:10202000C381802900F03682822940F0DE81A988B0
:102030005D4B01F07F01042900F2D8815B4C8900DF
:102040000B44227062701A78930740F1228320704B
:10205000022023E2514B01931A683AB3544B514E7C
:102060005449188834780D784028864645F002088F
:1020700028BF4FF0400E002C84F001043470CEEBEA
:1020800000000CBF8824C82407EBC80680B285F086
:10209000010544EA0E447260188047F838407244E3
:1020A0000D70002800F0B780019B1A603C4B1A8825
:1020B000B2F5A06F0FD100219A7859703E4B1A707B
:1020C00009E0374A108842F22102904200F0A880CD
:1020D0002D4A47F83420394A012313703AE72A4A37
:1020E0002A4B19F0080F18BF134647F8383031E76C
:1020F00000F08EFB324A334952F82630002B00F0B4
:102100003B8158688C5D42F8260003F10802C9F84B
:102110000420032C05D8DFE804F02C022926022233
:102120008A551A8819F0080F0CBF8823C82343EA80
:10213000024347F838300DE7E00700F1EB80210655
:1021400000F12881A20706D51F4A204913780220F2
:10215000DBB213700870E30602D51C4B10221A7014
:1021600007B0BDE8F08F04228A55DAE705228A55C8
:10217000D7E703228A55D4E70080FF1F1C94FF1F76
:10218000C893FF1FA096FF1FC800400088004000B2
:10219000A494FF1F2D94FF1FAC94FF1FC493FF1F37
:1021A0009094FF1F2C94FF1FC02007409C94FF1F9A
:1021B000D893FF1F9894FF1F982007409420074052
:1021C0007094FF1FA894FF1F8820074080200740BD
:1021D0009020074042F22104A14200F0948043D8AD
:1021E000B1F5086F00F0A881B1F5106F40F0FD80E7
:1021F000B84AB94CA978117004F1800503E008349D
:10220000AC4200F09E81236A1906F8D5606A08384E
:1022100000F0FEFAF3E7BEF1400F18BF002243E7DB
:10222000AE4ACD1D11F8013B02F8013FA942F9D198
:10223000AB4A1268862A00F01181AA49AA4E0A7890
:10224000307882F00105002842F002020D700CBFC8
:102250008821C82147F8321007EBC20280F0010044
:1022600000213070516033E742F22124A14240F056
:10227000FE81DFF8BCC29D4B9D49AC78DCF8005074
:102280001D6081460C700020029080468446044602
:1022900094490D7845F0020E07EBCE03B9F1000F1B
:1022A0005C600CBF8824C82444EA080385F001045C
:1022B00047F83E3032700C70DFF81CE28A4BDFF8D2
:1022C0002482002840F09880BCF1400F1BD144F0DC
:1022D000020407EBC403029FDFF8FCE15F60002A01
:1022E00040F09F80020442F0880207444EF83420F8
:1022F00086F800900D703B46402804D100207D4AAE
:10230000019910800B607C4A01231370E3E600F012
:10231000EBFB3FE6704B784872491A614FF0020EB2
:1023200080F800E0754F0A70754919609960754E24
:10233000754D764C9A610D213970FF213170DFF8AF
:10234000F4E129702270724D724A8EF800109F27B6
:10235000012406F8047C5D600470DA6007B0BDE813
:10236000F08F6D4A47F83800137801331370F1E5A8
:1023700043F82600694DD4E58B5D032B67D801A295
:1023800052F823F0551F0000551F0000D92300000C
:10239000D323000059495C4B80220D2008701A702D
:1023A000A2077FF5D8AECFE640F20232914240F06C
:1023B0005681A98801F07F01042916D86A88A2B93C
:1023C0004E4C89000C448146217841F00201217075
:1023D00059E701238B55BDE500238B55BAE5A98844
:1023E00001F07F01042940F24781444B0F221A700B
:1023F000414A012313706EE640287FF668AF44F02F
:1024000002040EEBC401029E4E60AAB1444A83F856
:1024100000903346403888F8005040334EF834205E
:102420006DE70204029B86F8009042F0C8020D702E
:1024300003444EF834205FE783F80090029B304A53
:1024400088F80050403840334EF8342057E719F0F0
:10245000080F0CBF022303238B557BE5314A0F2164
:102460001170EAE6304A5468002CBED06888B5F88E
:1024700004E003E00C325468002CB6D01388834289
:10248000F8D153887345F5D1000A03280CBF207892
:10249000108903E0254C022022706270EA88824293
:1024A00080F00C810F490D78402A45F0020E9446C9
:1024B00007EBCE0028BF4FF0400C04EB0C03446048
:1024C0000293CCEB02004FEA0C484FF001090022C6
:1024D000C824E9E6A494FF1F0080FF1FA796FF1FF2
:1024E000A896FF1F9894FF1F2C94FF1FB096FF1F04
:1024F000BC94FF1FD893FF1F94200740C0200740C3
:10250000880040008820074080200740982007402E
:10251000DC93FF1F3094FF1F9994FF1FC893FF1F88
:10252000C80040002D94FF1F24AD00009C94FF1FA5
:10253000C093FF1F8C200740684A694C12782270B4
:10254000ACE76849684B694A02916949694C6A4D30
:10255000039405964FF0000988461C4616460495DC
:10256000206828B1456800F053F92846002DF9D1BC
:1025700000232360049B30681A46002342F8293068
:1025800028B1456800F044F92846002DF9D1002211
:102590003260029A98F800301146002241F8042B6C
:1025A000039A0291023B4FF0000122F81910032B0D
:1025B00007D8DFE803F0340234024FF0010388F853
:1025C000003009F10109B9F1040F04F1040406F126
:1025D000040608F10108C3D1484B059EDFF830918D
:1025E000DFF8308100211970012518F8013B09F846
:1025F000043B1A0718D4AC0044F0020244F0030470
:10260000002347F8323047F834303D4B994505F107
:102610000105EAD196F8009089F0010233E64FF007
:10262000000388F80030CCE700F0D2F8AC0007EBEC
:10263000451300F10802002837D05A60314B47F8A3
:10264000343000F0C5F844F0010307EBC30200F199
:10265000080100B351602C4A47F83320CCE7B1F5AC
:10266000A06F7FF4C2AE00224FF001090BE642F2E8
:1026700021329142F7D0B8E66A88002A7FF4B5AEDD
:10268000224C89000C448146217821F002012170FE
:10269000F9E5022002E7194B44F001021B7847F8E4
:1026A0003200164A01331370A6E7144B134A1B7805
:1026B000AC00013347F834001370C2E74028844669
:1026C00028BF4FF0400C04EB0C03CCEB00004FEAAA
:1026D0000C48029300224FF00109D9E5A494FF1F92
:1026E0009C94FF1F8094FF1F1C94FF1F7094FF1F7A
:1026F000A894FF1FA096FF1FC893FF1F9994FF1F68
:10270000D420074088004000C8004000C020074097
:10271000C420074020AD00002DE9F843204C01F013
:102720008DFA002204F1880023461A605A600833AB
:1027300083424FF00001F8D11A4A1B4F13681B4D1A
:102740001B481C4EDFF87880DFF878C0DFF87890FF
:10275000DFF878E043F480231360C4F307233B7071
:10276000C4F307432B70240EFF2302F528320470B4
:10277000114D88F8003011488CF80030D432337095
:10278000012389F8003070268EF800104FF4007491
:10279000102107F8183C2E7004601170BDE8F88312
:1027A0000080FF1F348004409C200740B020074079
:1027B000B42007401020074049E400E008E100E0B1
:1027C00080200740882007409420074000210740D0
:1027D00072B60D480268B2FA82F30B2B10DC4FF090
:1027E0000041D94022EA0102026062B6074803EBC9
:1027F000C303DB00C2180021C1501046516070476E
:1028000062B60020704700BFC887FF1FBC83FF1F50
:102810000D4B0E4AC31AA2FB03231B090B2B0CD82A
:102820000B4A127852B972B60A484FF0004102685A
:1028300021FA03F31A43026062B67047064A12781F
:10284000002AF0D0FFF7B8BABC83FF1F398EE338F7
:102850009994FF1FC887FF1FA494FF1F38B50F4D21
:10286000286878B143880288C118013393420C7AF2
:1028700002D24380204638BDFFF7CAFF002320461E
:102880002B6038BD064B1B782BB10320FFF760FA95
:1028900028600028E6D14FF0FF3038BDB894FF1F04
:1028A000A494FF1F10B5094C206818B14388184440
:1028B000007A10BD064B1B782BB10320FFF748FAB6
:1028C00020600028F2D14FF0FF3010BDB894FF1FF8
:1028D000A494FF1F044B054A1B6890881BB11A88FB
:1028E0005B88D31A18447047B894FF1FA096FF1F47
:1028F0000B4B1B789BB110B50A4C206848B1FFF711
:1029000087FF002303202360FFF722FA30B1FFF78F
:102910007FFF0320FFF71CFA0028F8D110BD704795
:10292000A494FF1FB894FF1F2DE9F04FDFF8F89033
:1029300083B0012289F80020019169B3DFF8EC80AF
:10294000364F019E8346D8F80000B0B3344D44881A
:10295000C4F14001B14228BF314604EB010E002210
:102960001FFA8EFE2A70761AA0F802E000F1080223
:1029700051B1013C224459441BF8014B02F8014F6C
:102980008B45F9D1B0F802E0BEF13F0F0BD8254AD4
:1029900005211170002ED6D10198002389F800304E
:1029A00003B0BDE8F08F4022028001460420FFF70B
:1029B00045FA0022C8F80020E9E73A782AB3184D12
:1029C0004AF2F9244FF0010A07E0013C16D02A78B8
:1029D000A2B900F037FC3A78BAB10420FFF7D6F973
:1029E0000728F2D889F800A0FFF7F2FEC8F8000027
:1029F0000028ACD10C4B013C1870E8D101234FF0FA
:102A0000FF302B7003B0BDE8F08F00234FF0FF3094
:102A100089F8003003B0BDE8F08F00BFA494FF1F19
:102A2000B494FF1FAC94FF1FAD94FF1FB094FF1F21
:102A300000B583B002AB012103F8010D1846FFF782
:102A400073FF03B05DF804FB38B50E4D0E4C2868DB
:102A50000123237028B1408800232370C0F1400077
:102A600038BD0A4B1B7813B90020207038BD0420F4
:102A7000FFF78CF90728F7D8FFF7AAFE286000288F
:102A8000E9D1F1E7B094FF1FAD94FF1FA494FF1F9D
:102A9000F8B5114B1B788BB1104E114D34680127DE
:102AA0002F7064B10F4A6388002717702146238076
:102AB0000420FFF7C3F9376000232B70F8BDFFF740
:102AC00087FE084B28B1014604201C70FFF7B6F9B9
:102AD000F2E71F70F0E700BFA494FF1FB094FF1F40
:102AE000AD94FF1FAC94FF1F38B50E4B1B7873B924
:102AF0000D4C216861B103F0FF054B880B80042069
:102B0000FFF79CF9256038BD084B01221A7038BDCB
:102B1000FFF75EFE0028F7D00146BDE838400420EC
:102B2000FFF78CB9AD94FF1FB094FF1FAC94FF1F4B
:102B300010B4EFF3108272B6437F33B9017F0129DD
:102B400007D003290FD00123437702B962B610BC26
:102B50007047124C2168A1B1114943610B68836130
:102B600008605861EFE70F4C216881B10E4943615D
:102B70000B688361086058610C4B4FF080511960FD
:102B8000E1E7074B4161816120601860DBE7064B9C
:102B90004161816120601860EEE700BFD094FF1FA3
:102BA000CC94FF1FC094FF1FC494FF1F04ED00E0EE
:102BB00070B5EFF3108272B60C4C206880B10C4EE9
:102BC00000254369236073B19D6102B962B6457700
:102BD00083689847EFF3108272B620680028F0D11E
:102BE00002B962B670BD3360EFE700BFC094FF1F4B
:102BF000C494FF1FFFF7DCBF184A30B41468002CE0
:102C000027D0036821688B420ED2CB1A0021846042
:102C1000C1602360E06010600223037530BC704720
:102C200011688B42144608D3A2685B1A0360002A1D
:102C3000F6D18260C460A060EEE7D268C2608460B2
:102C4000E060C568CB1A0222A8602360027530BC20
:102C500070478460C4601060DEE700BFC894FF1F47
:102C6000F8B5224E34682CB32368002B3AD1204F9C
:102C70001D4604E03468ECB12368002B32D1A36810
:102C800003B1DD6020693360036825751B68BB42B2
:102C900021D1037F4560022BC46020D0FFF748FF9D
:102CA0006368002BE6D023602046FFF7A5FF346859
:102CB000002CE1D1EFF3108372B60E4A00211068A8
:102CC000116003B962B628B18468FFF795FF20460A
:102CD0000028F9D1F8BD224600219847E0E7836833
:102CE0009847DDE7013B2360E4E700BFC894FF1F7E
:102CF000C1120000D894FF1F024A13680133136009
:102D0000FFF7AEBFC093FF1F08B5FDF77FFDFDF7CE
:102D100011FE00F097FAFAE703F02ABC2DE9F04320
:102D20008C688BB0ECB10025064689462F462B46B1
:102D3000212201A9484600F0DFF93268202C234601
:102D400028BF2023D2F8048001A91A4630461D442A
:102D5000E41AC0470744002CE9D138460BB0BDE85F
:102D6000F0832746F9E700BF00B5064A03681288DA
:102D70005B6883B001A9ADF804200222984703B034
:102D80005DF804FBF0AC0000F0B507468BB0002AFC
:102D900033D0012A08BF0A2251B3212400E0F4B243
:102DA000B1FBF2F502FB1511C8B2092900F130019F
:102DB00098BFC8B20AA988BF3730214488BFC0B2C3
:102DC00001F8240C661E2946002DE8D133B1013CE0
:102DD000E4B20AAB23442D2203F8242C3B6801AA59
:102DE00011195B683846C4F1220298470BB0F0BD58
:102DF00030228DF825202124E8E70368C9B21B683A
:102E000098470BB0F0BD00BF70B50E4D82B02B6877
:102E10000093009E044608E000F014FA2B6801932A
:102E2000019BA2689B1B934207D2236820465B69E3
:102E300098470028F0DB02B070BD4FF0FF3002B0C1
:102E400070BD00BFC093FF1F81607047F8B50F468B
:102E500016460021054600F065F88EB1002404E016
:102E60000ED000F0FFF8A6420AD03846FFF7CCFF9C
:102E7000011E04F10104C9B22846F1DA01233B73B3
:102E80002846F8BDFFF734BDFFF702BEFFF7DCBDF3
:102E900008461146FFF748BD0846FFF7C9BD00BF09
:102EA000704700BF10B50446006803F069FB204678
:102EB00010BD00BF38B543688B4201D3012038BD37
:102EC0000D4604460131006803F0E6FE0028F6D006
:102ED000A36884E82100002BF0D10370EEE700BF67
:102EE000F8B50446154632B9036803B11A700023D9
:102EF000A3602046F8BD0E461146FFF7DBFF0746EC
:102F000048B9206810B103F03BFB276000236360E1
:102F1000A3602046F8BDA5603146206804F02EF974
:102F2000E7E700BF38B500230446036043608360D1
:102F3000037341B108460D4604F082F92946024662
:102F40002046FFF7CDFF204638BD00BF0023884252
:102F500010B50446036043608360037303D08A683E
:102F60000968FFF7BDFF204610BD00BF38B5054614
:102F700008460C4604F064F9214602462846BDE89E
:102F80003840FFF7ADBF00BF10B50446002386B040
:102F900023606360A3602373084601A903F0CCFAA1
:102FA00001A92046FFF7E2FF204606B010BD00BF92
:102FB00010B5044600238AB0084623606360A3600E
:102FC0002373911C6B4600F0D9FA30B101462046BC
:102FD000FFF7CCFF20460AB010BDA06020460AB023
:102FE00010BD00BF814203D08A680968FFF778BF2F
:102FF000704700BF2DE9F84303680F46BB42044603
:10300000816815460AD85A18974207D2C3EB0709B8
:103010004FF0010835B92046BDE8F8834FF00008AD
:10302000002DF8D04E1931462046FFF743FF002807
:10303000F1D0B8F1000F0ED02368A0682A4603EB48
:103040000901184400F04CF9236800229A55A66043
:103050002046BDE8F8832068A3683946184404F088
:103060008DF8F4E710B582B000238DF8041001222A
:1030700001A904468DF80530FFF7BCFF204602B0D9
:1030800010BD00BF10B58A6809680446FFF7B2FF9B
:10309000204610BD38B5054641B108460C4604F03F
:1030A000CFF8214602462846FFF7A4FF284638BD40
:1030B00010B583688C681B1B93420CD3036873B1F3
:1030C000096851B110461844224604F027F9B0FAB5
:1030D00080F0400910BD002010BD084610BD184604
:1030E00010BD00BF82688B689A4202D30022FFF7AE
:1030F000DFBF0020704700BFB2B1A9B138B5846806
:103100009C420ED9E41A013A0D469442016828BF48
:10311000144619442246284604F050F900232B5542
:1031200038BD00230B7038BD704700BF83683BB1CA
:1031300010B50468204603F0B9FF20B1001B10BD94
:103140004FF0FF3070474FF0FF3010BD9A42F8B596
:1031500004460E4602D911461A460B460021A160CC
:103160002173B0682160824261600ED8834228BF1B
:1031700003461D4633685F5D59553368991806D07C
:103180002046FFF7F3FE33685F552046F8BDA16087
:103190005F55FAE738B583688B42044614D99AB173
:1031A000084611448B4238BF1A1A2568A3EB020265
:1031B00038BF1946A2602944121A284403F0B6FC0D
:1031C0002268A3680021D154204638BD2DE9F04182
:1031D00006680746EEB18468DCB1354600E0454636
:1031E000287805F1010803F085F90028F7D1013CA2
:1031F000344402E0A54205D8013C207803F07AF976
:103200000028F7D1621C521BB542BA6004D80023D3
:10321000B3543846BDE8F0813046294600F060F8E6
:103220003E68BA68F3E700BF006808B103F01AB956
:10323000704700BF006810B1002105F05BB80020A6
:10324000704700BF38B5224C237803B138BD012345
:103250002370FFF73FFB70BB00F048FB40BB00F062
:10326000DBFB10BB00F06EFCE0B900232370EFF332
:103270000583002BEAD1EFF3108172B6154B186865
:10328000E0B1154C2278CAB945691D60012323704D
:10329000C5B1AA6101B962B6002545778368984730
:1032A0002570D3E700F010FDDFE700F00BFDD9E754
:1032B00000F006FDD3E7FFF7F3FDCDE70029C5D108
:1032C00062B638BD054B1D600029E5D1E3E700BFBC
:1032D000DC94FF1FD094FF1FD494FF1FCC94FF1FDA
:1032E000844641EA000313F003036DD1403A41D311
:1032F00051F8043B40F8043B51F8043B40F8043BD0
:1033000051F8043B40F8043B51F8043B40F8043BBF
:1033100051F8043B40F8043B51F8043B40F8043BAF
:1033200051F8043B40F8043B51F8043B40F8043B9F
:1033300051F8043B40F8043B51F8043B40F8043B8F
:1033400051F8043B40F8043B51F8043B40F8043B7F
:1033500051F8043B40F8043B51F8043B40F8043B6F
:1033600051F8043B40F8043B51F8043B40F8043B5F
:10337000403ABDD2303211D351F8043B40F8043BFF
:1033800051F8043B40F8043B51F8043B40F8043B3F
:1033900051F8043B40F8043B103AEDD20C3205D30F
:1033A00051F8043B40F8043B043AF9D2043208D007
:1033B000D2071CBF11F8013B00F8013B01D30B8879
:1033C00003806046704700BF082A13D38B078DD057
:1033D00010F003038AD0C3F10403D21ADB071CBF29
:1033E00011F8013B00F8013B80D331F8023B20F893
:1033F000023B7BE7043AD9D3013A11F8013B00F8CC
:10340000013BF9D20B7803704B7843708B78837053
:103410006046704730B42948294A2A4B2A4D602417
:10342000E121047011701B78284C082B30D00A2B36
:103430002748284937D00C2B0CBF35223D221223B8
:103440002A60236002600B60234B24491B78244AC6
:10345000BBB101230B601360224B23491B78234A25
:10346000012B26D9042B0FD9082B1ED9102B94BF62
:10347000862387230B6013601D4B01221A7030BC1A
:1034800070470B601360E7E784230B601360F3E77A
:1034900000F58E200F490830012213232A60236093
:1034A00002600B60D0E73922F7E785230B601360D9
:1034B000E2E780230B601360DEE700BF00400740B7
:1034C00001400740DC87FF1F08B003400CB00340F9
:1034D00008B00B400CB00B40DE94FF1F20B003403F
:1034E00020B00B40DD87FF1F24B0034024B00B4009
:1034F000DD94FF1F0A4A0B49136843F4805313609D
:103500000B7843B1084B80221A7080F30C00074BF4
:1035100000B218807047044BC0221A70F5E700BF54
:103520002C800440DE94FF1F21C00C4000C00C40E2
:10353000F0B44D1E2E46002400E00134B0FBF2F33F
:1035400002FB1300092800F130078ABF3730F8B2B8
:10355000C0B206F8010F1846002BEED10A195370BD
:103560004CB1107815F8016F28700133E01A8342CE
:1035700002F80169F5DB0846F0BC70472DE9F04F11
:103580000D4685B085EAE5790146824617461C4618
:10359000A9EBE57902F004FF002840F02F812AF022
:1035A00000484046C74902F0FBFE002847D140468C
:1035B000C44902F0D7FE0646002840D100215046FB
:1035C00002F0C6FE002814BF0420032048451DDB7E
:1035D000002DC0F274815046002102F0B9FE25464C
:1035E00048BB49214E22462321706270A3700334E8
:1035F000002E00F07681A019202304F8013BA042A0
:10360000FBD10023037005B0BDE8F08F002DC0EBA7
:103610000906E0DA002E00F05281A519202304F8F3
:10362000013BAC42FBD15046002102F091FE002844
:1036300000F0228100262D232B706C1CD1E702ABF9
:1036400001AA3946504602F017FFBB468046DDF816
:103650000490002F57D0C9F10003BB4200F39480BF
:10366000404603F0EDFD0646B145B8BF0136B9F15D
:10367000000F40F098800136DDF808E0BEF1000F41
:1036800053D00136A81B002804EB060153DC234667
:103690002D221A700133B9F1000F63D137B11A46E8
:1036A000302002F8020B2E20587013468B4220D295
:1036B0005F1C98F800201A708F4208F1010819D099
:1036C000019A4FF02E0E0BE083F801E002338B429B
:1036D00003F101070DD218F8010B18708F4209D0C1
:1036E000013A0192002AEFD03B468B4203F10107D9
:1036F000F1D31946002DC0F2A980002320460B709B
:1037000005B0BDE8F08FB9F1000FA4D190F80080AA
:103710006D496E4A012301939946B8F1340F8CBF6D
:10372000884690464FF0FF3397E7A81B002804EB2C
:10373000060140F3D8800144224601384FF0200CA6
:1037400002F801CBC2F1010303442344002BF7DC50
:1037500020EAE07301332344BEF1000F98D1B9F1A0
:10376000000F9BD0A2DA002FA0D01A46302002F81A
:10377000020B2E275F70C9EB020302F8010B934284
:10378000FBD10022019291E7C7F100090126B14562
:103790003046B8BF0136B9F1000FDFF83081CDF8FF
:1037A00004903FF468AFBFF667AF002F3FF464AFFB
:1037B00009EB0703984207F102067FF65DAF002F81
:1037C00007DD5046424902F025FCBBF1010B824661
:1037D000F7D102AB03AA5946504602F04DFEDDF880
:1037E0000490039A7B1CC9EB02029A4208BF09F1BC
:1037F0000109804608BFCDF804903DE700215046FE
:1038000002F0A6FD002814BF0420032048453BDA3F
:10381000002DC0EB09063BDB4FF07E5350460021E4
:1038200063F31E0002F094FD2546002841D14E238B
:1038300041222370A37062700334002E51D0A0196E
:10384000202304F8013B8442FBD1DAE6A819434265
:10385000002B6FEA00007FF750AF0A46202502F8E0
:10386000015BC2F1010303440B44002BF7DC20EAA7
:10387000E0730133194440E749214E224623297061
:103880006A70AB70E81CBCE6002D16DB0026C3E7AF
:103890009EB1A519202304F8013BAC42FBD14FF0A7
:1038A0007E535046002163F31E0002F051FD88B1A3
:1038B00000262D232B706C1CB9E72546EFE7254623
:1038C000B1E600BFFFFF7F7F1CAD00007CAD0000B4
:1038D000000020414E2341222B70AB706A70E81C1F
:1038E0008FE620468DE62346D5E600BF054A064B07
:1038F00010781B78C0B2DBB2984238BF4030C01A93
:10390000704700BFE494FF1FE594FF1FF0B4384BED
:103910001A7912F0300F2CD072B6997D01F0FF02A7
:1039200000293DD062B6334F334938780D78334E95
:103930001C46C0B2EDB2431C402BE17928BF0023E6
:10394000AB4202F1FF32C9B21CBFF154184612F06B
:10395000FF02F0D12A4B1B68C2B23A704BB1A842A9
:1039600036BFC5F14005401B40192728C4BF0122BE
:103970001A701F49CA78D2B2150616D452060DD550
:103980001B4B1B795B0609D51E4B1F491B68002288
:103990000A7003B11A70164B3C22DA70F0BC704703
:1039A0004022D9795A7462B6E3E70B791C06E5D553
:1039B000164B174E1C783378E4B2DBB29C420ED023
:1039C000144D01E0A3420AD00133402B28BF00234D
:1039D0000879E85CC0B2C871087D0728F2D9DBB26B
:1039E000034933700B79180644BF7C23CB70C5E7BD
:1039F00000A00640E494FF1FE594FF1F2895FF1FD9
:103A0000E094FF1F6C95FF1F6895FF1F7095FF1FC7
:103A10006995FF1FE894FF1F054A064B10781B7835
:103A2000C0B2DBB2984238BF4030C01A704700BF06
:103A3000E495FF1F7995FF1FF0B4384B1A7912F007
:103A4000300F2CD072B6997D01F0FF0200293DD0D5
:103A500062B6334F334938780D78334E1C46C0B2C6
:103A6000EDB2431C402BE17928BF0023AB4202F1A9
:103A7000FF32C9B21CBFF154184612F0FF02F0D158
:103A80002A4B1B68C2B23A704BB1A84236BFC5F18F
:103A90004005401B40192728C4BF01221A701F4946
:103AA000CA78D2B2150616D452060DD51B4B1B7917
:103AB0005B0609D51E4B1F491B6800220A7003B123
:103AC0001A70164B3C22DA70F0BC70474022D9794C
:103AD0005A7462B6E3E70B791C06E5D5164B174E10
:103AE0001C783378E4B2DBB29C420ED0144D01E076
:103AF000A3420AD00133282B28BF00230879E85CB1
:103B0000C0B2C871087D0728F2D9DBB2034933700F
:103B10000B79180644BF7C23CB70C5E700B0064084
:103B2000E495FF1F7995FF1FA495FF1F7495FF1F54
:103B3000E895FF1F7895FF1FEC95FF1FE595FF1F88
:103B40007C95FF1F054A064B10781B78C0B2DBB28C
:103B5000984238BF4030C01A704700BFF495FF1F2D
:103B6000F595FF1F30B42B4B1A7994061FD52A48C0
:103B7000DA790378294901333F2B0978C8BF00233C
:103B80008B42D2B203D0264CD9B2E2540170254AFE
:103B9000116861B1244A1278D2B2934236BFC2F1A1
:103BA00040029B1A9B18272BC4BF01230B70194A94
:103BB000D378DBB2180611D45A060DD5154B1B79F4
:103BC0005B0609D5194B1A491B6800220A7003B11C
:103BD0001A70104B2C22DA7030BC7047117909062C
:103BE000EAD5144910480C780178C9B28C420DD03E
:103BF0004A1C272A84BF00210A460F4D054C98BF56
:103C0000D1B2AA5CD2B2E2710170D5E76C21D17059
:103C1000D2E700BF00C00640F495FF1FF595FF1FD7
:103C20002096FF1FF095FF1F6196FF1F6496FF1FF0
:103C30006096FF1F6896FF1FF895FF1F70B584B050
:103C400072B6194B194D1A48702241260F24802153
:103C50001A702E701A460470197013781B06FCD562
:103C6000144B186862B6144B144C984298BF00EB82
:103C7000800001A998BF40000A22FFF759FC01A962
:103C80002046002311F8012B01333AB10A2B20F80A
:103C9000022FF7D11623237004B070BD5B00DBB296
:103CA000237004B070BD00BF000002400700024056
:103CB00006000240080002407F9698006C88FF1FB3
:103CC000704700BF704700BF704700BF2DE9F04349
:103CD0008BB004460D4600F0F3F9374B93F90080A2
:103CE000B8F1FF3F06460F460ED022462B4620462F
:103CF000294601F0FBFF814630B90022002320460F
:103D0000294601F0D5FF20B9304639460BB0BDE851
:103D1000F0832A4BCDF82090CDE90245CDE904454A
:103D2000019320462946B8F1000F17D1244D4FF0DA
:103D3000604400220023CDE9064501F0A5FF0028DC
:103D400032D002230093684601F06EF898B1089BC8
:103D5000B3B9DDE906010BB0BDE8F083194D0024CD
:103D600000220023CDE9064501F08EFF68B1022351
:103D700098450093E7D102F08FFB22230360E6E72A
:103D800002F08AFB089B0360E3E70123B8F1020F0E
:103D900000930BD102F080FB212303600A4801F05D
:103DA00045F8CDE90601D2E701230093684601F00A
:103DB0003BF80028F2D1EDE78288FF1F78AD0000C4
:103DC000FFFFEFC70000F0FF94AB00002DE9F04FBC
:103DD000DFF8E4928DB006460F4614461D4600F00B
:103DE000FFF999F90080B8F1FF3FCDE9000146D015
:103DF00022462B462046294601F078FF83460028BC
:103E00003DD132463B463046394601F06FFF002235
:103E100082460023002840F084803046394601F075
:103E200033FF002830D0002200232046294601F02D
:103E30002BFF8346A8B10122984B02920021002259
:103E4000CDF828A0CDE90467CDE90645CDE90812F3
:103E50000393B8F1000F53D0914900200DB0BDE895
:103E6000F08F2046294600F0D9FF40B10022002300
:103E70002046294601F012FF002840F0B780DDE916
:103E800000010DB0BDE8F08FDDE9000100F0C6FFD4
:103E9000804600285DD04FF0000A4FF0000B5246DC
:103EA0005B46DDE9000101F0EFFE0028E7D0304677
:103EB000394600F0B3FF0028E1D02046294600F043
:103EC000ADFF0028DBD099F90030744A0392042139
:103ED0000022022BCDE90467CDE90645CDE908AB08
:103EE00002910A9203D002A800F09EFF70B902F07E
:103EF000D3FA2223036009E000230024CDE908342B
:103F000002A800F091FF002800F086800A9B1BB1F8
:103F100002F0C2FA0A9B0360DDE908010DB0BDE8BA
:103F2000F08F2046294601F0AFFE0028A7D05C495B
:103F30005A4BCDF828B001220020B8F1020FCDE98C
:103F40000467CDE9064502920393CDE90801D7D174
:103F500097E73046394600F061FF00289BD02046A5
:103F6000294600F05BFF002895D0DDE900231046CC
:103F7000194601F0BBFE002873D1032399F9008094
:103F80000293464B0A900393CDE90467CDE90645B9
:103F90000022002330463946B8F1000F41D1414F8D
:103FA0004FF06046CDE9086701F078FE00289AD00E
:103FB00000223D4B2046294601F0FEFB04460D46FB
:103FC00000F03AFF02460B462046294601F05CFE0F
:103FD000002843D1354B99F900804FF06042CDE97C
:103FE0000823B8F1020F7FF47EAF80E799F9003023
:103FF0002A4ACDF828B00121CDE90467CDE906456C
:1040000002910392002B3FF477AF29490020022B45
:10401000CDE908017FF474AF02F03EFA212303607A
:1040200074E7244F0026CDE9086701F037FE002829
:10403000D7D000221C4B2046294601F0BDFB044688
:104040000D4600F0F9FE02460B462046294601F0D7
:104050001BFE18B9164B0022CDE9082399F9008000
:10406000BFE799F900900D4BCDF828800122CDE9EA
:104070000467CDE9064502920393B9F1000F3FF4BE
:104080003BAF002200231046194601F0BFFCB9F1F6
:10409000020FCDE90801BFD032E700BF80AD0000BC
:1040A0000000F03FFFFFEF470000E03FFFFFEFC7DA
:1040B0000000F0FF0000F07F8288FF1FFFFFFFFF7E
:1040C000B1F5801F2DE9F84304460D460B461ADA78
:1040D000024621F00046324359D000295FDB00221E
:1040E0003B4B01F069FB0B460D463A498B420446B7
:1040F0006FF035020CDD22462B462046294601F0A2
:10410000A9F9BDE8F88333498B424FF00002F2DC95
:104110001815A0F2FF3010444FEAD0794844C3F399
:10412000130801F0E3FAC9F57F73033348EA035536
:1041300006460F462046294600F08AFF1EA3D3E913
:104140000023804689463046394601F035FB1CA3E2
:10415000D3E9002304460D464046494601F02CFBB6
:1041600002460B462046294601F074F916A3D3E90E
:10417000002304460D463046394601F01DFB024639
:104180000B462046294601F065F9BDE8F883002278
:1041900000230020104901F039FCBDE8F8830246F5
:1041A0000B4601F055F90022002301F02FFCBDE879
:1041B000F88300BFAFF30080362BF111F3FE593DB9
:1041C0000EE526157BCBDB3F00609F501344D33FA9
:1041D00000005043FFFFEF7F000050C3FFFFFFFFD1
:1041E0002DE9F04F23F0004858EA020993B03CD083
:1041F000714C21F00046A64283460D460CDD06F1C7
:10420000404606F5801656EA0B0038D16B498346C6
:10421000584613B0BDE8F08F9A4696462BD0A0457D
:10422000EDDC654CA04578D0002D0F468146CDE9E8
:10423000002376DB0024BEF1000F27D15E4B9845AA
:1042400000F08B805D4B984552D0BAF1804F00F062
:10425000C2835B4B9A4519D1002D17DB484639467E
:1042600013B0BDE8F04F00F015BDCB46534958469A
:1042700013B0BDE8F08F0028C1D1B045D1DD514861
:1042800013B0BDE8F04F00F0D1BD002448463946D8
:1042900000F0C0FDBBF1000F1CD0ED0F013D54EA52
:1042A000050370D0484B984540F3948003F10473A4
:1042B000984540F30584454B9E4270DDBAF1000FEE
:1042C00070DD3BA3D3E900231046194601F074FAD0
:1042D00083469DE726B1394B25F040429A42DCD116
:1042E000BAF1000FC0F2B083002D08DB83468FE7E0
:1042F000BAF1000FC0F25684CB46394688E706F182
:10430000404606F5801656EA040300F07B84012C33
:10431000ECD1834601F100417AE7BEF1000F83D072
:104320006DE72B4B98452CDCA3F15473984581DD48
:104330004FEA2853A3F2FF33142B40F34B84C3F10D
:1043400034032EFA03F202FA03F39E457FF472AFB0
:1043500002F00102C2F102046DE706F1404303F5E9
:10436000801353EA0B0300F03383184B9E4240F353
:104370006083BAF1000F15DBDDE900349B4621466E
:1043800046E7022457E74A4648463B46394601F08D
:104390005FF802460B4601F039FB834638E7BAF175
:1043A000000F8EDB4FF0000B594631E7AFF3008072
:1043B0009C7500883CE4377E0000F07F0000F03FF1
:1043C0000000E03F94AB00000000E041FFFFEF3F42
:1043D000FFFF3F43B6F5801F4FF0000205DAD44BD4
:1043E00001F0EAF96FF034020E463315D14FC6F3EF
:1043F0001306A3F2FF33134446F07F5ABE421A4617
:104400000D934AF4401A40F3C183CB4B9E4240F3D4
:10441000FD83134601330D93C84B0022CDE90623DB
:1044200000270026CDE90867CDE90E67AAF5801AB6
:104430000027024653465146CDE90A23DDE906230B
:1044400001F006F8DDE9062380468946DDE90A0128
:1044500001F000F802460B460020B84901F0D6FAF8
:104460000A460146CDE91012134649460246404627
:1044700001F0A2F94FEA6A0343F000538C468346E9
:1044800003F50023CDE904BCDA468B46D919002395
:10449000CDE902AB0293DDE902AB002006460F46F0
:1044A00002460B465046594601F086F902460B4635
:1044B0004046494600F0CCFFDDE9062380468946A8
:1044C0003046394600F0C4FF02460B46DDE90A01DA
:1044D00000F0BEFF52465B4601F06EF902460B4605
:1044E0004046494600F0B4FFDDE9102301F064F9CD
:1044F000DDE90467CDE9060132463B4630463946E0
:1045000001F05AF978A3D3E9002306460F4601F0DB
:1045100053F977A3D3E9002300F09CFF32463B46D2
:1045200001F04AF974A3D3E9002300F093FF324667
:104530003B4601F041F972A3D3E9002300F08AFF62
:1045400032463B4601F038F96FA3D3E9002300F06F
:1045500081FF32463B4601F02FF96DA3D3E90023DA
:1045600000F078FF3246804689463B463046394661
:1045700001F022F902460B464046494601F01CF97B
:10458000524606460F465B46DDE9040100F062FF35
:10459000DDE9062301F010F932463B4600F05AFFF0
:1045A0005246804689465B465046594601F004F91A
:1045B0000022634BCDE90A0100F04CFF42464B4616
:1045C00000F048FF02980F46064632463B465046EA
:1045D000594601F0F1F8002282468B46584B30468E
:1045E000394600F035FFDDE90A2300F031FF0246CD
:1045F0000B464046494600F02BFFDDE9042301F05D
:10460000DBF83246804689463B46DDE9060101F08B
:10461000D3F802460B464046494600F01BFF804651
:10462000894602460B4650465946CDE904AB00F098
:1046300011FFDDE902AB38A3D3E9002350460F4652
:1046400001F0BAF8DDE90423CDE90201394650460C
:1046500000F0FEFE02460B464046494600F0F8FEDA
:104660002FA3D3E9002301F0A7F82FA3D3E9002358
:10467000804689465046394601F09EF802460B4670
:104680004046494600F0E6FEDDE90E2300F0E2FE7A
:1046900080460D98894601F029F8424606460F46A5
:1046A0004B46DDE9020100F0D5FEDDE9082300F00C
:1046B000D1FE32463B4600F0CDFE32463B465046E8
:1046C0008B4600F0C5FEDDE9082300F0C1FEDDE900
:1046D000022300F0BDFE02460B464046494600F06C
:1046E000B7FE80462EE000BFEF4E454A287ECA3F07
:1046F00065DBC9934A86CD3F01411DA96074D13F56
:104700004D268F515555D53FFFAB6FDBB66DDB3F67
:10471000033333333333E33F000000E009C7EE3F98
:10472000FD033ADC09C7EE3FF5015B14E02F3EBE06
:10473000000040438E98030079B60B000000F03F64
:10474000000008408946013C54EA0503DDE9000108
:1047500014BFD54CD54C0023CDE9043403460C4698
:10476000CDE9023400230293DDE9024522462B46BF
:1047700000F06EFE52465B4601F01EF8DDE90023B4
:1047800006460F464046494601F016F802460B46DB
:104790003046394600F05EFE224606460F462B465E
:1047A00050465946CDE9006701F006F80B4602462F
:1047B000804689463046394600F04CFEBC4B994253
:1047C00006460D460C4640F30E8101F13F4303F5CA
:1047D000E003034340F0EF819FA3D3E90023DDE929
:1047E000000100F037FE424682468B464B4630467B
:1047F000294600F02DFE02460B465046594601F070
:104800006BFA002840F0D7812F463B154FF48012F9
:10481000A3F2FE3342FA03F32344C3F30A52A54E34
:10482000A2F2FF321641C3F3130B0020C2F11405AC
:1048300023EA06014BF4801B02460B46002C4BFA80
:1048400005FB40464946B8BFCBF1000B00F000FE27
:1048500002460B4680468946DDE9000100F0FAFD7C
:104860004FEA0B5A00247EA3D3E9002320460D46CD
:1048700000F0A2FF424606460F464B462046294618
:1048800000F0E6FD02460B46DDE9000100F0E0FD28
:1048900075A3D3E9002300F08FFF75A3D3E90023AC
:1048A000804689462046294600F086FF02460B4690
:1048B0004046494600F0CEFD8046894602460B46FA
:1048C0003046394600F0C6FD32463B4604460D46AA
:1048D00000F0BEFD02460B464046494600F0B8FDDA
:1048E0002246804689462B462046294600F064FF32
:1048F00061A3D3E9002306460F4600F05DFF60A3E5
:10490000D3E9002300F0A4FD32463B4600F054FFFB
:104910005DA3D3E9002300F09DFD32463B4600F045
:104920004BFF5BA3D3E9002300F092FD32463B46E8
:1049300000F042FF58A3D3E9002300F08BFD32467C
:104940003B4600F039FF02460B462046294600F060
:104950007FFD06460F4602460B462046294600F0DC
:104960002BFF0022CDE900014FF08043304639464D
:1049700000F06EFD02460B46DDE9000101F046F84D
:10498000424606460F464B462046294600F014FF95
:1049900042464B4600F05EFD02460B463046394625
:1049A00000F056FD22462B4600F052FD02460B4613
:1049B00000203D4900F04CFD8A44BAF5801FC0F24A
:1049C00036815146DDE9042300F0F6FE83461FE4FC
:1049D000F34635491CE44A4648463B46394600F012
:1049E000EBFE834614E4344B21F000479F4240F332
:1049F0000081324B0B4403430CD142464B4600F03E
:104A000027FD02460B46DDE9000101F051F90028BF
:104A10003FF4FBAE22A3D3E90023DDE9040100F05B
:104A2000CBFE1FA3D3E9002300F0C6FE8346FFF7A9
:104A3000EFBBBAF1000FBFF6B5ACDDE900349B4621
:104A400004F10041FFF7E4BB02460B460020164983
:104A500000F0DCFF48E400BFFE822B654715973C61
:104A600000000000432EE63FEF39FAFE422EE63FFB
:104A7000396CA80C615C20BED0A4BE726937663E5A
:104A8000F16BD2C541BDBB3E2CDE25AF6A56113F4E
:104A900093BDBE166CC1663F3E5555555555C53F35
:104AA00059F3F8C21F6EA5010000F03F0000F0BFEF
:104AB000FFFF8F40FFFF0F00FFCB904000346F3FA0
:104AC0006F4B9E427FF76BAC6E4B9E423FF7F6AB4F
:104AD00000226C4B00F0BCFC5BA3D3E9002306462C
:104AE0000F4600F069FE5AA3D3E9002380468946A9
:104AF0003046394600F060FE002282468B46624B0B
:104B00003046394600F058FE02460B4652A1D1E924
:104B1000000100F09DFC32463B4600F04DFE02468F
:104B20000B460020594900F093FC3246CDE90201C2
:104B30003B463046394600F03FFE02460B46DDE973
:104B4000020100F039FE46A3D3E9002300F034FE51
:104B500002460B465046594600F07AFC02460B4688
:104B600006460F464046494600F074FC42464B4616
:104B7000002082468B4600F06BFC02460B46304616
:104B8000394600F065FC80468946DCE500220023BA
:104B9000CDE90823CDE90E233A4B00220027CDE9C9
:104BA000062346E44A463B460020364900F02EFFE5
:104BB0008346FFF72DBB2CA3D3E90023DDE90401D5
:104BC00000F0FAFD28A3D3E9002300F0F5FD8346A9
:104BD000FFF71EBBBEF1000F7FF457ABC3F1140308
:104BE00048FA03F202FA03F3984524D07446FFF71B
:104BF00029BB264B9F423FF708AEDDE902349A46B7
:104C00009B462FE602460B46FFF7C1BB18A3D3E92C
:104C10000023CDE9082318A3D3E90023CDE90E230F
:104C20001B4B00224FF48027CDE9062301E45A46AE
:104C300000F08EF9C6E602F00102C2F10204FFF7AD
:104C400001BB00BFAFF30080000000604715F73FD5
:104C500044DF5DF80BAE543E555555555555D53F7F
:104C6000FE822B654715F73F9C7500883CE4377E34
:104C70000000004003B8E23F06D0CF43EBFD4C3EBE
:104C8000FEFFEF3F0000F03F0000D03F0000E03F9C
:104C90000000F83F2DE9F8435D4EB6460E407645DC
:104CA0000C46054600F0958000290B46024673DD50
:104CB0000F157ED0A7F2FF37C3F31303F80743F4B1
:104CC000801364D403EBD27100260B447F10520092
:104CD000B64616204FF400110EEB01049C424FEA39
:104CE000D2754FEA420203DC1B1B04EB010E0E449B
:104CF000013805EB43034FEA5101EDD184462024EE
:104D00004FF0004109E020D003EBD275013C4FEA9F
:104D100051012B444FEA420220D09E4501EB0C0585
:104D2000F1DA002D05EB010C09DBF0469542CEEBE4
:104D3000030300D9013B521B0844C646E4E7BCF11B
:104D4000000FF2DB0EF10108F0E7954217D8002DB5
:104D500005EB010C47DB98460023ECE7134310D129
:104D60004008731003F17F5303F50013F20703EBC0
:104D7000075948BF40F000404946BDE8F8837346F4
:104D8000C2E7411C33D000F001031844E8E75B00A0
:104D900003EBD273520095E721F000460643ECD0B6
:104DA00069BB0F46D30A153F5205002BFAD0DD022E
:104DB00020D4002100E001465B00DC0201F101008B
:104DC000F9D5C0F1200422FA04F423437F1A82406B
:104DD00070E702460B4600F0EFFC2A46234600F03F
:104DE00039FBBDE8F883BCF1000FABDAB3E701365D
:104DF0002046B6E720244FF0FF310020E3E70246CB
:104E00000B4600F025FB02460B4600F0FFFDB4E721
:104E10000000F07F21F00041704700BF41F00041E9
:104E200001F58010C00F7047002070470020014935
:104E3000704700BF0000F87FF0B5C1F30A5EAEF224
:104E4000FF36132E83B002460B460C464FEAD1754F
:104E500007462EDC002E49DB3B49314103EA0100C5
:104E600010432BD049080B4053EA02070CD04FF4F3
:104E70008023132E24EA010143FA06F444EA0104D4
:104E80000CBF4FF000470027304B03EBC505214610
:104E9000D5E90045384622462B4600F0DBFACDE93D
:104EA000000122462B46DDE9000100F0D1FA03B0F3
:104EB000F0BD332E06DDB6F5806F42D010461946A0
:104EC00003B0F0BDAEF2134E4FF0FF3121FA0EF1F8
:104ED0000842F3D049080842D6D04FF0804320EA78
:104EE000010143FA0EFE4EEA0107CDE721F0004131
:104EF0000143E3D0C3F31301144E41EA000CCCF19B
:104F0000000106EBC506D6E9006741EA0C0C5C0C13
:104F10004FEA1C3C0CF4002C64044CEA04013246B9
:104F20003B4600F097FACDE900013B463246DDE909
:104F3000000100F08DFA21F0004444EAC5731946DF
:104F4000BEE700F087FABBE7FFFF0F0088AD000067
:104F5000F8B5C1F30A5604460D460B46174606BB84
:104F600021F00043034325D00022354B00F024FC00
:104F7000344A974204460D460B462ADBC1F30A56D3
:104F8000363E3E4440F2FE72964228DC002E12DD90
:104F900023F0FF4323F4E00343EA06552046294665
:104FA000F8BD40F2FF729642EBD102460B4600F08C
:104FB00051FAF8BDF8BD16F1350F1DDA4CF2503339
:104FC0009F4222462B4625DC19A1D1E9000100F0C1
:104FD00033FA17A3D3E9002300F0EEFBF8BD224615
:104FE0002B4615A1D1E9000100F026FA12A3D3E95E
:104FF000002300F0E1FBF8BD23F0FF4323F4E003BE
:10500000363643EA06552046294600220E4B00F06C
:10501000D3FBF8BD08A1D1E9000100F00DFA06A309
:10502000D3E9002300F0C8FBF8BD00BFAFF3008058
:1050300059F3F8C21F6EA5019C7500883CE4377EC9
:1050400000005043B03CFFFF0000903CFFFFFFFF1B
:105050002DE9F04FB1F5801F85B006460F460B468F
:105060005ADA024621F00044224300F0F880002979
:10507000C0F27A810022D64B00F09EFB0B460F4611
:10508000D4498B4206466FF035024ADCC3F3130560
:1050900005F5152404F6647404F4801E8EF07F5127
:1050A00081F440111B15A3F2FF3341EA05079C1858
:1050B00030460022C84B394604EB1E5400F0C8F9B4
:1050C000AB1CC3F31303022B82468B464FF0000246
:1050D00030DC002300F0D8FD002800F0C980002C4F
:1050E00000F04B81204600F001FBA5A3D3E900238B
:1050F00006460F4600F060FBA3A3D3E90023044655
:105100000D463046394600F057FB02460B46204616
:10511000294600F09FF90AE0AE498B424FF00002A9
:10512000B4DD32463B463046394600F093F905B0CF
:10513000BDE8F08F4FF0804300F08CF902460B463B
:105140005046594600F062FC064620460F4600F0E5
:10515000CDFA3246CDE900013B4630463946CDE92D
:10516000026700F029FB02460B468046894600F0A4
:1051700023FB87A3D3E9002306460F4600F01CFB60
:1051800085A3D3E9002300F065F932463B4600F0E1
:1051900013FB83A3D3E9002300F05CF932463B46BE
:1051A00000F00AFB80A3D3E9002300F053F9424644
:1051B0004B4600F001FB7EA3D3E9002380468946DD
:1051C0003046394600F0F8FA7BA3D3E9002300F01B
:1051D00041F932463B4600F0EFFA79A3D3E90023C8
:1051E00000F038F932463B4600F0E6FA0B4602463C
:1051F0004946404600F02EF9A5F5C223C5F5D7254E
:10520000A3F27A4351351D43002D8046894656DD71
:105210000022724B5046594600F0CEFA52465B4689
:1052200000F0CAFA06460F46002C68D132463B46CB
:105230004046494600F00EF9DDE9022300F0BCFAD1
:1052400002460B463046394600F002F902460B464C
:105250005046594600F0FCF805B0BDE8F08F00223A
:10526000002300205E4900F0D1FB05B0BDE8F08FBF
:1052700055A3D3E900235046594600F09DFA024653
:105280000B460020554900F0E3F8524606460F460B
:105290005B465046594600F08FFA02460B463046B0
:1052A000394600F089FA06460F46002C40F09A80F5
:1052B00002460B465046594600F0CAF837E7002C24
:1052C00000F0A4802EA3D3E90023DDE9000100F063
:1052D00073FA42464B4604460D465046594600F086
:1052E000B7F8DDE9022300F067FA27A3D3E900232A
:1052F00006460F46DDE9000100F05EFA21E020A33A
:10530000D3E90023DDE9000100F056FA32463B46BE
:1053100004460D464046494600F09CF8DDE902236C
:1053200000F04AFA18A3D3E9002380468946DDE954
:10533000000100F041FA02460B464046494600F0A3
:1053400089F802460B463046394600F081F852464D
:105350005B4600F07DF802460B462046294600F0E9
:1053600077F805B0BDE8F08F02460B4600F070F804
:105370000022002300F04AFBD9E600200021D6E6F7
:105380000000E0FE422EE63F763C7935EF39EA3DFB
:1053900044523EDF12F1C23FDE03CB966446C73F64
:1053A000599322942449D23F935555555555E53F7D
:1053B0009FC678D0099AC33FAF788E1DC571CC3F88
:1053C00004FA97999999D93F555555555555D53F53
:1053D00000005043FFFFEF7F0000F03F0000E03F80
:1053E000000050C3204600F081F90FA3D3E9002349
:1053F0008046894600F0E0F90DA3D3E90023044676
:105400000D464046494600F0D7F99AE702460B465A
:105410005046594600F01CF8DDE9022300F0CCF9B3
:1054200014E700BFAFF300800000E0FE422EE63F2D
:10543000763C7935EF39EA3D03F0004321F0004234
:1054400042EA0301704700BF81F0004102E000BF63
:1054500083F0004330B54FEA41044FEA430594EA34
:10546000050F08BF90EA020F1FBF54EA000C55EA6F
:10547000020C7FEA645C7FEA655C00F0E2804FEA40
:105480005454D4EB5555B8BF6D420CDD2C4480EA22
:10549000020281EA030382EA000083EA010180EA52
:1054A000020281EA0303362D88BF30BD11F0004FA0
:1054B0004FEA01314FF4801C4CEA113102D04042D6
:1054C00061EB410113F0004F4FEA03334CEA133311
:1054D00002D0524263EB430394EA050F00F0A78029
:1054E000A4F10104D5F1200E0DDB02FA0EFC22FA24
:1054F00005F2801841F1000103FA0EF2801843FA18
:1055000005F359410EE0A5F120050EF1200E012A08
:1055100003FA0EFC28BF4CF0020C43FA05F3C01846
:1055200051EBE37101F0004507D54FF0000EDCF1BF
:10553000000C7EEB00006EEB0101B1F5801F1BD368
:10554000B1F5001F0CD349085FEA30004FEA3C0C6C
:1055500004F101044FEA445212F5800F80F09A8062
:10556000BCF1004F08BF5FEA500C50F1000041EB66
:10557000045141EA050130BD5FEA4C0C404141EB6A
:10558000010111F4801FA4F10104E9D191F0000F91
:1055900004BF01460020B1FA81F308BF2033A3F114
:1055A0000B03B3F120020CDA0C3208DD02F1140C0B
:1055B000C2F10C0201FA0CF021FA02F10CE002F146
:1055C0001402D8BFC2F1200C01FA02F120FA0CFC3F
:1055D000DCBF41EA0C019040E41AA2BF01EB045188
:1055E000294330BD6FEA04041F3C1CDA0C340EDC86
:1055F00004F11404C4F1200220FA04F001FA02F3C9
:1056000040EA030021FA04F345EA030130BDC4F186
:105610000C04C4F1200220FA02F001FA04F340EA7B
:105620000300294630BD21FA04F0294630BD94F02C
:10563000000F83F4801306BF81F480110134013D13
:105640004EE77FEA645C18BF7FEA655C29D094EA84
:10565000050F08BF90EA020F05D054EA000C04BF02
:105660001946104630BD91EA030F1EBF00210020ED
:1056700030BD5FEA545C05D14000494128BF41F08C
:10568000004130BD14F580043CBF01F5801130BDF0
:1056900001F0004545F0FE4141F470014FF000007B
:1056A00030BD7FEA645C1ABF194610467FEA655C2C
:1056B0001CBF0B46024650EA013406BF52EA0335CE
:1056C00091EA030F41F4002130BD00BF90F0000FBC
:1056D00004BF0021704730B54FF4806404F13204F8
:1056E0004FF000054FF0000150E700BF90F0000FB1
:1056F00004BF0021704730B54FF4806404F13204D8
:1057000010F0004548BF40424FF000013EE700BFA7
:1057100042004FEAE2014FEA31014FEA02701FBF37
:1057200012F07F4393F07F4F81F06051704792F009
:10573000000F14BF93F07F4F704730B54FF4607483
:1057400001F0004521F0004120E700BF50EA0102CE
:1057500008BF704730B54FF000050AE050EA01027B
:1057600008BF704730B511F0004502D5404261EBEB
:1057700041014FF4806404F132045FEA915C3FF42C
:10578000DCAE4FF003025FEADC0C18BF03325FEAC5
:10579000DC0C18BF033202EBDC02C2F1200300FA7A
:1057A00003FC20FA02F001FA03FE40EA0E0021FA9F
:1057B00002F11444C1E600BF70B54FF0FF0C4CF489
:1057C000E06C1CEA11541DBF1CEA135594EA0C0F3F
:1057D00095EA0C0F00F0DEF82C4481EA030621EA7A
:1057E0004C5123EA4C5350EA013518BF52EA0335B5
:1057F00041F4801143F4801338D0A0FB02CE4FF067
:105800000005E1FB02E506F00042E0FB03E54FF096
:105810000006E1FB03569CF0000F18BF4EF0010E8E
:10582000A4F1FF04B6F5007F64F5407404D25FEA8A
:105830004E0E6D4146EB060642EAC62141EA55513D
:105840004FEAC52040EA5E504FEACE2EB4F1FD0C7F
:1058500088BFBCF5E06F1ED8BEF1004F08BF5FEAFD
:10586000500E50F1000041EB045170BD06F00046AF
:1058700046EA010140EA020081EA0301B4EB5C045C
:10588000C2BFD4EB0C0541EA045170BD41F4801154
:105890004FF0000E013C00F3AB8014F1360FDEBF79
:1058A000002001F0004170BDC4F10004203C35DA55
:1058B0000C341BDC04F11404C4F1200500FA05F3D8
:1058C00020FA04F001FA05F240EA020001F0004279
:1058D00021F0004110EBD37021FA04F642EB0601EF
:1058E0005EEA430E08BF20EAD37070BDC4F10C0419
:1058F000C4F1200500FA04F320FA05F001FA04F2DD
:1059000040EA020001F0004110EBD37041F10001C8
:105910005EEA430E08BF20EAD37070BDC4F12005D3
:1059200000FA05F24EEA020E20FA04F301FA05F23B
:1059300043EA020321FA04F001F0004121FA04F2E3
:1059400020EA020000EBD3705EEA430E08BF20EAB3
:10595000D37070BD94F0000F0FD101F000464000ED
:1059600041EB010111F4801F08BF013CF7D041EA6F
:10597000060195F0000F18BF704703F00046520073
:1059800043EB030313F4801F08BF013DF7D043EA44
:105990000603704794EA0C0F0CEA135518BF95EAFA
:1059A0000C0F0CD050EA410618BF52EA4306D1D181
:1059B00081EA030101F000414FF0000070BD50EAA0
:1059C000410606BF1046194652EA430619D094EA2A
:1059D0000C0F02D150EA013613D195EA0C0F05D114
:1059E00052EA03361CBF104619460AD181EA030168
:1059F00001F0004141F0FE4141F470014FF0000020
:105A000070BD41F0FE4141F4780170BD70B54FF0BA
:105A1000FF0C4CF4E06C1CEA11541DBF1CEA13553A
:105A200094EA0C0F95EA0C0F00F0A7F8A4EB05041C
:105A300081EA030E52EA03354FEA013100F0888013
:105A40004FEA03334FF0805545EA131343EA1263DC
:105A50004FEA022245EA111545EA10654FEA002691
:105A60000EF000419D4208BF964244F1FD0404F54A
:105A7000407402D25B084FEA3202B61A65EB0305A6
:105A80005B084FEA32024FF480104FF4002CB6EB63
:105A9000020E75EB030E22BFB61A754640EA0C00E3
:105AA0005B084FEA3202B6EB020E75EB030E22BF23
:105AB000B61A754640EA5C005B084FEA3202B6EB64
:105AC000020E75EB030E22BFB61A754640EA9C0023
:105AD0005B084FEA3202B6EB020E75EB030E22BFF3
