:1000000000800020BD010000D51200008D1200000C
:100010008D1200008D1200008D1200008D12000064
:100020008D1200008D1200008D120000D51200000C
:10003000D51200008D12000031240000352500008B
:10004000D5120000D5120000D5120000D512000014
:10005000D5120000D5120000D5120000D512000004
:10006000D5120000D5120000D5120000D5120000F4
:10007000D5120000D5120000D5120000D5120000E4
:10008000D5120000D5120000D5120000D5120000D4
:10009000D5120000D5120000D5120000D5120000C4
:1000A000D5120000D5120000D5120000D5120000B4
:1000B000D5120000D5120000D5120000D5120000A4
:1000C000D5120000D5120000D5120000D512000094
:1000D000D5120000D5120000D5120000D512000084
:1000E000D5120000D5120000D5120000D512000074
:1000F000D512000099300000D5120000C531000073
:10010000D5120000F1320000D5120000D512000017
:10011000D5120000D5120000D5120000D512000043
:10012000D5120000D5120000D5120000D512000033
:10013000D5120000D5120000D5120000D512000023
:10014000D5120000D5120000D5120000D512000013
:10015000D5120000D5120000D5120000D512000003
:10016000D5120000FD160000D5120000D5120000C7
:10017000D5120000D5120000D5120000D5120000E3
:10018000D5120000D5120000D5120000D5120000D3
:10019000D5120000D5120000D5120000D5120000C3
:1001A000D5120000D5120000D5120000D5120000B3
:1001B000D5120000D5120000D5120000564B4CF2AB
:1001C000205210B51A804DF628121A8000BF00BFC9
:1001D00001F084F8514B4FF010621A60504A9A6057
:1001E000504ADA60504A136813F4807304D14F49BF
:1001F0000B604FF4A85313604D4B1A78110703D5C9
:100200001A7842F008021A704A4B4B492A221A7097
:100210004A4A4B4B8B4204D252F8040F43F8040B6A
:10022000F8E7484B484900228B4202D243F8042B9E
:10023000FAE74649464A002352F8230041F82300D2
:1002400001336F2BF8D1434B434A802103F8011B44
:100250009342FBD1414B3D4A1A60414B8A221A70AE
:10026000A3F5805324225A70A0221A709A7992071B
:10027000FCD59A79D406FCD43A4A937903F00C035E
:10028000082B384BF9D103221A7140225A719A79FE
:100290009006FCD5334A9179324B4906FBD5324A58
:1002A000324911600221516020221A709A7902F0BD
:1002B0000C020C2AFAD12E4B2E4A1A602E4B2F4AD2
:1002C0001A6000225A60072243F8042C2C4AC3F813
:1002D0000C2D62B601F0EAF8144B1B68DA0705D55D
:1002E000284801F077F8284B284A1A60284B1B78D9
:1002F0005B0609D5244C254B22689A4204D121483B
:1003000001F068F80023236005F06AFC00F0ECFFC0
:1003100002F018F9FEE700BF0E20054030800440CF
:10032000823F04000100002B10D0034014D0034092
:1003300002D0074000E007401092FF1F14A8000001
:100340002087FF1F1092FF1F3496FF1F0082FF1FA0
:100350000000000000E400E05FE400E008ED00E0E1
:100360000050064000400640448004400000030165
:1003700004800440C010050014E000E0FF76010096
:100380000000202077E7BF031CE00340A5C3945A78
:1003900000F00740FFFFFFFFFFFFFFFFFFFFFFFF32
:1003A000FFFFFFFFFFFFFFFFFFFFFFFFFFFFFFFF5D
:1003B000FFFFFFFFFFFFFFFFFFFFFFFFFFFFFFFF4D
:1003C000FFFFFFFFFFFFFFFFFFFFFFFFFFFFFFFF3D
:1003D000FFFFFFFFFFFFFFFFFFFFFFFFFFFFFFFF2D
:1003E000FFFFFFFFFFFFFFFFFFFFFFFFFFFFFFFF1D
:1003F000FFFFFFFFFFFFFFFFFFFFFFFFFFFFFFFF0D
:10040000FFFFFFFFFFFFFFFFFFFFFFFFDEF9FFFF23
:1004100010B5054C237833B9044B13B10448AFF33E
:1004200000800123237010BD1092FF1F0000000008
:1004300018A80000084B10B51BB108490848AFF3D5
:1004400000800848036803B910BD074B002BFBD0A0
:10045000BDE81040184700BF000000001492FF1FC5
:1004600018A800001092FF1F0000000010B50446FD
:1004700002F0FCF8204610BD10B50446203002F012
:10048000F5F804F1100002F0F1F8204602F0EEF861
:10049000204610BD10B50446044800F021FB02229E
:1004A0000146204602F068F9204610BD8092FF1FE9
:1004B00010B5044B04461968022202F05DF920468B
:1004C00010BD00BFB092FF1F30B5044689B008468A
:1004D00002F094FA114D002319460246284600F016
:1004E0001BFC0F4904A802F001F9284600F0F8FAB5
:1004F00002220146684602F03FF9694604A802F06C
:10050000A5F90146204602F005F9684602F0AEF86A
:1005100004A802F0ABF8204609B030BD8092FF1F5E
:1005200048A1000010B504460B4800F0E3FA68B19A
:10053000012805D00949204602F0D8F8204610BD10
:100540000749204602F0E6F8204610BD054920463E
:1005500002F0E0F8204610BD8092FF1F50A100007D
:100560006092FF1FD492FF1F30B589B00D4604463C
:100570000021684602F0BAF828461B4902F096F9B5
:10058000E0B11949684602F011F90021174800F05E
:10059000F5FB04A8164902F0A9F8694604A802F080
:1005A00055F90146204602F0B5F804A802F05EF8BD
:1005B000684602F05BF8204609B030BD28460D4978
:1005C00002F074F928B10B49684602F0EFF80121F6
:1005D000DCE70949204602F089F8684602F046F84F
:1005E000204609B030BD00BFD492FF1F8092FF1F8C
:1005F00048A100006092FF1F6CA100002DE9F043AC
:100600004B4D4C4E8E4607460FCD34460FC495E8F1
:100610000F0087B084E80F0072463046042100F0D6
:1006200049FC00287BD0444AB36912680192434ACE
:10063000019911603F4C002B62D0012B58D1A0686A
:100640003F4D04F029FC02F007FF804620688946F0
:1006500004F022FC02F000FF02460B4640464946E9
:1006600004F0BAFA04F03CFF0646206905F042F8AF
:100670000146304605F046F92860A06804F00CFCFD
:1006800002F0EAFE80462068894604F005FC02F08C
:10069000E3FE02460B464046494604F09DFA80467A
:1006A0002069894605F026F804F0F6FB0B46024661
:1006B0004946404604F06EFD04F012FF0A2201464E
:1006C00002A802F059F802A91E4801F045FF1D4892
:1006D00001F068FF02A801F0C9FF1B4B1B49012272
:1006E00038461A7002F002F8384607B0BDE8F083C9
:1006F0001749384601F0FAFF384607B0BDE8F083E5
:100700002168A0680E4D04F03FFF0646206904F002
:10071000F1FF0146304605F0F5F82860DDE70621D7
:100720000C4801F01FFD074801F03CFF7BE700BFCC
:1007300028A10000B092FF1F3C93FF1FD092FF1F23
:100740002893FF1FAC87FF1F2C92FF1F14A20000ED
:100750008CA1000084A100002DE9F041244CDFF8B9
:10076000A480244E244F254D86B0204600F03CFA4C
:100770004146684601F0CEFFD8F81020D8F8143072
:10078000049269463046059300F0EEFB684601F09E
:100790006DFF3946684601F0BDFF3A697B690492F6
:1007A00069463046059300F0DFFB684601F05EFFC6
:1007B0002946684601F0AEFF2A696B6904926946D2
:1007C0003046059300F0D0FB684601F04FFF002350
:1007D00019460B4A204600F09FFA2046002100F0FF
:1007E0001BFA2046002100F0C9FA06B0BDE8F081EE
:1007F0008092FF1FE492FF1F5487FF1F2487FF1F73
:1008000000007A443C87FF1FD0B5264882B000F034
:10081000C5FB25490B7893B1244B254A1B680193EE
:10082000244C1068019B2269181A904209DD0023AC
:10083000A2680B7000232048194600F06DFA02B040
:10084000D0BDA36913B3012B1ED104F053FF1B4B82
:10085000196804F0A3FF04F01FFB064620680F464A
:1008600004F01AFB02F0F8FD02460B46304639460A
:1008700004F0B4F902460B460020114902F06CFE68
:1008800004F02EFE0246D5E70E4AD3E704F032FF0D
:100890000A4B196804F082FF216804F077FE0246D3
:1008A000C8E700BFE492FF1F2C92FF1F3C93FF1F7D
:1008B000D092FF1FB092FF1F8092FF1F2893FF1F4F
:1008C0000000244000007A442DE9F04784B04FF046
:1008D000FF333C4E0293019300933B4C3B493C4811
:1008E000DFF820813B4D3C4FDFF81CA1DFF81C9165
:1008F0000A2200F093F83046052100F071FA2246F2
:1009000030463649364E05F045F94046354901F046
:10091000EDFE22462946404605F03CF9384632496C
:10092000DFF8EC8001F0E2FE22462946384605F069
:1009300031F93946504601F0EDFE22463146504627
:1009400005F028F940462949294FDFF8C8A001F0F1
:10095000CDFE22462946404605F01CF94846254969
:1009600001F0C4FE22462946484605F013F93846F0
:100970002149DFF8A49001F0B9FE22462946384605
:1009800005F008F91D4F4146504601F0C3FE2246CE
:100990003146504605F0FEF83846194901F0A6FEEA
:1009A00022462946384605F0F5F83946484601F012
:1009B000B1FE22463146484604B0BDE8F04705F096
:1009C000E9B800BFE492FF1F2087FF1F001B374CD0
:1009D0008092FF1F6D2600007092FF1F79040000B7
:1009E0006D040000A0A10000A8A10000B0A10000BB
:1009F0006092FF1FB8A10000C0A100003092FF1F4D
:100A0000CCA100005092FF1F5487FF1FD492FF1FFC
:100A10004092FF1F3C87FF1F2487FF1F2DE9F047EF
:100A200004464FF0FF3600252C4F41610846E7622F
:100A30006660A660E66026614FF04651A583256298
:100A40006562258517469A4604F0A8FE089EA061B7
:100A50000121F8B22760DDF82490DDF8288000F04D
:100A6000D1FC2078012100F0C7FC731C666007D020
:100A7000F0B2012100F0C6FC2946207900F0BCFC50
:100A8000BAF1FF3FC4F808A008D05FFA8AF001214C
:100A900000F0B8FC0021207A00F0AEFCB9F1FF3F75
:100AA000C4F80C9008D05FFA89F0012100F0AAFC8C
:100AB0000021207B00F0A0FCB8F1FF3FC4F81080BB
:100AC00008D05FFA88F0012100F09CFC0021207C16
:100AD00000F092FC2046BDE8F08700BF0320033CF5
:100AE00010B50446406A04F001FEA16904F056FE08
:100AF00010BD00BF808BC0F340007047F8B5314C8B
:100B0000C26AE37A06460D46BBB172B6E37AD807ED
:100B1000194606D52C48E16807683940A161016093
:100B200019469B0706D5294823690768E17A3B40A7
:100B3000E36103604F073DD462B62368D9689142F0
:100B400007D0234818602349DA6042F080401861DA
:100B500019600021307800F04FFC23684FF000410D
:100B60002A0AD9625A63DA6A002AFCDAEDB24FF037
:100B70000042996BDA625D63DA6A002AFCDA0121CD
:100B800030789B6B00F038FCE37A0E491A4683B14B
:100B9000D80703D5104A896911601A46990703D509
:100BA0000E4BE169E27A1960530702D50C4B226AB9
:100BB0001A60F8BD0B4963690868034023620B6043
:100BC000BAE700BF6C87FF1F80E100E084E100E02E
:100BD00001401F0000001F8000E100E004E100E090
:100BE00008E100E088E100E010B50446094800F0A3
:100BF0000FFBA18B2046FFF781FF20464FF44041B9
:100C0000FFF77CFF20464FF46041BDE81040FFF73E
:100C100075BF00BF6C87FF1F4268036AB2F1FF3FD8
:100C20000CBF002303F0010310B40C462BB1D0B26B
:100C300099B1012110BC00F0DFBB818B34B921F4E4
:100C4000006189B2818310BCFFF758BF41F4006195
:100C500089B2818310BCFFF751BF10BC00F0CCBB40
:100C6000C268036AB2F1FF3F0CBF002303F0010327
:100C700010B40C462BB1D0B299B1012110BC00F0D8
:100C8000BBBB818B34B921F4807189B2818310BCE4
:100C9000FFF734BF41F4807189B2818310BCFFF744
:100CA0002DBF10BC00F0A8BB0269036AB2F1FF3F80
:100CB0000CBF002303F0010310B40C462BB1D0B2DB
:100CC00099B1012110BC00F097BB818B34B901F0C0
:100CD000800189B2818310BCFFF710BF41F0800111
:100CE00089B2818310BCFFF709BF10BC00F084BB40
:100CF00010B504460021FFF7D7FFA18B21F040017A
:100D000089B2A1832046FFF7F9FE20460021BDE805
:100D10001040FFF7A5BF00BF70B504460E46104651
:100D2000A1691D4604F0EEFD04F014FFA18B20F034
:100D300070404319012E41F40051C3F30D060CBF5E
:100D400046F4004646F4804663622046C3F38D3382
:100D500089B20CBF43F4004543F48045FFF7CEFE53
:100D600031462046FFF7CAFE29462046FFF7C6FE59
:100D70002046A18BFFF7C2FE606A70BD38B50446FD
:100D80000D46FFF7B5FFA18B55B1012D03D141F001
:100D9000020189B2A1832046BDE83840FFF7AEBE0C
:100DA00021F0020189B2A1832046BDE83840FFF757
:100DB000A5BE00BF38B5074D07490446284601F0D7
:100DC000CBFB284601F0EEFB2046044901F08EFCE7
:100DD000204638BDAC87FF1F2C93FF1F14A20000D4
:100DE0002DE9F0410D4686B000F110082C49064669
:100DF00001F07CFC2B49404601F078FC2A4906F1C1
:100E0000200001F073FCB5F1AA6F98BF05EB450017
:100E10004FF005034FF000014FF4E13298BFC000DE
:100E2000336435637163F26394BF08304FF0FF3071
:100E300001F090FB182380E8280000F108076C1EE1
:100E40004DB13D462846013C002101F04FFC631C9A
:100E500005F11805F6D10023144AB76341466846E8
:100E600001930093029303930492059201F052FCC4
:100E7000B46B6946204601F099FC736B059A04999E
:100E8000216101336261316C7363094801F0BAFB7F
:100E9000684601F0EBFB304606B0BDE8F08100BFCC
:100EA000D4A10000E4A10000E8A10000B50D0000FD
:100EB000AC87FF1F2DE9F04385B081461646684692
:100EC0000A22884601F044FC6946264801F044FBAA
:100ED000244801F067FB684601F0C8FBB8F1000F39
:100EE0003BDD4F46002512E0012B03D101F080FDD0
:100EF00049F835000021621C304601F02FFD013514
:100F0000684601F0B3FBA84507F1080725D02C215E
:100F1000304601F0EFFC421C04460ED023466846E2
:100F20000022314601F0F6FC3B796846002BDBD10C
:100F300001F064FD49F83500DCE73B21304601F063
:100F4000D9FC431C0446E9D109EBC5056879B0FA20
:100F500080F0400905B0BDE8F083012005B0BDE890
:100F6000F08300BFAC87FF1F70B5436B046BA342D7
:100F700001D3002070BD866B03EB430306EBC30671
:100F8000044630460D4601F011FC636B29696A691D
:100F90007261013331610120636370BDF0B58DB0C2
:100FA00078223B490646684601F02EFB68463B2105
:100FB00001F0A0FC421C64D007463B460022694673
:100FC00004A801F0A7FC736B002B46D00024254633
:100FD00004E0736BAB4204F118043ED9B16B04A872
:100FE000214401F063FC01350028F2D0B36B2344A7
:100FF00000219A6804A801F0B1FC04A801F0CAFC21
:101000003F2104A801F076FCB36B1C44013014BFEF
:101010006369236904A908A8984708A91C4801F036
:101020009BFA1B4801F0BEFA08A801F01FFB7A1CCE
:101030000021684601F092FC3B21684601F05AFC11
:10104000074604A801F012FB7B1CB6D1684601F0EC
:101050000DFB012420460DB0F0BD06F1200108A8CB
:1010600001F058FB0B4908A801F0F8FB01460848BD
:1010700001F072FA064801F095FA08A801F0F6FAB4
:10108000D5E7684601F0F2FA002420460DB0F0BD25
:10109000AC87FF1FF0A1000010B5064C06492046A2
:1010A00001F024FB2046054A0549BDE8104004F044
:1010B00071BD00BF2C93FF1F08A200002087FF1FF7
:1010C0006D26000010B4047F4160022CC26002D083
:1010D00010BC01F04BB9836810BC1847F0B4464B04
:1010E000464A186BDC6A01791170454922790A7009
:1010F0009A6A00790870002A46D05968C9688A42FD
:101100003ED82168CC8B240402F1FF3065D4C0F3B3
:101110000E00C883C88B80B2C882196B0968C88B5F
:10112000000452D4C2F30E00C883C88B002480B2DE
:1011300012F1FF32C88218BF01229C62D96A2E4880
:1011400009680D6800F12404A54236D00068C4681F
:1011500014F0804F0C680D6815BF24882478023580
:10116000013544F000440D604463196B254B097947
:101170001970214912B1CA6A12791A70F0BC70470D
:10118000521A9A620122D9E7586B196805681E4CF9
:101190000A63CC62CC682D681C4E24F0804403277F
:1011A000B542CC6083F825701FD1037F4260022BCB
:1011B000C2601ED0F0BC01F0D9B8016890F82400DC
:1011C000CC6840F000404863CFE7CC8BC2F3080006
:1011D00004F47E442043C883A7E7CC8BC0F3080007
:1011E00004F47E442043C88394E72B461146F0BCA8
:1011F00018478368F0BC18476C87FF1F1F800040AA
:101200001C8000401B80004000000FFFC510000044
:1012100090E80C00F0B41C6859682568164F174E0A
:1012200029432160164D17491760D660156111607A
:10123000417A154A5C180A3194F8244053F8215039
:1012400002EBC40149680D60017A5C1803EB81016F
:10125000247ECD6902EBC40149680D60817A58187B
:1012600003EB810390F83000596B02EBC002F0BC35
:1012700053681960704700BF01401F00011000381B
:101280000110007800001F8090A2000008B5104CEB
:1012900008E0236859050DD423681A050FD4236884
:1012A000DB0411D423685803F3D500F027FA236830
:1012B0005905F1D501F0F0FE23681A05EFD501F0CC
:1012C00081FF2368DB04EDD502F012F8EAE700BFE6
:1012D0003480044008B5FFF7D9FF00BF014B10224E
:1012E0001A80704700200540704700BF094908B5C3
:1012F0000B6830B16A461844A2F58052904202D27F
:101300000860184608BD04F065FC0C2303604FF02C
:10131000FF3008BDA487FF1F10B40F4B53F83020D7
:1013200092F880422CB1012369B182F8803010BC60
:10133000704703EBC0035B681A6841B922F00202F0
:101340001A6010BC704782F8003110BC704742F040
:1013500003021A6010BC704790A200001C4A02EB06
:10136000C00301295B6811D004291BD052F830005A
:10137000002280F8802229B1022920D0032922D01E
:101380001A6070474FF480721A60704752F830004C
:101390004FF4A27280F880121A601A6822F02002BC
:1013A0001A60704752F830104FF4A272012081F891
:1013B00080021A601A6842F020021A60704740F2F8
:1013C00003121A6070474FF481721A60704700BFB1
:1013D00090A2000030B4054B054D064C00221021B0
:1013E0001A602A602060196030BC704714D0034036
:1013F00004D0034000D00340212801D8FFF78CBF60
:10140000704700BF212801D8FFF7A8BF704700BF71
:101410002DE9F843054672B6204F214B214A1B683F
:101420003C68126862B6520102D5322B88BF013483
:1014300095B3C3F5BB331C4EDFF86490DFF86480CE
:10144000FF334FF47A72A6FB031302FB04F404EBA0
:10145000931472B6D9F800103A68D8F800E062B672
:10146000C1F5BB33FF33A6FB03031EF0806FC4EB53
:1014700093134FF47A7002D0322988BF013200FBF7
:101480000233B3F57A7F04D3013D05D004F57A74B5
:10149000DFE701F0BBFADCE7BDE8F8833C93FF1F10
:1014A00018E000E004ED00E0ABAAAAAAF8B52D4BC5
:1014B0002D49DFF8D0E0DFF8D0C02C4E2C4D2D4C5C
:1014C0002D4A2E4F4FF4000018604FF080701860C6
:1014D0004FF0007018604FF0806018604FF00060AF
:1014E00018600020086028234BF6FF71CCF800102C
:1014F000CEF80030336013602B6023603B60B36232
:101500009362092245F8242CC4F8D80F05F57F65AD
:10151000C7F8D41F07F5FF2707F5FA67C6F8F83FA5
:101520002B6006F5FF26C4F8D42F05F5FD2504F53C
:10153000FF24386006F2F4761148316005F5FF6546
:1015400004F5FD642B602360026001F047FB32204C
:10155000FFF75EFF00F0FEFC4FF4AF70BDE8F8400F
:10156000FFF756BF08E100E0048003401480034009
:10157000248003402C8003401C80034034800340BF
:1015800000800B400C80034008800340431E032B67
:1015900014D872B60A4951F8230068B170B4094CE6
:1015A000058834F81320466841F82360521B24F85C
:1015B000132062B670BC704762B670470020704757
:1015C0009893FF1F1C96FF1F013803280BD872B693
:1015D000074B53F8203043B100205B680130002BEB
:1015E000FBD162B67047002070471846F9E700BF8C
:1015F000EC93FF1FF0B472B61A491B4E012311F889
:10160000014B194F9A00240742F0010505D556F801
:10161000324064B156F83520BAB10133052BEED112
:1016200062B6124B00221A70F0BC00F00FBD0F4CD6
:101630000F4D217847F8325007EB431308304A1E0C
:101640005860227062B6F0BC70470849094B0A78AE
:1016500047F8353007EBC5030830013A58600A7087
:1016600062B6F0E7D0A300000080FF1F1594FF1FB3
:1016700088004000C8004000431E032B1DD81B4AB1
:10168000400140F0100030B4104472B6184CE25CD7
:10169000032A1BD8DFE802F00212151703220D8877
:1016A000E25410F0080F14BFC823882343EA05430F
:1016B00008310360416062B630BC704708300222D6
:1016C000EDE70522EBE708300422E8E7094A52F883
:1016D000230038B1084A52F82300416042F8231031
:1016E00062B6E9E742F82310034AF7E70080FF1FDC
:1016F0002494FF1FEC93FF1FFC93FF1F2DE9F04F75
:10170000DFF804A3DFF804B387B044E0A94F4FEA41
:10171000930807EBC809013ED9F8042003F0080339
:10172000F6B2A2F1080003F0FF04002B40F0FE80A7
:1017300057F838301B0C99B222F8081C002B00F027
:10174000EC809D4B22F8064C42F8044C53F82620BE
:10175000002A00F02B82994D55F826305860984C9D
:1017600045F8260034F81630194424F8161000F015
:101770004DFC002800F01382924A934B19F0080F99
:1017800000F1080018BF1346C9F8040047F83830C4
:1017900008238AF800309AF80040E4B260071AD5AE
:1017A0008A4B1B78A3B18A490A7802F0FF0322B161
:1017B000013BDBB20B7003B900BE86490A7802F028
:1017C000FF032AB1013BDBB20B70002B00F0BD819F
:1017D00004238AF8003004F0080303F0FF02002B12
:1017E00000F0C8809BF80030DBB21E098ED19C0847
:1017F000704F57F8342007EBC401C2F38302013A5B
:1018000049680C2A00F28580DFE802F07979838349
:101810008383838342838383070008686E4B6F4D05
:101820000193684B4A686E4E47F8343081B240F2FB
:101830008164694B6A60286000220120A1421A601D
:101840003A61BA61307000F2E380B1F5D06F80F098
:101850002782B1F5817F00F0E08100F2C381802909
:1018600000F03682822940F0DE81A9885D4B01F0CC
:101870007F01042900F2D8815B4C89000B4422705F
:1018800062701A78930740F122832070022023E2CD
:10189000514B01931A683AB3544B514E544918882E
:1018A00034780D784028864645F0020828BF4FF06E
:1018B000400E002C84F001043470CEEB00000CBF0D
:1018C0008824C82407EBC80680B285F0010544EAE5
:1018D0000E447260188047F8384072440D7000283A
:1018E00000F0B780019B1A603C4B1A88B2F5A06FDC
:1018F0000FD100219A7859703E4B1A7009E0374A8F
:10190000108842F22102904200F0A8802D4A47F848
:101910003420394A012313703AE72A4A2A4B19F036
:10192000080F18BF134647F8383031E700F08EFB38
:10193000324A334952F82630002B00F03B81586878
:101940008C5D42F8260003F10802C9F80420032C3C
:1019500005D8DFE804F02C02292602228A551A88CD
:1019600019F0080F0CBF8823C82343EA024347F845
:1019700038300DE7E00700F1EB80210600F1288107
:10198000A20706D51F4A204913780220DBB2137044
:101990000870E30602D51C4B10221A7007B0BDE890
:1019A000F08F04228A55DAE705228A55D7E7032209
:1019B0008A55D4E70080FF1F9893FF1F4493FF1FB1
:1019C0001C96FF1FC8004000880040002094FF1FA5
:1019D000A993FF1F2894FF1F4093FF1F0C94FF1F24
:1019E000A893FF1FC02007401894FF1F5493FF1FA8
:1019F0001494FF1F9820074094200740EC93FF1F8A
:101A00002494FF1F88200740802007409020074033
:101A100042F22104A14200F0948043D8B1F5086F4E
:101A200000F0A881B1F5106F40F0FD80B84AB94CC4
:101A3000A978117004F1800503E00834AC4200F08D
:101A40009E81236A1906F8D5606A083800F0FEFA0C
:101A5000F3E7BEF1400F18BF002243E7AE4ACD1DA9
:101A600011F8013B02F8013FA942F9D1AB4A1268D3
:101A7000862A00F01181AA49AA4E0A78307882F0AD
:101A80000105002842F002020D700CBF8821C82118
:101A900047F8321007EBC20280F0010000213070DD
:101AA000516033E742F22124A14240F0FE81DFF889
:101AB000BCC29D4B9D49AC78DCF800501D6081464E
:101AC0000C700020029080468446044694490D78AC
:101AD00045F0020E07EBCE03B9F1000F5C600CBFBE
:101AE0008824C82444EA080385F0010447F83E30FE
:101AF00032700C70DFF81CE28A4BDFF82482002879
:101B000040F09880BCF1400F1BD144F0020407EB79
:101B1000C403029FDFF8FCE15F60002A40F09F8071
:101B2000020442F0880207444EF8342086F8009000
:101B30000D703B46402804D100207D4A0199108059
:101B40000B607C4A01231370E3E600F0EBFB3FE6F9
:101B5000704B784872491A614FF0020E80F800E02D
:101B6000754F0A70754919609960754E754D764CC0
:101B70009A610D213970FF213170DFF8F4E129708D
:101B80002270724D724A8EF800109F27012406F8C9
:101B9000047C5D600470DA6007B0BDE8F08F6D4AC8
:101BA00047F83800137801331370F1E543F8260045
:101BB000694DD4E58B5D032B67D801A252F823F061
:101BC0009117000091170000151C00000F1C000069
:101BD00059495C4B80220D2008701A70A2077FF5CE
:101BE000D8AECFE640F20232914240F05681A98849
:101BF00001F07F01042916D86A88A2B94E4C8900E9
:101C00000C448146217841F00201217059E70123FB
:101C10008B55BDE500238B55BAE5A98801F07F01FE
:101C2000042940F24781444B0F221A70414A012394
:101C300013706EE640287FF668AF44F002040EEBA6
:101C4000C401029E4E60AAB1444A83F80090334614
:101C5000403888F8005040334EF834206DE70204D5
:101C6000029B86F8009042F0C8020D7003444EF8C3
:101C700034205FE783F80090029B304A88F80050D8
:101C8000403840334EF8342057E719F0080F0CBFA6
:101C9000022303238B557BE5314A0F211170EAE6BD
:101CA000304A5468002CBED06888B5F804E003E0E0
:101CB0000C325468002CB6D013888342F8D1538874
:101CC0007345F5D1000A03280CBF2078108903E082
:101CD000254C022022706270EA88824280F00C81DA
:101CE0000F490D78402A45F0020E944607EBCE00CE
:101CF00028BF4FF0400C04EB0C0344600293CCEB84
:101D000002004FEA0C484FF001090022C824E9E61E
:101D10002094FF1F0080FF1F2396FF1F2496FF1FA4
:101D20001494FF1FA893FF1F2C96FF1F3894FF1FCA
:101D30005493FF1F94200740C020074088004000B4
:101D40008820074080200740982007405893FF1FB5
:101D5000AC93FF1F1594FF1F4493FF1FC800400062
:101D6000A993FF1FD4A300001894FF1F3C93FF1FEB
:101D70008C200740684A694C12782270ACE76849A9
:101D8000684B694A02916949694C6A4D039405960A
:101D90004FF0000988461C4616460495206828B175
:101DA000456800F053F92846002DF9D1002323603F
:101DB000049B30681A46002342F8293028B1456850
:101DC00000F044F92846002DF9D100223260029A31
:101DD00098F800301146002241F8042B039A029132
:101DE000023B4FF0000122F81910032B07D8DFE85F
:101DF00003F0340234024FF0010388F8003009F197
:101E00000109B9F1040F04F1040406F1040608F114
:101E10000108C3D1484B059EDFF83091DFF83081CF
:101E200000211970012518F8013B09F8043B1A0735
:101E300018D4AC0044F0020244F00304002347F835
:101E4000323047F834303D4B994505F10105EAD170
:101E500096F8009089F0010233E64FF0000388F80D
:101E60000030CCE700F0D2F8AC0007EB451300F1EE
:101E70000802002837D05A60314B47F8343000F060
:101E8000C5F844F0010307EBC30200F1080100B3F9
:101E900051602C4A47F83320CCE7B1F5A06F7FF4AE
:101EA000C2AE00224FF001090BE642F2213291420C
:101EB000F7D0B8E66A88002A7FF4B5AE224C8900D4
:101EC0000C448146217821F002012170F9E50220BD
:101ED00002E7194B44F001021B7847F83200164A1A
:101EE00001331370A6E7144B134A1B78AC0001337F
:101EF00047F834001370C2E74028844628BF4FF0EB
:101F0000400C04EB0C03CCEB00004FEA0C480293AE
:101F100000224FF00109D9E52094FF1F1894FF1FFC
:101F2000FC93FF1F9893FF1FEC93FF1F2494FF1F48
:101F30001C96FF1F4493FF1F1594FF1FD4200740DA
:101F400088004000C8004000C0200740C42007406F
:101F5000D0A300002DE9F843204C01F035FA00220F
:101F600004F1880023461A605A60083383424FF018
:101F70000001F8D11A4A1B4F13681B4D1B481C4E19
:101F8000DFF87880DFF878C0DFF87890DFF878E065
:101F900043F480231360C4F307233B70C4F3074367
:101FA0002B70240EFF2302F528320470114D88F89F
:101FB000003011488CF80030D4323370012389F896
:101FC000003070268EF800104FF40074102107F8CE
:101FD000183C2E7004601170BDE8F8830080FF1F6C
:101FE000348004409C200740B0200740B4200740C4
:101FF0001020074049E400E008E100E080200740AD
:1020000088200740942007400021074072B60D4801
:102010000268B2FA82F30B2B10DC4FF00041D9407A
:1020200022EA0102026062B6074803EBC303DB0049
:10203000C2180021C15010465160704762B600209E
:10204000704700BFA887FF1FBC83FF1F0D4B0E4AC0
:10205000C31AA2FB03231B090B2B0CD80B4A1278C3
:1020600052B972B60A484FF00041026821FA03F3F0
:102070001A43026062B67047064A1278002AF0D00E
:10208000FFF7B8BABC83FF1F398EE3381594FF1FE2
:10209000A887FF1F2094FF1F38B50F4D286878B11F
:1020A00043880288C118013393420C7A02D24380DC
:1020B000204638BDFFF7CAFF002320462B6038BDFD
:1020C000064B1B782BB10320FFF760FA286000282D
:1020D000E6D14FF0FF3038BD3494FF1F2094FF1F2E
:1020E00010B5094C206818B143881844007A10BD17
:1020F000064B1B782BB10320FFF748FA206000281D
:10210000F2D14FF0FF3010BD3494FF1F2094FF1F19
:10211000044B054A1B6890881BB11A885B88D31A48
:10212000184470473494FF1F1C96FF1F0B4B1B78FD
:102130009BB110B50A4C206848B1FFF787FF002318
:1021400003202360FFF722FA30B1FFF77FFF03205F
:10215000FFF71CFA0028F8D110BD70472094FF1F2C
:102160003494FF1F2DE9F04FDFF8F89083B001227F
:1021700089F80020019169B3DFF8EC80364F019EA9
:102180008346D8F80000B0B3344D4488C4F1400110
:10219000B14228BF314604EB010E00221FFA8EFE29
:1021A0002A70761AA0F802E000F1080251B1013C51
:1021B000224459441BF8014B02F8014F8B45F9D1D9
:1021C000B0F802E0BEF13F0F0BD8254A052111708F
:1021D000002ED6D10198002389F8003003B0BDE865
:1021E000F08F4022028001460420FFF745FA0022CA
:1021F000C8F80020E9E73A782AB3184D4AF2F924E2
:102200004FF0010A07E0013C16D02A78A2B900F08D
:10221000FDFB3A78BAB10420FFF7D6F90728F2D8C7
:1022200089F800A0FFF7F2FEC8F800000028ACD142
:102230000C4B013C1870E8D101234FF0FF302B709C
:1022400003B0BDE8F08F00234FF0FF3089F8003075
:1022500003B0BDE8F08F00BF2094FF1F3094FF1F34
:102260002894FF1F2994FF1F2C94FF1F00B583B0F3
:1022700002AB012103F8010D1846FFF773FF03B00D
:102280005DF804FB38B50E4D0E4C28680123237011
:1022900028B1408800232370C0F1400038BD0A4BAC
:1022A0001B7813B90020207038BD0420FFF78CF98B
:1022B0000728F7D8FFF7AAFE28600028E9D1F1E740
:1022C0002C94FF1F2994FF1F2094FF1FF8B5114B7A
:1022D0001B788BB1104E114D346801272F7064B1FB
:1022E0000F4A638800271770214623800420FFF7D8
:1022F000C3F9376000232B70F8BDFFF787FE084B4A
:1023000028B1014604201C70FFF7B6F9F2E71F70F0
:10231000F0E700BF2094FF1F2C94FF1F2994FF1F9C
:102320002894FF1F38B50E4B1B7873B90D4C2168EC
:1023300061B103F0FF054B880B800420FFF79CF987
:10234000256038BD084B01221A7038BDFFF75EFECC
:102350000028F7D00146BDE838400420FFF78CB9CB
:102360002994FF1F2C94FF1F2894FF1F10B4EFF334
:10237000108272B6437F33B9017F012907D0032948
:102380000FD00123437702B962B610BC7047124CDC
:102390002168A1B1114943610B68836108605861EC
:1023A000EFE70F4C216881B10E4943610B688361EF
:1023B000086058610C4B4FF080511960E1E7074B02
:1023C0004161816120601860DBE7064B41618161FA
:1023D00020601860EEE700BF4C94FF1F4894FF1F79
:1023E0003C94FF1F4094FF1F04ED00E070B5EFF335
:1023F000108272B60C4C206880B10C4E00254369E7
:10240000236073B19D6102B962B6457783689847CE
:10241000EFF3108272B620680028F0D102B962B6DC
:1024200070BD3360EFE700BF3C94FF1F4094FF1F77
:10243000FFF7DCBF184A30B41468002C27D00368BB
:1024400021688B420ED2CB1A00218460C1602360C8
:10245000E06010600223037530BC704711688B4246
:10246000144608D3A2685B1A0360002AF6D1826082
:10247000C460A060EEE7D268C2608460E060C568B6
:10248000CB1A0222A8602360027530BC70478460BA
:10249000C4601060DEE700BF4494FF1FF8B5224E11
:1024A00034682CB32368002B3AD1204F1D4604E03A
:1024B0003468ECB12368002B32D1A36803B1DD602E
:1024C00020693360036825751B68BB4221D1037FF7
:1024D0004560022BC46020D0FFF748FF6368002BE3
:1024E000E6D023602046FFF7A5FF3468002CE1D139
:1024F000EFF3108372B60E4A00211068116003B921
:1025000062B628B18468FFF795FF20460028F9D10C
:10251000F8BD224600219847E0E783689847DDE749
:10252000013B2360E4E700BF4494FF1FC510000097
:102530005494FF1F024A136801331360FFF7AEBFC4
:102540003C93FF1F08B5FEF707F9FEF75DF900F0B1
:102550005DFAFAE703F0AABB2DE9F0438C688BB073
:10256000ECB10025064689462F462B46212201A9BB
:10257000484600F0A5F93268202C234628BF2023C6
:10258000D2F8048001A91A4630461D44E41AC04717
:102590000744002CE9D138460BB0BDE8F08327464C
:1025A000F9E700BF00B5064A036812885B6883B08C
:1025B00001A9ADF804200222984703B05DF804FB9E
:1025C000A0A3000070B50E4D82B02B680093009E52
:1025D000044608E000F01AFA2B680193019BA268F8
:1025E0009B1B934207D2236820465B6998470028CB
:1025F000F0DB02B070BD4FF0FF3002B070BD00BF25
:102600003C93FF1F81607047F8B50F4616460021C6
:10261000054600F06BF88EB1002404E00ED000F007
:1026200005F9A6420AD03846FFF7CCFF011E04F197
:102630000104C9B22846F1DA01233B732846F8BDEC
:10264000FFF774BDFFF74CBDFFF726BDFFF760BD78
:10265000FFF73CBEFFF716BE08461146FFF782BDE6
:102660000846FFF703BE00BF704700BF10B5044621
:10267000006803F023FB204610BD00BF38B5436857
:102680008B4201D3012038BD0D460446013100685C
:1026900003F0A0FE0028F6D0A36884E82100002BF8
:1026A000F0D10370EEE700BFF8B50446154632B925
:1026B000036803B11A700023A3602046F8BD0E46DC
:1026C0001146FFF7DBFF074648B9206810B103F059
:1026D000F5FA276000236360A3602046F8BDA5607B
:1026E0003146206804F0E8F8E7E700BF38B500237A
:1026F0000446036043608360037341B108460D469E
:1027000004F03EF9294602462046FFF7CDFF204659
:1027100038BD00BF0023884210B504460360436003
:102720008360037303D08A680968FFF7BDFF204602
:1027300010BD00BF38B5054608460C4604F020F928
:10274000214602462846BDE83840FFF7ADBF00BF2E
:1027500010B50446002386B023606360A360237332
:10276000084601A903F086FA01A92046FFF7E2FF17
:10277000204606B010BD00BF10B5044600238AB045
:10278000084623606360A3602373911C6B4600F0CE
:10279000BBFA30B101462046FFF7CCFF20460AB015
:1027A00010BDA06020460AB010BD00BF814203D01A
:1027B0008A680968FFF778BF704700BF2DE9F843C2
:1027C00003680F46BB420446816815460AD85A186A
:1027D000974207D2C3EB07094FF0010835B92046ED
:1027E000BDE8F8834FF00008002DF8D04E193146AF
:1027F0002046FFF743FF0028F1D0B8F1000F0ED0BC
:102800002368A0682A4603EB0901184400F04CF93C
:10281000236800229A55A6602046BDE8F883206808
:10282000A3683946184404F047F8F4E710B582B0BD
:1028300000238DF80410012201A904468DF805300B
:10284000FFF7BCFF204602B010BD00BF10B58A687C
:1028500009680446FFF7B2FF204610BD38B50546AB
:1028600041B108460C4604F08BF821460246284642
:10287000FFF7A4FF284638BD10B583688C681B1B82
:1028800093420CD3036873B1096851B110461844E0
:10289000224604F0E3F8B0FA80F0400910BD0020B1
:1028A00010BD084610BD184610BD00BF82688B6879
:1028B0009A4202D30022FFF7DFBF0020704700BF1B
:1028C000B2B1A9B138B584689C420ED9E41A013A74
:1028D0000D469442016828BF1446194422462846F2
:1028E00004F00CF900232B5538BD00230B7038BDC4
:1028F000704700BF83683BB110B50468204603F001
:1029000073FF20B1001B10BD4FF0FF3070474FF038
:10291000FF3010BD9A42F8B504460E4602D9114662
:102920001A460B460021A1602173B06821608242E3
:1029300061600ED8834228BF03461D4633685F5D41
:1029400059553368991806D02046FFF7F3FE3368CF
:102950005F552046F8BDA1605F55FAE738B583683A
:102960008B42044614D99AB1084611448B4238BFB1
:102970001A1A2568A3EB020238BF1946A26029443F
:10298000121A284403F070FC2268A3680021D15475
:10299000204638BD2DE9F04106680746EEB184684F
:1029A000DCB1354600E04546287805F1010803F022
:1029B0003FF90028F7D1013C344402E0A54205D894
:1029C000013C207803F034F90028F7D1621C521B37
:1029D000B542BA6004D80023B3543846BDE8F0814C
:1029E0003046294600F060F83E68BA68F3E700BF59
:1029F000006808B103F0D4B8704700BF006810B198
:102A0000002105F017B80020704700BF38B5224CF0
:102A1000237803B138BD01232370FFF779FB70BB26
:102A200000F02AFB40BB00F0BDFB10BB00F050FCE7
:102A3000E0B900232370EFF30583002BEAD1EFF315
:102A4000108172B6154B1868E0B1154C2278CAB9DE
:102A500045691D6001232370C5B1AA6101B962B641
:102A600000254577836898472570D3E700F0F2FC8E
:102A7000DFE700F0EDFCD9E700F0E8FCD3E7FFF773
:102A8000F3FDCDE70029C5D162B638BD054B1D6009
:102A90000029E5D1E3E700BF5894FF1F4C94FF1FC6
:102AA0005094FF1F4894FF1F844641EA000313F02F
:102AB00003036DD1403A41D351F8043B40F8043B45
:102AC00051F8043B40F8043B51F8043B40F8043B08
:102AD00051F8043B40F8043B51F8043B40F8043BF8
:102AE00051F8043B40F8043B51F8043B40F8043BE8
:102AF00051F8043B40F8043B51F8043B40F8043BD8
:102B000051F8043B40F8043B51F8043B40F8043BC7
:102B100051F8043B40F8043B51F8043B40F8043BB7
:102B200051F8043B40F8043B51F8043B40F8043BA7
:102B300051F8043B40F8043B403ABDD2303211D347
:102B400051F8043B40F8043B51F8043B40F8043B87
:102B500051F8043B40F8043B51F8043B40F8043B77
:102B6000103AEDD20C3205D351F8043B40F8043B47
:102B7000043AF9D2043208D0D2071CBF11F8013B45
:102B800000F8013B01D30B8803806046704700BF0B
:102B9000082A13D38B078DD010F003038AD0C3F11A
:102BA0000403D21ADB071CBF11F8013B00F8013BFC
:102BB00080D331F8023B20F8023B7BE7043AD9D3BB
:102BC000013A11F8013B00F8013BF9D20B78037090
:102BD0004B7843708B7883706046704730B42948D7
:102BE000294A2A4B2A4D6024E121047011701B7878
:102BF000284C082B30D00A2B2748284937D00C2BDB
:102C00000CBF35223D2212232A60236002600B6034
:102C1000234B24491B78244ABBB101230B6013606A
:102C2000224B23491B78234A012B26D9042B0FD989
:102C3000082B1ED9102B94BF862387230B601360AB
:102C40001D4B01221A7030BC70470B601360E7E720
:102C500084230B601360F3E700F58E200F490830E2
:102C6000012213232A60236002600B60D0E739221F
:102C7000F7E785230B601360E2E780230B601360A6
:102C8000DEE700BF0040074001400740BC87FF1F50
:102C900008B003400CB0034008B00B400CB00B4030
:102CA0005A94FF1F20B0034020B00B40BD87FF1F88
:102CB00024B0034024B00B405994FF1FF0B44D1EC4
:102CC0002E46002400E00134B0FBF2F302FB1300B7
:102CD000092800F130078ABF3730F8B2C0B206F8D1
:102CE000010F1846002BEED10A1953704CB1107821
:102CF00015F8016F28700133E01A834202F8016968
:102D0000F5DB0846F0BC70472DE9F04F0D4685B065
:102D100085EAE5790146824617461C46A9EBE57926
:102D200002F002FF002840F02F812AF000484046C0
:102D3000C74902F0F9FE002847D14046C44902F0D5
:102D4000D5FE0646002840D10021504602F0C4FEC0
:102D5000002814BF0420032048451DDB002DC0F2CD
:102D600074815046002102F0B7FE254648BB492138
:102D70004E22462321706270A3700334002E00F0AF
:102D80007681A019202304F8013BA042FBD1002347
:102D9000037005B0BDE8F08F002DC0EB0906E0DA46
:102DA000002E00F05281A519202304F8013BAC420B
:102DB000FBD15046002102F08FFE002800F0228156
:102DC00000262D232B706C1CD1E702AB01AA3946DB
:102DD000504602F0EFFEBB468046DDF80490002F1F
:102DE00057D0C9F10003BB4200F39480404603F082
:102DF000C7FD0646B145B8BF0136B9F1000F40F036
:102E000098800136DDF808E0BEF1000F53D001369E
:102E1000A81B002804EB060153DC23462D221A7060
:102E20000133B9F1000F63D137B11A46302002F8EF
:102E3000020B2E20587013468B4220D25F1C98F84C
:102E400000201A708F4208F1010819D0019A4FF042
:102E50002E0E0BE083F801E002338B4203F10107F1
:102E60000DD218F8010B18708F4209D0013A019267
:102E7000002AEFD03B468B4203F10107F1D31946FC
:102E8000002DC0F2A980002320460B7005B0BDE8DC
:102E9000F08FB9F1000FA4D190F800806D496E4A0F
:102EA000012301939946B8F1340F8CBF88469046B0
:102EB0004FF0FF3397E7A81B002804EB060140F30F
:102EC000D8800144224601384FF0200C02F801CB93
:102ED000C2F1010303442344002BF7DC20EAE07332
:102EE00001332344BEF1000F98D1B9F1000F9BD0FC
:102EF000A2DA002FA0D01A46302002F8020B2E27AB
:102F00005F70C9EB020302F8010B9342FBD1002270
:102F1000019291E7C7F100090126B1453046B8BFDB
:102F20000136B9F1000FDFF83081CDF804903FF49D
:102F300068AFBFF667AF002F3FF464AF09EB07033C
:102F4000984207F102067FF65DAF002F07DD50467D
:102F5000424902F023FCBBF1010B8246F7D102ABE0
:102F600003AA5946504602F025FEDDF80490039A64
:102F70007B1CC9EB02029A4208BF09F10109804695
:102F800008BFCDF804903DE70021504602F0A4FDB3
:102F9000002814BF0420032048453BDA002DC0EB75
:102FA00009063BDB4FF07E535046002163F31E00C1
:102FB00002F092FD2546002841D14E234122237084
:102FC000A37062700334002E51D0A019202304F89E
:102FD000013B8442FBD1DAE6A8194342002B6FEA99
:102FE00000007FF750AF0A46202502F8015BC2F1CE
:102FF000010303440B44002BF7DC20EAE0730133A8
:10300000194440E749214E22462329706A70AB706B
:10301000E81CBCE6002D16DB0026C3E79EB1A5190F
:10302000202304F8013BAC42FBD14FF07E535046C5
:10303000002163F31E0002F04FFD88B100262D230E
:103040002B706C1CB9E72546EFE72546B1E600BFBB
:10305000FFFF7F7FCCA300002CA4000000002041D4
:103060004E2341222B70AB706A70E81C8FE620461D
:103070008DE62346D5E600BF054A064B10781B783F
:10308000C0B2DBB2984238BF4030C01A704700BFB0
:103090006094FF1F6194FF1FF0B4384B1A7912F04F
:1030A000300F2CD072B6997D01F0FF0200293DD07F
:1030B00062B6334F334938780D78334E1C46C0B270
:1030C000EDB2431C402BE17928BF0023AB4202F153
:1030D000FF32C9B21CBFF154184612F0FF02F0D102
:1030E0002A4B1B68C2B23A704BB1A84236BFC5F139
:1030F0004005401B40192728C4BF01221A701F49F0
:10310000CA78D2B2150616D452060DD51B4B1B79C0
:103110005B0609D51E4B1F491B6800220A7003B1CC
:103120001A70164B3C22DA70F0BC70474022D979F5
:103130005A7462B6E3E70B791C06E5D5164B174EB9
:103140001C783378E4B2DBB29C420ED0144D01E01F
:10315000A3420AD00133402B28BF00230879E85C42
:10316000C0B2C871087D0728F2D9DBB203493370B9
:103170000B79180644BF7C23CB70C5E700A006403E
:103180006094FF1F6194FF1FA494FF1F5C94FF1FB6
:10319000E894FF1FE494FF1FEC94FF1FE594FF1FCA
:1031A0006494FF1F054A064B10781B78C0B2DBB24F
:1031B000984238BF4030C01A704700BF6095FF1F6B
:1031C000F594FF1FF0B4384B1A7912F0300F2CD061
:1031D00072B6997D01F0FF0200293DD062B6334FEF
:1031E000334938780D78334E1C46C0B2EDB2431CDB
:1031F000402BE17928BF0023AB4202F1FF32C9B274
:103200001CBFF154184612F0FF02F0D12A4B1B6884
:10321000C2B23A704BB1A84236BFC5F14005401B5F
:1032200040192728C4BF01221A701F49CA78D2B298
:10323000150616D452060DD51B4B1B795B0609D516
:103240001E4B1F491B6800220A7003B11A70164BEF
:103250003C22DA70F0BC70474022D9795A7462B6C9
:10326000E3E70B791C06E5D5164B174E1C7833782F
:10327000E4B2DBB29C420ED0144D01E0A3420AD06E
:103280000133282B28BF00230879E85CC0B2C8713D
:10329000087D0728F2D9DBB2034933700B79180691
:1032A00044BF7C23CB70C5E700B006406095FF1F8C
:1032B000F594FF1F2095FF1FF094FF1F6495FF1FDB
:1032C000F494FF1F6895FF1F6195FF1FF894FF1F7F
:1032D000054A064B10781B78C0B2DBB2984238BF63
:1032E0004030C01A704700BF7095FF1F7195FF1FD7
:1032F00030B42B4B1A7994061FD52A48DA79037813
:10330000294901333F2B0978C8BF00238B42D2B231
:1033100003D0264CD9B2E2540170254A116861B13C
:10332000244A1278D2B2934236BFC2F140029B1AAD
:103330009B18272BC4BF01230B70194AD378DBB22B
:10334000180611D45A060DD5154B1B795B0609D505
:10335000194B1A491B6800220A7003B11A70104BEE
:103360002C22DA7030BC704711790906EAD514496D
:1033700010480C780178C9B28C420DD04A1C272A1B
:1033800084BF00210A460F4D054C98BFD1B2AA5CFC
:10339000D2B2E2710170D5E76C21D170D2E700BFE3
:1033A00000C006407095FF1F7195FF1F9C95FF1F81
:1033B0006C95FF1FDD95FF1FE095FF1FDC95FF1F3C
:1033C000E495FF1F7495FF1F70B584B072B6194B5A
:1033D000194D1A48702241260F2480211A702E7030
:1033E0001A460470197013781B06FCD5144B186824
:1033F00062B6144B144C984298BF00EB800001A9B0
:1034000098BF40000A22FFF759FC01A9204600237B
:1034100011F8012B01333AB10A2B20F8022FF7D112
:103420001623237004B070BD5B00DBB2237004B0C0
:1034300070BD00BF000002400700024006000240CD
:10344000080002407F9698004C88FF1F704700BF1D
:10345000704700BF704700BF2DE9F0438BB00446B2
:103460000D4600F0F1F9374B93F90080B8F1FF3FBA
:1034700006460F460ED022462B462046294601F02E
:10348000F9FF814630B9002200232046294601F089
:10349000D3FF20B9304639460BB0BDE8F0832A4B44
:1034A000CDF82090CDE90245CDE9044501932046B1
:1034B0002946B8F1000F17D1244D4FF06044002287
:1034C0000023CDE9064501F0A3FF002832D00223F6
:1034D0000093684601F06CF898B1089BB3B9DDE938
:1034E00006010BB0BDE8F083194D00240022002333
:1034F000CDE9064501F08CFF68B1022398450093A1
:10350000E7D102F067FB22230360E6E702F062FBEB
:10351000089B0360E3E70123B8F1020F00930BD18E
:1035200002F058FB212303600A4801F043F8CDE97B
:103530000601D2E701230093684601F039F800281C
:10354000F2D1EDE76288FF1F28A40000FFFFEFC75C
:103550000000F0FF14A200002DE9F04FDFF8E49224
:103560008DB006460F4614461D4600F0FDF999F948
:103570000080B8F1FF3FCDE9000146D022462B463E
:103580002046294601F076FF834600283DD1324689
:103590003B463046394601F06DFF0022824600234B
:1035A000002840F084803046394601F031FF002881
:1035B00030D0002200232046294601F029FF83460F
:1035C000A8B10122984B029200210022CDF828A038
:1035D000CDE90467CDE90645CDE908120393B8F1BA
:1035E000000F53D0914900200DB0BDE8F08F204668
:1035F000294600F0D7FF40B100220023204629468B
:1036000001F010FF002840F0B780DDE900010DB0A7
:10361000BDE8F08FDDE9000100F0C4FF804600281E
:103620005DD04FF0000A4FF0000B52465B46DDE9DB
:10363000000101F0EDFE0028E7D03046394600F0E9
:10364000B1FF0028E1D02046294600F0ABFF00285A
:10365000DBD099F90030744A039204210022022B36
:10366000CDE90467CDE90645CDE908AB02910A92A0
:1036700003D002A800F09CFF70B902F0ABFA22233D
:10368000036009E000230024CDE9083402A800F01B
:103690008FFF002800F086800A9B1BB102F09AFA87
:1036A0000A9B0360DDE908010DB0BDE8F08F2046FC
:1036B000294601F0ADFE0028A7D05C495A4BCDF851
:1036C00028B001220020B8F1020FCDE90467CDE94E
:1036D000064502920393CDE90801D7D197E730461A
:1036E000394600F05FFF00289BD02046294600F0B5
:1036F00059FF002895D0DDE900231046194601F056
:10370000B9FE002873D1032399F900800293464B38
:103710000A900393CDE90467CDE906450022002312
:1037200030463946B8F1000F41D1414F4FF0604665
:10373000CDE9086701F076FE00289AD000223D4BC3
:103740002046294601F0FCFB04460D4600F038FFF8
:1037500002460B462046294601F05AFE002843D176
:10376000354B99F900804FF06042CDE90823B8F15C
:10377000020F7FF47EAF80E799F900302A4ACDF836
:1037800028B00121CDE90467CDE9064502910392F5
:10379000002B3FF477AF29490020022BCDE9080127
:1037A0007FF474AF02F016FA2123036074E7244F0C
:1037B0000026CDE9086701F035FE0028D7D00022A9
:1037C0001C4B2046294601F0BBFB04460D4600F089
:1037D000F7FE02460B462046294601F019FE18B9AD
:1037E000164B0022CDE9082399F90080BFE799F92B
:1037F00000900D4BCDF828800122CDE90467CDE97A
:10380000064502920393B9F1000F3FF43BAF00224B
:1038100000231046194601F0BDFCB9F1020FCDE9B5
:103820000801BFD032E700BF30A400000000F03F25
:10383000FFFFEF470000E03FFFFFEFC70000F0FF92
:103840000000F07F6288FF1FB1F5801F2DE9F8436B
:1038500004460D460B461ADA024621F00046324372
:1038600059D000295FDB00223B4B01F069FB0B467E
:103870000D463A498B4204466FF035020CDD224674
:103880002B462046294601F0A9F9BDE8F8833349C3
:103890008B424FF00002F2DC1815A0F2FF3010440A
:1038A0004FEAD0794844C3F3130801F0E3FAC9F5AD
:1038B0007F73033348EA035506460F4620462946E0
:1038C00000F08AFF1EA3D3E90023804689463046D4
:1038D000394601F035FB1CA3D3E9002304460D460D
:1038E0004046494601F02CFB02460B46204629463D
:1038F00001F074F916A3D3E9002304460D463046BF
:10390000394601F01DFB02460B462046294601F0D0
:1039100065F9BDE8F883002200230020104901F07A
:1039200039FCBDE8F88302460B4601F055F9002248
:10393000002301F02FFCBDE8F88300BFAFF3008047
:10394000362BF111F3FE593D0EE526157BCBDB3FFF
:1039500000609F501344D33F00005043FFFFEF7FB0
:10396000000050C3FFFFFFFF2DE9F04F23F0004898
:1039700058EA020993B03CD0714C21F00046A642AF
:1039800083460D460CDD06F1404606F5801656EAE4
:103990000B0038D16B498346584613B0BDE8F08F11
:1039A0009A4696462BD0A045EDDC654CA04578D0D4
:1039B000002D0F468146CDE9002376DB0024BEF1C1
:1039C000000F27D15E4B984500F08B805D4B9845EA
:1039D00052D0BAF1804F00F0C2835B4B9A4519D1A7
:1039E000002D17DB4846394613B0BDE8F04F00F014
:1039F00015BDCB465349584613B0BDE8F08F00289B
:103A0000C1D1B045D1DD514813B0BDE8F04F00F051
:103A1000D1BD00244846394600F0C0FDBBF1000F7F
:103A20001CD0ED0F013D54EA050370D0484B98457A
:103A300040F3948003F10473984540F30584454BAB
:103A40009E4270DDBAF1000F70DD3BA3D3E9002385
:103A50001046194601F074FA83469DE726B1394BAA
:103A600025F040429A42DCD1BAF1000FC0F2B08397
:103A7000002D08DB83468FE7BAF1000FC0F25684B1
:103A8000CB46394688E706F1404606F5801656EAE9
:103A9000040300F07B84012CECD1834601F100414A
:103AA0007AE7BEF1000F83D06DE72B4B98452CDCF5
:103AB000A3F15473984581DD4FEA2853A3F2FF33F5
:103AC000142B40F34B84C3F134032EFA03F202FAB1
:103AD00003F39E457FF472AF02F00102C2F10204CB
:103AE0006DE706F1404303F5801353EA0B0300F042
:103AF0003383184B9E4240F36083BAF1000F15DB0D
:103B0000DDE900349B46214646E7022457E74A4652
:103B100048463B46394601F05FF802460B4601F045
:103B200039FB834638E7BAF1000F8EDB4FF0000B0C
:103B3000594631E7AFF300809C7500883CE4377E3E
:103B40000000F07F0000F03F0000E03F14A2000002
:103B50000000E041FFFFEF3FFFFF3F43B6F5801F4E
:103B60004FF0000205DAD44B01F0EAF96FF03402AD
:103B70000E463315D14FC6F31306A3F2FF33134499
:103B800046F07F5ABE421A460D934AF4401A40F35B
:103B9000C183CB4B9E4240F3FD83134601330D930B
:103BA000C84B0022CDE9062300270026CDE908678F
:103BB000CDE90E67AAF5801A002702465346514602
:103BC000CDE90A23DDE9062301F006F8DDE9062345
:103BD00080468946DDE90A0101F000F802460B46FD
:103BE0000020B84901F0D6FA0A460146CDE9101284
:103BF000134649460246404601F0A2F94FEA6A03DD
:103C000043F000538C46834603F50023CDE904BC02
:103C1000DA468B46D9190023CDE902AB0293DDE9E0
:103C200002AB002006460F4602460B465046594658
:103C300001F086F902460B464046494600F0CCFFAB
:103C4000DDE90623804689463046394600F0C4FF48
:103C500002460B46DDE90A0100F0BEFF52465B4614
:103C600001F06EF902460B464046494600F0B4FFAB
:103C7000DDE9102301F064F9DDE90467CDE906010F
:103C800032463B463046394601F05AF978A3D3E92B
:103C9000002306460F4601F053F977A3D3E900232A
:103CA00000F09CFF32463B4601F04AF974A3D3E989
:103CB000002300F093FF32463B4601F041F972A326
:103CC000D3E9002300F08AFF32463B4601F038F981
:103CD0006FA3D3E9002300F081FF32463B4601F099
:103CE0002FF96DA3D3E9002300F078FF3246804618
:103CF00089463B463046394601F022F902460B46DA
:103D00004046494601F01CF9524606460F465B46BE
:103D1000DDE9040100F062FFDDE9062301F010F99E
:103D200032463B4600F05AFF5246804689465B4683
:103D30005046594601F004F90022634BCDE90A01CF
:103D400000F04CFF42464B4600F048FF02980F46F9
:103D5000064632463B465046594601F0F1F80022ED
:103D600082468B46584B3046394600F035FFDDE938
:103D70000A2300F031FF02460B464046494600F058
:103D80002BFFDDE9042301F0DBF83246804689464B
:103D90003B46DDE9060101F0D3F802460B464046FA
:103DA000494600F01BFF8046894602460B465046B6
:103DB0005946CDE904AB00F011FFDDE902AB38A3B1
:103DC000D3E9002350460F4601F0BAF8DDE9042399
:103DD000CDE902013946504600F0FEFE02460B4690
:103DE0004046494600F0F8FE2FA3D3E9002301F036
:103DF000A7F82FA3D3E900238046894650463946C9
:103E000001F09EF802460B464046494600F0E6FEA9
:103E1000DDE90E2300F0E2FE80460D98894601F0B0
:103E200029F8424606460F464B46DDE9020100F0FE
:103E3000D5FEDDE9082300F0D1FE32463B4600F016
:103E4000CDFE32463B4650468B4600F0C5FEDDE9CE
:103E5000082300F0C1FEDDE9022300F0BDFE0246AA
:103E60000B464046494600F0B7FE80462EE000BFB4
:103E7000EF4E454A287ECA3F65DBC9934A86CD3F4F
:103E800001411DA96074D13F4D268F515555D53F35
:103E9000FFAB6FDBB66DDB3F033333333333E33FCD
:103EA000000000E009C7EE3FFD033ADC09C7EE3F22
:103EB000F5015B14E02F3EBE000040438E980300E6
:103EC00079B60B000000F03F000008408946013C35
:103ED00054EA0503DDE9000114BFD54CD54C00239D
:103EE000CDE9043403460C46CDE9023400230293A5
:103EF000DDE9024522462B4600F06EFE52465B4647
:103F000001F01EF8DDE9002306460F46404649460B
:103F100001F016F802460B463046394600F05EFEC8
:103F2000224606460F462B4650465946CDE90067C5
:103F300001F006F80B46024680468946304639466F
:103F400000F04CFEBC4B994206460D460C4640F331
:103F50000E8101F13F4303F5E003034340F0EF819D
:103F60009FA3D3E90023DDE9000100F037FE4246BC
:103F700082468B464B463046294600F02DFE0246CF
:103F80000B465046594601F06BFA002840F0D781A5
:103F90002F463B154FF48012A3F2FE3342FA03F38F
:103FA0002344C3F30A52A54EA2F2FF321641C3F3D3
:103FB000130B0020C2F1140523EA06014BF4801B09
:103FC00002460B46002C4BFA05FB40464946B8BF5B
:103FD000CBF1000B00F000FE02460B4680468946FE
:103FE000DDE9000100F0FAFD4FEA0B5A00247EA340
:103FF000D3E9002320460D4600F0A2FF42460646C4
:104000000F464B462046294600F0E6FD02460B4689
:10401000DDE9000100F0E0FD75A3D3E9002300F025
:104020008FFF75A3D3E900238046894620462946A1
:1040300000F086FF02460B464046494600F0CEFDA2
:104040008046894602460B463046394600F0C6FD9A
:1040500032463B4604460D4600F0BEFD02460B4686
:104060004046494600F0B8FD2246804689462B4628
:104070002046294600F064FF61A3D3E900230646E9
:104080000F4600F05DFF60A3D3E9002300F0A4FD1C
:1040900032463B4600F054FF5DA3D3E9002300F015
:1040A0009DFD32463B4600F04BFF5BA3D3E9002366
:1040B00000F092FD32463B4600F042FF58A3D3E9A0
:1040C000002300F08BFD32463B4600F039FF0246EC
:1040D0000B462046294600F07FFD06460F46024665
:1040E0000B462046294600F02BFF0022CDE90001B7
:1040F0004FF080433046394600F06EFD02460B46D5
:10410000DDE9000101F046F8424606460F464B46FF
:104110002046294600F014FF42464B4600F05EFD63
:1041200002460B463046394600F056FD22462B46E5
:1041300000F052FD02460B4600203D4900F04CFDC8
:104140008A44BAF5801FC0F236815146DDE9042366
:1041500000F0F6FE83461FE4F34635491CE44A4668
:1041600048463B46394600F0EBFE834614E4344BA8
:1041700021F000479F4240F30081324B0B44034340
:104180000CD142464B4600F027FD02460B46DDE9C6
:10419000000101F051F900283FF4FBAE22A3D3E95E
:1041A0000023DDE9040100F0CBFE1FA3D3E90023C7
:1041B00000F0C6FE8346FFF7EFBBBAF1000FBFF673
:1041C000B5ACDDE900349B4604F10041FFF7E4BBE8
:1041D00002460B460020164900F0DCFF48E400BF11
:1041E000FE822B654715973C00000000432EE63FFA
:1041F000EF39FAFE422EE63F396CA80C615C20BE16
:10420000D0A4BE726937663EF16BD2C541BDBB3EDC
:104210002CDE25AF6A56113F93BDBE166CC1663FBA
:104220003E5555555555C53F59F3F8C21F6EA5016A
:104230000000F03F0000F0BFFFFF8F40FFFF0F00C6
:10424000FFCB904000346F3F6F4B9E427FF76BACCB
:104250006E4B9E423FF7F6AB00226C4B00F0BCFC6D
:104260005BA3D3E9002306460F4600F069FE5AA37C
:10427000D3E90023804689463046394600F060FE87
:10428000002282468B46624B3046394600F058FE8B
:1042900002460B4652A1D1E9000100F09DFC3246D6
:1042A0003B4600F04DFE02460B460020594900F007
:1042B00093FC3246CDE902013B463046394600F0D8
:1042C0003FFE02460B46DDE9020100F039FE46A33F
:1042D000D3E9002300F034FE02460B46504659460F
:1042E00000F07AFC02460B4606460F464046494619
:1042F00000F074FC42464B46002082468B4600F09C
:104300006BFC02460B463046394600F065FC8046A1
:104310008946DCE500220023CDE90823CDE90E2300
:104320003A4B00220027CDE9062346E44A463B46A5
:104330000020364900F02EFF8346FFF72DBB2CA34B
:10434000D3E90023DDE9040100F0FAFD28A3D3E955
:10435000002300F0F5FD8346FFF71EBBBEF1000F02
:104360007FF457ABC3F1140348FA03F202FA03F3E4
:10437000984524D07446FFF729BB264B9F423FF750
:1043800008AEDDE902349A469B462FE602460B460C
:10439000FFF7C1BB18A3D3E90023CDE9082318A375
:1043A000D3E90023CDE90E231B4B00224FF48027D5
:1043B000CDE9062301E45A4600F08EF9C6E602F084
:1043C0000102C2F10204FFF701BB00BFAFF300809E
:1043D000000000604715F73F44DF5DF80BAE543E28
:1043E000555555555555D53FFE822B654715F73F19
:1043F0009C7500883CE4377E0000004003B8E23F33
:1044000006D0CF43EBFD4C3EFEFFEF3F0000F03FF8
:104410000000D03F0000E03F0000F83F2DE9F843E6
:104420005D4EB6460E4076450C46054600F095803A
:1044300000290B46024673DD0F157ED0A7F2FF3729
:10444000C3F31303F80743F4801364D403EBD2716E
:1044500000260B447F105200B64616204FF4001180
:104460000EEB01049C424FEAD2754FEA420203DC94
:104470001B1B04EB010E0E44013805EB43034FEA0E
:104480005101EDD1844620244FF0004109E020D0B5
:1044900003EBD275013C4FEA51012B444FEA420233
:1044A00020D09E4501EB0C05F1DA002D05EB010C47
:1044B00009DBF0469542CEEB030300D9013B521BCA
:1044C0000844C646E4E7BCF1000FF2DB0EF1010838
:1044D000F0E7954217D8002D05EB010C47DB984615
:1044E0000023ECE7134310D14008731003F17F530E
:1044F00003F50013F20703EB075948BF40F00040F3
:104500004946BDE8F8837346C2E7411C33D000F04A
:1045100001031844E8E75B0003EBD273520095E710
:1045200021F000460643ECD069BB0F46D30A153F85
:104530005205002BFAD0DD0220D4002100E0014614
:104540005B00DC0201F10100F9D5C0F1200422FA80
:1045500004F423437F1A824070E702460B4600F0C2
:10456000EFFC2A46234600F039FBBDE8F883BCF196
:10457000000FABDAB3E701362046B6E720244FF050
:10458000FF310020E3E702460B4600F025FB024620
:104590000B4600F0FFFDB4E70000F07F21F0004182
:1045A000704700BF41F0004101F58010C00F704717
:1045B0000020704700200149704700BF0000F87FCD
:1045C000F0B5C1F30A5EAEF2FF36132E83B0024699
:1045D0000B460C464FEAD17507462EDC002E49DB10
:1045E0003B49314103EA010010432BD049080B40FD
:1045F00053EA02070CD04FF48023132E24EA010162
:1046000043FA06F444EA01040CBF4FF000470027C8
:10461000304B03EBC5052146D5E900453846224617
:104620002B4600F0DBFACDE9000122462B46DDE9FE
:10463000000100F0D1FA03B0F0BD332E06DDB6F56F
:10464000806F42D01046194603B0F0BDAEF2134E53
:104650004FF0FF3121FA0EF10842F3D04908084229
:10466000D6D04FF0804320EA010143FA0EFE4EEA15
:104670000107CDE721F000410143E3D0C3F313016B
:10468000144E41EA000CCCF1000106EBC506D6E958
:10469000006741EA0C0C5C0C4FEA1C3C0CF4002C4B
:1046A00064044CEA040132463B4600F097FACDE937
:1046B00000013B463246DDE9000100F08DFA21F0B1
:1046C000004444EAC5731946BEE700F087FABBE729
:1046D000FFFF0F0038A40000F8B5C1F30A560446E6
:1046E0000D460B46174606BB21F00043034325D079
:1046F0000022354B00F024FC344A974204460D4614
:104700000B462ADBC1F30A56363E3E4440F2FE72A7
:10471000964228DC002E12DD23F0FF4323F4E00351
:1047200043EA065520462946F8BD40F2FF729642FC
:10473000EBD102460B4600F051FAF8BDF8BD16F178
:10474000350F1DDA4CF250339F4222462B4625DCB2
:1047500019A1D1E9000100F033FA17A3D3E900232E
:1047600000F0EEFBF8BD22462B4615A1D1E9000171
:1047700000F026FA12A3D3E9002300F0E1FBF8BD14
:1047800023F0FF4323F4E003363643EA0655204680
:10479000294600220E4B00F0D3FBF8BD08A1D1E959
:1047A000000100F00DFA06A3D3E9002300F0C8FBD6
:1047B000F8BD00BFAFF3008059F3F8C21F6EA5012A
:1047C0009C7500883CE4377E00005043B03CFFFFFE
:1047D0000000903CFFFFFFFF2DE9F04FB1F5801F77
:1047E00085B006460F460B465ADA024621F00044D1
:1047F000224300F0F8800029C0F27A810022D64BD3
:1048000000F09EFB0B460F46D4498B4206466FF0E4
:1048100035024ADCC3F3130505F5152404F6647468
:1048200004F4801E8EF07F5181F440111B15A3F219
:10483000FF3341EA05079C1830460022C84B394631
:1048400004EB1E5400F0C8F9AB1CC3F31303022B96
:1048500082468B464FF0000230DC002300F0D8FD8A
:10486000002800F0C980002C00F04B81204600F0A9
:1048700001FBA5A3D3E9002306460F4600F060FB29
:10488000A3A3D3E9002304460D463046394600F081
:1048900057FB02460B462046294600F09FF90AE0E6
:1048A000AE498B424FF00002B4DD32463B46304603
:1048B000394600F093F905B0BDE8F08F4FF0804322
:1048C00000F08CF902460B465046594600F062FC57
:1048D000064620460F4600F0CDFA3246CDE90001EB
:1048E0003B4630463946CDE9026700F029FB0246D7
:1048F0000B468046894600F023FB87A3D3E90023BB
:1049000006460F4600F01CFB85A3D3E9002300F008
:1049100065F932463B4600F013FB83A3D3E900233D
:1049200000F05CF932463B4600F00AFB80A3D3E975
:10493000002300F053F942464B4600F001FB7EA3F2
:10494000D3E90023804689463046394600F0F8FA1C
:104950007BA3D3E9002300F041F932463B4600F047
:10496000EFFA79A3D3E9002300F038F932463B4649
:1049700000F0E6FA0B4602464946404600F02EF9A2
:10498000A5F5C223C5F5D725A3F27A4351351D43BA
:10499000002D8046894656DD0022724B504659460E
:1049A00000F0CEFA52465B4600F0CAFA06460F46C1
:1049B000002C68D132463B464046494600F00EF98D
:1049C000DDE9022300F0BCFA02460B4630463946C8
:1049D00000F002F902460B465046594600F0FCF83A
:1049E00005B0BDE8F08F0022002300205E4900F0F2
:1049F000D1FB05B0BDE8F08F55A3D3E900235046A5
:104A0000594600F09DFA02460B460020554900F039
:104A1000E3F8524606460F465B465046594600F0BC
:104A20008FFA02460B463046394600F089FA0646B0
:104A30000F46002C40F09A8002460B4650465946DD
:104A400000F0CAF837E7002C00F0A4802EA3D3E9C9
:104A50000023DDE9000100F073FA42464B460446AC
:104A60000D465046594600F0B7F8DDE9022300F044
:104A700067FA27A3D3E9002306460F46DDE90001C4
:104A800000F05EFA21E020A3D3E90023DDE9000174
:104A900000F056FA32463B4604460D46404649462B
:104AA00000F09CF8DDE9022300F04AFA18A3D3E9EC
:104AB000002380468946DDE9000100F041FA024604
:104AC0000B464046494600F089F802460B46304600
:104AD000394600F081F852465B4600F07DF8024608
:104AE0000B462046294600F077F805B0BDE8F08F68
:104AF00002460B4600F070F80022002300F04AFB4B
:104B0000D9E600200021D6E60000E0FE422EE63F76
:104B1000763C7935EF39EA3D44523EDF12F1C23F2F
:104B2000DE03CB966446C73F599322942449D23F73
:104B3000935555555555E53F9FC678D0099AC33FC3
:104B4000AF788E1DC571CC3F04FA97999999D93FDA
:104B5000555555555555D53F00005043FFFFEF7F44
:104B60000000F03F0000E03F000050C3204600F08E
:104B700081F90FA3D3E900238046894600F0E0F9CC
:104B80000DA3D3E9002304460D464046494600F0F4
:104B9000D7F99AE702460B465046594600F01CF8F2
:104BA000DDE9022300F0CCF914E700BFAFF3008089
:104BB0000000E0FE422EE63F763C7935EF39EA3DD3
:104BC00003F0004321F0004242EA0301704700BFB6
:104BD00081F0004102E000BF83F0004330B54FEAAE
:104BE00041044FEA430594EA050F08BF90EA020F1B
:104BF0001FBF54EA000C55EA020C7FEA645C7FEAAE
:104C0000655C00F0E2804FEA5454D4EB5555B8BFD0
:104C10006D420CDD2C4480EA020281EA030382EA41
:104C2000000083EA010180EA020281EA0303362DD3
:104C300088BF30BD11F0004F4FEA01314FF4801CA6
:104C40004CEA113102D0404261EB410113F0004FB8
:104C50004FEA03334CEA133302D0524263EB43036F
:104C600094EA050F00F0A780A4F10104D5F1200E0D
:104C70000DDB02FA0EFC22FA05F2801841F1000168
:104C800003FA0EF2801843FA05F359410EE0A5F13C
:104C900020050EF1200E012A03FA0EFC28BF4CF06D
:104CA000020C43FA05F3C01851EBE37101F0004523
:104CB00007D54FF0000EDCF1000C7EEB00006EEB30
:104CC0000101B1F5801F1BD3B1F5001F0CD34908BA
:104CD0005FEA30004FEA3C0C04F101044FEA445211
:104CE00012F5800F80F09A80BCF1004F08BF5FEA98
:104CF000500C50F1000041EB045141EA050130BD78
:104D00005FEA4C0C404141EB010111F4801FA4F11A
:104D10000104E9D191F0000F04BF01460020B1FA6F
:104D200081F308BF2033A3F10B03B3F120020CDAA7
:104D30000C3208DD02F1140CC2F10C0201FA0CF085
:104D400021FA02F10CE002F11402D8BFC2F1200CEA
:104D500001FA02F120FA0CFCDCBF41EA0C019040A0
:104D6000E41AA2BF01EB0451294330BD6FEA0404E9
:104D70001F3C1CDA0C340EDC04F11404C4F12002D4
:104D800020FA04F001FA02F340EA030021FA04F3E6
:104D900045EA030130BDC4F10C04C4F1200220FA3D
:104DA00002F001FA04F340EA0300294630BD21FA7B
:104DB00004F0294630BD94F0000F83F4801306BF41
:104DC00081F480110134013D4EE77FEA645C18BF35
:104DD0007FEA655C29D094EA050F08BF90EA020FCC
:104DE00005D054EA000C04BF1946104630BD91EAC4
:104DF000030F1EBF0021002030BD5FEA545C05D1C7
:104E00004000494128BF41F0004130BD14F5800405
:104E10003CBF01F5801130BD01F0004545F0FE4179
:104E200041F470014FF0000030BD7FEA645C1ABFAE
:104E3000194610467FEA655C1CBF0B46024650EAE5
:104E4000013406BF52EA033591EA030F41F4002111
:104E500030BD00BF90F0000F04BF0021704730B597
:104E60004FF4806404F132044FF000054FF000016C
:104E700050E700BF90F0000F04BF0021704730B52D
:104E80004FF4806404F1320410F0004548BF404202
:104E90004FF000013EE700BF42004FEAE2014FEA57
:104EA00031014FEA02701FBF12F07F4393F07F4F32
:104EB00081F06051704792F0000F14BF93F07F4F64
:104EC000704730B54FF4607401F0004521F00041A7
:104ED00020E700BF50EA010208BF704730B54FF02D
:104EE00000050AE050EA010208BF704730B511F032
:104EF000004502D5404261EB41014FF4806404F16A
:104F000032045FEA915C3FF4DCAE4FF003025FEAEB
:104F1000DC0C18BF03325FEADC0C18BF033202EB73
:104F2000DC02C2F1200300FA03FC20FA02F001FACD
:104F300003FE40EA0E0021FA02F11444C1E600BF6C
:104F400070B54FF0FF0C4CF4E06C1CEA11541DBF1F
:104F50001CEA135594EA0C0F95EA0C0F00F0DEF8EA
:104F60002C4481EA030621EA4C5123EA4C5350EACF
:104F7000013518BF52EA033541F4801143F4801320
:104F800038D0A0FB02CE4FF00005E1FB02E506F0B1
:104F90000042E0FB03E54FF00006E1FB03569CF006
:104FA000000F18BF4EF0010EA4F1FF04B6F5007F0C
:104FB00064F5407404D25FEA4E0E6D4146EB06067E
:104FC00042EAC62141EA55514FEAC52040EA5E5007
:104FD0004FEACE2EB4F1FD0C88BFBCF5E06F1ED8B1
:104FE000BEF1004F08BF5FEA500E50F1000041EBE8
:104FF000045170BD06F0004646EA010140EA020095
:1050000081EA0301B4EB5C04C2BFD4EB0C0541EAB6
:10501000045170BD41F480114FF0000E013C00F3CB
:10502000AB8014F1360FDEBF002001F0004170BDEF
:10503000C4F10004203C35DA0C341BDC04F1140408
:10504000C4F1200500FA05F320FA04F001FA05F294
:1050500040EA020001F0004221F0004110EBD37061
:1050600021FA04F642EB06015EEA430E08BF20EA8D
:10507000D37070BDC4F10C04C4F1200500FA04F330
:1050800020FA05F001FA04F240EA020001F00041C2
:1050900010EBD37041F100015EEA430E08BF20EA35
:1050A000D37070BDC4F1200500FA05F24EEA020E7D
:1050B00020FA04F301FA05F243EA020321FA04F0AC
:1050C00001F0004121FA04F220EA020000EBD37063
:1050D0005EEA430E08BF20EAD37070BD94F0000F63
:1050E0000FD101F00046400041EB010111F4801F97
:1050F00008BF013CF7D041EA060195F0000F18BF48
:10510000704703F00046520043EB030313F4801F83
:1051100008BF013DF7D043EA0603704794EA0C0F3D
:105120000CEA135518BF95EA0C0F0CD050EA410653
:1051300018BF52EA4306D1D181EA030101F00041D0
:105140004FF0000070BD50EA410606BF10461946F8
:1051500052EA430619D094EA0C0F02D150EA013604
:1051600013D195EA0C0F05D152EA03361CBF104645
:1051700019460AD181EA030101F0004141F0FE41E4
:1051800041F470014FF0000070BD41F0FE4141F468
:10519000780170BD70B54FF0FF0C4CF4E06C1CEA68
:1051A00011541DBF1CEA135594EA0C0F95EA0C0F1D
:1051B00000F0A7F8A4EB050481EA030E52EA0335D8
:1051C0004FEA013100F088804FEA03334FF08055F9
:1051D00045EA131343EA12634FEA022245EA111526
:1051E00045EA10654FEA00260EF000419D4208BFD7
:1051F000964244F1FD0404F5407402D25B084FEA84
:105200003202B61A65EB03055B084FEA32024FF42F
:1052100080104FF4002CB6EB020E75EB030E22BF8C
:10522000B61A754640EA0C005B084FEA3202B6EB4C
:10523000020E75EB030E22BFB61A754640EA5C00FB
:105240005B084FEA3202B6EB020E75EB030E22BF8B
:10525000B61A754640EA9C005B084FEA3202B6EB8C
:10526000020E75EB030E22BFB61A754640EADC004B
:1052700055EA060E18D04FEA051545EA16754FEAAD
:1052800006164FEAC30343EA52734FEAC2025FEACB
:105290001C1CC0D111F4801F0BD141EA00014FF05A
:1052A00000004FF0004CB6E711F4801F04BF01432B
:1052B0000020B4F1FD0C88BFBCF5E06F3FF6AFAE47
:1052C000B5EB030C04BFB6EB020C5FEA500C50F1D7
:1052D000000041EB045170BD0EF0004E4EEA11315A
:1052E00014EB5C04C2BFD4EB0C0541EA045170BD61
:1052F00041F480114FF0000E013C90E645EA060EA5
:105300008DE60CEA135594EA0C0F08BF95EA0C0FD2
:105310003FF43BAF94EA0C0F0AD150EA01347FF41A
:1053200034AF95EA0C0F7FF425AF104619462CE7F1
:1053300095EA0C0F06D152EA03353FF4FDAE104654
:10534000194622E750EA410618BF52EA43067FF4A5
:10535000C5AE50EA41047FF40DAF52EA43057FF435
:10536000EBAE12E74FF0FF3C06E000BF4FF0010C40
:1053700002E000BF4FF0010C4DF804CD4FEA410CA4
:105380007FEA6C5C4FEA430C18BF7FEA6C5C1BD071
:1053900001B050EA410C0CBF52EA430C91EA030FF2
:1053A00002BF90EA020F0020704710F1000F91EA4F
:1053B000030F58BF994208BF90422CBFD8176FEA1D
:1053C000E37040F0010070474FEA410C7FEA6C5CEB
:1053D00002D150EA013C07D14FEA430C7FEA6C5CF2
:1053E000D6D152EA033CD3D05DF8040B704700BF1E
:1053F0008446104662468C461946634600E000BF6C
:1054000001B5FFF7B7FF002848BF10F1000F01BD3D
:105410004DF808EDFFF7F4FF0CBF012000205DF808
:1054200008FB00BF4DF808EDFFF7EAFF34BF01208D
:1054300000205DF808FB00BF4DF808EDFFF7E0FF26
:1054400094BF012000205DF808FB00BF4DF808ED77
:10545000FFF7CEFF94BF012000205DF808FB00BFDE
:105460004DF808EDFFF7C4FF34BF012000205DF8C0
:1054700008FB00BF4FEA410C7FEA6C5C02D150EAA6
:10548000013C0AD14FEA430C7FEA6C5C02D152EA3C
:10549000033C02D14FF0000070474FF0010070470D
:1054A0004A0011D212F5001211D20DD56FF47873A3
:1054B000B3EB62520ED44FEAC12343F0004343EAF8
:1054C000505323FA02F070474FF00000704750EA43
:1054D000013002D14FF0FF3070474FF000007047AD
:1054E0004FEA4102B2F1E04324BFB3F5001CDCF106
:1054F000FE5C0DD901F0004C4FEAC0024CEA50703E
:10550000B2F1004F40EB830008BF20F0010070476C
:1055100011F0804F21D113F13872BCBF01F000406F
:10552000704741F480114FEA5252C2F11802C2F1A1
:10553000200C10FA0CF320FA02F018BF40F0010022
:105540004FEAC1234FEAD32303FA0CFC40EA0C00D4
:1055500023FA02F34FEA4303CCE77FEA625307D111
:1055600050EA01331EBF4FF0FE4040F44000704748
:1055700001F0004040F0FE4040F40000704700BFE2
:1055800080F0004002E000BF81F0004142001FBFF8
:105590005FEA410392EA030F7FEA226C7FEA236C01
:1055A0006AD04FEA1262D2EB1363C1BFD2184140F6
:1055B00048404140B8BF5B42192B88BF704710F08C
:1055C000004F40F4000020F07F4018BF404211F02F
:1055D000004F41F4000121F07F4118BF494292EA97
:1055E000030F3FD0A2F1010241FA03FC10EB0C00C3
:1055F000C3F1200301FA03F100F0004302D5494250
:1056000060EB4000B0F5000F13D3B0F1807F06D3FC
:1056100040084FEA310102F10102FE2A51D2B1F1F4
:10562000004F40EBC25008BF20F0010040EA0300E9
:105630007047490040EB000010F4000FA2F1010296
:10564000EDD1B0FA80FCACF1080CB2EB0C0200FA20
:105650000CF0AABF00EBC25052421843BCBFD0406E
:105660001843704792F0000F81F4000106BF80F4E8
:1056700000000132013BB5E74FEA41037FEA226CAB
:1056800018BF7FEA236C21D092EA030F04D092F076
:10569000000F08BF0846704790EA010F1CBF0020AA
:1056A000704712F07F4F04D1400028BF40F0004007
:1056B000704712F100723CBF00F50000704700F027
:1056C000004343F0FE4040F4000070477FEA22624E
:1056D00016BF08467FEA23630146420206BF5FEA1F
:1056E000412390EA010F40F4800070474FF000031F
:1056F00004E000BF10F0004348BF40425FEA000CE6
:1057000008BF704743F0964301464FF000001CE08D
:1057100050EA010208BF70474FF000030AE000BFE3
:1057200050EA010208BF704711F0004302D5404221
:1057300061EB41015FEA010C02BF84460146002093
:1057400043F0B64308BFA3F18053A3F50003BCFAAE
:105750008CF2083AA3EBC25310DB01FA02FC63445B
:1057600000FA02FCC2F12002BCF1004F20FA02F262
:1057700043EB020008BF20F00100704702F1200255
:1057800001FA02FCC2F1200250EA4C0021FA02F2B6
:1057900043EB020008BF20EADC7070474FF0FF0CBB
:1057A0001CEAD0521EBF1CEAD15392EA0C0F93EAB6
:1057B0000C0F6FD01A4480EA010C400218BF5FEA58
:1057C00041211ED04FF0006343EA501043EA5111CB
:1057D000A0FB01310CF00040B1F5000F3EBF4900C5
:1057E00041EAD3715B0040EA010062F17F02FD2AC9
:1057F0001DD8B3F1004F40EBC25008BF20F00100AC
:10580000704790F0000F0CF0004C08BF49024CEAC2
:10581000502040EA51207F3AC2BFD2F1FF0340EA54
:10582000C250704740F400004FF00003013A5DDCC5
:1058300012F1190FDCBF00F000407047C2F1000206
:10584000410021FA02F1C2F1200200FA02FC5FEAF3
:10585000310040F1000053EA4C0308BF20EADC703D
:10586000704792F0000F00F0004C02BF400010F4AF
:10587000000F013AF9D040EA0C0093F0000F01F05C
:10588000004C02BF490011F4000F013BF9D041EA7E
:105890000C018FE70CEAD15392EA0C0F18BF93EA80
:1058A0000C0F0AD030F0004C18BF31F0004CD8D1AA
:1058B00080EA010000F00040704790F0000F17BF31
:1058C00090F0004F084691F0000F91F0004F14D077
:1058D00092EA0C0F01D142020FD193EA0C0F03D1CF
:1058E0004B0218BF084608D180EA010000F00040D2
:1058F00040F0FE4040F40000704740F0FE4040F4AD
:10590000400070474FF0FF0C1CEAD0521EBF1CEA4B
:10591000D15392EA0C0F93EA0C0F69D0A2EB030269
:1059200080EA010C49024FEA402037D04FF0805303
:1059300043EA111143EA10130CF000408B4238BFC8
:105940005B0042F17D024FF4000C8B4224BF5B1AD6
:1059500040EA0C00B3EB510F24BFA3EB510340EA24
:105960005C00B3EB910F24BFA3EB910340EA9C00D2
:10597000B3EBD10F24BFA3EBD10340EADC001B0142
:1059800018BF5FEA1C1CE0D1FD2A3FF650AF8B42E6
:1059900040EBC25008BF20F0010070470CF0004CF3
:1059A0004CEA50207F32C2BFD2F1FF0340EAC2501E
:1059B000704740F400004FF00003013A37E792F0DF
:1059C000000F00F0004C02BF400010F4000F013A3D
:1059D000F9D040EA0C0093F0000F01F0004C02BF38
:1059E000490011F4000F013BF9D041EA0C0195E7A1
:1059F0000CEAD15392EA0C0F08D142027FF47DAF3A
:105A000093EA0C0F7FF470AF084676E793EA0C0F29
:105A100004D14B023FF44CAF08466EE730F0004C27
:105A200018BF31F0004CCAD130F000427FF45CAFB7
:105A300031F000437FF43CAF5FE700BF4FF0FF3C25
:105A400006E000BF4FF0010C02E000BF4FF0010C78
:105A50004DF804CD4FEA40024FEA41037FEA226C41
:105A600018BF7FEA236C11D001B052EA530C18BF63
:105A700090EA010F58BFB2EB030088BFC81738BFC8
:105A80006FEAE17018BF40F0010070477FEA226CB6
:105A900002D15FEA402C05D17FEA236CE4D15FEAB2
:105AA000412CE1D05DF8040B704700BF84460846E6
:105AB0006146FFE70FB5FFF7C9FF002848BF10F1A7
:105AC000000F0FBD4DF808EDFFF7F4FF0CBF0120EC
:105AD00000205DF808FB00BF4DF808EDFFF7EAFF76
